:020000040800F2
:10000000604B002061020008D1340008E92D00088F
:100010008134000835100008F93D00080000000098
:10002000000000000000000000000000A101000826
:100030006511000800000000FD0100088D36000871
:100040007B0200087B0200087B0200087B0200089C
:100050007B0200087B0200087B0200087B0200088C
:100060007B0200087B0200087B0200087B0200087C
:100070007B0200087B0200087B0200087B0200086C
:100080007B0200087B0200087B0200087B0200085C
:100090007B0200087B0200087B0200087B0200084C
:1000A0007B0200087B0200087B0200087B0200083C
:1000B0007B0200087B0200087B0200087B0200082C
:1000C0007B0200087B0200087B0200087B0200081C
:1000D0007B020008853D00087B0200087B020008C7
:1000E0007B0200087B0200087B0200087B020008FC
:1000F0007B0200087B0200087B0200087B020008EC
:100100007B0200087B0200087B0200087B020008DB
:100110007B0200087B020008B13700087B02000860
:100120007B0200087B0200087B0200087B020008BB
:100130007B0200087B0200087B0200087B020008AB
:100140007B0200087B0200087B0200087B0200089B
:100150007B0200087B0200087B0200087B0200088B
:100160007B0200087B0200087B0200087B0200087B
:100170007B0200087B0200087B02000800000000F0
:100180007B0200087B020008DFF810D000F09CFC26
:10019000004800478D570008AFF30080604B0020F7
:1001A0002C4B19680868B0E8F04F80F30988BFF35A
:1001B0006F8F4FF0000080F311887047000000003F
:1001C00008480068006880F308884FF0000080F35A
:1001D000148862B661B6BFF34F8FBFF36F8F00DF35
:1001E00000BF00BF08ED00E0DFF80C00016841F43B
:1001F00070010160704700BF88ED00E0EFF30980F7
:10020000BFF36F8F134B1A681EF0100F08BF20ED5D
:10021000108A20E9F04F106009B44FF0500080F3CD
:100220001188BFF34F8FBFF36F8F06F0BBF84FF00D
:10023000000080F3118809BC19680868B0E8F04F25
:100240001EF0100F08BFB0EC108A80F30988BFF3CE
:100250006F8F704720000020EFF30580704700008B
:100260000648804706480047FEE7FEE7FEE7FEE750
:10027000FEE7FEE7FEE7FEE7FEE7FEE74D37000894
:10028000890100082DE9F05F0546002092469B4653
:1002900088460646814640241BE02846414647469C
:1002A000224600F098FA53465A46C01A914110D39C
:1002B00011461846224600F07FFA2D1A67EB010816
:1002C0004F4622460120002100F076FA17EB000984
:1002D0004E41201EA4F10104DFDC484631462A4687
:1002E0004346BDE8F09F40EA01039B0703D009E0C5
:1002F00008C9121F08C0042AFAD203E011F8013B12
:1003000000F8013B521EF9D27047D2B201E000F86A
:10031000012B491EFBD270470022F6E710B51346A9
:100320000A4604461946FFF7F0FF204610BD30B5D7
:1003300005462A460B4612F8010B13F8014B08B18B
:10034000A042F8D01CB1002802D06D1CF1E728466D
:1003500030BD421C10F8011B0029FBD1801A7047E8
:1003600010B5002200E0521C835C8C5CA34201D1DA
:10037000002BF8D1D8B2E1B2401A10BD30B5054615
:100380000020034600E05B1C934205D2EC5CC85C95
:10039000201A01D1002CF6D130BD000070B50F4DF0
:1003A00000B92868002412E00A4602E09E4203D009
:1003B000521C1378002BF9D1DAB2224305D02BB1AD
:1003C00024B1002100F8011B04E00446401C06781B
:1003D000002EE9D12860204670BD00000C010020ED
:1003E0002DE9FE4F804681EA0300C00F0C460090C5
:1003F00021F0004123F00045B8EB0200A94105D2ED
:100400004046214690461C460B46024623F00040DB
:10041000104347D0270DC7F30A00C3F30A510290D7
:10042000401A019040286BDAC3F3130040F4801B9C
:100430000098924620B10023D2EB030A63EB0B0B2A
:1004400001985946C0F14002504600F0B5F9064601
:100450000D4650465946019A00F0CDF910EB0800C0
:100460006141002487EA115284EAE7731A4340D0BD
:10047000009A62B3019A012A4FEA075215DC001B69
:1004800061EB02014FF0004202EA0752CDE900425F
:10049000001C41F5801132462B4600F053FA03B0A0
:1004A000BDE8F08F40462146F9E7001B61EB0201F1
:1004B000001C41F5801300185B412018A2F50017BD
:1004C00047EB030140EAD570B6196D4111E06D08A4
:1004D0004FEA360645EAC0754FEA0752001B61EB4A
:1004E0000201001C41F5801149084FEA3000001953
:1004F000514132462B4603B0BDE8F04F00F013BA2D
:100500000098012240000023D0EB020263EBE0736D
:10051000009821464FEAE074B8EB000061EB04015B
:10052000E9E783F000435BE781F0004158E72DE9FC
:10053000FE4F81EA030404F0004421F000410094DE
:100540004FF0000B23F0004350EA01045ED052EA62
:1005500003045BD0C3F30A54C1F30A552C44A4F23C
:10056000F3340194A0FB0254C1F3130141F4801150
:10057000C3F3130343F4801301FB024400FB034E57
:10058000840A970A44EA815447EA8357A4FB076820
:1005900002958D0A05FB07854FEA932C04FB0C544A
:1005A0002705029D4FEA065847EA1637B5EB0805BE
:1005B0006EEB070C870E920E47EA811742EA831210
:1005C000A7FB0201B6EB0B0164EB00042B0D43EA21
:1005D0000C335E1844EB1C50DA465146E7FB02012F
:1005E000C5F313044FEA0B3343EA14534FEA0432C2
:1005F000019C43EA0603A4F10C040294009CCDE99B
:1006000000B400F09FF903B0BDE8F08F0020014670
:10061000F9E72DE9F04D81EA030404F0004B21F0E5
:10062000004514464FF0000A23F0004150EA05024D
:1006300020D054EA01021DD0C5F30A570246C5F383
:100640001303C1F31300C1F30A5640F4801543F4B9
:100650008013A7EB0608101BD64608F2FD3873EB93
:10066000050002D308F1010801E092185B41B8F1DE
:10067000000F03DA00200146BDE8F08D00204FF4A2
:100680008011064684460EE0171B73EB050705D361
:10069000121B63EB050306434CEA010C49084FEAC1
:1006A000300092185B4150EA0107EDD152EA030095
:1006B00012D082EA040083EA0501084305D0101B2A
:1006C000AB4106D20122002306E000224FF0004396
:1006D00002E06FF0010253101AEB06004CEB0851D8
:1006E00010EB0A0041EB0B01BDE8F04D00F01BB927
:1006F00070B5C1F30A5201F000450024C1F31301A3
:1007000040F2FF3341F480119A4201DA002070BDBB
:1007100040F233439A42A2F2334203DC524200F0E9
:100720005AF800E090402C43F1D0404270BD00F0F8
:10073000004230F000400AD0C10D01F56071C0F3F5
:10074000160042EA0151C2084007114370470020D9
:100750000146704701F0004330B421F0004150EAF7
:10076000010206D00A0DA2F56072C1F31301002A3E
:1007700002DC30BC00207047440F44EAC104C100D1
:10078000E01830BC00EBC25000F096B830B50B4614
:10079000014600202022012409E021FA02F59D42B1
:1007A00005D303FA02F5491B04FA02F52844151E85
:1007B000A2F10102F1DC30BD202A04DB203A00FA6C
:1007C00002F1002070479140C2F1200320FA03F3A8
:1007D000194390407047202A04DB203A21FA02F0A6
:1007E0000021704721FA02F3D040C2F1200291406B
:1007F000084319467047202A06DBCB17203A41FAF6
:1008000002F043EAE07306E041FA02F3D040C2F19D
:100810002002914008431946704700000FB400239E
:1008200000B589B00CA900910B996FF00042CB6024
:100830001E4B06931E4B07930423CDE901321D4A3C
:10084000089202466B46002000F0EAF909B05DF814
:1008500014FB70B586B006464FF0FF300091CDE92D
:100860000101002015460C4604903246694604A852
:10087000FFF7D4FF02460498211825B108B10846B5
:1008800000E020462860049800280DD0002A02DDF0
:100890000098884208D0081B0094CDE90104324634
:1008A000694604A8FFF7BAFF06B070BD590E0008EC
:1008B000770E0008ED0A00080029A8BF7047401C09
:1008C000490008BF20F00100704710B4B0FA80FC66
:1008D00000FA0CF050EA010404BF10BC704749B1A3
:1008E000CCF1200421FA04F411FA0CF118BF012113
:1008F00021430843A3EB0C01CB1D4FEA00614FEAF3
:10090000102042BF002010BC704700EBC3501044C1
:100910000029A4BF10BC7047401C490008BF20F04C
:10092000010010BC704710B5141E73F1000408DA02
:10093000401C41F1000192185B411A4301D120F0A3
:10094000010010BD2DE9F04D92469B4611B1B1FA60
:1009500081F202E0B0FA80F220329046FFF72CFFDD
:1009600004460F4640EA0A0041EA0B0153465A4644
:10097000084313D0114653EA010019D0C8F14002D0
:100980005046FFF728FF05460E4650465946424658
:10099000FFF712FF084305D0012004E02046394646
:1009A000BDE8F08D0020054346EAE0762C4337434E
:1009B0000A986305E40AA0EB08000022FD0A44EA55
:1009C00047540A3002D500200146E9E70105101915
:1009D0006941DDE9084500196941BDE8F04DA2E72C
:1009E0002DE9FE4FC3F30A5701F000450024C1F37F
:1009F0000A56C3F31303C1F3130143F4801312EB3C
:100A0000020AA64641F48011009543EB030CA7F1BE
:100A1000010B16E0B0EB0A0061EB0C01071E71F14F
:100A2000000707DA4FF00008D0EB080085F000451A
:100A300068EB0101171A73EB0107EBD3761E001860
:100A400049415E45F6DA50EA010209D0CDE900E5F8
:100A5000002213460296FFF775FF03B0BDE8F08F42
:100A600020460099F9E7C1F30A52C1F3130140F29D
:100A7000FF3341F480119A4202DA002001467047A8
:100A800040F233439A42A2F2334202DC5242FFF771
:100A9000A2BEFFF791BE000030B5041E71F1000444
:100AA00004DB4FF00044404264EB0101141E73F17B
:100AB000000405DB1C464FF00043524263EB040385
:100AC000994208BF904230BD064C074D06E0E068F1
:100AD00040F0010394E8070098471034AC42F6D385
:100AE000FFF756FBDC770008FC770008C0B24FF434
:100AF000F05100F0D1B900002DE9FF4F087883B024
:100B00009946FF2805D0491C2D2804D00024002038
:100B100008E000200BE00124F9E700EB800003EB84
:100B20004000491C0B78FF2BF7D104B14042002351
:100B30000293147819461D462D2C01D02B2C04D17C
:100B4000521C2D2C13D000240294AA461478FF2C9A
:100B50000FD00A25A3FB057801FB05814FF0000C9F
:100B600003FB0C11521CE3194AEB0101EEE70124CF
:100B7000EAE7814453EA010002D019F5C87F06DA9A
:100B800003980021C0E9001107B0BDE8F08F0025EF
:100B9000AE4E2F46DFF8B882184600F091F9CDE945
:100BA0000001B9F1000002DAC9F1000400E00446D6
:100BB0000023A74A1AEB030B42EB045A12E0E007AA
:100BC00007D02A46334638464146FFF7B0FC074671
:100BD00088462A46334610461946FFF7A8FC0546C4
:100BE0000E466410002CEAD1DDE90001B9F1000FD6
:100BF0005A46534606DAFFF70CFD3A464346FFF7DE
:100C000008FD05E0FFF793FC3A464346FFF78FFCEB
:100C1000029A0AB181F00041039AC2E90001B3E7E8
:100C20002DE9FF4F1F468DB0D7E901464FF0FF3841
:100C30002E2045464FF000090B90B9696D1C0E98A7
:100C40008847396A824688470028F6D1BAF1FF3FC3
:100C50000AD024F4D064002E11DDBAF12B0F08D095
:100C6000BAF12D0F0BD102E0404611B08DE744F4EC
:100C70008064B9696D1C0E9888478246761E694665
:100C8000600501D52D2000E02B208DF8000001F13A
:100C9000010B0DF1200809E0B9696D1C0E98884719
:100CA00082460F9844F40074761E0560002E02DD23
:100CB000BAF1300FF0D00B998A453ED144F0800450
:100CC00006E00F99681CA9F1010944F4007408605A
:100CD000B9696D1C761E0E98884782463028F0D080
:100CE0002BE00B998A4505D1200603D444F08004FB
:100CF000761E18E0504603F065FA08B30DF11301B3
:100D0000761E44F400748B4508D2AAF130000BF82B
:100D1000010B200607D5A9F1010003E0200602D44B
:100D200009F101008146A00502D50F99681C0860F1
:100D3000B9696D1C0E9888478246002ED1DC53E0BD
:100D4000002E51DDBAF1650F02D0BAF1450F4BD13B
:100D5000A00549D5B9696D1C24F44074761E0E981F
:100D600088478246002E0CDD2B2804D0BAF12D0FC7
:100D700007D144F48074B9696D1C0E988847824687
:100D8000761EE00501D52D2100E02B2108F8011B7E
:100D9000CDF82C8021E00DF12901761E44F4007479
:100DA00088450CD2AAF1300010F0FF0088F800004E
:100DB00002D10B99884509D908F1010806E0E00540
:100DC00001D5244801E042F20F708146B9696D1CDB
:100DD0000E98884782460F980560002E04DD504625
:100DE00003F0F0F90028D6D1F9690E988847FF2062
:100DF0008BF8000088F800000020069007904B4612
:100E00006A4608A906A8FFF777FEA00502D46FF08E
:100E100001002AE714F0240F0AD0E00714D1DDE91D
:100E200006123868031D3B600068C0E900120BE041
:100E3000DDE90601FFF78EFC0146E00704D13868C2
:100E4000021D3A600068016028460EE70000144069
:100E50000000F03FF1D8FFFF426842B1016811F88D
:100E6000013B23B1521EC0E9001218467047012110
:100E7000C160881E704742685AB1C368016843B9AF
:100E800083688B4205D0491E521CC0E90012002025
:100E900070474FF0FF3070477F2801D9002208E0EB
:100EA000064A02EB5002C007127800D1120902F084
:100EB0000F0201209040084070470000866E000835
:100EC0000EB540F2334202920022CDE900221346D1
:100ED000FFF738FD03B000BD9FED221A9FED222AD7
:100EE00020EE010AB5EE001A30EE010ABDEEC01A7E
:100EF00011EE100AB5EE400AF1EE10FAB8BF013853
:100F000001EE100AB8EEC11A30EE410A20EE020AD4
:100F1000BDEEC01A9FED152A11EE100A002130EE29
:100F2000021AB1EB502F46F6D8711CBF0020B0EE6C
:100F3000410AC0F6000101EE100A01EB8001B8EE93
:100F4000411A30EE410A91ED001A91ED012AB7EEF7
:100F5000003A33EE403A23EE011A20EE020A31EE57
:100F6000000A704783F9223E00000044000000C4DC
:100F70009FED201A9FED202A20EE010ABDEEC01A37
:100F800011EE100AB5EE400AF1EE10FAB8BF0138C2
:100F900001EE100AB8EEC11A30EE410A20EE020A44
:100FA000BDEEC01A9FED152A11EE100A002130EE99
:100FB000021AB1EB502F46F6D8711CBF0020B0EEDC
:100FC000410AC0F6000101EE100A01EB8001B8EE03
:100FD000411A30EE410A91ED001A91ED012AB7EE67
:100FE000003A33EE403A23EE011A20EE020A31EEC7
:100FF000000A704783F9223E00000044000000C44C
:1010000004A002F0FBFE0A4800F0B0F80A2004F049
:101010000DFCF8E7616E676C6573706565645F74FD
:1010200061736B20737461727465640D0A00000053
:10103000B8410020FEE7000090ED030A90ED171A7A
:10104000F6EE000AF0EE401A41EE201AC0ED001A4A
:10105000FEEE001A90ED042A20EE210ADFED081AB8
:10106000F0EE402A02EE610A42EE212A01EE200A49
:1010700041EE202AC0ED012A80ED020A70470000EF
:10108000D7B35D3F90ED070ADFED070A80ED0A0A4E
:101090009FED061A20EE200AD0ED080A00EE810A24
:1010A00080ED0B0A704700003ACD133F3ACD933FD5
:1010B000074808B540680090014606480269914219
:1010C00002D2C168491CC1600099016108BD0000DD
:1010D000001000E08800002000B50E492DED028BC5
:1010E00081B0496800910168009A511A00EE101A07
:1010F0000949F8EE400A91ED000A0260B8EE400A94
:1011000080EE808AFFF7D4FF01B0B0EE480ABDEC54
:10111000028B00BD001000E0880000200D490A6825
:1011200042F080720A600C4900224A600B6843F06A
:1011300001030B6009494FF47A734843B0FBF3F3A2
:101140000749C1E90003054BB0FBF3F0C1E9020216
:1011500070470000FCED00E0001000E040420F008E
:1011600088000020704772B6FEE7000010B5044604
:101170002DED028B6830FFF7AFFFB0EE408A03F031
:10118000B7FBD4ED160A9FED131A70EE600A9FEDBF
:10119000100A20EE802AC2EE011A94ED122A22EEE5
:1011A000000A80EE012A31EEC21A84ED141A81EE93
:1011B000080AB2EE041A20EE010AB5EE001A20EE7B
:1011C000010A84ED180AC4ED120ABDEC028B10BDB1
:1011D000DB0F49400000344310B504462DED028B6F
:1011E00003F086FBDFED198A9FED198A84ED0E0A64
:1011F00060EE280A80EE881A84ED0F1AD4ED160AE4
:1012000030EE600A10EE100AFFF791FA41EC100B75
:101210009FED101B02F064FE51EC100BFFF79AFAE1
:1012200000EE100A84ED100A20EE280AC0EE080A2B
:10123000C4ED110A94ED0E0AF1EE0C0A20EE200A1C
:1012400084ED150ABDEC028B10BD0000DB0F494098
:101250000000344300000000008076402DE9F0419A
:101260000446876D00F060F9064694F835000025C5
:10127000022806D08020606584F834500120BDE843
:10128000F0812068016821F0160101602068416941
:1012900021F080014161206C08B9A06C20B1206868
:1012A000016821F0080101602068016821F0010156
:1012B00001600CE000F038F9801B052807D92020D8
:1012C0006065032084F8350084F83450D7E720683F
:1012D0000068C007EED194F85C103F208840B860E9
:1012E000012084F8350084F834500020C7E790F8D6
:1012F0003510022903D08021416501207047052166
:1013000080F835100068016821F0010101600020BB
:101310007047000070B5044600F006F90546601CF1
:1013200002D004480078044400F0FEF8401BA042BC
:10133000FAD370BD100000202DE9F84FDFF8BCA1F2
:101340000022012503264FF00F090AF1040BAAF130
:10135000040E00BF0B6805FA02F42340A34270D1CB
:101360000F7907F00307012F01D0022F16D18768EC
:101370004FEA420806FA08FC27EA0C07D1F80CC02D
:101380000CFA08FC4CEA070CC0F808C04768A743F1
:101390000C79C4F3001494403C4344600C79E4435A
:1013A000A4070AD0C4684FEA420C06FA0CF7BC4303
:1013B0008F6807FA0CF72743C7600C7904F0030421
:1013C000022C12D1D40800EB840CDCF82040570723
:1013D000FF0E09FA07F824EA0804D1F8108008FA89
:1013E00007F848EA0408CCF8208004684FEA420C69
:1013F00006FA0CF7BC430F7907F0030707FA0CF75E
:10140000274307604C6814F4403F70D03C4C276879
:1014100047F480472760246822F0030704F48044DF
:101420000094384C07EB040CDCF8084897074FEAA7
:10143000177809FA08F7BC43334FB84202D10027A6
:1014400024E054E0314FB84201D101271EE0304F73
:10145000B84201D1022719E02E4FB84201D103272B
:1014600014E02D4FB84201D104270FE02B4FB842B2
:1014700001D105270AE02A4FB84201D1062705E02D
:10148000284FB84201D1072700E0082707FA08F7DC
:101490002743CCF80878DAF800405746D1F804C062
:1014A0009C435FEACC2C00D51C433C60DBF8004039
:1014B0005F46D1F804C09C435FEA8C2C00D51C43E6
:1014C0003C60DEF800407746D1F804C09C435FEAF8
:1014D0008C3C00D51C433C60084F083F3C68D1F869
:1014E00004C09C435FEACC3C00D51C433C60521CCA
:1014F000102AFFF42FAFBDE8F88F0000083C014030
:101500004438024000300140000002400004024024
:1015100000080240000C024000100240001402408B
:1015200000180240001C024001488068704700001B
:101530001000002070B5040025D094F83D0000256F
:1015400020B984F83C50204600F03EFA242084F86C
:101550003D002068016821F00101016020680168F8
:1015600041F4004101602068016821F400410160FC
:1015700000F0E2FB4D4A6168914201D84C4900E01D
:101580004C49884201D2012070BD4B492368B0FB11
:10159000F1F15E6826F03F060E435E606368934299
:1015A00006D94FF4967359434FF47A73B1FBF3F1B4
:1015B0002368491C1E6A26F03F06314319626168A0
:1015C000914210D84900401EB0FBF1F2521CC2F308
:1015D0000B02042A01D2042022E0B0FBF1F0401CEF
:1015E000C0F30B001CE0A268F2B301EBC10303EBF4
:1015F0000116431EB3FBF6F35B1C43F480431B054B
:1016000049D092B301EBC10202EB0111401EB0FBC5
:10161000F1F0401CC0F30B0040F4804040F4004067
:101620002168CA694CF6FF739A431043C861D4E934
:10163000071001432068026822F0C00211430160D4
:10164000D4E9030101432068826848F2FF339A43DA
:1016500011438160D4E9050108432168CA6822F07A
:10166000FF021043C86001E00EE016E02068016848
:1016700041F0010101602564202084F83D002563CC
:1016800084F83E50002070BD01EB4106431EB3FBC1
:10169000F6F35B1CB3E70120C2E701EB4101401EFA
:1016A000B0FBF1F0401CC0F30B00B7E7A0860100CF
:1016B00080841E0000093D0040420F002DE9F84FD4
:1016C0001F4690468A460446DDF82890FFF72CFF17
:1016D000054694F83D00202875D1192301226C4954
:1016E0002046009501F082FC0028F5D194F83C00DA
:1016F000012868D0012084F83C0020680168C907EF
:1017000003D1016841F0010101602068016821F402
:1017100000610160222084F83D00102084F83E0022
:1017200000262664C4F824806785608D208559488A
:10173000E0622B464A465146204601F06DFB0028E8
:1017400078D1208D544F68B1012814D00228206828
:10175000016816D041F480610160206841698069A8
:10176000009087E02068416981690091016841F437
:10177000007101607EE02068016821F480610160F1
:10178000F0E721F4806101602068016841F40061A4
:10179000E2E7032848D801280AD0022814D04B4693
:1017A000002239462046009501F020FCD8BB27E0F6
:1017B0002A464946204601F098FCA0BB20680069F3
:1017C000616A08704DE061E04B46002239462046D0
:1017D000009501F00BFC30BB2068016841F40071FA
:1017E000016020680069616A0870606A401C60627C
:1017F000218D491E2185618D491E618521682EE05C
:101800002068016821F48061016020680069616AD4
:101810000870606A401C6062208D401E2085608DCB
:10182000401E6085D0E705E02A464946204601F083
:101830005CFC10B10120BDE8F88F20680069616A86
:101840000870606A401C6062218D491E2185618D8F
:10185000491E618521684A69D24352070AD4096941
:101860000170606A401C6062208D401E2085608D82
:10187000401E6085208D00288BD1202084F83D00FB
:1018800084F83E6084F83C600020D4E70220D2E770
:10189000020010000000FFFF040001002DE9F84FD6
:1018A0001F4690468A460446DDF82890FFF73CFE26
:1018B000054694F83D0020287FD119230122404994
:1018C0002046009501F092FB002876D194F83C0068
:1018D000012872D0012084F83C0020680168C90703
:1018E00003D1016841F0010101602068016821F421
:1018F00000610160212084F83D00102084F83E0042
:1019000000262664C4F824806785608D20852D48D4
:10191000E0622B464A465146204601F0F3FA90B960
:10192000206841698069009036E02A464946204691
:1019300001F00EFC50B1206C042804D1206801682D
:1019400041F4007101600120BDE8F88F606A2168F0
:1019500000780861606A401C6062618D491E618583
:10196000218D491E89B2218522685369DB435B07BB
:101970000BD451B100781061606A401C6062608DC8
:10198000401E6085208D401E20852A4649462046FF
:1019900001F006FB0028CED1208D0028C5D154F8D7
:1019A0003D0B016841F400710160202004F81E091C
:1019B000E67766770020C7E7FFE70220C4E700006C
:1019C000020010000000FFFF10B586B0044614218D
:1019D0006846FEF7A1FC13492068884220D11248CE
:1019E0000021026842F002020260006800F002007A
:1019F0000590C02000901220CDE901010320039042
:101A00000420049069460948FFF796FC0648103008
:101A1000016841F400110160006800F400100590B5
:101A200006B010BD005400403038024000040240AF
:101A300002488168027811448160704710000020DC
:101A40000B4810B5016841F400710160016841F470
:101A500080610160016841F480710160032000F041
:101A60009FF80F2000F006F800F050F8002010BD9D
:101A7000003C024030B505461F4887B0002401688D
:101A800041F010010160006806A900F0100000900C
:101A900001A800F031F90498A8B100F04DF9400018
:101AA0001649174AB0FBF1F11648491E026040F290
:101AB000E732C0E90324C0E90114846100F016FC98
:101AC000040003D015E000F037F9E9E70D4800F015
:101AD0008BFC04000DD1362000F034F8102D07D215
:101AE00000222946362000F03BF80748056000E058
:101AF000012407B0204630BD4038024040420F006C
:101B0000001000404C040020140000200C4882B05B
:101B1000016841F480410160006800F48040009059
:101B20000748001F016841F08051016000680022F1
:101B300000F0805000900F21901E02B000F010B80D
:101B400044380240002809DB00F01F0201219140C7
:101B50004009800000F1E020C0F80011704700004B
:101B6000F0B40E4B1B680C46C3F30223C3F1070508
:101B7000042D00D90425191D072901D2002300E0F6
:101B8000DB1E012606FA05F1491E214099409E40C0
:101B9000761E16403143F0BC02F074B90CED00E043
:101BA000064900F0070208684FF6FF03184040EAB4
:101BB0000220034A10430860704700000CED00E06B
:101BC0000000FA052DE9F0470E46050065D0DFF864
:101BD0001481D8F80000F7B200F00700B04207D235
:101BE00088F80070D8F8000000F00700B04254D127
:101BF00028683D4C810712D5400703D5206840F482
:101C0000E05020602878000703D5206840F4604049
:101C100020602068A96820F0F00008432060287840
:101C2000C0072DD0304968680839012812D0022831
:101C300013D0032811D00968890700292DDA2168FB
:101C400021F0030101432160FFF76EFC814641F260
:101C5000883A0EE009688903EFE709688901ECE733
:101C6000FFF762FCA0EB0901514502D90320BDE852
:101C7000F0872068696800F00C00B0EB810FEFD1AD
:101C8000D8F80010404601F00701B14207D90770AB
:101C9000006800F00700B04201D00120E7E7287893
:101CA000400705D52068E96820F4E050084320602B
:101CB0002878000706D52068296920F4604040EAAA
:101CC000C100206000F058F82168084AC1F30311F0
:101CD000515CC8400649086006480068FFF7CAFE24
:101CE0000020C4E7003C024008380240686D00084C
:101CF0001C000020140000200F2202600C4A136810
:101D000003F003034360136803F0F0038360136878
:101D100003F4E053C36012684FF4E05303EAD202C5
:101D200002610448006800F0070008607047000086
:101D300008380240003C0240044805490068096830
:101D4000044AC1F38221515CC84070471C00002046
:101D500008380240786D00080448054900680968A1
:101D6000044AC1F34231515CC84070471C00002056
:101D700008380240786D0008154810B5006810F06A
:101D80000C02144813D04110042A0FD0082A0ED197
:101D90000F4C241F2268236802F03F025B0207D524
:101DA0002068C0F38810A0FB010106E0084610BDC2
:101DB0002168C1F38811A1FB00010023FEF762FA3C
:101DC0002168C1F30141491C4900B0FBF1F010BD8D
:101DD000083802400024F4002DE9F84F04006ED0CA
:101DE0002078DFF84C93C007A9F104054AD009F127
:101DF00004000168C1F38101012908D00068C0F323
:101E0000810002280AD1D9F80000400206D52868CE
:101E1000800337D560680028E1D033E06068B0F512
:101E2000803F10D0B0F5A02F286810D020F480306B
:101E30002860286820F4802028606068A8B1FFF737
:101E400073FB06460DE0286840F48030F4E740F468
:101E500080202860F7E700BFFFF766FB801B64283F
:101E600073D828688003F7D50CE0FFF75DFB0646C2
:101E700005E000BFFFF758FB801B6428F0D82868F6
:101E80008003F7D42078DFF8AC8280074FF0000A97
:101E90003ED5A748001D016811F00C0F08D000685E
:101EA000C0F3810002280BD1D9F80000400207D40A
:101EB0002868800716D5E068012800D112E033E1D8
:101EC000E068B8B10120C8F80000FFF72DFB064616
:101ED00005E000BFFFF728FB801B0228C0D8286858
:101EE0008007F7D52868216920F0F80040EAC10092
:101EF00028600DE0C8F800A0FFF716FB064604E0D6
:101F0000FFF712FB801B02281FD828688007F7D430
:101F10002078000722D5864F87486169703771B1F4
:101F200001210160FFF700FB064604E0FFF7FCFA21
:101F3000801B022809D838688007F7D50EE0C0F862
:101F400000A0FFF7F1FA064605E082E0FFF7ECFAA1
:101F5000801B02287DD838688007F7D42078400796
:101F600068D5DFF8CCB100270BF13C0BDBF80000A3
:101F7000C0000BD4DBF8001041F08051CBF800100A
:101F8000DBF80000012700F0805000906B4E3068B5
:101F9000C00510D4306840F480703060FFF7C4FA98
:101FA000009005E0FFF7C0FA0099401A022850D8C7
:101FB0003068C005F6D55E4EA0686C3601280FD09B
:101FC0000528306810D020F001003060306820F023
:101FD00004003060A068B8B1FFF7A6FA00900FE0E7
:101FE000306840F00100F4E740F004003060F7E7AB
:101FF000FFF79AFA0099411A41F28830814266D877
:1020000030688007F4D50EE0FFF78EFA009007E005
:10201000FFF78AFA0099411A41F28830814256D876
:1020200030688007F4D42FB1DBF8001021F0805124
:10203000CBF80010A069C8B33D49091D0968C1F378
:10204000810102294AD00228504607D0C8F8600012
:1020500000E03CE0FFF768FA04463BE04746C8F87A
:102060006000FFF761FA064605E000BFFFF75CFA83
:10207000801B02282BD828688001F7D4D4E90701F7
:102080000843A16A2E4A490802EB0141626A41EA0B
:102090008211084394F82C1040EA0161C9F800103D
:1020A00001203866FFF740FA044606E03EE000BF34
:1020B000FFF73AFA001B022809D828688001F7D5F3
:1020C00034E000BFFFF730FA001B022802D90320DA
:1020D000BDE8F88F28688001F4D427E00128F7D004
:1020E000D9F80000E26900F4800191421CD1226A13
:1020F00000F03F01914217D147F6C071626A01407A
:10210000B1EB821F10D1A26A4FF0FF3300F44031CF
:1021100003EB5202B1EB024F06D194F82C1000F001
:102120007060B0EB016F01D00120D1E70020CFE754
:102130000438024000004742800E474200700040D1
:102140000000FFFF7047704710B590F83C20012A4F
:1021500022D0012280F83C20CA688C6822F44072A8
:1021600022434C6822F4806222430C6822F400620D
:1021700022430C6922F4805222434C6922F400521B
:102180002243C969002322F480420A4301684A6459
:1021900080F83C30002010BD022010BD70B590F8D2
:1021A0003C20012A32D0012480F83C40022280F8F1
:1021B0003D2003685A689D6822F070060A68324321
:1021C0005A60134B02689A4214D0B2F1804F11D07A
:1021D000104B9A420ED0104B9A420BD00F4B9A42A2
:1021E00008D00F4B9A4205D00E4B9A4202D00E4BAC
:1021F0009A4204D1496825F080031943916080F820
:102200003D40002180F83C10084670BD022070BDA2
:10221000000001400004004000080040000C0040A5
:1022200000040140004001400018004010B5044681
:10223000022249B104290ED0082913D094F8450090
:10224000012816D0012010BD94F842000128F9D1D0
:1022500084F842200FE094F843000128F2D184F87A
:10226000432008E094F844000128EBD184F844208E
:1022700001E084F845200422206801F010FB20686A
:10228000416C41F40041416411492068884214D0F6
:10229000B0F1804F11D00F4988420ED00E498842CC
:1022A0000BD00E49884208D00D49884205D00D490F
:1022B000884202D00C49884204D1816801F00701AC
:1022C000062903D0016841F001010160002010BD22
:1022D000000001400004004000080040000C0040E5
:1022E00000040140004001400018004010B5040007
:1022F00003D094F83D0010B107E0012010BD00208C
:1023000084F83C00204600F01FF8022084F83D00CD
:10231000211D206801F052FA012084F8460084F85B
:102320003E0084F83F0084F8400084F8410084F8BF
:10233000420084F8430084F8440084F8450084F89F
:102340003D00002010BD000008B500680649884225
:1023500008D10648016841F001010160006800F001
:102360000100009008BD0000000001404438024018
:1023700090F83D10012901D001207047022180F81A
:102380003D1000681149884214D0B0F1804F11D03F
:102390000F4988420ED00F4988420BD00E4988421F
:1023A00008D00E49884205D00D49884202D00D4917
:1023B000884204D1816801F00701062903D0016831
:1023C00041F0010101600020704700000000014061
:1023D0000004004000080040000C004000040140E0
:1023E000004001400018004090F83D10012901D044
:1023F00001207047022180F83D100168CA6842F050
:102400000102CA6000681149884214D0B0F1804FBF
:1024100011D00F4988420ED00E4988420BD00E4988
:10242000884208D00D49884205D00D49884202D023
:102430000C49884204D1816801F00701062903D0C4
:10244000016841F001010160002070470000014077
:102450000004004000080040000C0040000401405F
:10246000004001400018004070B5044690F83C0060
:102470000025012817D0012684F83C60022084F84A
:102480003D002068826822F0770222F47F42826059
:102490000868502838D00DDC20284FD005DC90B3D8
:1024A000102811D14AE0022070BD302846D04028C3
:1024B0000AD13BE060282FD070280DD0B0F5805FA6
:1024C00003D0B0F5005F12D0012584F83D600020F4
:1024D00084F83C00284670BDCB68D1E90121206812
:1024E00001F0EAF92068816841F0770109E0CB68E2
:1024F000D1E90121206801F0DFF92068816841F409
:1025000080418160E1E719E0CA684968206801F00C
:10251000A7FA5021206806E0CA684968206801F0DF
:10252000B0FA6021206801F0D1F9CEE7CA684968A5
:10253000206801F095FA40212068F4E722680146FE
:102540001046F0E7704770B50446006801694FF027
:102550000005C943890715D4C168C943890711D447
:10256000E91E0161012020772068806980072046EC
:1025700002D0FFF7E7FF04E000F0F4F8204600F097
:1025800086F9257720680169C943490717D4C168CE
:10259000C943490713D46FF0040101610220207779
:1025A0002068806910F4407F204602D0FFF7CAFF00
:1025B00004E000F0D7F8204600F069F9257720689C
:1025C0000169C943090716D4C168C943090712D470
:1025D0006FF008010161042020772068C06980073E
:1025E000204602D0FFF7AEFF04E000F0BBF8204623
:1025F00000F04DF9257720680169C943C90617D451
:10260000C168C943C90613D46FF0100101610820E5
:1026100020772068C06910F4407F204602D0FFF781
:1026200091FF04E000F09EF8204600F030F9257795
:1026300020680169C943C90708D1C168C943C907EE
:1026400004D1891E0161204600F086F920680169E5
:10265000C943090609D4C168C943090605D46FF006
:10266000800101612046FFF76DFD20680169C943C3
:10267000490609D4C168C943490605D46FF0400131
:102680000161204600F072F920680169C94389069A
:102690000BD4C168C943890607D46FF020010161DA
:1026A0002046BDE87040FFF74EBD70BDF0B587B065
:1026B000044614216846FDF72FFE2549206888420C
:1026C00044D124480024016841F0010101600168FF
:1026D00001F001010591016841F00201016001680A
:1026E00001F002010591016841F0100101600068EC
:1026F000022500F01000059080200090CDE90154E3
:102700000126CDE9034669461348FEF715FE0096FB
:10271000CDE90154CDE9034669461048FEF70CFEA9
:102720004FF4D4400090CDE901540D4FCDE903465C
:1027300069463846FEF700FEE802CDE9000502AA28
:10274000694682E870003846FEF7F6FD07B0F0BD36
:102750000000014030380240000002400004024006
:1027600000100240704770B5044690F83C00002607
:102770000D4601280FD0012084F83C006AB1042ADC
:102780001DD0082A2FD00C2A3FD00126002084F823
:102790003C00304670BD022070BD206801F09EF8FC
:1027A0002068816941F0080181612068816921F018
:1027B00004018161206881692A69114311E0206860
:1027C00001F0BCF82068816941F4006181612068F2
:1027D000816921F480618161206881692A6941EA07
:1027E00002218161D2E7206801F0DEF82068C1692A
:1027F00041F00801C1612068C16921F00401C16193
:102800002068C1692A69114311E0206801F000F9CC
:102810002068C16941F40061C1612068C16921F487
:102820008061C1612068C1692A6941EA0221C161F0
:10283000ACE710B5040003D094F83D0010B107E0F8
:10284000012010BD002084F83C00204600F01EF856
:10285000022084F83D00211D206800F0AFFF012018
:1028600084F8460084F83E0084F83F0084F8400075
:1028700084F8410084F8420084F8430084F844005E
:1028800084F8450084F83D00002010BD7047704773
:1028900010B50446022249B104290ED0082913D0EC
:1028A00094F84100012816D0012010BD94F83E0094
:1028B0000128F9D184F83E200FE094F83F00012868
:1028C000F2D184F83F2008E094F840000128EBD1D1
:1028D00084F8402001E084F841200122206800F0C3
:1028E000D1FF16492068164A884201D0904203D190
:1028F000436C43F4004343642068884213D0B0F132
:10290000804F10D00F4988420DD00F4988420AD01D
:102910000E49884207D0904205D00D49884202D026
:102920000C49884204D1816801F00701062903D0CF
:10293000016841F001010160002010BD000001406C
:10294000000401400004004000080040000C00406A
:10295000004001400018004000680349884201D14E
:10296000FFF766B8704700000010004070477047DE
:1029700070470000F8B5016804460868CA684B69EA
:1029800010F00F0F4FF0000559D003F0010602F4CC
:102990009077374365D0C10705D0D10503D5216CA9
:1029A00041F001012164410705D5D90703D0216C0D
:1029B00041F002012164810705D5D90703D0216CBC
:1029C00041F004012164010707D502F020013143E1
:1029D00003D0216C41F008012164216C00293AD018
:1029E000800604D5900602D5204601F08BF82068B9
:1029F0004069216CC0F38010090700D460B3204601
:102A000001F059F820684069400621D5206814304B
:102A100050E8001F21F0400140E80012002AF5D1E3
:102A2000A06BA8B16C490165A06BFEF760FC0028A3
:102A300011D0A06B016D01B0BDE8F04008478306DE
:102A40000FD593060DD52046BDE8F84001F05AB8E1
:102A50002046FFF78DFFF8BD2046FFF789FF25646C
:102A6000F8BD266B2023012E79D1C60677D5D60670
:102A700075D50868486800904869400640D5A16B44
:102A8000086840680004000CEAD0A28D8242E7D9B1
:102A9000E085C869B0F5807F2DD020680C3050E803
:102AA000001F21F4807140E80012002AF5D120684F
:102AB000143050E8001F21F0010140E80012002A04
:102AC000F5D12068143050E8001F21F0400140E8A3
:102AD0000012002AF5D184F83E30256320680C30BE
:102AE00050E8001F21F0100140E80012002AF5D143
:102AF000A06BFEF7B3FBA08DE18D401A81B229E0F7
:102B0000A08DE18D401A81B2E08D0028A8D0002967
:102B1000A6D020680C3050E8002F22F4907240E8D4
:102B20000026002EF5D12068143050E8002F22F046
:102B3000010240E80026002EF5D184F83E302563DE
:102B400020680C3050E8002F22F0100240E80023EB
:102B5000002BF5D12046FFF70AFFF8BDFFE7050679
:102B60002BD5150629D594F83D002128F5D1A0686C
:102B7000B0F5805F01D12069B0B1206A411C2162AB
:102B8000216800784860E08C401E0004000CE0845E
:102B9000E3D12068C16821F08001C1602068C1686C
:102BA00041F04001C160D8E7206A0088C0F3080006
:102BB0004860206A801C2062E5E74006CDD55006BB
:102BC000CBD5CA68204622F04002CA6084F83D3066
:102BD00000F009F9C1E70000A73A000870B5040049
:102BE00004D094F83D00002510B106E0012070BD2E
:102BF00084F83C50204600F023F8242084F83D005F
:102C00002068C16821F40051C160204600F0DAFF5D
:102C10002068016921F4904101612068416921F037
:102C20002A0141612068C16841F40051C1602564F6
:102C3000202084F83D0084F83E00002070BD000094
:102C400010B586B0044614216846FDF765FB1849A7
:102C50002068884229D117480021026842F01002FA
:102C60000260006800F010000590124814380268F5
:102C700042F001020260006800F0010005904FF48C
:102C8000C06000900220CDE90101032003900720DD
:102C9000049069460848FEF74FFB002205212520D5
:102CA000FEF75EFF2520FEF74DFF06B010BD0000C9
:102CB00000100140443802400000024090F83E30CD
:102CC000202B0ED159B152B190F83C30012B08D0D5
:102CD000012380F83C300023036300F0F9BF01209A
:102CE000704702207047000000680C49884214D1E8
:102CF0000B4801780D2907D00A290AD00A4A094B46
:102D000010681954401C1060012205490748FFF75C
:102D1000D5BF074901200860F6E770470010014061
:102D2000E800002084410020E0000020080400208A
:102D3000E40000202DE9F843044690F83D001F46CA
:102D400016460D4620284CD1C5B1BEB194F83C00C2
:102D5000012846D0012084F83C004FF00008C4F858
:102D60004080212084F83D00FEF7DEFBA6848146EA
:102D7000E684A068B0F5805F03D004E00120BDE8E0
:102D8000F883206928B12E465FF0000584F83C8066
:102D90000EE00026FAE78021204600F0B6FFA0B939
:102DA000AEB116F8010B21684860E08C401EE0844B
:102DB000E08C4B464FF0000200970028EBD14FF01B
:102DC0004001204600F0A1FF30B10320D7E735F8DD
:102DD000020BC0F30800E6E7202084F83D00002045
:102DE000CDE70220CBE77047FEE701684A69D2438E
:102DF00052050FD46FF480624A61002140F8301F01
:102E0000202242738173026942F00402026101735D
:102E100001207047002070472DE9F84F0446C06A32
:102E20001E4693460D4621680A6842F480620A6095
:102E3000082807D0012805D010F5803F02D0206B6C
:102E4000112804D12068016841F4807101604FF0BD
:102E500001195B46002249462046009600F0C6F85C
:102E60004FF4007840B120680068C00501D5C4F86F
:102E700040800320BDE8F88F2069DFF884A0B0F51A
:102E8000804F0FD00620216800EAD51747F0F000E8
:102E9000086133465A460AF10601204600F0DAF886
:102EA00058BB03E0E8B240F001001CE02168E8B242
:102EB000086133465A465146204600F0CBF8E0B947
:102EC0002068416981690091016841F48071016065
:102ED0005B46002249462046009600F087F800280D
:102EE000C1D147F0F1002168086133465A46514686
:102EF000204600F0AFF80028BCD00120BAE700005F
:102F000002000100F8B50446C06A1E460D46174689
:102F1000082807D0012805D010F5803F02D0206B8B
:102F2000122804D12068016841F4807101601346C1
:102F300000224FF001112046009600F057F840B1F2
:102F400020680068C00502D54FF40070206403209B
:102F5000F8BD2069B0F5804F0ED00620216800EA48
:102F6000D51040F0F000086133463A460B49204640
:102F700000F070F878B902E005F0FE0000E0E8B279
:102F800021680861054933463A46891F204600F00A
:102F900061F80028DCD00120F8BD00000800010025
:102FA00070B516460D4604460DE02046FFF71DFF9E
:102FB00008B1012070BD681C05D0FEF7B5FA801B72
:102FC000A84207D835B120684069C0434007ECD417
:102FD000002070BD002044F8300F20216173A073E1
:102FE000216941F0200121612073E2E72DE9F047DA
:102FF0001E4690460D460446C1F30747DDF8209073
:1030000008E0701C06D0FEF78FFAA0EB0900B04272
:103010000FD876B12068012F18D0806925EA00000A
:103020000004000C14D000214145EAD00020BDE886
:10303000F087002044F8300F20216173A0732169CC
:1030400041F02001216120730120F0E74069E5E7AC
:103050000121E9E72DE9F0479A4691460E460446DC
:1030600000254FF02008C1F3074725E0206840699C
:10307000C043400514D42068016841F40071016028
:1030800021686FF480604861256384F83D8084F88E
:103090003E50206C40F00400206484F83C501FE057
:1030A000B9F1FF3F08D0FEF73FFAA0EB0A0149450E
:1030B0000CD8B9F1000F09D02068012F13D0806916
:1030C00026EA00000004000C0BD0CFE744F8305F84
:1030D00084F80D80A573206940F0200020612573DD
:1030E0000120BDE8F0874069EAE72DE9F0410025BD
:1030F00090460E460446202717E04069C043C006AC
:103100000CD454F8301B6FF01000486144F810598B
:103110006777A577206A2062257717E0FEF704FA23
:10312000A0EB0800B04208D83EB120684169C9430D
:103130004906E2D40020BDE8F08144F8305F6773AF
:10314000A573206940F02000206125730120F2E77B
:1031500070B516460D4604460DE02046FFF745FEC5
:1031600008B1012070BD681C05D0FEF7DDF9801B99
:10317000A84207D835B120684069C0430006ECD4A6
:10318000002070BD002044F8300F20216173A0732F
:10319000216941F0200121612073E2E7B4EEE00AE9
:1031A000F1EE10FA02D2B0EE600A7047B4EEC10A36
:1031B000F1EE10FAF9DDB0EE410A70471CB501F0EE
:1031C000A7FDFF21002002F02DF80721012002F0C9
:1031D00029F80721022002F025F80721032002F038
:1031E00021F8A721042002F01DF8A721052002F0F4
:1031F00019F8032001F0BEFF02F070F805A11620B7
:10320000CDE90001084B09A20EA1032001F0B2FD97
:103210001CBD00004C4F4720496E697420537563F4
:10322000636573730D0A0000806D00082E2E5C42EA
:1032300073705C5372635C6273705F6C6F672E6354
:10324000000000004C4F47474552000000F0A0FD31
:103250004FF4FA7401F0E2FB204602F0E7FAF9E7D6
:1032600010B596B01C2211496846FDF73CF80021C4
:10327000684602F0E7FA0E4C0C491C2220601C3113
:1032800007A8FDF730F8002107A802F0DBFA07498C
:1032900060601C2238310EA8FDF725F800210EA829
:1032A00002F0D0FAA06016B010BD0000146D000846
:1032B00004000020114808B5016841F08001016058
:1032C000016801F080010091016841F00101016095
:1032D000016801F001010091016841F00201016003
:1032E000016801F002010091016841F010010160E4
:1032F000006800F01000009008BD00003038024067
:103300000D4810B50B4901600C49416000214FF494
:1033100080428160C0E9031241618161C161016243
:10332000FEF708F9002803D0BDE81040FDF71BBFE9
:1033300010BD0000005400406C030020801A0600FD
:1033400030B595B000240F941094119412941394F6
:103350001C2168461494FCF7DFFF202107A8FCF726
:10336000DBFF384836494FF48075C0E9001420214E
:10337000816041F28241C0E9031501214161802150
:103380008161FEF7B3FF08B1FDF7EDFE4FF4805009
:103390000F900FA92B48FFF767F808B1FDF7E3FE80
:1033A0002848FFF746FA08B1FDF7DDFE139413A98C
:1033B00024481494FEF7F2FE08B1FDF7D4FE602015
:1033C000CDE9000402940394049405940022694614
:1033D0001C480694FFF7C7F908B1FDF7C4FE0422A4
:1033E00069461848FFF7BFF908B1FDF7BCFE08228F
:1033F00069461448FFF7B7F908B1FDF7B4FE70202D
:1034000000900C2269460F48FFF7ADF908B1FDF7AF
:10341000AAFE4FF4006007904010CDE90805102087
:10342000CDE90A040C9407A906480E94FEF78CFE19
:1034300008B1FDF798FE0348FFF738F915B030BD25
:1034400000000140C00300200C4810B50A4901608B
:103450004FF4E1314160002181600C22C160C0E97C
:1034600004128161C161FFF7B9FB002803D0BDE8F8
:103470001040FDF778BE10BD001001400804002088
:10348000FEE700000BA000F0B9FC00F067F90F4C5C
:10349000FF2084F8710000BF94F8700001280B48E9
:1034A00005D000F0BBF8012002F0C0F9F4E702F00B
:1034B00097F9F8E74D6F746F72205461736B205267
:1034C000756E6E696E670D0A00000000B84100203D
:1034D000FEE710B504462DED028B90ED150AFDF7C1
:1034E000FBFCB0EE408A94ED150AFDF741FDD4EDEA
:1034F000060A20EEC00A84ED030A20EE880A84ED55
:10350000040ABDEC028B10BD10B504462DED028BF4
:1035100090ED150AFDF7E0FCF0EE400A94ED150A77
:10352000B0EE608AFDF724FD94ED0A1AD4ED0B1A73
:1035300061EE080A41EE800AC4ED0D0A61EE880AC8
:1035400041EE400AC4ED0C0ABDEC028B10BD000038
:1035500010B504462DED028BB2EE041A9FED238ABE
:1035600090ED000AF0EE480AFFF718FE84ED000A1D
:1035700094ED010AB2EE041AF0EE480AFFF70EFECF
:1035800084ED010A94ED020AB2EE041AF0EE480A44
:10359000FFF704FE84ED020AD4ED000AB2EE080A39
:1035A000144880EE801ADFED120A21EE201ABCEEDC
:1035B000C11A11EE101A4163D4ED011A81EE801A7E
:1035C00021EE201ABCEEC11A11EE101A816394ED9F
:1035D000021AC1EE001A21EEA00ABCEEC00A10EEDB
:1035E000101AC163BDEC028B10BD0000000000008A
:1035F0000010A4450000014090ED180A80ED280A53
:10360000D0ED270A30EEC00A80ED290AD0ED240A59
:1036100020EE800A80ED060A7047000070B5B0EE1B
:10362000080A2DED028B04469FED168A80ED060AEE
:10363000154D80ED058A80ED158AE968884769682F
:10364000204688472046FFF783FF40F6B830FDF755
:1036500061FE01F04DF984ED160A1420FDF75AFEC3
:1036600084ED068A84ED058A84ED158AE968204692
:103670008847696820468847012084F87000BDECBF
:10368000028B70BD00000000D000002010B550205B
:1036900080F31188BFF34F8FBFF36F8F03F0A6F94C
:1036A00018B104494FF080500860002080F3118861
:1036B00010BD000004ED00E030B593B03021684645
:1036C000FCF72AFE14210CA8FCF726FE1D48002555
:1036D000016841F080510160006800F08050119055
:1036E0001948016841F4804101600068022400F437
:1036F0008040119001200090000401908001CDE9EC
:10370000064008AA0420A82182E813000B9068460E
:10371000FEF762FB08B172B6FEE70CA90F2081E844
:1037200031004FF4A0500F904FF4805010900521BD
:103730000CA8FEF747FA002801D072B6FEE713B0D6
:1037400030BD00004038024000700040024801686F
:1037500041F470010160704788ED00E010B5002170
:103760001248FFF795F804211048FFF791F8082157
:103770000E48FFF78DF80C210C48FFF789F800215F
:103780000A48FEF753FD04210848FEF74FFD0821C3
:103790000648FEF74BFD05480068416C41F40041C6
:1037A0004164BDE810400148FEF7E2BDC0030020BF
:1037B0000148FEF7C8BE00004C040020F0B50268C6
:1037C000254C264D264E274F274B4FF0804CA042CC
:1037D00009D0604507D0A84205D0B04203D0B84216
:1037E00001D0984204D122F0700E4A6842EA0E02DB
:1037F000A0421BD0604519D0A84217D0B04215D0C6
:10380000B84213D0984211D0184DA8420ED0184D8E
:10381000A8420BD0174DA84208D0174DA84205D09A
:10382000164DA84202D0164DA84203D122F440758D
:10383000CA682A434D6922F080022A4302608A68DE
:10384000C2620A688262A04201D0984201D109692D
:10385000016301214161F0BD00000140000400400E
:1038600000080040000C00400004014000400140FE
:10387000004401400048014000180040001C004086
:103880000020004010B501F01F030121046A994097
:103890008C430462016A9A401143016210BD10B565
:1038A00001F01F030421046A99408C430462016AF9
:1038B0009A401143016210BD10B5846842EA0322A8
:1038C00024F47F440A432243826010BD826822F0C0
:1038D00070020A4342F0070181607047F0B5026A46
:1038E00022F001020262036A42688469124E24F0E7
:1038F00073050C682C4323F002058B682B430D4D98
:10390000A84201D0B04205D123F00807CB683B4361
:1039100023F00403A84201D0B04205D14D6922F43E
:10392000407215438A692A43426084614968416351
:103930000362F0BD0000014000040140F0B5026ADE
:1039400022F010020262026A436884690D6824F45E
:10395000E64444EA05248D6822F0200242EA05127A
:103960000F4D104EA84201D0B04206D1CF6822F0D0
:10397000800242EA071222F04002A84201D0B0427F
:1039800007D14D6923F4406343EA85038D6943EA17
:10399000850343608461496881630262F0BD000071
:1039A0000000014000040140F0B5026A22F4807278
:1039B0000262026A4368C46922F4007224F073054B
:1039C0000C68124E2C438D6842EA05220E4DA84227
:1039D00001D0B04206D1CF6822F4006242EA072249
:1039E00022F48062A84201D0B04207D14D6923F48D
:1039F000405343EA05138D6943EA05134360C461EC
:103A00004968C1630262F0BD00000140000401404A
:103A100030B5026A22F480520262046A4268C369C5
:103A20000D6823F4E64343EA05238D6824F400542B
:103A300044EA0534084DA84202D0084DA84204D1FA
:103A40004D6922F4804242EA85124260C3614968AE
:103A50000164046230BD0000000001400004014028
:103A600010B5036A046A24F001040462846924F036
:103A7000F00444EA021423F00A020A438461026259
:103A800010BD10B5036A23F0100303628369046A52
:103A900023F4704343EA023224F0A00343EA011105
:103AA0008261016210BD10B5806B0021C185C184A7
:103AB000FEF75EFF10BD01680C3151E8002F22F4C3
:103AC000907241E80023002BF5D10168143151E8D0
:103AD000002F22F0010241E80023002BF5D1016BF9
:103AE000012909D101680C3151E8002F22F01002A0
:103AF00041E80023002BF5D1202180F83E10002161
:103B00000163704708B590F83E10222901D00220C9
:103B100008BD82684FF480539A4201D1016921B1F6
:103B2000816A9A421BD04AB10AE00268816A5268EF
:103B3000C2F308020A80816A891C08E0026972B136
:103B40000268526802F07F020A70816A491C816231
:103B5000C18D491E0904090CC18503D019E0026812
:103B60005268F1E70168CA6822F02002CA60016861
:103B7000CA6822F48072CA6001684A6922F00102B0
:103B80004A61202180F83E10016B012903D0FFF724
:103B9000ABF8002008BD0021016301680C3151E839
:103BA000002F22F0100241E80023002BF5D101681C
:103BB0000A68D20602D50A6849680091818DFEF72D
:103BC000D6FEE6E770B5044600680169E26821F4B4
:103BD0004051114301612169A068E26908436169AC
:103BE000114308432168CA6849F20C639A430243AF
:103BF000CA6020684169A26921F4407111434161A2
:103C000031492068884202D03049884202D1FEF70B
:103C1000A3F801E0FEF790F8E2690023192164257A
:103C20003226B2F5004F626828D0A0FB0101930F45
:103C30009200FCF727FB0146B0FBF5F06FF018028D
:103C4000504301EB800006EB0010B0FBF5F000F0F4
:103C5000F002B1FBF5F002EB0012B1FBF5F06FF0F2
:103C60001803584301EB800006EB0010B0FBF5F0A1
:103C700000F00F0021681044886070BDA0FB0101B6
:103C800092185B41FCF7FEFA0146B0FBF5F0020129
:103C9000B1FBF5F06FF01803584301EB800006EB21
:103CA000C000B0FBF5F000F0F80002EB4002B1FB01
:103CB000F5F0584301EB800006EBC000B0FBF5F0D7
:103CC00000F00700D6E7000000100140001401409A
:103CD00081628285C28500210164222280F83E2013
:103CE00080F83C10016921B10168CA6842F4807211
:103CF000CA6001684A6942F001024A610068C1680D
:103D000041F02001C160002070472DE9F041984644
:103D100017460E460446069D27E0681C25D02DB1A7
:103D2000FDF702FCA0EB0800A8421ED920680C3069
:103D300050E8001F21F4D07140E80012002AF5D1AC
:103D40002068143050E8001F21F0010140E8001203
:103D5000002AF5D1202084F83D0084F83E000020A0
:103D600084F83C000320BDE8F0812068006836EA52
:103D7000000004D00020B842CFD00020F3E701209B
:103D8000F9E700000148FEF7F5BD00000804002037
:103D90001CB5012207490848FEF790FF07A137200C
:103DA000CDE900010B4B0CA211A1032000F0E2FFB2
:103DB0001CBD0000E80000200804002055534152BB
:103DC0005420496E697420537563636573730D0ADB
:103DD00000000000926D00082E2E5C4273705C5350
:103DE00072635C6273705F75736172742E6300003E
:103DF0005553415254000000FEE700000FB4054B3C
:103E000010B503A9044A029800F0E4F910BC5DF86B
:103E100014FB000055540008100100200FB47CB5BD
:103E20000C0009AD01D0611E00E00021CDE90001C8
:103E3000064B6A462946089800F0CCF9002C02D0BF
:103E4000009A002111707CBC5DF814FBDB4800086F
:103E50007CB50C001D461646014601D0601E00E0F0
:103E60000020CDE90010064B6A462946304600F096
:103E7000B1F9002C02D0009A002111707CBD000025
:103E8000DB4800080907090E002804DB00F1E020E8
:103E900080F80014704700F00F0000F1E02080F877
:103EA000141D70470000000030B583B0044600F0D8
:103EB000ABF89FED090B05468DED000B0022214666
:103EC0006846FCF7C6FC284600F0B4F89DED000BF0
:103ED00003B030BD00000000000000000000000042
:103EE00010B52DED040B86B09DED060B10EE100AFB
:103EF00010EE901A8DED000B002818BF012008432A
:103F000020F00040C0F17F6000F1E040C00F21D1FF
:103F10009DED080B10EE101A10EE900A8DED000BBF
:103F2000002918BF0121084320F00040C0F17F6044
:103F300000F1E040C00F0DD129490798B1EB400FC7
:103F400004BF0698002842D00998400004BF089892
:103F500000283CD09DED080B53EC102B9DED060B7B
:103F600051EC100BFCF73CFDCDE902019DED020B7D
:103F700040F2FF7110EE900A8DED000B31EA105007
:103F800021D00798039900F0004001F000418842D9
:103F900019D09DED080B8DED040B9DED020B8DED01
:103FA000000B10EE900A059961F31E0005909DED3F
:103FB000041B9DED020B51EC110B53EC102BFCF785
:103FC000B3FACDE902019DED020B0AB010BD01204C
:103FD00000F030F80AB0BDE8104000F005B800006D
:103FE0000000E0FF000000009FED050B10B553EC52
:103FF000102B51EC100BFCF70CFB41EC100B10BD1F
:104000000000000000000000014800687047000048
:104010001401002002E008C8121F08C1002AFAD1CA
:1040200070477047002001E001C1121F002AFBD138
:10403000704700000149086070470000140100202B
:104040002DE9FF5F82B00021DDE90430020DDDF8CB
:1040500040B0034318D044F61050A2F2FF3242435E
:104060001514119801281FD0A5EB0B00401C5FEA26
:10407000000A4FF000064E4FDFF83891B046504628
:1040800015D5CAF1000413E0119801244AA30128B0
:1040900001D16FEA0B010298119AC0E90031C0E921
:1040A000024206B0BDE8F09FCBF10000DFE7044616
:1040B0000021404A491842EB0450CDE9001012E0BB
:1040C000E00707D032463B4640464946FCF72FFA08
:1040D0008046894632463B4610461946FCF727FA89
:1040E00006460F466410002CEAD1DDE90401DDE943
:1040F0000023BAF1000F06DAFCF719FA42464B46E4
:10410000FCF715FA05E0FCF784FA42464B46FCF74B
:1041100080FA04460E460022284BFCF7BDFC03D86B
:104120004FF0FF30014607E00022254B2046314684
:10413000FCF756F9FCF797FC102409E0002C0ADB89
:104140000A220023FCF79EF8039B30321A55641EA6
:1041500050EA0102F2D1641C039AC4F11103144421
:10416000119A012A03D0012208430DD10AE0084325
:1041700004D000204FF0110B119072E7A3EB0B0558
:104180006D1E0DE05B4504DD4FF0000205F10105F9
:1041900004E003DA4FF00002A5F10105002AECD09B
:1041A00002981199C0E90231C0E9004579E70000A1
:1041B000000014400000F03F300000000000F04319
:1041C0000000E03F30380A2801D20120704700206B
:1041D000704700002DE9FF4F95B09A468846064685
:1041E0000025EEE1252877D100242746F94A012150
:1041F000039400E0044316F8013F203B01FA03F06A
:104200001042F7D130782A2811D06FF02F03307880
:10421000A0F13002092A16D8039A44F0020402EBF6
:10422000820203EB42021044761C0390EFE758F839
:10423000042B0392002A03DA504244F40054039002
:1042400044F00204761C30782E2816D116F8010F9F
:1042500044F004042A280DD06FF02F023078A0F12A
:104260003003092B09D807EB870302EB4303C71878
:10427000761CF3E758F8047B761C30786C280FD056
:1042800006DC4C2817D068280DD06A2814D104E029
:10429000742810D07A280FD10DE044F400140AE0FD
:1042A00044F4801401E044F440147278824202D154
:1042B00004F58014761C761C307866280BD013DC4D
:1042C000582877D009DC002875D04528F6D0462834
:1042D000F4D047281AD193E118E0632835D0642838
:1042E00079D0652812D18BE1702873D008DC67285B
:1042F000F1D069286FD06E280DD06F2806D1ACE0C0
:1043000073282CD0752874D0782853D0524617992A
:1043100090476D1C54E1C4F30250022809D00328D1
:104320000DD0D8F8001004280DD00D6008F1040855
:1043300046E1D8F80010EA17C1E90052F6E7D8F8CC
:1043400000100D80F2E70D70F0E718F8041B8DF8EF
:10435000001000208DF80100EB46012003E058F822
:1043600004BB4FF0FF3061074FF0000102D40DE0B5
:1043700009F101018946B9420FDA8145F8DB1BF8E2
:1043800009100029F4D108E009F1010189468142B0
:10439000FADB1BF809100029F6D103985346A0EB6D
:1043A000090721463846179A00F080FA284400EBA6
:1043B000090507E044E008E10DE01BF8010B524657
:1043C00017999047B9F10109F7D25346214638466B
:1043D000179AF2E039E00A21C4F302524FF0000BC1
:1043E0000091022A06D058F8040BC117032A09D0FD
:1043F0000AE023E008F1070020F00702F2E80201DA
:10440000904605E000B2C117042A01D140B2C1179D
:10441000002906DA0A460021404261EB02012D2202
:1044200002E0220504D52B228DF80420012203E0AE
:10443000E20701D02022F7E7914657E00A2100E089
:1044400010214FF0000B00910BE010214FF0000BFA
:1044500044F004040827009103E008204FF0000B0B
:104460000090C4F30252022A05D058F8040B002130
:10447000032A08D008E008F1070020F00702F2E85C
:104480000201904603E080B2042A00D1C0B24FF08E
:10449000000922072AD53278702A07D0DDF800C03B
:1044A0008CF0100C5CEA0B0C05D00EE040228DF86D
:1044B0000420012208E050EA010306D030238DF8E1
:1044C00004308DF8052002229146009B83F00803FA
:1044D00053EA0B030AD150EA010201D1620705D564
:1044E00030228DF804204FF001097F1E3278582ABF
:1044F00004D039A20C920CAA02920BE03BA2F9E77D
:104500005B46009AFBF7BEFE0C9B9B5C029A521E18
:104510000292137050EA0102F2D1029804A9081A1B
:1045200000F1200B600702D524F4803400E001275D
:104530005F4502DDA7EB0B0000E0002000EB0B0164
:10454000009003984944401A0390E00306D4534670
:104550002146179A039800F0A9F90544002706E0C0
:1045600001A85246C05D179990476D1C7F1C4F45AE
:10457000F6DBE0030CD553462146179A039800F06A
:1045800095F9054404E030205246179990476D1C78
:104590000099481E00900029F5DC08E00298029975
:1045A00052460078491C0291179990476D1CBBF147
:1045B0000001ABF1010BF1DC5BE100F065F90544B2
:1045C000761C307800287FF40DAE19B02846BDE87F
:1045D000F08F00000928010030313233343536378E
:1045E000383961626364656600000000303132333F
:1045F00034353637383941424344454600000000DF
:10460000600700D4062708F1070020F00700F0E853
:104610000223804603F0004C5FEA0C0001D097A013
:1046200009E0200501D596A005E0E00701D095A09E
:1046300001E0AFF24C001390307823F0004365287E
:104640000CD006DC452809D046281DD047287FD14C
:104650003BE0662818D067287AD136E00021112F78
:1046600001DB112000E0781CCDE9000104A90CA8B1
:10467000FFF7E6FCDDE90D010C9A4FF0000B07F1A6
:104680000109109200914EE04FF000400097CDE9F3
:10469000011004A90CA8FFF7D3FCDDE90D020C9B67
:1046A0000F994FF0000B91461093009211B9791CAD
:1046B00000EB0109B7EB090003D4C0F1FF3B07F1A0
:1046C0000109A9EB0700019042E0012F00DA012760
:1046D0000021112F01DD112000E03846CDE9000155
:1046E00004A90CA8FFF7ACFCDDE90D010C9A0091C0
:1046F0004FF0000BB946109221070FD4009A4A459B
:1047000003DA914601E0A9F10109B9F1010F05DDD4
:10471000109AA9F10101515C3029F4D0B84202DAB3
:1047200010F1040F03DA0121CDE9011010E0002897
:1047300003DC8344A9EB000102E0411C494500DD94
:104740008946A0EB0B00401C01904FF00040029006
:10475000200705D40198484502DB4FF0FF30019057
:1047600000208DF84B0002980DF14B07B0F1004F7F
:1047700025D002200C902B200D90029800280CDAF6
:10478000404202902D200D9007E00A210298FBF78D
:10479000FDFF3031029007F8011D0C99481E0C9066
:1047A0000029F2DC02980028EFD1791E0D980870DC
:1047B000307800F0200040F0450007F8020D11A805
:1047C000C01BC01D02901398007800B1012000EBBF
:1047D0000901019801EBE071029801440398401A25
:1047E000401E0390E00306D453462146179A0398CF
:1047F00000F05CF805441398007818B152461799F8
:1048000090476D1CE00323D553462146179A039821
:1048100000F04CF805441BE0BBF1000F07DB0098EB
:10482000584504DD1098179910F80B0001E017990E
:1048300030205246904701980BF1010B401E05F1C4
:104840000105019004D12E205246179990476D1C06
:10485000B9F10001A9F10109DEDC05E017F8010B4F
:104860005246179990476D1C0299481E02900029E4
:10487000F4DC53462146179A03989EE62D0000006B
:104880002B000000200000002DE9F0410446002527
:104890001E461746880404D405E039462020B04758
:1048A0006D1C641EF9D52846BDE8F0812DE9F04164
:1048B000044600251E469046C80301D5302700E077
:1048C0002027880404D505E041463846B0476D1CD2
:1048D000641EF9D52846BDE8F0814A68002A06D052
:1048E0000A68531C0B6010704868401E486070478F
:1048F00010B52DED048B00F061F800EE100A284C85
:10490000F8EE408A94ED000A38EEC08AB5EEC08A0F
:10491000F1EE10FA02DDB0EE480A01E0B1EE480A0D
:1049200010EE100A1F499FED209B884219DB60683A
:10493000FBF7FDFE41EC100BB5EEC08AF1EE10FA6C
:1049400002DD9FED1B1B03E0B0EE491AF0EE691A81
:1049500053EC112B51EC100BFBF742FDFBF7FAFE69
:1049600060609FED150AC4ED008A28EE800A10EE03
:10497000100AFBF7DCFE53EC192BFBF7D8FD41ECDA
:10498000180B6068FBF7D3FE53EC182BFBF728FDE0
:10499000FBF7E0FEBDEC048B00EE100A10BD00003A
:1049A000C8000020CDCC4C45EA2E4454FB211940D0
:1049B000EA2E4454FB2119C0000080393EB5002086
:1049C00001900B200C2400908DF808406C2102AA65
:1049D00001230748FCF762FF01AA02236D21044866
:1049E0000094FCF76BFEBDF8040040BA3EBD000029
:1049F0006C03002010B5084C9FED060A84ED010AF7
:104A0000FFF7DCFF00EE100AB8EE400A84ED000A62
:104A100010BD000000000000C800002070B5374D38
:104A20006868002864D0002435A06C60FFF7E6F9C0
:104A300035A13648FBF794FC002831D034A1334827
:104A4000FBF78EFC00282FD033A13048FBF788FC01
:104A500000282CD032A12D48FBF782FC002829D059
:104A600032A12A48FBF77CFC002826D032A1274837
:104A7000FBF776FC20B334A12448FBF771FC10B39C
:104A800034A12248FBF76CFCF8B135A11F48FBF7B5
:104A900067FCD8B134A11D48FBF749FCA8B918E060
:104AA00033A0FFF7ABF91BE001F0CCF918E000F000
:104AB0003DFD15E000F094F812E000F06FF80FE013
:104AC00001F05CFA0CE001F081FA09E001F0C8F9AC
:104AD00006E02AA10D48FBF72AFC50B101F0E8F9E5
:104AE0002868002803DB09490C54401EFCD52C60C3
:104AF00070BD064924A0FFF781F9D8E7E000002047
:104B0000636D643E2000000068690000844100205D
:104B10007265626F6F74000068656C700000000061
:104B200064656275675F6F6E0000000064656275A2
:104B3000675F6F666600000073686F775F656E631E
:104B40006F6465720000000073686F775F666F6363
:104B5000000000007365745F7571756400000000EB
:104B60007365745F706F73007365745F7069640060
:104B700068692074686572657E0D0A007365745FEC
:104B80007370656564000000756E6B6E6F776E20E4
:104B9000636D6420272573270D0A000010B50320DC
:104BA00000F0E8FABDE8104001A0FFF727B90000C7
:104BB00064656275675F6F66662C20656C6F675F02
:104BC0007365745F66696C7465725F6C766C3A20AD
:104BD000454C4F475F4C564C5F494E464F0D0A00BF
:104BE00010B5042000F0C6FABDE8104001A0FFF7A0
:104BF00005B9000064656275675F6F6E2C20656C97
:104C00006F675F7365745F66696C7465725F6C76FD
:104C10006C3A20454C4F475F4C564C5F44454255DB
:104C2000470D0A00F0B585B0070007D11E484FF4C4
:104C3000EE72036893B11D491DA09847214D0024D1
:104C4000052695F8F000C0B100F082FA04EB44109C
:104C5000411991F85100012812D017E01348CDE90D
:104C60000302009212A118A3CDE9013103461FA24D
:104C700025A1002000F07EF8FEE705B03046F0BD2B
:104C80001E2238463231FBF779FB30B1641CE4B2A6
:104C9000052CDBD300F02AFAEFE704EB441028449C
:104CA00090F83160F6E70000EC000020136E000879
:104CB00074616720213D202828766F6964202A29A5
:104CC000302900006446002028257329206861737C
:104CD00020617373657274206661696C656420611C
:104CE000742025733A256C642E0000002E2E5C453E
:104CF0006173796C6F676765725C7372635C656C16
:104D00006F672E6300000000656C6F670000000095
:104D10002DE9F041164D002095F8F010012925D01D
:104D200000F000FA060021D1012000F0C9F90027A7
:104D300085F8F37085F8F470052000F01BFA002464
:104D40004FEA070804EB4410471907F132001F210E
:104D5000FBF7E2FA641C87F83180E4B287F85180EF
:104D6000052CEFD3012085F8F0003046BDE8F08136
:104D7000644600200FB42DE9F04F06468BB08B46F9
:104D80000846FBF7E6FA00240A940746A046099471
:104D90000594069407940894052E08D99B4840F280
:104DA0003A220368002B7DD099499AA09847A04DDC
:104DB00095F8F100002876D02878B04273D3584691
:104DC000FFF730FFB0426ED3A946691C5846FBF787
:104DD000AEFA002867D00DF1680A00F061F90121F0
:104DE000304600F043FBA5F5806540B18748294671
:104DF000001D50F82620204600F0B4FA0446022197
:104E0000304600F033FBC8B129195A46204600F05D
:104E1000A9FA04440F2F0BD8C7F10F01202205A8CF
:104E2000FBF773FA291905AA204600F09BFA0444FF
:104E3000291980A2204600F095FA04441C2130462E
:104E400000F014FB00284BD029197BA2204600F06B
:104E500089FA04440421304600F008FB90B100F0C8
:104E60005DF902462919204600F07CFA0444182115
:104E7000304600F0FBFA28B129196EA2204600F056
:104E800071FA04440821304600F0F0FAA8B100F0AD
:104E90003DF902462919204600F064FA0444102125
:104EA000304601E03CE0ACE000F0E0FA28B129191E
:104EB00060A2204600F056FA04441021304600F06B
:104EC000D5FA38B100F026F902462919204600F03B
:104ED00049FA0444291959A2204600F043FA04442F
:104EE000E021304600F0C2FA002860D0291954A20F
:104EF000204600F037FA04442021304600F0B6FA8C
:104F0000002827D029192046169A00F02BFA0444CD
:104F10004021304600F0AAFA88B1291949A215E0CB
:104F20003B48CDE9030200923AA147A3CDE9013104
:104F300003464EA254A10020FFF71CFFFEE780218C
:104F4000304600F093FA28B129193AA2204600F021
:104F500009FA04448021304600F088FAB0B14CA22E
:104F6000052109A8189BFEF759FF291909AA20460F
:104F700000F0F8F904444021304600F077FA28B1F7
:104F800029192CA2204600F0EDF9044440213046B6
:104F900000F06CFA28B129192046179A00F0E2F9BE
:104FA000044429193BA2204600F0DCF90444C4F56E
:104FB000806128195346199AFEF74AFF04444FF4BA
:104FC0008062944204D8002802DB601C904201D920
:104FD00040F2FF3499F8200040B1154905F80480EB
:104FE0002031A1F58460FBF7A2F940B129192AA26A
:104FF000204600F0B7F90119284800F0A1F800F0A8
:1050000075F80BB0BDE8F00F5DF814FBEC00002064
:105010002B6E00086C6576656C203C3D20454C4F3E
:10502000475F4C564C5F564552424F534500000077
:1050300064460020200000005B0000005D200000AE
:10504000280000003A0000002825732920686173B9
:1050500020617373657274206661696C6564206198
:10506000742025733A256C642E0000002E2E5C45BA
:105070006173796C6F676765725C7372635C656C92
:105080006F672E6300000000656C6F670000000012
:10509000256C6400290000000A0000006442002022
:1050A00070B5064C012594F8F20020B100F050F8DC
:1050B00084F8F45070BD84F8F35070BD644600204D
:1050C0000949002881F8F2000DD0074891F8F41042
:1050D00090F8F30019B1002805D100F041B800287C
:1050E00001D000F035B870476446002070B5064C1A
:1050F000002594F8F20020B100F032F884F8F45062
:1051000070BD84F8F35070BD6446002000A0704765
:1051100000000000002000F0BFBB000000A07047AE
:105120000000000010B50024012001F0E3F903495C
:10513000086008B1204610BDFEE70000080100200D
:10514000024601A0FEF75ABE252E2A730000000079
:1051500002484FF0FF31006801F0ECBA080100206E
:10516000034800231A461946006801F033BA0000CC
:105170000801002010B586B00446052807D90D485F
:105180004FF4AB72036833B10B490CA09847124837
:10519000047006B010BD0848CDE90302009207A1D3
:1051A0000EA3CDE90131034615A21CA10020FFF793
:1051B000E1FDFEE7EC000020E76D00086C65766518
:1051C0006C203C3D20454C4F475F4C564C5F56454C
:1051D00052424F53450000006446002028257329A1
:1051E0002068617320617373657274206661696CF5
:1051F00065642061742025733A256C642E000000DC
:105200002E2E5C456173796C6F676765725C737293
:10521000635C656C6F672E6300000000656C6F67F0
:105220000000000030B585B00D460446052807D9BA
:105230000E484FF49E7203684BB10D490DA098477C
:10524000134800EB8400C0F8D85005B030BD0848C2
:10525000CDE90302009207A10EA3CDE90131034677
:1052600015A21CA10020FFF785FDFEE7EC00002041
:10527000CA6D00086C6576656C203C3D20454C4F3E
:10528000475F4C564C5F564552424F534500000015
:105290006446002028257329206861732061737398
:1052A000657274206661696C656420617420257381
:1052B0003A256C642E0000002E2E5C456173796CDB
:1052C0006F676765725C7372635C656C6F672E6392
:1052D00000000000656C6F67000000000EB50A4812
:1052E00090F8F01000290DD0012180F8F11007A2EC
:1052F00008A1F4208DE80700104B11A217A104208B
:10530000FFF738FD0EBD000064460020322E322E1D
:1053100039390000456173794C6F676765722056B3
:10532000257320697320696E697469616C697A6597
:1053300020737563636573732E0D0A009D6D0008FD
:105340002E2E5C456173796C6F676765725C737252
:10535000635C656C6F672E6300000000454C4F472F
:10536000000000002DE9F043DFF88C90DFF88C801E
:1053700085B00D0006461446174606D1D8F8003011
:105380002BB12C2249461EA098477CB115E01CA2E7
:1053900002922C20CDE903901AA3CDE90003164B0D
:1053A00021A229A10020FFF7E5FCFEE7D8F8003094
:1053B0007BB12D22104926A098474FF480622078B7
:1053C000B0B13146761C914212D205F8010B641C33
:1053D000F5E71FA202922D20CDE9039009A3CDE9A4
:1053E0000003054B10A218A10020FFF7C3FCFEE745
:1053F00005B0E01BBDE8F083636E0008EC00002000
:1054000064737400282573292068617320617373A5
:10541000657274206661696C65642061742025730F
:105420003A256C642E0000002E2E5C456173796C69
:105430006F676765725C7372635C656C6F675F75DD
:1054400074696C732E630000656C6F670000000068
:105450007372630013B54FF47A73012269460248F0
:10546000FDF768FC01201CBD0804002030B585B0A4
:105470000D460446052807D9104840F2D922036892
:1054800063B10F490FA09847154800EB8400D0F88E
:10549000D800284000D0012005B030BD0848CDE933
:1054A0000302009207A10FA3CDE90131034616A222
:1054B0001CA10020FFF75EFCFEE70000EC000020CE
:1054C000376E00086C6576656C203C3D20454C4F7E
:1054D000475F4C564C5F564552424F5345000000C3
:1054E0006446002028257329206861732061737346
:1054F000657274206661696C65642061742025732F
:105500003A256C642E0000002E2E5C456173796C88
:105510006F676765725C7372635C656C6F672E633F
:1055200000000000656C6F670000000010B513A05C
:10553000FEF764FC17A0FEF761FC23A0FEF75EFCFB
:105540002EA0FEF75BFC39A0FEF758FC46A0FEF744
:1055500055FC5548FEF752FC54A0FEF74FFC60A0E6
:10556000FEF74CFC6CA0FEF749FC7948FEF746FCC0
:10557000BDE8104077A0FEF741BC000041766169AC
:105580006C61626C6520636F6D6D616E64733A204F
:105590000D0A0000686920202020202020202020E3
:1055A0002020202020202020202D2D2D2D2D2D2DA0
:1055B0002D2D2D2020202020536179206869207412
:1055C0006F206D650D0A00007265626F6F74202098
:1055D000202020202020202020202020202D2D2DA4
:1055E0002D2D2D2D2D2D2D2020202020537973742D
:1055F000656D207265626F6F740D0A0068656C706E
:10560000202020202020202020202020202020209A
:10561000202D2D2D2D2D2D2D2D2D2D202020202008
:1056200048656C70206C6973740D0A00646562755E
:10563000675F6F6E20202020202020202020202047
:10564000202D2D2D2D2D2D2D2D2D2D2020202020D8
:1056500053686F77206465627567206D6573736149
:105660006765730D0A00000064656275675F6F66A9
:10567000662020202020202020202020202D2D2DBD
:105680002D2D2D2D2D2D2D2020202020446F6E27F7
:10569000742073686F77206465627567206D657329
:1056A00073616765730D0A007C6F000873686F771C
:1056B0005F666F63202020202020202020202020D3
:1056C000202D2D2D2D2D2D2D2D2D2D202020202058
:1056D00053686F7720666F6320646174610D0A0000
:1056E0007365745F75717564202020202020202050
:1056F00020202020202D2D2D2D2D2D2D2D2D2D2028
:1057000020202020536574207571207564207661F7
:105710006C75650D0A0000007365745F706F73200F
:10572000202020202020202020202020202D2D2D52
:105730002D2D2D2D2D2D2D20202020205365742042
:10574000706F736974696F6E206C6F6F700D0A00F3
:105750002C6F00087365745F73706565642020208A
:105760002020202020202020202D2D2D2D2D2D2DDE
:105770002D2D2D2020202020536574207370656509
:1057800064206C6F6F70200D0A000000FCF758F960
:10579000FDF792FFFDF78EFDFDF7B2FDFDF754FE1C
:1057A000FDF7CEFD9FED090AFBF796FB084880ED5B
:1057B000000AA820FBF7B2FCFFF71CF9FDF7FEFC7E
:1057C000FDF74EFD00F039F8FEE70000920A863F33
:1057D0000000002001460020842900D0C81C70472A
:1057E00070B50446FBF7F8FC2046FDF705FF94ED85
:1057F000060AB1EE041AF9EE040AFDF7CFFC84EDB7
:10580000060A9FED080A084D84ED050A2046E9685E
:1058100088476968204688472046BDE87040FDF704
:1058200097BE000000000000D000002010B500B9B5
:10583000012000F0DDFC002010BD10B500F074FD6B
:10584000002010BD7FB50D4604464169B0F908003F
:1058500081B1A16971B1FFF7BDFFD4E905128DE8EF
:105860000700D4E900102B46226901F086F8039066
:1058700004B070BDFFF7AEFF03A9CDE90001208A97
:105880002B4682B2D4E9001001F04AF8012801D079
:105890000020EDE70398EBE708B90648006808B177
:1058A00034307047502080F31188BFF34F8FBFF31F
:1058B0006F8FFEE7200000202DE9F041184C0F46C5
:1058C0000546E6682068001D00F0CBFB38B920686B
:1058D00090F82C1001208840216981432161681CC7
:1058E00007D137B12168BDE8F0410E48091D00F02D
:1058F000FBBB20683544B5424560216805D2A06BEA
:10590000BDE8F041091D00F0D7BB606B091D00F038
:10591000D3FBA06A854200D2A562BDE8F0810000F9
:1059200020000020700500202DE9F041054600F020
:10593000E7FB2E4CA068401CA06020682C4F10B1E3
:10594000606940B32DE02560A068012829D10026B8
:1059500006EB860007EB800000F0A0FB761C072E0C
:10596000F6D323488C3000F099FB2148A03000F09A
:1059700095FB1F48B43000F091FB1D48C83000F083
:105980008DFB1B48DC3000F089FB19488C306063CC
:105990001430A06305E02068E96AC06A884200D834
:1059A0002560606A401C6062E96A012022698840C3
:1059B0001043206101EB810007EB8000291D00F0FE
:1059C00093FB00F0BDFB606900280CD02068E96AF9
:1059D000C06A884207D207494FF080500860BFF381
:1059E0004F8FBFF36F8FBDE8F081000020000020D3
:1059F0009404002004ED00E02DE9F041856B17468A
:105A000004460026026C82B1C7B1E068FAF76BFC6D
:105A1000E168206C091AE1602268914202D2A16813
:105A2000081AE060022F16D017E02068A8B9A06815
:105A300001F042F806460020A0600EE06068FAF728
:105A400052FC216C606808446060A168884204D3FD
:105A50002068606001E005B16D1E6D1CA5633046D5
:105A6000BDE8F08110B5044690F8510058B1012806
:105A70000CD002280FD0502080F31188BFF34F8F35
:105A8000BFF36F8FFEE7206B00F06EFB2046BDE892
:105A9000104000F069BB10BD10484FF47051420730
:105AA00006D0C01D0D4920F00700411AC1F5705104
:105AB0000B4A00230144C2E900030839183A21F0D7
:105AC000070111604B600B600B1AC0E90013936073
:105AD0004FF0004053605061704700008405002083
