:020000040800F2
:1000000078450020850200080F1C00086F1A0008C0
:100010000D1C0008F109000849200008000000003C
:10002000000000000000000000000000C501000802
:10003000F30900080000000021020008211D00084B
:100040009F0200089F0200089F0200089F0200080C
:100050009F0200089F0200089F0200089F020008FC
:100060009F0200089F0200089F0200089F020008EC
:100070009F0200089F0200089F0200089F020008DC
:100080009F0200089F0200089F0200089F020008CC
:100090009F0200089F0200089F0200089F020008BC
:1000A0009F0200089F0200089F0200089F020008AC
:1000B0009F0200089F0200089F0200089F0200089C
:1000C0009F0200089F0200089F0200089F0200088C
:1000D0009F0200089F0200089F0200089F0200087C
:1000E0009F0200089F0200089F0200089F0200086C
:1000F0009F0200089F0200089F0200089F0200085C
:100100009F0200089F0200089F0200089F0200084B
:100110009F0200089F020008F11D00089F020008CE
:100120009F0200089F0200089F0200089F0200082B
:100130009F0200089F0200089F0200089F0200081B
:100140009F0200089F0200089F0200089F0200080B
:100150009F0200089F0200089F0200089F020008FB
:100160009F0200089F0200089F0200089F020008EB
:100170009F0200089F0200089F0200080000000084
:100180009F0200089F0200089F0200089F020008CB
:100190009F0200089F0200089F0200089F020008BB
:1001A00000000000000000009F020008DFF810D0EF
:1001B00000F0FAFB004800477D3D0008AFF30080E7
:1001C000784500202C4B19680868B0E8F04F80F3A0
:1001D0000988BFF36F8F4FF0000080F311887047DC
:1001E0000000000008480068006880F308884FF0AD
:1001F000000080F3148862B661B6BFF34F8FBFF37F
:100200006F8F00DF00BF00BF08ED00E0DFF80C00DB
:10021000016841F470010160704700BF88ED00E0A3
:10022000EFF30980BFF36F8F134B1A681EF0100FA6
:1002300008BF20ED108A20E9F04F106009B44FF09C
:10024000500080F31188BFF34F8FBFF36F8F04F01E
:1002500057FB4FF0000080F3118809BC196808684B
:10026000B0E8F04F1EF0100F08BFB0EC108A80F31A
:100270000988BFF36F8F704718000020EFF30580E7
:10028000704700000648804706480047FEE7FEE743
:10029000FEE7FEE7FEE7FEE7FEE7FEE7FEE7FEE736
:1002A000E11D0008AD0100082DE9F05F05460020C2
:1002B00092469B4688460646814640241BE02846D7
:1002C00041464746224600F034F953465A46C01A82
:1002D000914110D311461846224600F01BF92D1A01
:1002E00067EB01084F4622460120002100F012F979
:1002F00017EB00094E41201EA4F10104DFDC484643
:1003000031462A464346BDE8F09F40EA01039B0779
:1003100003D009E008C9121F08C0042AFAD203E07A
:1003200011F8013B00F8013B521EF9D27047D2B2DE
:1003300001E000F8012B491EFBD270470022F6E7CE
:1003400010B513460A4604461946FFF7F0FF20464B
:1003500010BD2DE9FE4F81EA030404F0004421F0B2
:10036000004100944FF0000B23F0004350EA0104D9
:100370005ED052EA03045BD0C3F30A54C1F30A55BA
:100380002C44A4F2F3340194A0FB0254C1F31301F2
:1003900041F48011C3F3130343F4801301FB0244BF
:1003A00000FB034E840A970A44EA815447EA8357C4
:1003B000A4FB076802958D0A05FB07854FEA932C7D
:1003C00004FB0C542705029D4FEA065847EA1637EE
:1003D000B5EB08056EEB070C870E920E47EA811706
:1003E00042EA8312A7FB0201B6EB0B0164EB0004A7
:1003F0002B0D43EA0C335E1844EB1C50DA46514691
:10040000E7FB0201C5F313044FEA0B3343EA14532D
:100410004FEA0432019C43EA0603A4F10C0402945F
:10042000009CCDE900B400F0DAF803B0BDE8F08F2D
:1004300000200146F9E70EB5C10F80EAE0700844DC
:10044000CA07002140F233438DE80E000A460B46EE
:1004500000F0C5F803B000BD00F0004230F00040ED
:100460000AD0C10D01F56071C0F3160042EA0151D6
:10047000C208400711437047002001467047000042
:1004800030B5041E71F1000404DB4FF0004440421B
:1004900064EB0101141E73F1000405DB1C464FF0F0
:1004A0000043524263EB0403994208BF904230BDBF
:1004B00001F0004330B421F0004150EA010206D0BF
:1004C0000A0DA2F56072C1F31301002A02DC30BCF0
:1004D00000207047440F44EAC104C100E01830BC5A
:1004E00000EBC25000F035B830B50B460146002095
:1004F0002022012409E021FA02F59D4205D303FAE6
:1005000002F5491B04FA02F52844151EA2F1010266
:10051000F1DC30BD202A04DB203A00FA02F1002091
:1005200070479140C2F1200320FA03F31943904031
:100530007047202A04DB203A21FA02F0002170479C
:1005400021FA02F3D040C2F120029140084319463B
:1005500070470029A8BF7047401C490008BF20F021
:100560000100704710B4B0FA80FC00FA0CF050EAB9
:10057000010404BF10BC704749B1CCF1200421FA3A
:1005800004F411FA0CF118BF012121430843A3EB35
:100590000C01CB1D4FEA00614FEA102042BF002042
:1005A00010BC704700EBC35010440029A4BF10BC1E
:1005B0007047401C490008BF20F0010010BC704784
:1005C00010B5141E73F1000408DA401C41F100015B
:1005D00092185B411A4301D120F0010010BD2DE9B2
:1005E000F04D92469B4611B1B1FA81F202E0B0FAA9
:1005F00080F220329046FFF78DFF04460F4640EA16
:100600000A0041EA0B0153465A46084313D01146EB
:1006100053EA010019D0C8F140025046FFF789FFA4
:1006200005460E46504659464246FFF773FF0843BB
:1006300005D0012004E020463946BDE8F08D0020B9
:10064000054346EAE0762C4337430A986305E40AFB
:10065000A0EB08000022FD0A44EA47540A3002D504
:1006600000200146E9E7010510196941DDE9084567
:1006700000196941BDE8F04DA2E72DE9FE4F804623
:1006800081EA0300C00F0C46009021F0004123F0E6
:100690000045B8EB0200A94105D2404621469046EC
:1006A0001C460B46024623F00040104347D0270D5E
:1006B000C7F30A00C3F30A510290401A0190402880
:1006C0006BDAC3F3130040F4801B0098924620B10C
:1006D0000023D2EB030A63EB0B0B01985946C0F1E0
:1006E00040025046FFF716FF06460D465046594653
:1006F000019A00F06BF910EB08006141002487EAD1
:10070000115284EAE7731A4340D0009A62B3019A07
:10071000012A4FEA075215DC001B61EB02014FF082
:10072000004202EA0752CDE90042001C41F5801167
:1007300032462B46FFF753FF03B0BDE8F08F40462B
:100740002146F9E7001B61EB0201001C41F5801313
:1007500000185B412018A2F5001747EB030140EA9F
:10076000D570B6196D4111E06D084FEA360645EABD
:10077000C0754FEA0752001B61EB0201001C41F5F6
:10078000801149084FEA30000019514132462B468A
:1007900003B0BDE8F04FFFF713BF009801224000FF
:1007A0000023D0EB020263EBE073009821464FEA8E
:1007B000E074B8EB000061EB0401E9E783F000436B
:1007C0005BE781F0004158E72DE9F04D81EA030431
:1007D00004F0004B21F0004514464FF0000A23F0CE
:1007E000004150EA050220D054EA01021DD0C5F3B1
:1007F0000A570246C5F31303C1F31300C1F30A56A7
:1008000040F4801543F48013A7EB0608101BD6466E
:1008100008F2FD3873EB050002D308F1010801E08E
:1008200092185B41B8F1000F03DA00200146BDE8E1
:10083000F08D00204FF48011064684460EE0171B11
:1008400073EB050705D3121B63EB050306434CEA64
:10085000010C49084FEA300092185B4150EA010749
:10086000EDD152EA030012D082EA040083EA0501C6
:10087000084305D0101BAB4106D20122002306E03D
:1008800000224FF0004302E06FF0010253101AEB18
:1008900006004CEB085110EB0A0041EB0B01BDE8E0
:1008A000F04DFFF78DBE2DE9F04D00231A461B1ABF
:1008B0008A4103DB00200146BDE8F08DC1F30A52F6
:1008C000C1F3130141F480154FF0000BD10702D1A1
:1008D00000186D41521E0027044640F2FF113846B1
:1008E00001EB620A3E468046024600204FF480112A
:1008F000FFF71FFEC2197141BB1846EB0100B4EBB4
:10090000030C75EB000C04D3E41A65EB00051746E5
:100910000E46241908F101006D4180463428E3DDBC
:10092000F91946EB0600091BA84103D24FF0FF322C
:10093000134601E0002213461BEB070046EB0A5169
:10094000BDE8F04DFFF73CBEC1F30A52C1F31301FD
:1009500040F2FF3341F480119A4202DA002001464E
:10096000704740F233439A42A2F2334202DC5242D1
:10097000FFF7DFBDFFF7CEBD30B5041E71F10004F7
:1009800004DB4FF00044404264EB0101141E73F19C
:10099000000405DB1C464FF00043524263EB0403A6
:1009A0008B4208BF824230BD064C074D06E0E0682E
:1009B00040F0010394E8070098471034AC42F6D3A6
:1009C000FFF7F8FB004E0008204E0008202A06DB47
:1009D000CB17203A41FA02F043EAE07306E041FA0D
:1009E00002F3D040C2F120029140084319467047FB
:1009F000FEE7704772B6FEE770B5044600F02EF9C8
:100A00000546601C02D004480078044400F026F932
:100A1000401BA042FAD370BD080000202DE9F84F1A
:100A2000DFF8F8A10022012403254FF00F090AF195
:100A3000040BAAF1040E00BF0B6804FA02F633405F
:100A4000B34270D10F7907F00307012F01D0022FB5
:100A500016D187684FEA420805FA08FC27EA0C0716
:100A6000D1F80CC00CFA08FC4CEA070CC0F808C01E
:100A70004768B7430E79C6F3001696403E4346607A
:100A80000E79F643B6070AD0C7684FEA420C05FA5A
:100A90000CF6B7438E6806FA0CF63E43C6600E7934
:100AA00006F00306022E10D1D60800EB8608D8F80F
:100AB000206057074FEAD76C09FA0CF7BE430F695D
:100AC00007FA0CF73743C8F8207006684FEA420C63
:100AD00005FA0CF7BE430F7907F0030707FA0CF786
:100AE000374307604E6816F4403F1CD04C4E3768C1
:100AF00047F480473760366822F0030706F48046E3
:100B00000096484E07EB060CDCF8086897073F0F85
:100B100009FA07F826EA0806DFF80C81404503D1F8
:100B20004FF0000841E072E0DFF80081404502D15B
:100B30004FF0010839E0DFF8F880404502D14FF06E
:100B4000020832E0DFF8EC80404502D14FF00308A4
:100B50002BE0DFF8E480404502D14FF0040824E0A8
:100B6000DFF8D880404502D14FF005081DE0DFF8DE
:100B7000D080404502D14FF0060816E0DFF8C4806F
:100B8000404502D14FF007080FE0DFF8BC80404538
:100B900002D14FF0080808E0DFF8B080404502D1EC
:100BA0004FF0090801E04FF00A0808FA07F848EA90
:100BB0000608CCF80888DAF800605746D1F804C077
:100BC0009E435FEACC2C00D51E433E60DBF80060FC
:100BD0005F46D1F804C09E435FEA8C2C00D51E43CB
:100BE0003E60DEF800607746D1F804C09E435FEABD
:100BF0008C3C00D51E433E60084F083F3E68D1F84C
:100C000004C09E435FEACC3C00D51E433E60521CAC
:100C1000102AFFF411AFBDE8F88F0000083C014036
:100C2000443802400030014000000240000402400D
:100C300000080240000C0240001002400014024074
:100C400000180240001C0240002002400024024024
:100C50000AB1816170470904FBE700000148806820
:100C600070470000080000200248816802781144A3
:100C700081607047080000200B4810B5016841F4FE
:100C800000710160016841F480610160016841F414
:100C900080710160032000F09FF80F2000F006F83B
:100CA00000F050F8002010BD003C024030B5054671
:100CB0001F4887B00024016841F0100101600068FE
:100CC00006A900F01000009001A800F031F9049886
:100CD000A8B100F04DF940001649174AB0FBF1F1F8
:100CE0001648491E026040F2E732C0E90324C0E919
:100CF0000114846100F0CBFC040003D015E000F087
:100D000037F9E9E70D4800F0F1FC04000DD1362079
:100D100000F034F8102D07D200222946362000F0CA
:100D20003BF80748056000E0012407B0204630BDCD
:100D30004038024040420F0000100040D80300201D
:100D40000C0000200C4882B0016841F48041016031
:100D5000006800F4804000900748001F016841F0DF
:100D6000805101600068002200F0805000900F2147
:100D7000901E02B000F010B844380240002809DB91
:100D800000F01F02012191404009800000F1E020A5
:100D9000C0F8001170470000F0B40E4B1B680C4601
:100DA000C3F30223C3F10705042D00D90425191D3F
:100DB000072901D2002300E0DB1E012606FA05F117
:100DC000491E214099409E40761E16403143F0BC9A
:100DD00001F064B90CED00E0064900F00702086874
:100DE0004FF6FF03184040EA0220034A1043086010
:100DF000704700000CED00E00000FA052DE9F04717
:100E00000E46050065D0DFF81481D8F80000F7B26F
:100E100000F00F00B04207D288F80070D8F8000048
:100E200000F00F00B04254D128683D4C810712D524
:100E3000400703D5206840F4E05020602878000780
:100E400003D5206840F4604020602068A96820F045
:100E5000F000084320602878C0072DD0304968682A
:100E60000839012812D0022813D0032811D00968AC
:100E7000890700292DDA216821F00301014321604F
:100E8000FFF7ECFE814641F2883A0EE009688903DB
:100E9000EFE709688901ECE7FFF7E0FEA0EB090145
:100EA000514502D90320BDE8F0872068696800F049
:100EB0000C00B0EB810FEFD1D8F80010404601F0E4
:100EC0000F01B14207D90770006800F00F00B0426F
:100ED00001D00120E7E72878400705D52068E968B8
:100EE00020F4E050084320602878000706D52068E9
:100EF000296920F4604040EAC100206000F058F801
:100F00002168084AC1F30311515CC84006490860D2
:100F100006480068FFF7CAFE0020C4E7003C024014
:100F200008380240C84C0008140000200C000020C3
:100F30000F2202600C4A136803F003034360136836
:100F400003F0F0038360136803F4E053C360126896
:100F50004FF4E05303EAD20202610448006800F053
:100F60000F0008607047000008380240003C024053
:100F70000448054900680968044AC1F38221515CAC
:100F8000C84070471400002008380240D84C0008C0
:100F90000448054900680968044AC1F34231515CBC
:100FA000C84070471400002008380240D84C0008A0
:100FB000154810B5006810F00C02144813D01449FD
:100FC000042A0FD0082A0ED10F4C241F2268236850
:100FD00002F03F025B0207D52068C0F38810A0FB37
:100FE000010106E0084610BD2168C1F38811A1FB8C
:100FF00000010023FFF758F92168C1F30141491CA2
:101000004900B0FBF1F010BD083802400024F400A4
:10101000001BB7002DE9F84F04006ED02078DFF8F0
:101020004C93C007A9F104054AD009F104000168F6
:10103000C1F38101012908D00068C0F381000228B2
:101040000AD1D9F80000400206D52868800337D5B8
:1010500060680028E1D033E06068B0F5803F10D0D0
:10106000B0F5A02F286810D020F4803028602868C0
:1010700020F4802028606068A8B1FFF7EFFD0646E5
:101080000DE0286840F48030F4E740F480202860C8
:10109000F7E700BFFFF7E2FD801B642873D82868DC
:1010A0008003F7D50CE0FFF7D9FD064605E000BF49
:1010B000FFF7D4FD801B6428F0D828688003F7D49C
:1010C0002078DFF8AC8280074FF0000A3ED5A748B1
:1010D000001D016811F00C0F08D00068C0F38100FA
:1010E00002280BD1D9F80000400207D428688007F5
:1010F00016D5E068012800D112E033E1E068B8B10C
:101100000120C8F80000FFF7A9FD064605E000BF72
:10111000FFF7A4FD801B0228C0D828688007F7D5F8
:101120002868216920F0F80040EAC10028600DE03D
:10113000C8F800A0FFF792FD064604E0FFF78EFD19
:10114000801B02281FD828688007F7D42078000762
:1011500022D5864F87486169703771B101210160DE
:10116000FFF77CFD064604E0FFF778FD801B0228B0
:1011700009D838688007F7D50EE0C0F800A0FFF75F
:101180006DFD064605E082E0FFF768FD801B022842
:101190007DD838688007F7D42078400768D5DFF815
:1011A000CCB100270BF13C0BDBF80000C0000BD4E6
:1011B000DBF8001041F08051CBF80010DBF80000A4
:1011C000012700F0805000906B4E3068C00510D4AD
:1011D000306840F480703060FFF740FD009005E01B
:1011E000FFF73CFD0099401A022850D83068C0052E
:1011F000F6D55E4EA0686C3601280FD00528306801
:1012000010D020F001003060306820F00400306021
:10121000A068B8B1FFF722FD00900FE0306840F001
:101220000100F4E740F004003060F7E7FFF716FD37
:101230000099411A41F28830814266D830688007AF
:10124000F4D50EE0FFF70AFD009007E0FFF706FD7A
:101250000099411A41F28830814256D8306880079F
:10126000F4D42FB1DBF8001021F08051CBF800103E
:10127000A069C8B33D49091D0968C1F3810102296C
:101280004AD00228504607D0C8F8600000E03CE091
:10129000FFF7E4FC04463BE04746C8F86000FFF770
:1012A000DDFC064605E000BFFFF7D8FC801B0228E6
:1012B0002BD828688001F7D4D4E907010843A16A34
:1012C0002E4A490802EB0141626A41EA8211084351
:1012D00094F82C1040EA0161C9F80010012038662A
:1012E000FFF7BCFC044606E03EE000BFFFF7B6FC9B
:1012F000001B022809D828688001F7D534E000BF18
:10130000FFF7ACFC001B022802D90320BDE8F88FD0
:1013100028688001F4D427E00128F7D0D9F800002C
:10132000E26900F4800191421CD1226A00F03F0181
:10133000914217D147F6C071626A0140B1EB821F3A
:1013400010D1A26A4FF0FF3300F4403103EB520298
:10135000B1EB024F06D194F82C1000F07060B0EBA6
:10136000016F01D00120D1E70020CFE7043802400F
:1013700000004742800E4742007000400000FFFF1F
:1013800070B5040009D0606A002540B1256165612F
:10139000A56294F8510040B10CE0012070BD606876
:1013A000B0F5827FF4D0E561F2E784F85050204632
:1013B00000F044F8022084F851002068016821F010
:1013C00040010160A088218900F4827001F4044189
:1013D0000843A18901F400610843217C01F0020166
:1013E0000843217D01F001010843218B01F40071C4
:1013F0000843217F01F03801084394F8201001F0E0
:1014000080010843218D01F40051084321680860E0
:10141000A069042101EA104094F8241001F01001A1
:101420000843216848602068C16921F40061C161F6
:101430006565012084F85100002070BD10B586B0AC
:10144000044614216846FEF779FF14492068884253
:1014500021D113480021026842F480120260006822
:1014600000F4801005900E481438026842F0200203
:101470000260006800F0200005904FF4607000905A
:101480000220CDE901010320039005200490694664
:101490000448FFF7C3FA06B010BD00000050014039
:1014A00044380240001402402DE9F84F044690F8F9
:1014B000500000270A9E1D4692468B464FF00109B8
:1014C00001280ED0012084F85000FFF7C7FB8046AA
:1014D00094F85100616801280CD0B1F5827F07D1E2
:1014E00002E00220BDE8F88FA16809B9042801D004
:1014F0000227C2E0BBF1000F27D0BAF1000F24D0C1
:101500001DB394F85100042802D0052084F851003E
:1015100000206065C4F838A0E587A587C4F830B01E
:10152000E586A5862064606420680168490603D4C6
:10153000016841F040010160E068B0F5006F60684B
:1015400005D0E8B3012D46D07FE0012795E008B132
:10155000012D39D1206B21680088C860206B801C68
:101560002063E08E401EE0862EE0206881688907B7
:101570000FD5E18E69B1B9F1010F0AD1216B09884C
:10158000C160206B801C2063E08E401EE0864FF01F
:10159000000920688168C9070CD0E18F51B1C0688B
:1015A000A16B0880A06B801CA063E08F401EE087C9
:1015B0004FF00109FFF752FBA0EB0800B04200E03A
:1015C00009E001D3701C50D1E08E0028CDD1E08F0E
:1015D0000028CAD13FE0206B216800780873206B97
:1015E000401C2063E08E401EE0862EE0206881686B
:1015F00089070FD5E18E69B1B9F1010F0AD1216BCD
:1016000009780173206B401C2063E08E401EE08649
:101610004FF0000920688168C9070CD0E18F51B1F3
:10162000C068A16B0870A06B401CA063E08F401ED7
:10163000E0874FF00109FFF711FBA0EB0800B04273
:1016400002D3701C01D010E07EB1E08E0028CDD115
:10165000E08F0028CAD142463146204600F0D8FA31
:1016600028B101272020606507E0032705E0A06876
:1016700018B92068C16880680090012084F8510082
:10168000002084F8500038462CE77047704710B5AA
:10169000040003D094F83D0010B107E0012010BD14
:1016A000002084F83C00204600F01EF8022084F858
:1016B0003D00211D206800F0A1FB012084F84600B8
:1016C00084F83E0084F83F0084F8400084F841002C
:1016D00084F8420084F8430084F8440084F845000C
:1016E00084F83D00002010BD7047000090F83D10C8
:1016F000012901D001207047022180F83D100168C6
:10170000CA6842F00102CA6000681149884214D0D8
:10171000B0F1804F11D00F4988420ED00E49884257
:101720000BD00E49884208D00D49884205D00D499A
:10173000884202D00C49884204D1816801F0070137
:10174000062903D0016841F00101016000207047C3
:10175000000001400004004000080040000C004070
:10176000000401400040014000180040704770B57F
:101770000446006801694FF00005C943890715D484
:10178000C168C943890711D4E91E0161012020778E
:10179000206880698007204602D0FFF7E7FF04E059
:1017A00000F098F8204600F096F825772068016947
:1017B000C943490717D4C168C943490713D46FF017
:1017C00004010161022020772068806910F4407FC5
:1017D000204602D0FFF7CAFF04E000F07BF8204665
:1017E00000F079F8257720680169C943090716D404
:1017F000C168C943090712D46FF0080101610420D0
:1018000020772068C0698007204602D0FFF7AEFF2E
:1018100004E000F05FF8204600F05DF825772068CE
:101820000169C943C90617D4C168C943C90613D49D
:101830006FF010010161082020772068C06910F462
:10184000407F204602D0FFF791FF04E000F042F80D
:10185000204600F040F8257720680169C943C90790
:1018600008D1C168C943C90704D1891E0161204656
:1018700000F032F820680169C943090609D4C1683B
:10188000C943090605D46FF0800101612046FFF7C6
:10189000FCFE20680169C943490609D4C168C943EF
:1018A000490605D46FF040010161204600F01EF8A2
:1018B00020680169C94389060BD4C168C9438906F8
:1018C00007D46FF0200101612046BDE87040FFF7AA
:1018D000DDBE70BD7047704700680349884201D182
:1018E000FFF7C2B97047000000100040704770B5A4
:1018F000040004D094F83D00002510B106E001205A
:1019000070BD84F83C50204600F022F8242084F872
:101910003D002068C16821F40051C160204600F0FC
:10192000D1FA2068016921F4904101612068416980
:1019300021F02A0141612068C16841F40051C16071
:101940002564202084F83D0084F83E00002070BD0E
:1019500010B586B0044614216846FEF7EFFC144922
:101960002068884221D113480021026842F4802275
:101970000260006800F4802005900E48103802686C
:1019800042F008020260006800F0080005904FF481
:10199000407000900220CDE9010103200390072050
:1019A000049069460448FFF739F806B010BD0000FE
:1019B0000048004040380240000C02402DE9F84346
:1019C000044690F83D001F4616460D4620284CD18F
:1019D000C5B1BEB194F83C00012846D0012084F87E
:1019E0003C004FF00008C4F84080212084F83D00FE
:1019F000FFF734F9A6848146E684A068B0F5805FDD
:101A000003D004E00120BDE8F883206928B12E4608
:101A10005FF0000584F83C800EE00026FAE78021A4
:101A2000204600F0D5FAA0B9AEB116F8010B216836
:101A30004860E08C401EE084E08C4B464FF0000292
:101A400000970028EBD14FF04001204600F0C0FA8B
:101A500030B10320D7E735F8020BC0F30800E6E702
:101A6000202084F83D000020CDE70220CBE7FEE7F0
:101A70001FB514A000F0EAFADFF8608002F0D8F990
:101A800001F0AEFC01F002FFD8F83000FEF7E4FCF4
:101A900006460F46D8F82C00FEF7DEFC04460D463D
:101AA000D8F82800FEF7D8FC8DE8F00041EC100BC8
:101AB0000BA053EC102B00F0C9FA0A2002F05EFBD9
:101AC000DCE70000726D5F61626F61726420262046
:101AD000696D75202620656B660D0A001041002097
:101AE0007175617420726F6C6C3A252E31662020FE
:101AF00070697463683A252E316620207961773ADF
:101B0000252E31660D0A00004FF47A74204602F04B
:101B100035FBFBE710B58EB01C220B496846FEF77B
:101B2000F4FB0021684602F035FB084C06491C22F4
:101B300020601C3107A8FEF7E8FB002107A802F08F
:101B400029FB60600EB010BD904C00080000002022
:101B50000D4808B5016841F080010160016801F09D
:101B600080010091016841F020010160016801F0ED
:101B700020010091016841F008010160006800F057
:101B80000800009008BD000030380240104810B531
:101B90000E4901604FF48271416000218160C16093
:101BA0004FF400720161C0E905123022C0E907213B
:101BB000416281620A21C162FFF7E2FB002803D083
:101BC000BDE81040FEF716BF10BD000000500140F8
:101BD0003C0300200C4810B50A4901604FF4E13184
:101BE0004160002181600C22C160C0E90412816162
:101BF000C161FFF77CFE002803D0BDE81040FEF76E
:101C0000F9BE10BD0048004094030020FEE7FEE747
:101C100038B504461248134B0068B0FBF3F04FF49C
:101C20007A73584300906068B0F5827F0DD10B46FF
:101C3000009200228021204600F016F870B1606DFD
:101C400040F020006065032038BD009830B1401E90
:101C5000009020688068C0430006F6D5002038BD9B
:101C60001400002000366E012DE9F8431E4691460F
:101C700088460446089DFEF7F1FF401B351AFEF723
:101C8000EDFF074625480068C0F3CB30684338E0D5
:101C9000701C37D0FEF7E2FFC01BA84203D215B17B
:101CA000009860B32CE02068416821F0E0014160B9
:101CB0006068B0F5827F0BD1A068B0F5004F02D00C
:101CC000B0F5806F04D12068016821F04001016007
:101CD000A06AB0F5005F09D12068016821F40051C5
:101CE00001602068016841F400510160012084F81E
:101CF0005100002084F850000320BDE8F88300253F
:101D0000401E00902068816838EA010004D000215C
:101D10004945BDD10020F0E70121F9E7140000207A
:101D200010B5502080F31188BFF34F8FBFF36F8F32
:101D300002F0E6FE18B104494FF080500860002020
:101D400080F3118810BD000004ED00E030B593B0C1
:101D500030216846FEF7F2FA14210CA8FEF7EEFADD
:101D60001D480025016841F080510160006800F0C5
:101D7000805011901948016841F4404101600068A9
:101D8000022400F4404011900120009000040190D2
:101D90008001CDE9064006200890A820CDE909047D
:101DA00004200B906846FFF735F908B172B6FEE7DC
:101DB0000CA90F2081E831004FF4A0500F904FF490
:101DC0008050109005210CA8FFF718F8002801D0CA
:101DD00072B6FEE713B030BD4038024000700040DC
:101DE0000248016841F470010160704788ED00E02D
:101DF0000148FFF7BCBC0000D8030020F0B5026822
:101E0000254C264D264E274F274B4FF0804CA042A5
:101E100009D0604507D0A84205D0B04203D0B842EF
:101E200001D0984204D122F0700E4A6842EA0E02B4
:101E3000A0421BD0604519D0A84217D0B04215D09F
:101E4000B84213D0984211D0184DA8420ED0184D68
:101E5000A8420BD0174DA84208D0174DA84205D074
:101E6000164DA84202D0164DA84203D122F4407567
:101E7000CA682A434D6922F080022A4302608A68B8
:101E8000C2620A688262A04201D0984201D1096907
:101E9000016301214161F0BD0000014000040040E8
:101EA00000080040000C00400004014000400140D8
:101EB000004401400048014000180040001C004060
:101EC0000020004070B5044600680169E26821F412
:101ED0004051114301612169A068E26908436169C9
:101EE000114308432168CA6849F20C639A430243CC
:101EF000CA6020684169A26921F4407111434161BF
:101F000031492068884202D03049884202D1FFF727
:101F10003FF801E0FFF72CF8E2690023192164255E
:101F20003226B2F5004F626828D0A0FB0101930F62
:101F30009200FEF7B9F90146B0FBF5F06FF0180218
:101F4000504301EB800006EB0010B0FBF5F000F011
:101F5000F002B1FBF5F002EB0012B1FBF5F06FF00F
:101F60001803584301EB800006EB0010B0FBF5F0BE
:101F700000F00F0021681044886070BDA0FB0101D3
:101F800092185B41FEF790F90146B0FBF5F00201B3
:101F9000B1FBF5F06FF01803584301EB800006EB3E
:101FA000C000B0FBF5F000F0F80002EB4002B1FB1E
:101FB000F5F0584301EB800006EBC000B0FBF5F0F4
:101FC00000F00700D6E700000010014000140140B7
:101FD0002DE9F041984617460E460446069D27E037
:101FE000681C25D02DB1FEF739FEA0EB0800A842F1
:101FF0001ED920680C3050E8001F21F4D07140E851
:102000000012002AF5D12068143050E8001F21F09A
:10201000010140E80012002AF5D1202084F83D009B
:1020200084F83E00002084F83C000320BDE8F081E5
:102030002068006836EA000004D00020B842CFD003
:102040000020F3E70120F9E7FEE700000FB4054B9D
:1020500010B503A9044A029800F01EFE10BC5DF8FA
:1020600014FB0000C9330008E000002003B401980D
:102070004100009850EAC12018BF04204A0D18BF43
:1020800040F0010040F2FF72B2EB515F08BF40F038
:102090000200012808BF052002B070470907090E99
:1020A000002804DB00F1E02080F80014704700F005
:1020B0000F0000F1E02080F8141D704700000000C0
:1020C00070B5C1482DED020B2DED0E8B82B0119D28
:1020D00025F000449FEDBEDB9FEDBFEB84423EDB6D
:1020E000A4F140511098A1F17F6108430FD0BC4882
:1020F000844202DC28D1109830B39DED100B02B061
:10210000BDEC0E8B02B0BDE8704000F0B8BC9DED98
:10211000100B53EC1D2B51EC100BFEF71AF99DED33
:10212000100B41EC180B53EC1E2B51EC100BFEF76F
:1021300010F953EC182BFEF7A0FA41EC100B02B08B
:10214000BDEC0E8B02B070BD012000F0DDFC02B0D2
:10215000BDEC0E8B02B0BDE8704000F0A5BCA148FC
:102160009FEDA18B844256DA9DED100BB4F1795F9F
:102170000ADA51EC100BFFF779FF042808BF00F0D2
:10218000A3FC9DED100BDAE753EC102B51EC100B78
:10219000FEF7DFF841EC190B95480621B0EE490A2D
:1021A000F0EE690A784400F0EEFB53EC192B51EC89
:1021B000100BFEF7CEF841EC1A0B8E48B0EE490A30
:1021C000F0EE690A0421784400F0DDFB53EC192B92
:1021D00051EC100BFEF7BDF853EC182BFEF74DFA3F
:1021E00041EC100B51EC1A0B53EC102BFEF7ECFAF0
:1021F000CDE900019DED000B53EC102B9DED100B74
:1022000051EC100BFEF7A5F89DED101B53EC112BB4
:10221000FEF733FAD2E09DED100B51EC100B01F0FC
:10222000C6F853EC182BFEF7CCFA9FED730BCDE9F3
:10223000000153EC102B9DED000B51EC100BFEF741
:1022400088F841EC190B6E480621B0EE490AF0EE11
:10225000690A784400F097FB53EC192B51EC100BF2
:10226000FEF777F841EC1B0B6648B0EE490AF0EE3A
:10227000690A0421784400F086FB53EC192B51ECD9
:10228000100BFEF766F853EC182BFEF7F6F941EC4D
:102290001C0B51EC190B02F0D1F941EC180B5A4808
:1022A0009FED5BABA04222DC53EC1C2B51EC1B0BD3
:1022B000FEF78AFACDE900019DED000B51EC180BF9
:1022C00053EC102BFEF745F853EC182BFEF7D5F91D
:1022D00053EC1A2BFEF73DF853EC1D2BFEF76EFA6C
:1022E00053EC1E2BFEF76DFA41EC100B5FE08DED09
:1022F000008B002000909DED000B51EC180B53EC6F
:10230000102BFEF7BAF99DED000B41EC1E0B53ECC0
:10231000102B51EC100BFEF71CF853EC192BFEF7A9
:1023200050FA53EC1E2BFEF74FFA41EC190B53EC0D
:102330001C2B51EC1B0BFEF747FA41EC1B0B53EC2B
:102340001A2B51EC190BFEF704F853EC1D2BFEF77A
:1023500038FA41EC190B53EC1A2B51EC180BFDF722
:10236000F8FF53EC1B2BFDF7F4FF53EC192BFEF792
:1023700025FA9DED000B41EC180B53EC1A2B51EC98
:10238000100BFDF7E6FF9FED249B53EC192BFEF796
:1023900018FA41EC100B51EC180B53EC102BFEF714
:1023A0000DFA53EC192BFEF70CFA41EC100B002D33
:1023B0003FF7C5AE51EC100B81F0004141EC100B22
:1023C000BDE60000000000000000F03F000000003B
:1023D000075C143326A6913C182D4454FB21F93F89
:1023E0000000F07F0000E03F000000000000F03F30
:1023F000502B00005E2B0000000000000000E03FBA
:10240000A22A0000B02A00003333EF3F0000000092
:102410000000000000000040182D4454FB21E93F5B
:1024200070B59B482DED020B2DED068B079D25F019
:102430000044A04218DC9748844202DC0AD1069886
:1024400040B19DED060BBDEC068B02B0BDE87040BF
:1024500000F015BB002DCCBF9FED8F0B9FED900BB7
:10246000BDEC068B02B070BD8F48A04215DD8F48D1
:10247000A042D8BF4FF0FF3458DD9DED060B51EC64
:10248000100BFFF7F3FD042808BF00F01DFB9DEDC6
:10249000060BBDEC068B02B070BD9DED060B51EC3A
:1024A000100B00F084FFCDE9060181489FED828B7F
:1024B000A0423CDD8248A0421FDD00249FED82AB9C
:1024C0009DED060B53EC1A2B51EC100BFEF7D5F8D3
:1024D0009DED060B41EC190B53EC1A2B51EC100B34
:1024E000FDF737FF53EC182BFEF768F953EC192B67
:1024F000FEF76AF9CDE9060149E09DED060B0124DE
:1025000053EC182B51EC100BFEF7B7F89DED060BB2
:1025100041EC190B53EC182B51EC100BFEF74EF954
:1025200053EC192BFEF750F9CDE906012FE068486E
:10253000A0421FDD02249FED689B9DED060B53EC2E
:10254000192B51EC100BFDF704FF53EC182BFEF781
:1025500094F89DED060B41EC180B53EC192B51EC44
:10256000100BFEF72BF953EC182BFEF72DF9CDE9E4
:1025700006010CE09DED060B032453EC102B9FEDA0
:10258000580B51EC100BFEF71FF9CDE906019DED3C
:10259000060B53EC102B51EC100BFDF7DAFE41EC5F
:1025A000180B53EC182BFDF7D4FE41EC190B4E48D9
:1025B0000621B0EE490AF0EE690A784400F0E3F92A
:1025C00053EC182B51EC100BFDF7C3FE41EC180B2C
:1025D0004648B0EE490AF0EE690A0521784400F059
:1025E000D2F953EC192B51EC100BFDF7B2FE41EC74
:1025F000100B51EC180B53EC102B002C0EDAFEF7DD
:102600003CF89DED061B53EC112BFDF7A2FE9DED52
:10261000061B53EC112BFEF7D4F835E0FEF72DF82E
:102620009DED061B53EC112BFDF793FE41EC100BB7
:102630002F48784400EBC40090ED001B51EC100BC8
:1026400053EC112BFEF7BAF89DED061B53EC112B42
:10265000FEF7B4F841EC100B2648784400EBC400B8
:1026600090ED001B51EC100B53EC112BFEF7A9F869
:1026700041EC100B002DA2BFBDEC068B02B070BD6B
:1026800051EC100B81F0004141EC100B01E7000010
:10269000000010440000F07F182D4454FB21F93F46
:1026A000182D4454FB21F9BF0000DC3F0000203E00
:1026B0000000F33F00000000000000000000F03FB9
:1026C0000000E63F000000000000000000000040A5
:1026D0000080034000000000000000000000F83F00
:1026E000000000000000F0BFF2270000A827000053
:1026F00032270000EA26000070B56F4E2DED040B66
:102700002DED048B82B0DDF824C0DDE907235C42A7
:102710002CF000411C4341EAD474069D22F0004095
:10272000B44205D86C422C4340EAD474B4420BD96D
:102730009DED081B9DED060B02B0BDEC048B04B0B3
:10274000BDE8704000F0A5B9ACF14054A4F17F643D
:102750001C430BD0022404EAAC7444EAD27405434F
:102760009FED578B9FED582B07D015E09DED060B85
:1027700051EC100B00F013FE42E0002C11BF012CB5
:102780009DED060B02B0BDEC048B04BF04B070BD20
:10279000022C38D0032C3BD00B439FED4D1B9FEDFB
:1027A0004E0B0AD0B14218D1B04209D121F080417C
:1027B00020F08040099107900FE0002A15DA10E020
:1027C000474B7B44002C08BF93ED000B0DD0012C30
:1027D00010D0022C17D0032C1AD0B0421DD1002AE1
:1027E00003DAB0EE410AF0EE610A02B0BDEC048BF0
:1027F00004B070BD93ED000B51EC100B81F0004163
:1028000041EC100BF1E7B0EE480AF0EE680AECE795
:10281000B0EE420AF0EE620AE7E7401A00159FEDBB
:10282000329B3C28C8BF8DED000B17DCBCF1000FBC
:10283000BCBF10F13C0F8DED009B0FDB9DED080B35
:1028400053EC102B9DED060B51EC100BFDF7BCFF6C
:1028500000F0ADFD00F0A3FDCDE90001B4B1012C05
:1028600010D0022C9FED220B53EC102B9DED000B92
:1028700051EC100B19D0FDF7A1FF53EC182BFDF70D
:102880009DFFBDE7019880F0004001909DED000B99
:1028900053EC192B51EC100BFEF76EF804BF02201D
:1028A00000F032F99DED000B9FE7FDF787FF53EC39
:1028B000182BFDF786FFA3E70000F07F0000000063
:1028C000182D4454FB210940182D4454FB2109C004
:1028D000182D4454FB21F9BF182D4454FB21F93F16
:1028E0001A260000000000000000000000000000A8
:1028F000075C143326A6A13C2DED020B019820F0B5
:10290000004001909DED000B02B0704700B52DED29
:10291000048BB0EE409AF0EE609A83B051EC190B44
:10292000FDF7C1FF41EC180B18EE100A18EE901AD3
:102930008DED008B002818BF0120084320F00040D7
:10294000C0F17F6000F1E040C00F14D019EE101A02
:1029500019EE900A8DED009B002918BF0121084354
:1029600020F00040C0F17F6000F1E040C00F04BFE4
:10297000012000F0C9F8B0EE480A03B0F0EE680A92
:10298000BDEC048B00BD70B504462DED028B4D1ED1
:1029900000EBC500B0EE408AF0EE608A90ED000BCF
:1029A00035F0060017D053EC182B51EC100BFDF747
:1029B000D0FC41EC100B6D1E04EBC50090ED001B2C
:1029C00051EC100B53EC112BFDF757FE41EC100BA3
:1029D00035F00600E7D1022D36D0042D1CD0062D8F
:1029E0001CBFBDEC028B70BD53EC182B51EC100BCF
:1029F000FDF7AFFC94ED0A1B53EC112BFDF73DFEE8
:102A000053EC182BFDF7A5FC94ED081B53EC112B90
:102A1000FDF733FE41EC100B53EC182B51EC100B6F
:102A2000FDF797FC94ED061B53EC112BFDF725FEEB
:102A300053EC182BFDF78DFC94ED040B53EC102B8D
:102A4000FDF71BFE41EC100B53EC182B51EC100B57
:102A5000FDF77FFC94ED021B53EC112BFDF70DFEEF
:102A600053EC182BFDF775FC94ED001B53EC112B68
:102A7000FDF703FEBDEC028B41EC100B70BD10B5F1
:102A800053EC102B51EC100BFDF7F7FD41EC100B44
:102A900010BD10B553EC112B51EC100BFDF7EDFDF3
:102AA00041EC100B10BD00009FED050B10B553EC71
:102AB000102B51EC100BFDF787FE41EC100B10BDF5
:102AC00000000000000000009FED050B10B553EC66
:102AD000102B51EC100BFDF73CFC41EC100B10BD22
:102AE000000000000000001002E008C8121F08C12A
:102AF000002AFAD170477047002001E001C1121F7F
:102B0000002AFBD1704700000149086070470000AF
:102B1000E40000202DE9FF5F82B00021DDE90430F0
:102B2000020DDDF840B0034318D044F61050A2F275
:102B3000FF3242431514119801281FD0A5EB0B005A
:102B4000401C5FEA000A4FF000064E4FDFF8389154
:102B5000B046504615D5CAF1000413E0119801247F
:102B60004AA3012801D16FEA0B010298119AC0E92A
:102B70000031C0E9024206B0BDE8F09FCBF1000091
:102B8000DFE704460021404A491842EB0450CDE9F2
:102B9000001012E0E00707D032463B464046494667
:102BA000FDF7D7FB8046894632463B46104619461C
:102BB000FDF7CFFB06460F466410002CEAD1DDE995
:102BC0000401DDE90023BAF1000F06DAFDF7C1FBCD
:102BD00042464B46FDF7BDFB05E0FDF7F5FD4246DD
:102BE0004B46FDF7F1FD04460E460022284BFDF74B
:102BF00047FC03D84FF0FF30014607E00022254B89
:102C000020463146FDF739FDFDF79EFE102409E010
:102C1000002C0ADB0A220023FDF746FB039B30321F
:102C20001A55641E50EA0102F2D1641C039AC4F1E1
:102C300011031444119A012A03D0012208430DD133
:102C40000AE0084304D000204FF0110B119072E706
:102C5000A3EB0B056D1E0DE05B4504DD4FF000029C
:102C600005F1010504E003DA4FF00002A5F10105CA
:102C7000002AECD002981199C0E90231C0E9004560
:102C800079E70000000014400000F03F3000000031
:102C90000000F0430000E03F2DE9FF4F95B09A4659
:102CA000884606460025EEE1252877D100242746F0
:102CB000F94A0121039400E0044316F8013F203B48
:102CC00001FA03F01042F7D130782A2811D06FF0C2
:102CD0002F033078A0F13002092A16D8039A44F065
:102CE000020402EB820203EB42021044761C0390C2
:102CF000EFE758F8042B0392002A03DA504244F419
:102D00000054039044F00204761C30782E2816D12B
:102D100016F8010F44F004042A280DD06FF02F029A
:102D20003078A0F13003092B09D807EB870302EBB9
:102D30004303C718761CF3E758F8047B761C3078F9
:102D40006C280FD006DC4C2817D068280DD06A28D4
:102D500014D104E0742810D07A280FD10DE044F487
:102D600000140AE044F4801401E044F44014727842
:102D7000824202D104F58014761C761C30786628D5
:102D80000BD013DC582877D009DC002875D04528F3
:102D9000F6D04628F4D047281AD193E118E06328EA
:102DA00035D0642879D0652812D18BE1702873D092
:102DB00008DC6728F1D069286FD06E280DD06F2805
:102DC00006D1ACE073282CD0752874D0782853D065
:102DD0005246179990476D1C54E1C4F302500228E3
:102DE00009D003280DD0D8F8001004280DD00D60AC
:102DF00008F1040846E1D8F80010EA17C1E90052CA
:102E0000F6E7D8F800100D80F2E70D70F0E718F83B
:102E1000041B8DF8001000208DF80100EB46012006
:102E200003E058F804BB4FF0FF3061074FF000019A
:102E300002D40DE009F101018946B9420FDA81455A
:102E4000F8DB1BF809100029F4D108E009F10101B1
:102E500089468142FADB1BF809100029F6D1039854
:102E60005346A0EB090721463846179A00F080FA2E
:102E7000284400EB090507E044E008E10DE01BF8F9
:102E8000010B524617999047B9F10109F7D2534601
:102E900021463846179AF2E039E00A21C4F302527B
:102EA0004FF0000B0091022A06D058F8040BC1170E
:102EB000032A09D00AE023E008F1070020F0070206
:102EC000F2E80201904605E000B2C117042A01D1E0
:102ED00040B2C117002906DA0A460021404261EBE0
:102EE00002012D2202E0220504D52B228DF80420B8
:102EF000012203E0E20701D02022F7E7914657E0E4
:102F00000A2100E010214FF0000B00910BE010218E
:102F10004FF0000B44F004040827009103E0082060
:102F20004FF0000B0090C4F30252022A05D058F86B
:102F3000040B0021032A08D008E008F1070020F064
:102F40000702F2E80201904603E080B2042A00D1B1
:102F5000C0B24FF0000922072AD53278702A07D074
:102F6000DDF800C08CF0100C5CEA0B0C05D00EE014
:102F700040228DF80420012208E050EA010306D027
:102F800030238DF804308DF8052002229146009BF5
:102F900083F0080353EA0B030AD150EA010201D17E
:102FA000620705D530228DF804204FF001097F1EFD
:102FB0003278582A04D039A20C920CAA02920BE063
:102FC0003BA2F9E75B46009AFDF76EF90C9B9B5C10
:102FD000029A521E0292137050EA0102F2D1029834
:102FE00004A9081A00F1200B600702D524F48034EC
:102FF00000E001275F4502DDA7EB0B0000E00020A9
:1030000000EB0B01009003984944401A0390E00341
:1030100006D453462146179A039800F0A9F90544AF
:10302000002706E001A85246C05D179990476D1C25
:103030007F1C4F45F6DBE0030CD553462146179A1B
:10304000039800F095F9054404E0302052461799A2
:1030500090476D1C0099481E00900029F5DC08E09F
:103060000298029952460078491C0291179990479C
:103070006D1CBBF10001ABF1010BF1DC5BE100F079
:1030800065F90544761C307800287FF40DAE19B040
:103090002846BDE8F08F00000928010030313233A6
:1030A0003435363738396162636465660000000084
:1030B000303132333435363738394142434445466E
:1030C00000000000600700D4062708F1070020F088
:1030D0000700F0E80223804603F0004C5FEA0C0092
:1030E00001D097A009E0200501D596A005E0E007F2
:1030F00001D095A001E0AFF24C001390307823F09E
:10310000004365280CD006DC452809D046281DD090
:1031100047287FD13BE0662818D067287AD136E06F
:103120000021112F01DB112000E0781CCDE9000106
:1031300004A90CA8FFF7EEFCDDE90D010C9A4FF095
:10314000000B07F10109109200914EE04FF0004092
:103150000097CDE9011004A90CA8FFF7DBFCDDE91D
:103160000D020C9B0F994FF0000B914610930092AB
:1031700011B9791C00EB0109B7EB090003D4C0F1C8
:10318000FF3B07F10109A9EB0700019042E0012F85
:1031900000DA01270021112F01DD112000E038465F
:1031A000CDE9000104A90CA8FFF7B4FCDDE90D018D
:1031B0000C9A00914FF0000BB946109221070FD4E2
:1031C000009A4A4503DA914601E0A9F10109B9F1F3
:1031D000010F05DD109AA9F10101515C3029F4D0ED
:1031E000B84202DA10F1040F03DA0121CDE901102F
:1031F00010E0002803DC8344A9EB000102E0411C3D
:10320000494500DD8946A0EB0B00401C01904FF0C2
:1032100000400290200705D40198484502DB4FF09A
:10322000FF30019000208DF84B0002980DF14B0704
:10323000B0F1004F25D002200C902B200D90029869
:1032400000280CDA404202902D200D9007E00A2160
:103250000298FDF749F93031029007F8011D0C99E9
:10326000481E0C900029F2DC02980028EFD1791E4C
:103270000D980870307800F0200040F0450007F805
:10328000020D11A8C01BC01D02901398007800B158
:10329000012000EB0901019801EBE0710298014463
:1032A0000398401A401E0390E00306D4534621467B
:1032B000179A039800F05CF805441398007818B149
:1032C0005246179990476D1CE00323D5534621467B
:1032D000179A039800F04CF805441BE0BBF1000F6F
:1032E00007DB0098584504DD1098179910F80B007B
:1032F00001E0179930205246904701980BF1010BDD
:10330000401E05F10105019004D12E205246179967
:1033100090476D1CB9F10001A9F10109DEDC05E05F
:1033200017F8010B5246179990476D1C0299481ED9
:1033300002900029F4DC53462146179A03989EE632
:103340002D0000002B000000200000002DE9F041BE
:10335000044600251E461746880404D405E0394675
:103360002020B0476D1C641EF9D52846BDE8F081C9
:103370002DE9F041044600251E469046C80301D5BC
:10338000302700E02027880404D505E04146384670
:10339000B0476D1C641EF9D52846BDE8F08110B514
:1033A00041EC100BFFF73CF851EC100B10BD82B054
:1033B000CDE9000121F0004001909DED000B02B02D
:1033C00051EC100B7047000013B54FF6FF7301224C
:1033D00069460248FEF7F2FA00981CBD94030020EB
:1033E00010B5FF4CFF482DED108B94ED010AD4ED84
:1033F000010A20EE20FA94ED010AD4ED020A20EE33
:1034000020CA94ED010AD4ED030A60EE20BA94EDCF
:10341000010AD4ED040A60EE20CA94ED020AD4ED4C
:10342000020A20EE20DA94ED020AD4ED030A20EE1F
:10343000209A94ED020AD4ED040A20EE20BA94ED0D
:10344000030AD4ED030A60EE20AA94ED030AD4ED3A
:10345000040A20EE20AA94ED040AD4ED040A60EEDA
:10346000209A90ED040A84ED080A90ED050A84ED97
:10347000090A90ED060A84ED0A0AB0F9001000EE80
:10348000101AB8EEC00A84ED0B0AB0F9021000EE73
:10349000101AB8EEC00A84ED0C0AB0F9041000EE60
:1034A000101AB8EEC00A84ED0D0AB0F9061000EE4D
:1034B000101AB8EEC00A84ED0E0AB0F9081000EE3A
:1034C000101AB8EEC00A84ED0F0AB0F90A0000EE37
:1034D000100AB8EEC00A84ED100AFDF7BFFBA06425
:1034E000A06C616C401A00EE100AB8EE400ADFEDE5
:1034F000BE0AA06CC0EE208A606494ED0B0AD4ED85
:103500000B0A94ED0C1A20EE200AD4ED0C0A00EE02
:10351000810AD4ED0D0A94ED0D1A00EE810A00F037
:1035200055FBD4ED0B0A60EE800AC4ED0B0AD4ED16
:103530000C0A60EE800AC4ED0C0AD4ED0D0A20EEF0
:10354000800A84ED0D0A94ED0E0AD4ED0E0A94ED76
:103550000F1A20EE200AD4ED0F0A00EE810AD4EDF6
:10356000100A94ED101A00EE810A00F02FFBD4ED42
:103570000E0AB6EE001AB0EE008A60EE800A39EE4E
:103580006CEA7BEE2B1AC4ED0E0AD4ED0F0A60EE46
:10359000800AC4ED0F0AD4ED100A20EE800A71EE05
:1035A0006A0A31EE4D1A84ED100A94ED0E0A70EE9F
:1035B000E9EA31EE692A20EE080A71EE6ADA60EE75
:1035C0002E0A94ED0F0A20EE080A40EE0E0A94ED42
:1035D000100A20EE080A40EE210A94ED0E0A79EE58
:1035E0002C1A7BEE6BCA20EE080A60EEA00A20EED1
:1035F000210AD4ED0F1A61EE881A01EE820AD4ED89
:10360000101A3AEE4C2A61EE881A01EE820AD4EDC5
:103610000E1A3AEE0C2A61EE881A40EE000A21EEEC
:10362000AC9AD4ED0F1A10EE900A61EE881A01EEF2
:10363000829AD4ED101A61EE881A01EEAD9AFCF769
:103640000BFF41EC100BFFF761F951EC100BFCF78D
:103650002FFF00EE900A7CEE0A2A3FEE4D1A60EE34
:10366000880A69EE083A22EE880A31EE6A1A60EE9C
:103670008E1A94ED104A2CEE882A31EE293A43EE48
:10368000A21A7BEE8B2A20EEAE1A60EEA22AD4EDAF
:103690000C0A03EEAC1A43EEAD2A60EE830AD4EDB9
:1036A0000D3A43EEC00AD4ED0F3A63EEA23A44EE6F
:1036B000613A94ED0B4A70EEA30AD4ED0D3A63EE35
:1036C000823AF5EEC00A44EE433A94ED103A94ED96
:1036D0000E4A23EE013A04EE623A73EE832A94ED29
:1036E0000B3A23EE000A94ED0C3A03EE420A94EDF5
:1036F0000E2A62EE211A94ED0F2A42EE411A30EEA4
:10370000210AF1EE10FA41D0F5EEC02AF1EE10FADE
:103710003CD0B5EEC00AF1EE10FA37D0D4ED051A60
:103720009FED321A20EE812A42EE281A22EE812ADB
:10373000C4ED051AD4ED061A42EE281AC4ED061A95
:1037400060EE011A94ED071A01EEA81A84ED071A2B
:1037500094ED081A00EE881AD4ED050A71EE200ADD
:10376000C4ED080AD4ED090A94ED061A42EE880A5F
:1037700070EE810AC4ED090AD4ED0A0A40EE080A87
:1037800094ED070A30EE800A84ED0A0A94ED020AED
:10379000D4ED080A94ED091A94ED013A20EEC00A1E
:1037A000D4ED030A00EEC10AD4ED040A94ED0A1A1E
:1037B00000EEC10AD4ED080A94ED0A1A00EE283A88
:1037C00094ED010A20EE200AD4ED030A00EE810AEE
:1037D000D4ED040A94ED091A00EEC10A08E00000D5
:1037E00080000020104100200000FA440AD7233C4A
:1037F000D4ED021AD4ED090A94ED0A1A40EE281A03
:1038000094ED010A94ED032AD4ED042A20EE200A57
:10381000D4ED020A00EEC10AD4ED040A94ED081AB0
:1038200000EE810AD4ED0A0A94ED091A00EE282A66
:1038300094ED010A20EE200AD4ED020A00EE810A7E
:10384000D4ED030A94ED081A00EEC10A40EE282ACE
:1038500023EE030A01EEA10A02EE020A02EEA20A18
:1038600000F0B4F963EE000AC4ED010A61EE800ACB
:10387000C4ED020A62EE000A22EE800AC4ED030AD9
:1038800084ED040ABDEC108B10BD000070B5564CE1
:103890002DED068BF8EE008AB0EE008AB7EE00AA96
:1038A00094ED030AD4ED030A94ED041A20EE280ADD
:1038B00020EE200AD4ED040A60EE880A00EEC10A68
:1038C00030EE0A0A10EE100AFCF7C6FD94ED020A6B
:1038D000D4ED030A94ED041A20EE080A41EC190B0A
:1038E00020EE200AD4ED010A60EE880A00EE810A7B
:1038F00010EE100AFCF7B0FD41EC100BB0EE491AC7
:10390000F0EE691AFEF7F8FE9FED389B51EC100BB4
:1039100053EC192BFCF71DFDFCF7CAFD354D286350
:1039200094ED020AD4ED040A94ED031A20EE280A5D
:1039300020EE200AD4ED010A60EE880A00EE810A2A
:1039400010EE100AFCF788FD41EC100BFEF7B8FBF7
:1039500053EC192B51EC100BFCF7FBFCFCF7A8FD0A
:10396000E86294ED020AD4ED020A94ED031A20EE07
:10397000280A20EE200AD4ED030A60EE880A00EE41
:10398000C10A30EE0A0A10EE100AFCF765FD94ED4C
:10399000030AD4ED040A94ED021A20EE080A41EC61
:1039A000190B20EE200AD4ED010A60EE880A00EE21
:1039B000810A10EE100AFCF74FFD41EC100BB0EE3F
:1039C000491AF0EE691AFEF797FE9FED0B1B51ECBA
:1039D000100B53EC112BFCF7BCFCFCF769FDA86243
:1039E000BDEC068B70BD0000800000206666666638
:1039F00066A64CC0104100206666666666A64C400E
:103A000010B559482DED0A8BB0F90610B0F9080031
:103A10009FED569BDFED57BA574C9FED588A9FEDAF
:103A200058BADFED58AA9FED58AADFED588A002951
:103A30004EDA9FED57CA00282ADA91FBF0F0FCF726
:103A4000FAFC41EC100BFEF757FF53EC192B51EC2D
:103A5000100BFCF715FD0AD8C4ED01BA84ED028AFB
:103A60009FED4C0A84ED030A9FED4B0A0BE09FED9E
:103A70004B0A84ED010A9FED4A0A84ED020A84EDA7
:103A800003BA9FED480A84ED040ABDEC0A8B10BD11
:103A9000FBDD91FBF0F0FCF7CEFC41EC100BFEF7E8
:103AA0002BFF53EC192B51EC100BFCF7E9FC84EDC8
:103AB00001CA06D884ED028AC4ED03AA9FED3A0A32
:103AC000E1E784ED02AAC4ED038A9FED380ADAE744
:103AD000DBDD00289FED36CA22DD91FBF0F0FCF71C
:103AE000AAFC41EC100BFEF707FF53EC192B51EC2D
:103AF000100BFCF7C5FC0AD89FED2E0A84ED010AD5
:103B0000C4ED02AA84ED038AC4ED04BABDE79FEDBB
:103B10002A0A84ED010AC4ED028A84ED03AAB2E701
:103B2000B3DA91FBF0F0FCF786FC41EC100BFEF7EA
:103B3000E3FE53EC192B51EC100BFCF7A1FC84EDC8
:103B400001CA08D89FED1D0A84ED020A84ED038A9C
:103B50009FED1B0A97E79FED1B0A84ED02BA84EDE7
:103B6000030A9FED190A8EE71041002000000000B3
:103B70000000F03F0AD7A3BB80000020A8C64BBEC0
:103B8000E17A543F355E7ABF68910DBFE17A54BF48
:103B90000AD7A33BBE9F7A3F4ED111BC6F1203BC24
:103BA0007B140EBF6F1203BBA69B443C99BB16BB94
:103BB0000AD7233B52499D3A99BB163B355E7A3F63
:103BC0006F12033C295C0FBFBC74933B10EE100ACC
:103BD000F6EE000A074960EE200AA1EB600000EE55
:103BE000100A20EE801AF7EE080A41EE400A20EE95
:103BF000800A7047DF59375F06220146492000F0EE
:103C00005BBA10B530216A2000F08EFA0A20FCF76A
:103C1000F3FE0D21242000F087FA0A20FCF7ECFEC9
:103C20000E21282000F080FA0A20FCF7E5FE8E2104
:103C3000312000F079FA0A20FCF7DEFE01210B208A
:103C400000F07BF80A20FCF7D7FE002000F059F8BE
:103C5000102801D0012010BD01210B2000F06DF8CB
:103C60000A20FCF7C9FE00210A2000F066F80A20AD
:103C700000F047F808B1022010BD0A20FCF7BCFE96
:103C800000210B2000F059F80B2000F03AF808B1A1
:103C9000032010BD0A20FCF7AFFE2421412000F0D4
:103CA0004CF8412000F02DF8242801D0042010BD4C
:103CB0000A20FCF7A1FEC021422000F03EF842207D
:103CC00000F01FF8C02801D0052010BD0A20FCF725
:103CD00093FE00212A2000F027FA0A20FCF78CFE30
:103CE0000021342000F020FA0A20FCF785FE06228D
:103CF00003210E2000F01CF96420FCF77DFE00205B
:103D000010BD10B50146322000F00EFA0A20FCF773
:103D100073FE8021342000F007FA0A20FCF76CFEC5
:103D2000352000F0A1F904460021342000F0FCF910
:103D30000A20FCF761FE204610BD70B50D46044612
:103D400000212A2000F0F0F90220FCF755FE214660
:103D5000292000F0E9F90220FCF74EFE29466420F4
:103D600000F0E2F90220FCF747FE81212A2000F052
:103D7000DBF9BDE870400A20FCF73EBEFCF77CFF93
:103D8000FDF7E4FFFDF7E4FEFDF700FFFDF722FF7E
:103D900000F01CF8FFF734FE03A0FEF757F9FDF71B
:103DA000B9FE00F0F2F9FEE7726D5F61626F617259
:103DB00064202620696D75202620656B660D0A003B
:103DC00001460020842900D0C81C704730B585B05A
:103DD0006420FCF711FE752000F046F9124900241A
:103DE0001422887011496846FCF78FFA4FEA0D05D6
:103DF00005EB4400417815F8140000F095F9012016
:103E0000FCF7FAFD641CE4B20A2CF1D3032000F0A5
:103E100086F9022000F07EF9FFF7F3FE00F0D0F8FB
:103E200005B0002030BD000080000020E04C0008FC
:103E300010B50E2239493B2000F03EF9374800F119
:103E40000E04018849BA2180418849BA618081887D
:103E500049BAA180C18849BAA1810189628B49BA56
:103E6000891AE1814189A28B49BA891A2182808904
:103E7000E18B40BA401A60822948FFF7BDFE28490D
:103E8000A4F142004C399FED271ACA6C8264B1F844
:103E90005010A0F84C10D0F842100160D0F8461035
:103EA0004160D0F84A108160B4F90C0000EE100AAD
:103EB000A4F14200F8EEC00A80EE810AF3EE050A92
:103EC00030EE200A80ED030AB4F90E1000EE101A4D
:103ED000F8EEC00A9FED140A80EE801ADFED130A97
:103EE000C1EE201AC0ED041AB4F9101001EE101A38
:103EF000F8EEC11A81EE801AC1EE201AC0ED051A43
:103F0000B4F9121001EE101AF8EEC11A81EE801AFF
:103F100081EE200A80ED060A10BD00004441002019
:103F2000CC0000205CEFA6436F128341333365421F
:103F300070B50E46044601461546282000F0F4F8F8
:103F40000220FCF759FD0A21292000F0EDF802209B
:103F5000FCF752FD0121642000F0E6F80220FCF796
:103F60004BFD44F08001252000F0DEF80220FCF734
:103F700043FD3146262000F0D7F80220FCF73CFD37
:103F80000321342000F0D0F80220FCF735FD032196
:103F9000672000F0C9F80220FCF72EFD81212A20BD
:103FA00000F0C2F80620FCF727FD45F0800127202D
:103FB00000F0BAF8BDE870400220FCF71DBD00001B
:103FC0002DE9F041274E002706F10E044FF49675B7
:103FD0000E2224493B2000F06FF83188A08A49BAAC
:103FE0000844A0827188E08A49BA0844E082B18816
:103FF000208B49BA084420833189608B49BA084430
:1040000060837189A08B49BA0844A083B189E08B91
:1040100049BA0844E0830520FCF7EEFC7F1CAF4260
:10402000D6DBB4F9140090FBF5F0A082B4F91600C9
:1040300090FBF5F0E082B4F9180090FBF5F02083D6
:10404000B4F91A0090FBF5F06083B4F91C0090FB02
:10405000F5F0A083B4F91E0090FBF5F0E083BDE815
:10406000F081000044410020F8B5104E04460022C3
:1040700040213046FCF7ECFD44F080000C4C372525
:10408000621C20700123511E0A480095FDF70CFAAE
:10409000621C0123511E07480095FDF705FA012215
:1040A00040213046FCF7D4FD6078F8BD0014024092
:1040B000800000203C030020F8B5134F15460E4643
:1040C0000446002240213846FCF7C2FD0F4944F067
:1040D0008000372408705231A1F151020870012389
:1040E00052390B480094FDF7DFF908492B46324658
:1040F000523107480094FDF7D7F901224021384694
:10410000FCF7A6FD0020F8BD00140240800000204E
:104110003C030020C006010E1C2000F005B8C006BC
:10412000010E1B20AFF30080F8B5114F0E46044678
:10413000002240213846FCF78BFD04F07F000D4C37
:104140003725621C20700123511E0B480095FDF796
:10415000ABF92670621C0123511E07480095FDF73C
:10416000A3F9012240213846FCF772FD0020F8BD7A
:1041700000140240800000203C03002010B500B96C
:10418000012000F059FB002010BD10B500F07AFBB3
:10419000002010BD7FB50D4604464169B0F9080006
:1041A00081B1A16971B1FFF70BFED4E905128DE869
:1041B0000700D4E900102B46226900F076FC03903A
:1041C00004B070BDFFF7FCFD03A9CDE90001208A12
:1041D0002B4682B2D4E9001000F03AFC012801D04D
:1041E0000020EDE70398EBE72DE9F041184C0F466E
:1041F0000546E6682068001D00F057FA38B92068C7
:1042000090F82C1001208840216981432161681CAD
:1042100007D137B12168BDE8F0410E48091D00F013
:1042200087BA20683544B5424560216805D2A06B45
:10423000BDE8F041091D00F063BA606B091D00F094
:104240005FFAA06A854200D2A562BDE8F081000055
:1042500018000020FC0400202DE9F041054600F084
:1042600073FA2E4CA068401CA06020682C4F10B13F
:10427000606940B32DE02560A068012829D100269F
:1042800006EB860007EB800000F02CFA761C072E68
:10429000F6D323488C3000F025FA2148A03000F0F6
:1042A00021FA1F48B43000F01DFA1D48C83000F054
:1042B00019FA1B48DC3000F015FA19488C3060639D
:1042C0001430A06305E02068E96AC06A884200D81B
:1042D0002560606A401C6062E96A012022698840AA
:1042E0001043206101EB810007EB8000291D00F0E5
:1042F0001FFA00F049FA606900280CD02068E96ACA
:10430000C06A884207D207494FF080500860BFF367
:104310004F8FBFF36F8FBDE8F081000018000020C1
:104320002004002004ED00E010B5044690F8510090
:1043300058B101280CD002280FD0502080F31188EA
:10434000BFF34F8FBFF36F8FFEE7206B00F030FAA3
:104350002046BDE8104000F02BBA10BD10484FF4C5
:104360007051420706D0C01D0D4920F00700411AC8
:10437000C1F570510B4A00230144C2E9000308391A
:10438000183A21F0070111604B600B600B1AC0E96D
:10439000001393604FF0004053605061704700007D
:1043A000100500206C000020144E154CA6F1C80723
:1043B0004FF08058DFF84C9012E000BF00F0C4F9D5
:1043C000F068C568281D00F070F9A068401EA06064
:1043D0006068401E606000F0D7F92846FFF7A4FF30
:1043E00060680028EAD138680128F9D9C9F8008046
:1043F000BFF34F8FBFF36F8FF2E70000E804002098
:104400001800002004ED00E02DE9F0479A46DDE9B0
:10441000098481466FF00303206B03EB8202104492
:10442000089E20F00707780707D0502080F31188F6
:10443000BFF34F8FBFF36F8FFEE7002561B1002000
:1044400023180A5C83F834200A5C12B1401C10283F
:10445000F6D384F8435001E084F83450072E00D39B
:104460000626E662C4E91165201D00F046F904F154
:10447000180000F042F92461C6F107006462A061EF
:10448000E56484F8505052464946384600F0C0F87A
:104490002060B8F1000F01D0C8F80040BDE8F087F7
:1044A00030B5114900E011460A688242FBD34B68DF
:1044B0005C18844203D14068184448600846436849
:1044C0001C18944209D1084C183C2468A24209D017
:1044D00052681A4442600A6812680260814200D041
:1044E000086030BD0460F9E76C0000200648416BAD
:1044F000096829B1416BC968C96849688162704718
:104500004FF0FF31FAE7000018000020084840682B
:10451000401C4FF0500080F3118804D0BFF34F8F40
:10452000BFF36F8FFEE7BFF34F8FBFF36F8FFEE7D1
:10453000740000202DE9F0410546002700F0D8F96D
:10454000324E306808B9FFF709FF706905424ED155
:10455000C5B3083568070ED005F00700C0F10800A4
:104560000544680707D0502080F31188BFF34F8FB0
:10457000BFF36F8FFEE72DB37068854237D82348AD
:10458000183001460C6801E020460C466168A942DB
:1045900002D221680029F7D131688C4227D0076800
:1045A0002168016060680837411B10290FD9601924
:1045B000420708D0502080F31188BFF34F8FBFF31C
:1045C0006F8FFEE713E041606560FFF769FF616888
:1045D0007068401A7060B268904200D2B060706932
:1045E00001430020C4E90001F068401CF06000F0C5
:1045F000EDFA780707D0502080F31188BFF34F8F72
:10460000BFF36F8FFEE73846BDE8F081540000200D
:1046100010B5031F4FF080741C601B1F21F00101B7
:104620001960191F044B0B6014390A60091F6FF0E1
:10463000020244380A6010BD0D45000800B52DED9A
:10464000048B83B041EC190BFCF72DF941EC180BEE
:1046500018EE100A18EE901A8DED008B002818BF86
:104660000120084320F00040C0F17F6000F1E040ED
:10467000C00F14D019EE101A19EE900A8DED009BA0
:10468000002918BF0121084320F00040C0F17F60DD
:1046900000F1E040C00F04BF0120FEF735FA51ECF5
:1046A000180B03B0BDEC048B00BDD0E901320169E9
:1046B0009A60D0E901235A604A68824201D1826837
:1046C0004A60002202610868401E0860086870475E
:1046D000034B036003F154000860802010607047B2
:1046E000E800002000F108014FF0FF32C0E901129C
:1046F000C1600161002101607047002101617047C4
:1047000030B50B685A1C02D000F1080202E00269C1
:1047100004E02246546825689D42FAD953684B60EC
:1047200099608A60516008610168491C016030BD70
:1047300042684A6093688B60936859609160086131
:104740000168491C01607047502080F31188BFF355
:104750004F8FBFF36F8F0A494868401C486001289B
:104760000CD10848006810F0FF0F07D0502080F3EC
:104770001188BFF34F8FBFF36F8FFEE770470000C4
:104780007400002004ED00E00849486828B1401E8C
:10479000486001D180F311887047502080F3118860
:1047A000BFF34F8FBFF36F8FFEE700007400002050
:1047B00070B500282AD0164DA0F108046068696918
:1047C000084207D1502080F31188BFF34F8FBFF309
:1047D0006F8FFEE722683AB1502080F31188BFF353
:1047E0004F8FBFF36F8FFEE78843606000F080F863
:1047F00060686968084468602046FFF751FE2869D0
:10480000401C2861BDE8704000F0E0B970BD0000B8
:10481000540000204FF0E020002101618161054932
:104820004FF47A720968B1FBF2F1491E4161072128
:10483000016170471400002010B5020014D00F4829
:10484000006B38B1502080F31188BFF34F8FBFF356
:104850006F8FFEE700F04CF800211046FFF7C4FC14
:1048600000F0B4F9002807D105494FF080500860E6
:10487000BFF34F8FBFF36F8F10BD000018000020F3
:1048800004ED00E010B586B00024039405AA04A945
:1048900003A80494FFF71CFFDDE903010094CDE9B0
:1048A000011000230EA11048059A00F0FEF80F49F0
:1048B0000028C86211D0502080F31188BFF34F8FB9
:1048C000BFF36F8F4FF0FF30886201204861CC60EA
:1048D00006B0BDE8104000F041B806B010BD0000C1
:1048E00049444C4500000000A9430008180000207E
:1048F0000248016B491C016370470000180000204A
:104900001448016B11B10121C16170470021C161DF
:104910000169B1FA81F1C1F11F0101EB81020E4978
:1049200051F822306BB101EB820101F108034A68B2
:1049300052684A609A4201D152684A60D168016067
:104940007047502080F31188BFF34F8FBFF36F8FF4
:10495000FEE7000018000020200400201CB53748A6
:104960000168374A914207D1502080F31188BFF384
:104970004F8FBFF36F8FFEE700683149491E8842B1
:1049800007D1502080F31188BFF34F8FBFF36F8F93
:10499000FEE72C4908780190FF20087008788DF810
:1049A00000009DF800009DF8002000F0F00090420B
:1049B00007D0502080F31188BFF34F8FBFF36F8F64
:1049C000FEE79DF80000204C00F05000207007200A
:1049D000A06005E09DF8002052008DF80020401EE8
:1049E0009DF800201206F5D4A060032807D05020BF
:1049F00080F31188BFF34F8FBFF36F8FFEE74FF443
:104A00004070A060019808700C482030016841F4A3
:104A100070010160016841F070410160FFF7FAFE2A
:104A200000206060FBF7F2FB0848016841F040415C
:104A30000160FBF7D7FB00201CBD000000ED00E08B
:104A400071C20F4100E400E07400002034EF00E088
:104A50002DE9FF5F8346DDE90E87994616468A46B3
:104A60009000FFF767FD05001CD05420FFF762FDA2
:104A7000040014D00020256384F85100CDE90240E1
:104A8000CDE900874B46324651465846FFF7BCFCFD
:104A90002046FFF7E1FB012004B0BDE8F09F284667
:104AA000FFF786FE4FF0FF30F6E7F0B585B0DDE9A1
:104AB0000B640A9DA6B1DCB1542700972663022639
:104AC00084F85160002604AFCDE90246CDE90057D5
:104AD000FFF79AFC2046FFF7BFFB049805B0F0BD36
:104AE000502080F31188BFF34F8FBFF36F8FFEE725
:104AF000502080F31188BFF34F8FBFF36F8FFEE715
:104B00002DE9F0412F4C0026206B28B1A069401CF4
:104B1000A0613046BDE8F081E5686D1CE56013D109
:104B2000606B006838B1502080F31188BFF34F8F5D
:104B3000BFF36F8FFEE7606BA16B6163A063206AB8
:104B4000401C2062FFF7D2FCA06ADFF87C8085421F
:104B500009D3606B0068A0B1606BC068C7687868F3
:104B6000854211D2A0622068C06A00EB800158F82B
:104B70002100012800D90126E0690028C9D00126BA
:104B8000C7E74FF0FF30EDE7381DFFF78EFDB86A3D
:104B900018B107F11800FFF788FDF96A01202269B2
:104BA00088401043206101EB810108EB8100391D31
:104BB000FFF7BEFDF86A2168C96A8842C9D3012699
:104BC000C7E7000018000020200400202DE9F0476E
:104BD0002C4D00242746286B38B1FFF7B5FD286B14
:104BE000401E2863286B40B146E0502080F31188B6
:104BF000BFF34F8FBFF36F8FFEE7A968224E0120EE
:104C0000D1B3A6F1B40980463068E8B1F068C46851
:104C100004F11800FFF749FD201DFFF746FDE06A8B
:104C20002A6908FA00F11143296100EB800109EBC0
:104C30008100211DFFF77CFDE06A2968C96A88426E
:104C4000E2D3C5F81C80DFE70CB1FFF74FFCAC697D
:104C500044B14646FFF754FF00B1EE61641EF9D13E
:104C60000020A861E86938B10849012738070860C1
:104C7000BFF34F8FBFF36F8FFFF786FD3846BDE858
:104C8000F087000018000020D404002004ED00E0AC
:104C9000E84D0008091B00080000000000000000AB
:104CA000800000000000000000000000F44D00083B
:104CB000711A000800000000000000000001000060
:104CC00000000000000000000000000000000000E4
:104CD00001020304060708090000000001020304A2
:104CE0006B806B036C001A041B181C101D026A20D9
:104CF0000000000000000000555555555555C53FB2
:104D00007D6FEB0312D6D4BF5544880E55C1C93F01
:104D10003B8F68B52882A4BF88B20175E0EF493F98
:104D200009F7FD0DE13D023F4B2D8A1C273A03C0D8
:104D3000C88A599CE52A004059018D1B6C06E6BFC4
:104D400082922EB1C5B8B33F4FBB610567ACDD3F62
:104D5000182D4454FB21E93F9BF681D20B73EF3FA2
:104D6000182D4454FB21F93FE2652F227F2B7A3C1A
:104D7000075C143326A6813CBDCBF07A8807703CD3
:104D8000075C143326A6913CC4EB98999999C9BF46
:104D9000711623FEC671BCBF6D9A74AFF2B0B3BF7B
:104DA0009AFDDE522DDEADBF2F6C6A2C44B4A2BF3B
:104DB0000D5555555555D53FFF8300922449C23FA7
:104DC0006E204CC5CD45B73F513DD0A0660DB13FDB
:104DD000EB0D76244B7BA93F11DA22E33AAD903FED
:104DE00000000000000000004C4F474745525F5450
:104DF00041534B00494D555F5441534B0000000057
:104E0000204E000800000020E8000000E82A00080A
:104E1000084F0008E800002090440000F82A00082D
:104E20000000000000000000010000001000000071
:104E3000000000000024F40000000000000000005A
:104E40000000000000000000000000000000000062
:104E50000000000000000000000000000000000052
:104E60000000000000000000000000000000000042
:104E70000000000000000000000000000000000032
:104E80000000000000000000000000000000000022
:104E90000000000000000000AAAAAAAA000000006A
:104EA000000000000000803F000000000000000043
:104EB00000000000000000000000000000000000F2
:104EC00000000000000000000000000000000000E2
:104ED00000000000000000000000000000000000D2
:104EE00000000000000000000000000000000000C2
:104EF0000000FF00000000000000000000000000B3
:084F00000000000000000000A9
:04000005080001AD41
:00000001FF
