:020000040800F2
:100000006049002085020008F73C0008FD26000832
:10001000F53C0008BB140008314100080000000056
:10002000000000000000000000000000C501000802
:10003000711500080000000021020008093E0008B8
:100040009F0200089F0200089F0200089F0200080C
:100050009F0200089F0200089F0200089F020008FC
:100060009F0200089F0200089F0200089F020008EC
:100070009F0200089F0200089F0200089F020008DC
:100080009F0200089F0200089F0200089F020008CC
:100090009F0200089F0200089F0200089F020008BC
:1000A0009F0200089F0200089F0200089F020008AC
:1000B0009F0200089F0200089F0200089F0200089C
:1000C0009F0200089F0200089F0200089F0200088C
:1000D0009F0200089F0200089F0200089F0200087C
:1000E0009F0200089F0200089F0200089F0200086C
:1000F0009F0200089F0200089F0200089F0200085C
:100100009F0200089F0200089F0200089F0200084B
:100110009F0200089F020008D93E00089F020008C5
:100120009F0200089F0200089F0200089F0200082B
:100130009F0200089F0200089F0200089F0200081B
:100140009F0200089F0200089F0200089F0200080B
:100150009F0200089F0200089F0200089F020008FB
:100160009F0200089F0200089F0200089F020008EB
:100170009F0200089F0200089F0200080000000084
:100180009F0200089F0200089F0200089F020008CB
:100190009F0200089F0200089F0200089F020008BB
:1001A00000000000000000009F020008DFF810D0EF
:1001B00001F034F90048004741570008AFF30080D0
:1001C000604900202C4B19680868B0E8F04F80F3B4
:1001D0000988BFF36F8F4FF0000080F311887047DC
:1001E0000000000008480068006880F308884FF0AD
:1001F000000080F3148862B661B6BFF34F8FBFF37F
:100200006F8F00DF00BF00BF08ED00E0DFF80C00DB
:10021000016841F470010160704700BF88ED00E0A3
:10022000EFF30980BFF36F8F134B1A681EF0100FA6
:1002300008BF20ED108A20E9F04F106009B44FF09C
:10024000500080F31188BFF34F8FBFF36F8F06F01C
:1002500031F84FF0000080F3118809BC1968086874
:10026000B0E8F04F1EF0100F08BFB0EC108A80F31A
:100270000988BFF36F8F70471C000020EFF30580E3
:10028000704700000648804706480047FEE7FEE743
:10029000FEE7FEE7FEE7FEE7FEE7FEE7FEE7FEE736
:1002A000C93E0008AD0100089FED1A1AF5EE000ADC
:1002B00040EE010ABDEEE00AF5EEC00A10EE100AAB
:1002C000F1EE10FA38BF401E00EE100A1349F7EEA7
:1002D000001AB8EEC00A30EEC00ADFED0F0A20EEB9
:1002E000200AFCEEC00A10EE900AC0F3080000EEEF
:1002F000900A01EB8000F8EE600A90ED011A70EEB2
:10030000600A90ED000A71EEE01A21EE800A00EE1C
:10031000810A704783F9223E00000044D467000838
:10032000B5EEC00AF1EE10FA07D2DFED1E0AB4EE08
:10033000E00AF1EE10FAA8BF7047DFED1B0AB5EE38
:10034000C00A60EE200ABDEEE01A11EE100AF1EECE
:1003500010FA38BF401E00EE100A1549F7EE001AD9
:10036000B8EEC00A30EEC00ADFED100A60EE200AD7
:10037000BCEEE00A10EE100AC0F3080000EE100A0E
:1003800001EB8000B8EE400A90ED011A70EEC00A51
:1003900090ED000A71EEE01A21EE800A00EE810A6B
:1003A00070470000CD024CB483F9223E00000044A7
:1003B000D467000870B405880E884468D1F804C07A
:1003C0005368B54208D140884988884201BF1188E6
:1003D0008D425188884203D070BC6FF00200704794
:1003E00005FB00F1880827D094ED001ADCED000A27
:1003F00094ED010ADCED011A31EE201AD4ED020A67
:1004000070EE211A9CED020A83ED001AC3ED011A69
:1004100094ED031ADCED031A30EE800A401E71EEF3
:10042000210A83ED020A04F11004C3ED030A03F16B
:1004300010030CF1100CD7D111F0030030D0B0F143
:10044000004F30D200282BDD211F1B1FACF104020E
:1004500010F0010F0AD091ED010AD2ED010A091D39
:10046000121D30EE200A83ED010A1B1D400817D033
:1004700091ED010AD2ED010A401E30EE200A83ED13
:10048000010A91ED020AD2ED020A01F1080102F11E
:10049000080230EE200A83ED020A03F10803E7D1D7
:1004A00070BC00207047B4EC010A401EFCEC010A4D
:1004B00030EE200AA3EC010AF5D1F1E70180428079
:1004C000436070472DE9F34F84B004984068009072
:1004D000486801900498B0F800E04588DFEDFE0A16
:1004E00000200290B0EE600AAE4506D10888498827
:1004F000884204BF7146864504D06FF0020006B002
:10050000BDE8F08F01985FEA010C18BFB7EE001A42
:100510003DD000BFBEEB0C0117D0B1F1004F80F011
:100520001F82002911DD021F11F0010F1CBFC2ED57
:10053000010A121D4B1006D0C2ED010AC2ED020ADB
:1005400008325B1EF8D100EB8100BCF10102A0EC87
:10055000011A19D0B2F1004F80F00882002A13DD91
:10056000031F12F0010F1CBFC3ED010A1B1D511028
:1005700008D000BFC3ED010AC3ED020A491E03F112
:100580000803F7D100EB8200BCF1010CC2D14FF09F
:1005900000080395002D14BFB0EE602A002000F083
:1005A000BF8100BF009908FB05F001EB800B0199AA
:1005B000DBED002A01EB80000346F0EE421AC6454F
:1005C00052D9AEEB0802ABEB850112F0010F17D048
:1005D00001EB850191ED000AB5EEC00AF1EE10FACB
:1005E00007DDB4EEE10AF1EE10FA09DDF0EE401A93
:1005F00006E0B1EE400AF4EEC01AF1EE10FAF5D3BF
:10060000521031D001EB850C9CED000AB5EEC00A0A
:10061000F1EE10FA05DDB4EEE10AF1EE10FA09DDB3
:1006200006E0B1EE400AF4EEC01AF1EE10FA01D283
:10063000F0EE401A01EBC50191ED000AB5EEC00ADB
:10064000F1EE10FA05DDB4EEE10AF1EE10FA09DD83
:1006500006E0B1EE400AF4EEC01AF1EE10FA01D253
:10066000F0EE401A521ECDD1F5EEC01AF1EE10FA9E
:1006700000F07381F5EEC02A0126F1EE10FA009920
:10068000D4BFB1EE620AB0EE620AB4EE610AF1EED6
:1006900010FA1CBFAEEB0802B2F1010C47D005FB0B
:1006A00008F201EB820292ED001A00BFB0EE410A9F
:1006B00005FB06F4B5EEC00A00EB8404F1EE10FA77
:1006C000CCBFF0EE400AF1EE400AF4EE610AF1EE22
:1006D00010FA28D1B5EB080C11D0BCF1004F7DD237
:1006E000BCF1000F0BDD00BF92ED000AD1ED000A56
:1006F000BCF1010CE2EC010AA1EC010AF4D12900E1
:100700000ED0B1F1004F6AD2002909DD94ED000A44
:10071000D0ED000A491EE4EC010AA0EC010AF5D173
:10072000012002900BE0761CBCF1010CBED10298B6
:10073000012804D0F5EEC02AF1EE10FA7ED09BED30
:10074000000AB5EB08009A465946064622D0B0F199
:10075000004F74D200281DDD091F10F0010F06D0D4
:10076000F0EE400A80EEA01A81ED011A091D40103A
:1007700010D000BFD1ED010A401E80EE801A81ED3D
:10078000011A91ED021AC1EE000AC1ED020A01F14F
:100790000801EFD1280026D0B0F1004F7ED200280A
:1007A00021DDAAF1040110F0010F06D0D1ED010AFC
:1007B00080EE801A81ED011A091D401013D000BF90
:1007C000D1ED010A401E80EE801A81ED011AD1EDB3
:1007D000020A80EE801A81ED021A01E0CBE0D6E039
:1007E00001F10801ECD1DDE900124FF000095FEAE8
:1007F0000E0773D0C14504BF01EB860102EB8502F1
:1008000074D091ED000ADC465046331E35D01C46AC
:10081000B6F1004F7ED2002C2FDD0B1FABF1040C84
:1008200016F0010F0FD0F0EE400ADCED011AB0EE29
:10083000601A00EEE11A83ED011A01E08DE0B1E0EB
:100840001B1D0CF1040C741015D000BFD3ED010A70
:100850009CED011A40EE410AC3ED010AD3ED020AF4
:100860009CED021A0CF1080C40EE410AC3ED020A9D
:100870000833641EEAD101EB86012B0036D0B3F1B8
:10088000004F72D2002B31DDA2F1040CAAF104005A
:1008900013F0010F0CD0DCED010A00E08BE090EDCD
:1008A000011A001D40EE410ACCED010A0CF1040CC6
:1008B0005C1019D0DCED010A90ED011A40EE410AFE
:1008C000CCED010ADCED020A90ED021A083040EE90
:1008D000410ACCED020A03E0000000000DE005E053
:1008E000641E0CF1080CE5D102EB830201EB8801D8
:1008F0007F1E09F101097FF47DAF009808F101081E
:10090000001D00900398401E03907FF44BAE0299A7
:10091000012900E058E004BF06B0BDE8F08F00BF39
:10092000B5EEC00AF1EE10FA7FF4E9AD04990EFBC2
:1009300005F3002B4A684FF000010BD902EB810C44
:100940009CED000AB5EEC00AF1EE10FA02D1491C86
:100950008B42F3D88B427FF4D2AD6FF00400CEE52A
:10096000E0EC010A491EFBD1EFE538E0E0EC010ABA
:10097000521EFBD108E692ED000AD1ED000ABCF14F
:10098000010CE2EC010AA1EC010AF4D1B7E694ED06
:10099000000AD0ED000A491EE4EC010AA0EC010AAD
:1009A000F5D1BDE6D1ED000A401E80EE801AA1EC23
:1009B000011AF7D1EEE6D3ED000A401E80EE801A50
:1009C000A3EC011AF7D10EE7BCEC011AD1ED000A35
:1009D0005B1E40EE410AE1EC010AF5D14DE7B0ECB7
:1009E000011AD2ED000A5B1E40EE410AE2EC010A58
:1009F000F5D17BE72DE9F04F82B04668536801934B
:100A0000058847884B88002000900888874201BFEE
:100A1000B2F800C06545528893421EBF6FF00200D5
:100A200002B0BDE8F08F9FED412A4FEA970EC7F361
:100A3000400B00BFDDE9000202EB800A4A689846DD
:100A40004FF00009B0EE420AB4465FEA0E0025D02E
:100A500092ED001ADCED001A02EB8302DCED010AD4
:100A600001EE810A92ED001A02EB8302401ED2EDE4
:100A7000001A02EB830200EE810A9CED021ADCED03
:100A8000030A00040CF1100C000C01EE210A92ED97
:100A9000001A02EB830200EE810AD9D117F003009D
:100AA00026D0ACF10404A2EB830210F0010F08D0B1
:100AB00002EB8302D4ED010A92ED001A241D00EE30
:100AC000810A5FEA0B0013D002EB830CD4ED010A1C
:100AD0009CED001A02EBC302401E00EE810AD4ED29
:100AE000020A92ED001A04F1080400EE810AEBD12B
:100AF00009F10100AAEC010A1FFA80F9486800EB2D
:100B00008902A8F101001FFA80F8B8F1000F99D10D
:100B1000009806EB8706184480B20090681E050412
:100B20002D0C87D102B00020BDE8F08F000000003E
:100B300070B405880E884468D1F804C05368B54283
:100B400008D140884988884201BF11888D42518868
:100B5000884203D070BC6FF00200704705FB00F1C3
:100B6000880827D094ED001ADCED000A94ED010A04
:100B7000DCED011A31EE601AD4ED020A70EE611A52
:100B80009CED020A83ED001AC3ED011A94ED031ADD
:100B9000DCED031A30EEC00A401E71EE610A83EDEF
:100BA000020A04F11004C3ED030A03F110030CF16F
:100BB000100CD7D111F0030030D0B0F1004F30D27B
:100BC00000282BDD211F1B1FACF1040210F0010FC8
:100BD0000AD091ED010AD2ED010A091D121D30EE75
:100BE000600A83ED010A1B1D400817D091ED010A30
:100BF000D2ED010A401E30EE600A83ED010A91ED4C
:100C0000020AD2ED020A01F1080102F1080230EEF7
:100C1000600A83ED020A03F10803E7D170BC0020EB
:100C20007047B4EC010A401EFCEC010A30EE600A89
:100C3000A3EC010AF5D1F1E72DE9F04F02884768EE
:100C4000B0F802804888D1F8049082B04FF0000AD2
:100C50001646824207BF098888456FF0020002B03D
:100C600018BFBDE8F08F4FEA980B02EB42000190ED
:100C7000C8F34000CDF8000009EB8A01BBF1000F7A
:100C800033D0019801EB820C01EB80043B46E64631
:100C900001EBC2054FEA0B0093ED000A401E81ED07
:100CA000000A93ED010A01EB02118CED000A93EDAD
:100CB000020A0CEB021C85ED000A93ED030A05EB1A
:100CC000021584ED000A04EB021403F11003E3D1D2
:100CD0000EEB820000EB820000EB8201ABF1010021
:100CE000504307EB0B1701EB001118F0030C21D058
:100CF0003B1FA1EB82011CF0010F06D093ED010A0E
:100D000001EB82011B1D81ED000A009880B100BF3C
:100D100093ED010A01EB820401EBC20184ED000AAC
:100D200093ED020A401E81ED000A03F10803EFD1A2
:100D300007EB8C070AF101001FFA80FA701E060407
:100D4000360C99D102B00020BDE8F08F2DE9F05F9C
:100D50000546002092469B4688460646814640242A
:100D60001BE0284641464746224600F0A2F953467A
:100D70005A46C01A914110D311461846224600F037
:100D800089F92D1A67EB01084F4622460120002100
:100D900000F080F917EB00094E41201EA4F1010478
:100DA000DFDC484631462A464346BDE8F09F40EA2C
:100DB00001039B0703D009E008C9121F08C0042AD9
:100DC000FAD203E011F8013B00F8013B521EF9D2C0
:100DD0007047D2B201E000F8012B491EFBD27047E8
:100DE0000022F6E710B513460A4604461946FFF7F7
:100DF000F0FF204610BD2DE9FE4F81EA030404F008
:100E0000004421F0004100944FF0000B23F0004318
:100E100050EA01045ED052EA03045BD0C3F30A54E3
:100E2000C1F30A552C44A4F2F3340194A0FB0254FC
:100E3000C1F3130141F48011C3F3130343F480138E
:100E400001FB024400FB034E840A970A44EA8154E2
:100E500047EA8357A4FB076802958D0A05FB0785BF
:100E60004FEA932C04FB0C542705029D4FEA0658C9
:100E700047EA1637B5EB08056EEB070C870E920EA6
:100E800047EA811742EA8312A7FB0201B6EB0B0186
:100E900064EB00042B0D43EA0C335E1844EB1C504A
:100EA000DA465146E7FB0201C5F313044FEA0B3360
:100EB00043EA14534FEA0432019C43EA0603A4F1C7
:100EC0000C040294009CCDE900B400F048F903B092
:100ED000BDE8F08F00200146F9E72DE9F04D81EAE9
:100EE000030404F0004B21F0004514464FF0000AC3
:100EF00023F0004150EA050220D054EA01021DD03F
:100F0000C5F30A570246C5F31303C1F31300C1F337
:100F10000A5640F4801543F48013A7EB0608101B13
:100F2000D64608F2FD3873EB050002D308F101083C
:100F300001E092185B41B8F1000F03DA002001468E
:100F4000BDE8F08D00204FF48011064684460EE087
:100F5000171B73EB050705D3121B63EB0503064351
:100F60004CEA010C49084FEA300092185B4150EA04
:100F70000107EDD152EA030012D082EA040083EAAD
:100F80000501084305D0101BAB4106D20122002306
:100F900006E000224FF0004302E06FF00102531020
:100FA0001AEB06004CEB085110EB0A0041EB0B0169
:100FB000BDE8F04D00F0C4B80EB5C10F80EAE07096
:100FC0000844CA07002140F233438DE80E000A4668
:100FD0000B4600F0C4F803B000BD00F0004230F052
:100FE00000400AD0C10D01F56071C0F3160042EA5D
:100FF0000151C20840071143704700200146704765
:1010000030B5041E71F1000404DB4FF0004440428F
:1010100064EB0101141E73F1000405DB1C464FF064
:101020000043524263EB0403994208BF904230BD33
:1010300001F0004330B421F0004150EA010206D033
:101040000A0DA2F56072C1F31301002A02DC30BC64
:1010500000207047440F44EAC104C100E01830BCCE
:1010600000EBC25000F035B830B50B460146002009
:101070002022012409E021FA02F59D4205D303FA5A
:1010800002F5491B04FA02F52844151EA2F10102DB
:10109000F1DC30BD202A04DB203A00FA02F1002006
:1010A00070479140C2F1200320FA03F319439040A6
:1010B0007047202A04DB203A21FA02F00021704711
:1010C00021FA02F3D040C2F12002914008431946B0
:1010D00070470029A8BF7047401C490008BF20F096
:1010E0000100704710B4B0FA80FC00FA0CF050EA2E
:1010F000010404BF10BC704749B1CCF1200421FAAF
:1011000004F411FA0CF118BF012121430843A3EBA9
:101110000C01CB1D4FEA00614FEA102042BF0020B6
:1011200010BC704700EBC35010440029A4BF10BC92
:101130007047401C490008BF20F0010010BC7047F8
:1011400010B5141E73F1000408DA401C41F10001CF
:1011500092185B411A4301D120F0010010BD2DE926
:10116000F04D92469B4611B1B1FA81F202E0B0FA1D
:1011700080F220329046FFF78DFF04460F4640EA8A
:101180000A0041EA0B0153465A46084313D0114660
:1011900053EA010019D0C8F140025046FFF789FF19
:1011A00005460E46504659464246FFF773FF084330
:1011B00005D0012004E020463946BDE8F08D00202E
:1011C000054346EAE0762C4337430A986305E40A70
:1011D000A0EB08000022FD0A44EA47540A3002D579
:1011E00000200146E9E7010510196941DDE90845DC
:1011F00000196941BDE8F04DA2E72DE9FE4F804698
:1012000081EA0300C00F0C46009021F0004123F05A
:101210000045B8EB0200A94105D240462146904660
:101220001C460B46024623F00040104347D0270DD2
:10123000C7F30A00C3F30A510290401A01904028F4
:101240006BDAC3F3130040F4801B0098924620B180
:101250000023D2EB030A63EB0B0B01985946C0F154
:1012600040025046FFF716FF06460D4650465946C7
:10127000019A00F0E5F810EB08006141002487EACC
:10128000115284EAE7731A4340D0009A62B3019A7C
:10129000012A4FEA075215DC001B61EB02014FF0F7
:1012A000004202EA0752CDE90042001C41F58011DC
:1012B00032462B46FFF753FF03B0BDE8F08F4046A0
:1012C0002146F9E7001B61EB0201001C41F5801388
:1012D00000185B412018A2F5001747EB030140EA14
:1012E000D570B6196D4111E06D084FEA360645EA32
:1012F000C0754FEA0752001B61EB0201001C41F56B
:10130000801149084FEA30000019514132462B46FE
:1013100003B0BDE8F04FFFF713BF00980122400073
:101320000023D0EB020263EBE073009821464FEA02
:10133000E074B8EB000061EB0401E9E783F00043DF
:101340005BE781F0004158E72DE9F04D00231A4694
:101350001B1A8A4103DB00200146BDE8F08DC1F372
:101360000A52C1F3130141F480154FF0000BD1076D
:1013700002D100186D41521E0027044640F2FF11B1
:10138000384601EB620A3E468046024600204FF492
:101390008011FFF78EFEC2197141BB1846EB0100A8
:1013A000B4EB030C75EB000C04D3E41A65EB0005F9
:1013B00017460E46241908F101006D418046342875
:1013C000E3DDF91946EB0600091BA84103D24FF0F3
:1013D000FF32134601E0002213461BEB070046EBE9
:1013E0000A51BDE8F04DFFF7ABBEC1F30A52C1F39D
:1013F000130140F2FF3341F480119A4202DA0020D7
:101400000146704740F233439A42A2F2334202DC73
:101410005242FFF74EBEFFF73DBE0000064C074D9F
:1014200006E0E06840F0010394E8070098471034B4
:10143000AC42F6D3FEF7BEFEF06F00081070000855
:10144000202A06DBCB17203A41FA02F043EAE07388
:1014500006E041FA02F3D040C2F120029140084375
:101460001946704770B58C1810F8015B15F007032A
:1014700001D110F8013B2A1106D110F8012B03E02D
:1014800010F8016B01F8016B5B1EF9D12B0705D435
:101490000023521E0DD401F8013BFAE710F8013B7E
:1014A000CB1A921C03E013F8015B01F8015B521E9A
:1014B000F9D5A142D8D3002070BDFEE7074808B592
:1014C00040680090014606480269914202D2C16814
:1014D000491CC1600099016108BD0000001000E0D6
:1014E000F800002000B50E492DED028B81B049684F
:1014F00000910168009A511A00EE101A0949F8EE9D
:10150000400A91ED000A0260B8EE400A80EE808A3F
:10151000FFF7D4FF01B0B0EE480ABDEC028B00BD6E
:10152000001000E0F80000200D490A6842F08072C7
:101530000A600C4900224A600B6843F001030B600B
:1015400009494FF47A734843B0FBF3F30749C1E903
:101550000003054BB0FBF3F0C1E902027047000045
:10156000FCED00E0001000E040420F00F800002019
:10157000704772B6FEE7000070B5044600F036F919
:101580000546601C02D004480078044400F02EF99F
:10159000401BA042FAD370BD0C0000202DE9F84F8B
:1015A000DFF8F8A10022012403254FF00F090AF10A
:1015B000040BAAF1040E00BF0B6804FA02F63340D4
:1015C000B34270D10F7907F00307012F01D0022F2A
:1015D00016D187684FEA420805FA08FC27EA0C078B
:1015E000D1F80CC00CFA08FC4CEA070CC0F808C093
:1015F0004768B7430E79C6F3001696403E434660EF
:101600000E79F643B6070AD0C7684FEA420C05FACE
:101610000CF6B7438E6806FA0CF63E43C6600E79A8
:1016200006F00306022E10D1D60800EB8608D8F883
:10163000206057074FEAD76C09FA0CF7BE430F69D1
:1016400007FA0CF73743C8F8207006684FEA420CD7
:1016500005FA0CF7BE430F7907F0030707FA0CF7FA
:10166000374307604E6816F4403F1CD04C4E376835
:1016700047F480473760366822F0030706F4804657
:101680000096484E07EB060CDCF8086897073F0FFA
:1016900009FA07F826EA0806DFF80C81404503D16D
:1016A0004FF0000841E072E0DFF80081404502D1D0
:1016B0004FF0010839E0DFF8F880404502D14FF0E3
:1016C000020832E0DFF8EC80404502D14FF0030819
:1016D0002BE0DFF8E480404502D14FF0040824E01D
:1016E000DFF8D880404502D14FF005081DE0DFF853
:1016F000D080404502D14FF0060816E0DFF8C480E4
:10170000404502D14FF007080FE0DFF8BC804045AC
:1017100002D14FF0080808E0DFF8B080404502D160
:101720004FF0090801E04FF00A0808FA07F848EA04
:101730000608CCF80888DAF800605746D1F804C0EB
:101740009E435FEACC2C00D51E433E60DBF8006070
:101750005F46D1F804C09E435FEA8C2C00D51E433F
:101760003E60DEF800607746D1F804C09E435FEA31
:101770008C3C00D51E433E60084F083F3E68D1F8C0
:1017800004C09E435FEACC3C00D51E433E60521C21
:10179000102AFFF411AFBDE8F88F0000083C0140AB
:1017A0004438024000300140000002400004024082
:1017B00000080240000C02400010024000140240E9
:1017C00000180240001C0240002002400024024099
:1017D000426921EA02030A4043EA024181617047FB
:1017E0000AB1816170470904FBE700000148806885
:1017F000704700000C000020024881680278114404
:10180000816070470C0000200B4810B5016841F45E
:1018100000710160016841F480610160016841F478
:1018200080710160032000F09FF80F2000F006F89F
:1018300000F050F8002010BD003C024030B50546D5
:101840001F4887B00024016841F010010160006862
:1018500006A900F01000009001A800F031F90498EA
:10186000A8B100F04DF940001649174AB0FBF1F15C
:101870001648491E026040F2E732C0E90324C0E97D
:101880000114846100F0CBFC040003D015E000F0EB
:1018900037F9E9E70D4800F0F1FC04000DD13620DE
:1018A00000F034F8102D07D200222946362000F02F
:1018B0003BF80748056000E0012407B0204630BD32
:1018C0004038024040420F0000100040C804002091
:1018D000100000200C4882B0016841F48041016092
:1018E000006800F4804000900748001F016841F044
:1018F000805101600068002200F0805000900F21AC
:10190000901E02B000F010B844380240002809DBF5
:1019100000F01F02012191404009800000F1E02009
:10192000C0F8001170470000F0B40E4B1B680C4665
:10193000C3F30223C3F10705042D00D90425191DA3
:10194000072901D2002300E0DB1E012606FA05F17B
:10195000491E214099409E40761E16403143F0BCFE
:1019600002F00BBC0CED00E0064900F0070208682D
:101970004FF6FF03184040EA0220034A1043086074
:10198000704700000CED00E00000FA052DE9F0477B
:101990000E46050065D0DFF81481D8F80000F7B2D4
:1019A00000F00F00B04207D288F80070D8F80000AD
:1019B00000F00F00B04254D128683D4C810712D589
:1019C000400703D5206840F4E050206028780007E5
:1019D00003D5206840F4604020602068A96820F0AA
:1019E000F000084320602878C0072DD0304968688F
:1019F0000839012812D0022813D0032811D0096811
:101A0000890700292DDA216821F0030101432160B3
:101A1000FFF7ECFE814641F2883A0EE0096889033F
:101A2000EFE709688901ECE7FFF7E0FEA0EB0901A9
:101A3000514502D90320BDE8F0872068696800F0AD
:101A40000C00B0EB810FEFD1D8F80010404601F048
:101A50000F01B14207D90770006800F00F00B042D3
:101A600001D00120E7E72878400705D52068E9681C
:101A700020F4E050084320602878000706D520684D
:101A8000296920F4604040EAC100206000F058F865
:101A90002168084AC1F30311515CC8400649086037
:101AA00006480068FFF7CAFE0020C4E7003C024079
:101AB000083802407C660008180000201000002052
:101AC0000F2202600C4A136803F00303436013689B
:101AD00003F0F0038360136803F4E053C3601268FB
:101AE0004FF4E05303EAD20202610448006800F0B8
:101AF0000F0008607047000008380240003C0240B8
:101B00000448054900680968044AC1F38221515C10
:101B1000C840704718000020083802408C66000852
:101B20000448054900680968044AC1F34231515C20
:101B3000C840704718000020083802408C66000832
:101B4000154810B5006810F00C02144813D0144961
:101B5000042A0FD0082A0ED10F4C241F22682368B4
:101B600002F03F025B0207D52068C0F38810A0FB9B
:101B7000010106E0084610BD2168C1F38811A1FBF0
:101B800000010023FFF7E2F82168C1F30141491C7D
:101B90004900B0FBF1F010BD083802400024F40009
:101BA000001BB7002DE9F84F04006ED02078DFF855
:101BB0004C93C007A9F104054AD009F1040001685B
:101BC000C1F38101012908D00068C0F38100022817
:101BD0000AD1D9F80000400206D52868800337D51D
:101BE00060680028E1D033E06068B0F5803F10D035
:101BF000B0F5A02F286810D020F480302860286825
:101C000020F4802028606068A8B1FFF7EFFD064649
:101C10000DE0286840F48030F4E740F4802028602C
:101C2000F7E700BFFFF7E2FD801B642873D8286840
:101C30008003F7D50CE0FFF7D9FD064605E000BFAD
:101C4000FFF7D4FD801B6428F0D828688003F7D400
:101C50002078DFF8AC8280074FF0000A3ED5A74815
:101C6000001D016811F00C0F08D00068C0F381005E
:101C700002280BD1D9F80000400207D42868800759
:101C800016D5E068012800D112E033E1E068B8B170
:101C90000120C8F80000FFF7A9FD064605E000BFD7
:101CA000FFF7A4FD801B0228C0D828688007F7D55D
:101CB0002868216920F0F80040EAC10028600DE0A2
:101CC000C8F800A0FFF792FD064604E0FFF78EFD7E
:101CD000801B02281FD828688007F7D420780007C7
:101CE00022D5864F87486169703771B10121016043
:101CF000FFF77CFD064604E0FFF778FD801B022815
:101D000009D838688007F7D50EE0C0F800A0FFF7C3
:101D10006DFD064605E082E0FFF768FD801B0228A6
:101D20007DD838688007F7D42078400768D5DFF879
:101D3000CCB100270BF13C0BDBF80000C0000BD44A
:101D4000DBF8001041F08051CBF80010DBF8000008
:101D5000012700F0805000906B4E3068C00510D411
:101D6000306840F480703060FFF740FD009005E07F
:101D7000FFF73CFD0099401A022850D83068C00592
:101D8000F6D55E4EA0686C3601280FD00528306865
:101D900010D020F001003060306820F00400306086
:101DA000A068B8B1FFF722FD00900FE0306840F066
:101DB0000100F4E740F004003060F7E7FFF716FD9C
:101DC0000099411A41F28830814266D83068800714
:101DD000F4D50EE0FFF70AFD009007E0FFF706FDDF
:101DE0000099411A41F28830814256D83068800704
:101DF000F4D42FB1DBF8001021F08051CBF80010A3
:101E0000A069C8B33D49091D0968C1F381010229D0
:101E10004AD00228504607D0C8F8600000E03CE0F5
:101E2000FFF7E4FC04463BE04746C8F86000FFF7D4
:101E3000DDFC064605E000BFFFF7D8FC801B02284A
:101E40002BD828688001F7D4D4E907010843A16A98
:101E50002E4A490802EB0141626A41EA82110843B5
:101E600094F82C1040EA0161C9F80010012038668E
:101E7000FFF7BCFC044606E03EE000BFFFF7B6FCFF
:101E8000001B022809D828688001F7D534E000BF7C
:101E9000FFF7ACFC001B022802D90320BDE8F88F35
:101EA00028688001F4D427E00128F7D0D9F8000091
:101EB000E26900F4800191421CD1226A00F03F01E6
:101EC000914217D147F6C071626A0140B1EB821F9F
:101ED00010D1A26A4FF0FF3300F4403103EB5202FD
:101EE000B1EB024F06D194F82C1000F07060B0EB0B
:101EF000016F01D00120D1E70020CFE70438024074
:101F000000004742800E4742007000400000FFFF83
:101F100070B5040009D0606A002540B12561656193
:101F2000A56294F8510040B10CE0012070BD6068DA
:101F3000B0F5827FF4D0E561F2E784F85050204696
:101F400000F044F8022084F851002068016821F074
:101F500040010160A088218900F4827001F40441ED
:101F60000843A18901F400610843217C01F00201CA
:101F70000843217D01F001010843218B01F4007128
:101F80000843217F01F03801084394F8201001F044
:101F900080010843218D01F4005108432168086045
:101FA000A069042101EA104094F8241001F0100106
:101FB0000843216848602068C16921F40061C1615B
:101FC0006565012084F85100002070BD10B586B011
:101FD000044614216846FEF703FF1449206888422E
:101FE00021D113480021026842F480120260006887
:101FF00000F4801005900E481438026842F0200268
:102000000260006800F0200005904FF460700090BE
:102010000220CDE9010103200390052004906946C8
:102020000448FFF7BBFA06B010BD000000500140A5
:1020300044380240001402402DE9F84F044690F85D
:10204000500000270A9E1D4692468B464FF001091C
:1020500001280ED0012084F85000FFF7C7FB80460E
:1020600094F85100616801280CD0B1F5827F07D146
:1020700002E00220BDE8F88FA16809B9042801D068
:102080000227C2E0BBF1000F27D0BAF1000F24D025
:102090001DB394F85100042802D0052084F85100A3
:1020A00000206065C4F838A0E587A587C4F830B083
:1020B000E586A5862064606420680168490603D42B
:1020C000016841F040010160E068B0F5006F6068B0
:1020D00005D0E8B3012D46D07FE0012795E008B197
:1020E000012D39D1206B21680088C860206B801CCD
:1020F0002063E08E401EE0862EE02068816889071C
:102100000FD5E18E69B1B9F1010F0AD1216B0988B0
:10211000C160206B801C2063E08E401EE0864FF083
:10212000000920688168C9070CD0E18F51B1C068EF
:10213000A16B0880A06B801CA063E08F401EE0872D
:102140004FF00109FFF752FBA0EB0800B04200E09E
:1021500009E001D3701C50D1E08E0028CDD1E08F72
:102160000028CAD13FE0206B216800780873206BFB
:10217000401C2063E08E401EE0862EE020688168CF
:1021800089070FD5E18E69B1B9F1010F0AD1216B31
:1021900009780173206B401C2063E08E401EE086AE
:1021A0004FF0000920688168C9070CD0E18F51B158
:1021B000C068A16B0870A06B401CA063E08F401E3C
:1021C000E0874FF00109FFF711FBA0EB0800B042D8
:1021D00002D3701C01D010E07EB1E08E0028CDD17A
:1021E000E08F0028CAD142463146204601F084FDE6
:1021F00028B101272020606507E0032705E0A068DB
:1022000018B92068C16880680090012084F85100E6
:10221000002084F8500038462CE77047704710B50E
:10222000040003D094F83D0010B107E0012010BD78
:10223000002084F83C00204600F01EF8022084F8BC
:102240003D00211D206801F04DFE012084F846006C
:1022500084F83E0084F83F0084F8400084F8410090
:1022600084F8420084F8430084F8440084F8450070
:1022700084F83D00002010BD7047000090F83D102C
:10228000012901D001207047022180F83D1001682A
:10229000CA6842F00102CA6000681149884214D03D
:1022A000B0F1804F11D00F4988420ED00E498842BC
:1022B0000BD00E49884208D00D49884205D00D49FF
:1022C000884202D00C49884204D1816801F007019C
:1022D000062903D0016841F0010101600020704728
:1022E000000001400004004000080040000C0040D5
:1022F000000401400040014000180040704770B5E4
:102300000446006801694FF00005C943890715D4E8
:10231000C168C943890711D4E91E016101202077F2
:10232000206880698007204602D0FFF7E7FF04E0BD
:1023300000F098F8204600F096F8257720680169AB
:10234000C943490717D4C168C943490713D46FF07B
:1023500004010161022020772068806910F4407F29
:10236000204602D0FFF7CAFF04E000F07BF82046C9
:1023700000F079F8257720680169C943090716D468
:10238000C168C943090712D46FF008010161042034
:1023900020772068C0698007204602D0FFF7AEFF93
:1023A00004E000F05FF8204600F05DF82577206833
:1023B0000169C943C90617D4C168C943C90613D402
:1023C0006FF010010161082020772068C06910F4C7
:1023D000407F204602D0FFF791FF04E000F042F872
:1023E000204600F040F8257720680169C943C907F5
:1023F00008D1C168C943C90704D1891E01612046BB
:1024000000F032F820680169C943090609D4C1689F
:10241000C943090605D46FF0800101612046FFF72A
:10242000FCFE20680169C943490609D4C168C94353
:10243000490605D46FF040010161204600F01EF806
:1024400020680169C94389060BD4C168C94389065C
:1024500007D46FF0200101612046BDE87040FFF70E
:10246000DDBE70BD7047704700680349884201D1E6
:10247000FFF7C2B97047000000100040704770B508
:10248000040004D094F83D00002510B106E00120BE
:1024900070BD84F83C50204600F022F8242084F8D7
:1024A0003D002068C16821F40051C160204601F060
:1024B0007DFD2068016921F4904101612068416936
:1024C00021F02A0141612068C16841F40051C160D6
:1024D0002564202084F83D0084F83E00002070BD73
:1024E00010B586B0044614216846FEF779FC1449FD
:1024F0002068884221D113480021026842F48022DA
:102500000260006800F4802005900E4810380268D0
:1025100042F008020260006800F0080005904FF4E5
:10252000407000900220CDE90101032003900720B4
:10253000049069460448FFF731F806B010BD00006A
:102540000048004040380240000C02402DE9F843AA
:10255000044690F83D001F4616460D4620284CD1F3
:10256000C5B1BEB194F83C00012846D0012084F8E2
:102570003C004FF00008C4F84080212084F83D0062
:10258000FFF734F9A6848146E684A068B0F5805F41
:1025900003D004E00120BDE8F883206928B12E466D
:1025A0005FF0000584F83C800EE00026FAE7802109
:1025B000204601F081FDA0B9AEB116F8010B2168EB
:1025C0004860E08C401EE084E08C4B464FF00002F7
:1025D00000970028EBD14FF04001204601F06CFD40
:1025E00030B10320D7E735F8020BC0F30800E6E767
:1025F000202084F83D000020CDE70220CBE700003A
:1026000070B5044600203C4D2074A27B2888616888
:102610004243D4F8F400FEF7CAFBA17B288841436B
:102620006068FEF7DDFBA07B10FB00F128884143CA
:10263000D4F81801FEF7D4FB207BA17B10FB01F13D
:1026400028884143D4F80C01FEF7CAFB00202BE098
:10265000D4F8F41001EB800292ED000AB5EEC00A46
:10266000F1EE10FA1ED0227C01EB820181ED000A0E
:10267000227C616A8854A169227B01EB8001237C62
:1026800091ED000A6169095C12FB03116FF003020E
:1026900002EB8101D4F80C21114481ED000A217C68
:1026A000491C2174401CC0B2A17B8142D0D80020BB
:1026B00010E0636AE2691B5C02EB830292ED000AA0
:1026C00010FB0101D4F81821401C02EB8101C0B2BB
:1026D00081ED000A217C8142EBD8C8B224F8780F42
:1026E00014F86C0C608020816181218361832084D7
:1026F000618424F8301C70BD38010020FEE7000022
:10270000D0F8EC1085B091ED000A8DED010A91ED45
:10271000010A8DED020A91ED020A8DED030A91ED99
:10272000030A00218DED040A9DED010ADDED020A88
:1027300020EE000A00EEA00ADDED030A00EEA00A7A
:10274000DDED040A00EEA00AF7EE000ACDED000A66
:10275000B1EEC01A80EE810A8DED000AD0F8EC20AF
:10276000DDED000A02EB8102491C92ED000AC9B2BC
:10277000042920EE200A82ED000AEFD34649DDED60
:10278000020AD0F8002191ED6F0A60EE200AB6EE41
:10279000000A60EE800AC2ED040AD1ED6F0A9DEDD9
:1027A000031AD0F8002160EE810A60EE800AC2EDC3
:1027B000050AD1ED6F0A9DED011AD0F8002120EE37
:1027C000811AFEEE000A21EE201A82ED0A1A91ED1E
:1027D0006F1ADDED041AD0F8002121EE211A21EE46
:1027E000001A82ED0B1A91ED6F1ADDED041AD0F884
:1027F000002121EE211A21EE201A82ED101A91ED0E
:102800006F1ADDED011AD0F8002121EE211A21EE18
:10281000201A82ED111A91ED6F1ADDED031AD0F82E
:10282000002121EE211A21EE000A82ED160A91ED17
:102830006F0A9DED021AD0F8002120EE010A20EE69
:10284000200A82ED170AD0F8F820D1ED740A92ED33
:102850001C0A20EE200A82ED1C0AD0F8F820D1EDE7
:10286000740A92ED230A20EE200A82ED230AD0F8A2
:10287000F8100A4A9FED0A0A0B6F934201DD81EDC1
:102880001C0AD0F8F800D0F88C10914201DD80EDE0
:10289000230A05B070470000F042002000401C46AB
:1028A00000401C4670B52D4C01252DED028B04F522
:1028B000D8702570B7EE008A80EC030A00209FEDE7
:1028C000280A84ED730A84F83801C4E95000C4E989
:1028D000520011EE900A84ED6F2AB0F17E5F01DDA7
:1028E000F0EE481A032388EE210A00220621201D5B
:1028F00084ED740A00F01EFD1A4B01221146A3F16B
:102900000800FDF7DBFD54F8EC0F9FED170A90224D
:1029100080ED008A54F86409184980ED010A606E60
:1029200080ED020A606E80ED030A1048A064104832
:10293000E064104820651048606504F85A5C04F8AB
:10294000595CE06FFEF733FA606F9022BDEC028BAA
:102950000B49BDE87040FEF72ABA0000F0420020A3
:1029600077CC2B32B84400200000000085290008F5
:1029700001270008B92900088D2E0008B466000858
:102980004001002010B50446902254F8F81F084872
:10299000FEF70DFA48220748616AFEF708FA054873
:1029A00061694822BDE810404830FEF700BA0000D7
:1029B00040010020D04400201FB50446B0EE000ABC
:1029C00054F8EC0FD0ED000A60EE800ACDED000A5D
:1029D000D0ED010A60EE800ACDED010AD0ED020AC9
:1029E00060EE800ACDED030AD0ED030A20EE800AE6
:1029F0008DED020A14F8DE0C14F8E01C10FB01F156
:102A0000234800884143206AFEF7EAF99DED030A56
:102A1000206AB1EE400A80ED000A206ADDED020A6C
:102A2000C0ED010ADDED000A206AF1EE600AC0ED9A
:102A3000020A206ADDED010AC0ED030A206ADDED1D
:102A4000010AC0ED060A206ADDED000AC0ED070AA2
:102A5000206ADDED020AC0ED080A206ADDED030AF6
:102A6000C0ED090A206ADDED000AC0ED0C0ADDEDBB
:102A7000010A206AF1EE600AC0ED0D0A206A80EDBD
:102A80000E0A206A9DED020A80ED0F0A1FBD0000AC
:102A90003801002010B5F24C90222DED048BF0EEA1
:102AA000619A84B0D4ED581AB0EE429AF0EE628A80
:102AB00030EE610AEB4984ED5B0AD4ED591A70EEF1
:102AC000E11AC4ED5C1AD4ED5A0A31EE601AF6EE42
:102AD000000A84ED5D1A20EE202A94ED6F0A61EE63
:102AE000A01A61EE200A22EE002A61EE801A20EE82
:102AF000800A8DED002ACDED011A8DED020AD4F881
:102B0000040104F58274FEF752F99DED000A206875
:102B1000B1EE401A80ED011A9DED010A2068B1EE78
:102B2000400A80ED020ADDED020A2068F1EE600A3B
:102B3000C0ED030A2068DDED001AC0ED061A20681A
:102B4000DDED021AC0ED081A206880ED090A206840
:102B50009DED010A80ED0C0A2068C0ED0D0A206889
:102B60009DED000A80ED0F0A20689DED020A80EDC0
:102B7000120A20689DED010A80ED130A54F8440BF7
:102B800080ED141A74E8520150EA01020AD1C4ED32
:102B90005E9A84ED5F9A401CC4ED608A41F10001A9
:102BA000C4E95201D4ED6F0A94ED643AB7EE008A9D
:102BB000AD4830EE831A60EEA91A20EE892A60EE45
:102BC000A80A88EE010AA94980ED000A94ED5E1A70
:102BD00021EE031A21EE001A01EE801A84ED5E1A2E
:102BE000D4ED5F1A61EE831A61EE801A42EE001A8C
:102BF000C4ED5F1A94ED602A22EE032A22EE002A29
:102C000000EE802A21EE010A01EEA10A84ED602A7D
:102C100002EE020AF1EEC00AC4ED660A88EE200A4E
:102C20008DED000A21EE000AA06880ED000A94ED07
:102C30005F0ADDED000AA06820EE200A80ED010A9F
:102C400094ED600ADDED000AA06820EE200A80ED18
:102C5000020A94ED5B0A60EE000A94ED5C0A40EE15
:102C6000000A94ED5D0A40EE000AB1EEE00A10EEB3
:102C7000100A84ED650A884209DA7D49D4F8980182
:102C8000884204DD7B49884201DA012000E000200F
:102C900084F8390194ED6C0AD4ED6F0AD4F8180168
:102CA00020EE200A80ED000A94ED6C0AD4ED6F0A44
:102CB000D4F8180120EE200A80ED070A94ED6C0A82
:102CC000D4ED6F0AD4F8180120EE200A80ED0E0A28
:102CD00094ED6C0AD4ED6F0AD4F8180120EE200AA6
:102CE00080ED150A94ED6D0AD4ED6F0AD4F8180141
:102CF00020EE200A80ED1C0A94ED6D0AD4ED6F0AD7
:102D0000D4F8180120EE200A80ED230AD4F81C0123
:102D100094ED6E0A80ED000AD4F81C0194ED6E0A61
:102D200080ED040AD4F81C0194ED6E0A80ED080AC7
:102D3000201D00F009FE6068F0EE008A90ED001A98
:102D400084ED541A90ED010A61EE012A84ED550AD2
:102D5000D0ED021AC4ED561A90ED032A40EE002A77
:102D600084ED572AD0ED040A21EE021AC4ED580A68
:102D7000D0ED050AC4ED590ADFED3F0A00EE211A35
:102D8000C4ED5A0AF0EE480A52EEA80A21EE280ACB
:102D900001F09AFA9FED399AF0EE480A20EE090AFE
:102DA00084ED6A0A94ED541A94ED570A61EE011A03
:102DB00040EE001A51EEA80AD4ED551A21EE211A60
:102DC000D4ED561A01EE801A21EE280A01F07CFAA1
:102DD00020EE090A84ED690A94ED550AD4ED570AEC
:102DE00094ED561A20EE200AD4ED540A00EEC10AE2
:102DF000F8EE000A20EE200A01F0D0F920EE090AD0
:102E00001F4984ED680A94ED6A0AD4ED760A70EEE3
:102E1000600A10EE900A884203DDB4F8D401401E27
:102E200007E010EE900A1749884204D9B4F8D4019B
:102E3000401CA4F8D401B4F9D401DFED131A00EE5C
:102E4000900AB8EEE01AF0EE400A41EE210AC4ED15
:102E50006B0A84ED760A04B0BDEC048B10BD000053
:102E6000F0420020B46600083C0100209A99993E87
:102E7000CDCC1441CDCC244100000000E12E6542B0
:102E800000003443000034C30000B4432DE9F04F88
:102E900000F1800187B00446783005460491FDF7C3
:102EA000CBFE84F8C800B4F87800A4F8A800B4F801
:102EB0005A00A4F8AA0004F1A80204F158019146AE
:102EC00028460591FDF796FD84F8C800B4F8A800DF
:102ED000A4F8B000B4F88200A4F8B20004F1B00283
:102EE000904648460499FDF785FD84F8C800B4F87B
:102EF0009000A4F8A000B4F89200A4F8A20004F195
:102F0000A002154604F190014046FDF753FA84F8FB
:102F1000C80041462846B034FDF7D4FA2076E06B6D
:102F20000126002790ED000AC64D8DED000A90EDB8
:102F3000010A8DED010A90ED020A8DED020A90ED75
:102F4000030A8DED030A34F8380C208166819DED6B
:102F5000010ADDED030A9DED021AE06F60EE200A22
:102F60009DED000A40EE410AB0EE000A60EE800AD4
:102F7000C0ED000ADDED031AE06FDDEC020A60EE41
:102F8000810A9DED021A41EE210A20EE800A80EDB1
:102F9000010A9DED000ADDED010AE06F20EE000A56
:102FA000B4F1B00400EEE00ADDED020A00EEE00A42
:102FB000DDED030A00EEA00A80ED020AD4F82C0130
:102FC00000EB870090ED000AB0EEC00AFDF76CF947
:102FD00005EB87007F1CFFB280ED610A032FEDD364
:102FE000B4F84800A4F8C00004F1C00204F1B8012C
:102FF000A4F8C26092468B4604F14800FDF798FDA4
:1030000084F8C800B4F8C000A4F8A80024F8AA6F97
:103010004A4651464046FDF7EDFCA077E681E08A3E
:10302000208259465046FDF707FEA077864A49465A
:103030005846FDF7DFFCA07795ED730AB6EE001A4F
:10304000D5ED720A20EE011AAA3CF4EEC10AF1EEA7
:1030500010FA01D285F83861F4EEC00A0020F1EED2
:1030600010FA33DD95F8381179B395F8391129B193
:10307000D5E95012491C42F1000201E000210A4644
:10308000C5E95012D5E9502332270021BA1A9941D7
:1030900002D285F8380137E06C4D14F80C2F2888DF
:1030A0004243D4E937017434FDF781FE14F8740CFF
:1030B00010FB00F228884243D4E91E01FDF777FE99
:1030C00004F8546C07B0BDE8F08FFFE79FED601A7D
:1030D00020EE011AF4EEC10AF1EE10FA0DDD95F8BA
:1030E000381151B170EE600A9FED5A1A20EE010AB4
:1030F00080EE801A85ED671A03E0B7EE000A85EDD1
:10310000670A0021C5E9501184F82C00B4F8580072
:10311000A4F8A800B4F88200A4F8AA00DDE904101D
:103120004A466C34FDF766FC04F85C0FA4F13002EB
:1031300041464846C83C0092FDF75CFC84F8C80054
:1031400000200DE0D4F81C11D5ED670A01EB8001D9
:10315000401C91ED000AC0B220EE200A81ED000A69
:10316000B4F89810B4F89A2051438142EADC042064
:103170009FED390A002105EB800300EB400700BFFB
:10318000D4F81C2193ED5D1A07EB010C02EB8C02C5
:1031900021EE001AD2ED000A491CC9B260EE810A84
:1031A0000329C2ED000AEBD3401CC0B20628E1D3CC
:1031B00034F8980F5A462084668451460098FDF7EB
:1031C00019FC84F8300095F83801983C50B39FED15
:1031D000230ADFED230A0420D4F8BC1095ED6F1A02
:1031E00001EB800121EE001AD1ED001AF4EEC11AB4
:1031F000F1EE10FA01DD81ED001AD4F8BC1095ED66
:103200006F1A01EB800121EE201AD1ED001AF4EEC5
:10321000C11AF1EE10FA01D281ED001A401CC0B2C1
:103220000628D9D3D4F8BC009FED0E0A04F1300271
:1032300080ED030A594604F13800FDF7BBF884F825
:10324000C8003FE7F0420020B044002038010020D1
:10325000CDCCCC3D6666663F84F9223F0AD7233C3D
:103260000AD723BC00000000DFED070ADFED052AC6
:10327000F7EE001AB0EE602A9FED041AB2EE040ACF
:10328000FFF710BB000000006F12833A8096184BC6
:1032900010B52148FEF726F91F4C143C84ED060AB0
:1032A000D4ED070A30EE800A84ED070A02F0B2FA84
:1032B00001F026FE1948B0F9041000EE101AB0F91A
:1032C0000210F8EEC02A00EE101A30F91C1BB8EEFE
:1032D000C02A00EE101AF8EEC01A90EC030AFFF7AD
:1032E000D9FB0F480D4990ED6A0A703181ED1E0A35
:1032F00090ED690A81ED1D0A90ED680A81ED1C0AC6
:1033000090ED6B0A81ED1F0A206A411C02D0401C1F
:10331000206210BD0020FBE7980000200042002042
:10332000F0420020FFF7A0FFFFF7B2FF012002F0FC
:1033300017FCF9E72DE9F047DFF81C840D4604215E
:10334000A8F800100821A8F80210057342738373CF
:103350004FF000091E46044680F81090174630468C
:1033600002F024FA31466061FDF73AFDB8F800003A
:10337000704302F01BFAA061B8F800107143FDF72A
:103380002FFDB8F80000704302F010FAE061B8F8C1
:1033900000107143FDF724FDB8F80000684302F007
:1033A00005FA2062B8F800106943FDF719FD3046B0
:1033B00002F0FCF931466062FDF712FDB8F800003A
:1033C000684302F0F3F92060B8F800106943FDF794
:1033D00007FDB8F80000704302F0E8F96060B8F843
:1033E00000107143FDF7FCFCB8F80000784302F0D0
:1033F000DDF9A060B8F800107943FDF7F1FCB8F8EA
:103400000000684302F0D2F9C4F8E800B8F80010F0
:103410006943FDF7E5FC217B012204F13000D4F87B
:10342000E830FDF74BF8B8F80000684302F0BEF949
:10343000C4F8EC00B8F800106943FDF7D1FC217B1B
:10344000012204F13800D4F8EC30FDF737F89FB1D1
:10345000B8F80000784302F0A9F9C4F8F000B8F811
:1034600000107943FDF7BCFC617B012204F14000B0
:10347000D4F8F030FDF722F8B8F80000704302F0FD
:1034800095F9C4F8F400B8F800107143FDF7A8FCF2
:10349000A17B012204F14800D4F8F430FDF70EF8C6
:1034A000B8F800006843684302F080F9C4F8F800F7
:1034B000B8F8001069436943FDF792FC217B04F1E1
:1034C00050000A46D4F8F830FCF7F8FFB8F80000CE
:1034D0006843684302F06AF9C4F8FC00B8F80010C9
:1034E00069436943FDF77CFC217B04F158000A46DF
:1034F000D4F8FC30FCF7E2FFB8F8000068436843FA
:1035000002F054F9C4F80001B8F8000088346843A8
:10351000684302F04BF9E067B8F80010A06F694308
:103520006943FDF75DFCB8F80010E06F694369433B
:10353000FDF756FC54F8783FA4F1A00014F8F41CF1
:10354000A4F580740A46FCF7B9FF217B04F16800FA
:103550000A46D4F80431FCF7B1FFAFB1B8F8000067
:103560006843784302F022F9C4F80801B8F8001063
:1035700069437943FDF734FC627B217B04F17000E1
:10358000D4F80831FCF79AFFB8F8000047467043BA
:10359000684302F00BF9C4F80C013888943468438E
:1035A000704302F003F9E0673988A06F7143694303
:1035B000FDF716FC3988E06F69437143FDF710FC95
:1035C00014F8882C14F8861CA4F11C00A36F943CFA
:1035D000FCF774FFA27B217B04F18000D4F810314A
:1035E000FCF76CFF38886843684302F0DFF8C4F8E2
:1035F0001401398869436943FDF7F2FB217B04F12B
:1036000088000A46D4F81431FCF758FF3888704314
:10361000704302F0CBF8C4F8180139887143714344
:10362000FDF7DEFBA17B04F190000A46D4F81831C7
:10363000FCF744FF38886843704302F0B7F8C4F8D9
:103640001C01398869437143FDF7CAFBA27B217BCA
:1036500004F19800D4F81C31FCF730FF207B10FBFC
:1036600000F03988484302F0A1F8C4F82001217B1A
:1036700011FB01F13A885143FDF7B2FB207B10FBAF
:1036800000F03988484302F091F8C4F82401217B06
:1036900011FB01F13A885143FDF7A2FB207B10FB9F
:1036A00000F03988484302F081F8C4F82801217BF2
:1036B00011FB01F13A885143FDF792FB207B3988D9
:1036C000484302F073F8C4F82C01217B3A88514337
:1036D000FDF786FB207B3988484302F067F8C4F881
:1036E0003001217B38884143D4F82C01FDF778FB69
:1036F000217B04F1A0000A46D4F82031FCF7DEFE5D
:10370000217B04F1A8000A46D4F82431FCF7D6FE48
:10371000217B04F1B0000A46D4F82831FCF7CEFE34
:10372000217B012204F1B800D4F82C31FCF7C6FE4D
:10373000217B012204F1C000D4F83031FCF7BEFE39
:1037400004F8289F84F8019084F8029084F803908C
:1037500084F80490BDE8F0873801002070B5044675
:10376000C07B0F4D18B12046FEF74AFF0DE0A27B4B
:10377000288861684243D4F8F400FDF718FBA17B68
:10378000288841436068FDF72BFB627B2888A1688D
:103790004243D4F8F000BDE87040FDF708BB0000DC
:1037A000380100202DE9F041044690F82C00002853
:1037B0002BD1B4F89800A4F8A800B4F87A10A4F8B3
:1037C000AA10A4F8B000B4F85A00A4F8B20004F1AA
:1037D000A802174604F1780104F19800FDF70AF9F0
:1037E00084F8C80004F1B00204F1580116460D46F1
:1037F0003846FDF7FFF884F8C80004F1500231465E
:103800002846FDF795F984F8C800BDE8F0812DE958
:10381000F041044690F8290000282CD104F16801F9
:1038200004F160000F460546FDF706FA84F8C8006B
:1038300004F15802164604F150012846FDF7DAF863
:1038400084F8C800B4F85800A4F8A800B4F86A00D6
:10385000A4F8AA0004F1A802154639463046FDF73F
:10386000C9F884F8C800324604F188012846FCF7FC
:10387000A1FD84F8C800BDE8F0812DE9F0470446B9
:1038800090F82A0000285CD104F1800104F178004E
:1038900089460546FDF7D0F984F8C800B4F87800E9
:1038A000A4F8A800B4F85A00A4F8AA0004F1A802E9
:1038B00004F1580190460F462846FDF79BF884F81E
:1038C000C800B4F8A800A4F8B000B4F88200A4F8C6
:1038D000B20004F1B002154649464046FDF78AF8A9
:1038E00084F8C800B4F89000A4F8A000B4F89200DE
:1038F000A4F8A20004F1A002164604F190012846A3
:10390000FCF758FD84F8C80029463046AA34FCF775
:10391000D9FDA07734F8520C24F8020C34F8280CA6
:103920002080424649463846FDF764F804F81E0FE9
:10393000A4F1300229464046C83CFDF75BF884F804
:10394000C800BDE8F087000070B50446FFF706FF29
:10395000D4F8CC1009B120468847204600F068F81A
:10396000D4F8D01009B1204688472046FFF74FFF12
:10397000D4F8D41009B120468847207C2B4DC0B91B
:10398000E07BB0B1227B28884243D4E93A01FDF7BD
:103990000EFA207B10FB00F228884243D4E93E0156
:1039A000FDF705FAD4F8E01009B120468847002059
:1039B0002AE02046FFF761FFD4F8D81009B120466D
:1039C0008847204600F06EF8D4F8DC1009B1204694
:1039D00088472046FFF7E6FEE4E700BF10FB010141
:1039E000D4F8F82002EB8101226AD1ED000A02EB43
:1039F000800292ED000AF4EEC00AF1EE10FA01D254
:103A000081ED000A401CC0B2217B8142E6D8CAB2D7
:103A10002888D4F8E81042432068FDF7C8F9D4F8A4
:103A2000E41009B120468847206870BD38010020A5
:103A30002DE9F041044690F8280000282AD1627B45
:103A400004F1300104F1600004F1380522B3227B57
:103A5000A4F8B820012604F1B802A4F8BA60174609
:103A6000FCF7C8FF84F8C800207BA4F8C000A4F8C5
:103A7000C26004F1C002164604F1400104F1700076
:103A8000FCF7B8FF04F8C80F2A4631463846FCF761
:103A900091FC2070BDE8F0812A46FCF7ABFF84F86A
:103AA000C800F7E72DE9F041044690F82B00002804
:103AB00038D1B4F87800A4F8B800012504F1B802B0
:103AC00004F13801A4F8BA5090460F4604F178008A
:103AD000FCF790FF84F8C800B4F84800A4F8C000D0
:103AE00004F1C002A4F8C2501646414604F1480051
:103AF000FDF71EF884F8C800B4F89800A4F8B800E0
:103B0000A4F8BA504246314604F19800FCF772FF1F
:103B100084F8C80004F1300241463846FCF74AFCFC
:103B200084F8C800BDE8F0811FB5DFF85080DFF8E9
:103B300050A04FF4807900BFD8F87800FDF74DFA17
:103B400006460F46D8F87400FDF747FA04460D46BE
:103B5000D8F87000FDF741FA8DE8F00041EC100B49
:103B600008A053EC102B00F0E5FA49465046FDF74B
:103B70002FFE0A2001F0F4FFDEE700007042002073
:103B80000018024025662C25662C25660A000000D8
:103B900010B58EB01C220B496846FDF708F90021CC
:103BA000684601F0E9FF084C06491C2220601C31E0
:103BB00007A8FDF7FCF8002107A801F0DDFF606011
:103BC0000EB010BD44660008040000202DE9F0414D
:103BD00086B014216846FDF703F9234800240168E4
:103BE00041F080010160016801F0800105910168E8
:103BF00041F040010160016801F040010591016858
:103C000041F020010160016801F020010591016887
:103C100041F0080101600068144F00F008004FF403
:103C2000FF750590012229463846FDF7D9FDDFF8DA
:103C30004080002240214046FDF7D2FD009502263B
:103C400001250396CDE9015469463846FDF7A6FCE7
:103C50004020CDE90005CDE9024669464046FDF722
:103C60009DFC06B0BDE8F0813038024000180240EB
:103C700000140240104810B50E4901604FF48271E3
:103C8000416000218160C1604FF400720161C0E9B0
:103C900005123022C0E90721416281620A21C16216
:103CA000FEF736F9002803D0BDE81040FDF761BCEF
:103CB00010BD0000005001402C0400200C4810B53D
:103CC0000A4901604FF4E1314160002181600C221A
:103CD000C160C0E904128161C161FEF7D0FB002818
:103CE00003D0BDE81040FDF744BC10BD00480040C3
:103CF00084040020FEE7FEE738B504461248134B63
:103D00000068B0FBF3F04FF47A735843009060689A
:103D1000B0F5827F0DD10B46009200228021204613
:103D200000F016F870B1606D40F02000606503206F
:103D300038BD009830B1401E009020688068C043B4
:103D40000006F6D5002038BD1800002000366E01B0
:103D50002DE9F8431E46914688460446089DFDF726
:103D600045FD401B351AFDF741FD07462548006813
:103D7000C0F3CB30684338E0701C37D0FDF736FD18
:103D8000C01BA84203D215B1009860B32CE0206894
:103D9000416821F0E00141606068B0F5827F0BD19D
:103DA000A068B0F5004F02D0B0F5806F04D1206854
:103DB000016821F040010160A06AB0F5005F09D1FF
:103DC0002068016821F4005101602068016841F415
:103DD00000510160012084F85100002084F8500057
:103DE0000320BDE8F8830025401E0090206881680C
:103DF00038EA010004D000214945BDD10020F0E798
:103E00000121F9E71800002010B5502080F3118837
:103E1000BFF34F8FBFF36F8F02F04CFB18B1044913
:103E20004FF080500860002080F3118810BD000022
:103E300004ED00E030B593B030216846FCF7D0FFC8
:103E400014210CA8FCF7CCFF1D480025016841F0A7
:103E500080510160006800F080501190194801689D
:103E600041F4404101600068022400F44040119098
:103E700001200090000401908001CDE90640062059
:103E80000890A820CDE9090404200B906846FDF7AE
:103E900089FE08B172B6FEE70CA90F2081E8310057
:103EA0004FF4A0500F904FF48050109005210CA8B3
:103EB000FDF76CFD002801D072B6FEE713B030BDEF
:103EC00040380240007000400248016841F470012F
:103ED0000160704788ED00E00148FEF710BA00006D
:103EE000C8040020F0B50268254C264D264E274F09
:103EF000274B4FF0804CA04209D0604507D0A84224
:103F000005D0B04203D0B84201D0984204D122F08B
:103F1000700E4A6842EA0E02A0421BD0604519D0DA
:103F2000A84217D0B04215D0B84213D0984211D051
:103F3000184DA8420ED0184DA8420BD0174DA842DC
:103F400008D0174DA84205D0164DA84202D0164DF4
:103F5000A84203D122F44075CA682A434D6922F071
:103F600080022A4302608A68C2620A688262A042B2
:103F700001D0984201D10969016301214161F0BD7D
:103F8000000001400004004000080040000C004018
:103F9000000401400040014000440140004801404D
:103FA00000180040001C00400020004070B504468E
:103FB00000680169E26821F44051114301612169FF
:103FC000A068E26908436169114308432168CA682F
:103FD00049F20C639A430243CA6020684169A269AE
:103FE00021F440711143416131492068884202D077
:103FF0003049884202D1FDF793FD01E0FDF780FDD5
:10400000E2690023192164253226B2F5004F626867
:1040100028D0A0FB0101930F9200FCF797FE014608
:10402000B0FBF5F06FF01802504301EB800006EB97
:104030000010B0FBF5F000F0F002B1FBF5F002EB80
:104040000012B1FBF5F06FF01803584301EB80004C
:1040500006EB0010B0FBF5F000F00F0021681044F3
:10406000886070BDA0FB010192185B41FCF76EFEF9
:104070000146B0FBF5F00201B1FBF5F06FF018035B
:10408000584301EB800006EBC000B0FBF5F000F0F8
:10409000F80002EB4002B1FBF5F0584301EB800061
:1040A00006EBC000B0FBF5F000F00700D6E700001B
:1040B00000100140001401402DE9F04198461746D8
:1040C0000E460446069D27E0681C25D02DB1FDF75D
:1040D0008DFBA0EB0800A8421ED920680C3050E8E8
:1040E000001F21F4D07140E80012002AF5D12068A9
:1040F000143050E8001F21F0010140E80012002AAE
:10410000F5D1202084F83D0084F83E00002084F89A
:104110003C000320BDE8F0812068006836EA00001A
:1041200004D00020B842CFD00020F3E70120F9E707
:10413000FEE700000FB4054B10B503A9044A02982E
:1041400000F04EFB10BC5DF814FB0000E94E0008C7
:10415000D00100204100080218BF04200A0E18BF39
:1041600040F001004FF07F4232EA010108BF40F009
:104170000200012808BF052070470907090E002822
:1041800004DB00F1E02080F80014704700F00F001D
:1041900000F1E02080F8141D7047000010B54FF0CA
:1041A0000E402DED028BB0EE408A18EE104A00EB67
:1041B0004400B0F1506F4AD84FF0FC40B0EB440FD0
:1041C00022D2B0EEC80AF7EE000A30EEC00AF6EED0
:1041D000000A60EE208A18EE900A01F021FF01EE3D
:1041E000100A14F0004F1DBFDFED2D0A9FED2D0AC0
:1041F000B1EE411ADFED2C0A08BF9FED2C0AF8EE54
:10420000001A21EE218A05E0DFED290A68EE088A0E
:10421000B0EE600A9FED271ADFED271A30EE080A8C
:1042200048EE811A9FED251A08EEA11ADFED241A37
:1042300048EE811A9FED231A08EEA11A68EE281A9B
:10424000BDEC028B01EE810A30EE200A10BD4FF06A
:10425000E440B0EB440F0CD918EE100AFFF77AFFD8
:10426000042808BF00F0DCF9B0EE480ABDEC028B70
:1042700010BD4FF07F40B0EB440F07D2B0EE480ABC
:10428000BDEC028BBDE8104000F0BBB9012000F08E
:10429000DFF9BDEC028BBDE8104000F0B9B90000B9
:1042A0000000C9BF22AAFDB90000C93F22AAFD39FA
:1042B0000000000024FE1C3DC78AD83C1E67383D24
:1042C0001B93993DAFAA2A3E70B54FF068422DED81
:1042D000048BF0EE408A18EE900AB0EE608A18EE79
:1042E000101A02EB4003B3F1654F3CBF02EB4102F1
:1042F000B2F1654F7DD200BFC0F3C753C1F3C752BF
:104300009A1A1B2A09DD10F0004F14BF9FED830A93
:104310009FED830ABDEC048B70BD12F11A0F36DAE3
:1043200011F0004F09D010F0004F0CBF9FED7D0A37
:104330009FED7D0ABDEC048B70BD88EE889A19EE66
:10434000100AFFF707FF042808BF00F069F918EE0C
:10435000900AFFF7FFFE054618EE100AFFF7FAFE77
:10436000044619EE100AFFF7F5FE042D18BF052DBF
:1043700008D1042C18BF052C04D1002804BF02204A
:1043800000F066F9B0EE490ABDEC048B70BD420046
:10439000B2EB410F3AD910F0004F19BFDFED630ABD
:1043A0009FED630ADFED630A9FED630AB0EE481AE2
:1043B0000A46B1EE688A80F00041F0EE418A10466C
:1043C0000A1A5200B2F1807F34D2484010F0004FF8
:1043D000DFED5A1A9FED5A2A1DBFBEEE001A70EE8D
:1043E000E10A30EE420AB6EE001A08BF70EEA10AEA
:1043F00000E040E008BF30EE020AB0EE682A01EEAD
:10440000482A08EE818AC2EE081A15E011F0004F22
:1044100004BF9FED4C0AF0EE400AD1D010F0004FDF
:1044200019BFDFED490A9FED490ADFED490A9FED0B
:10443000490AC5E7C8EE881A21EEA11A9FED462A5F
:10444000DFED462A41EE022A9FED452A01EE222A9F
:10445000DFED442A41EE022A9FED432ABDEC048B96
:1044600001EE222A21EE811A01EE020A30EE210A23
:1044700030EE200A70BD4FF07F42B2EB400F28BFF4
:10448000B2EB410F09D2F0EE480AB0EE680ABDEC7B
:10449000048BBDE8704000F0B7B840EA01035B0050
:1044A00008BF41F0FF410BD0B2EB400F08BFB2EBA9
:1044B000410F08D120F0804008EE900A21F08041A1
:1044C00008EE101A18E7B2EB400F12BF5FEA410383
:1044D00040F0FF4001F000413FF40EAFB2EB410F5E
:1044E00012BF5FEA400200F0004041F0FF413FF49C
:1044F00003AF4A0092EA40033FF5FEAE002AACBF8C
:104500009FED1A0A9FED1A0A68EE808A28EE008A4B
:1045100018EE900A18EE101AEEE60000DB0FC9BF85
:10452000DB0FC93FDB0F4940DB0F49C00000C9BFAB
:1045300022AAFDB90000C93F22AAFD390060ED3E64
:10454000C30ACE3700000000000049C022AA7DBA8D
:104550000000494022AA7D3A2DAD65BD8FB8D53DFA
:104560000FB511BE61C84C3EA8AAAABE0000804F7C
:104570000000802F2DED020B019820F000400190EB
:104580009DED000B02B0704700B52DED048BB0EE31
:10459000409AF0EE609A83B051EC190BFCF7D4FE10
:1045A00041EC180B18EE100A18EE901A8DED008BE6
:1045B000002818BF0120084320F00040C0F17F60B0
:1045C00000F1E040C00F14D019EE101A19EE900A55
:1045D0008DED009B002918BF0121084320F0004009
:1045E000C0F17F6000F1E040C00F04BF012000F087
:1045F0002FF8B0EE480A03B0F0EE680ABDEC048B69
:1046000000BD30EE000A704730EE200A704700000F
:10461000DFED020A80EEA00A7047000000000000F3
:104620009FED020A20EE000A704700000000001013
:1046300002E008C8121F08C1002AFAD1704770476B
:10464000002001E001C1121F002AFBD170470000C9
:104650000149086070470000D40100202DE9FF5F88
:1046600082B00021DDE90430020DDDF840B00343E3
:1046700018D044F61050A2F2FF324243151411989C
:1046800001281FD0A5EB0B00401C5FEA000A4FF089
:1046900000064E4FDFF83891B046504615D5CAF1A6
:1046A000000413E0119801244AA3012801D16FEA04
:1046B0000B010298119AC0E90031C0E9024206B02C
:1046C000BDE8F09FCBF10000DFE704460021404A3F
:1046D000491842EB0450CDE9001012E0E00707D082
:1046E00032463B4640464946FCF785FB80468946B4
:1046F00032463B4610461946FCF77DFB06460F4600
:104700006410002CEAD1DDE90401DDE90023BAF1EF
:10471000000F06DAFCF76FFB42464B46FCF76BFBDB
:1047200005E0FCF7DAFB42464B46FCF7D6FB0446B5
:104730000E460022284BFCF763FC03D84FF0FF30F5
:10474000014607E00022254B20463146FCF755FD87
:10475000FCF74BFE102409E0002C0ADB0A220023A0
:10476000FCF7F4FA039B30321A55641E50EA01023A
:10477000F2D1641C039AC4F111031444119A012A62
:1047800003D0012208430DD10AE0084304D00020E1
:104790004FF0110B119072E7A3EB0B056D1E0DE0AE
:1047A0005B4504DD4FF0000205F1010504E003DA8A
:1047B0004FF00002A5F10105002AECD002981199F2
:1047C000C0E90231C0E9004579E70000000014406B
:1047D0000000F03F300000000000F0430000E03F28
:1047E0002DE9FF4F95B09A46884606460025EEE132
:1047F000252877D100242746F94A0121039400E0B7
:10480000044316F8013F203B01FA03F01042F7D1B0
:1048100030782A2811D06FF02F033078A0F13002C1
:10482000092A16D8039A44F0020402EB820203EB31
:1048300042021044761C0390EFE758F8042B0392D1
:10484000002A03DA504244F40054039044F0020476
:10485000761C30782E2816D116F8010F44F0040487
:104860002A280DD06FF02F023078A0F13003092BE9
:1048700009D807EB870302EB4303C718761CF3E75D
:1048800058F8047B761C30786C280FD006DC4C2856
:1048900017D068280DD06A2814D104E0742810D0ED
:1048A0007A280FD10DE044F400140AE044F4801497
:1048B00001E044F440147278824202D104F580147D
:1048C000761C761C307866280BD013DC582877D0FD
:1048D00009DC002875D04528F6D04628F4D04728B2
:1048E0001AD193E118E0632835D0642879D065287F
:1048F00012D18BE1702873D008DC6728F1D06928C9
:104900006FD06E280DD06F2806D1ACE073282CD064
:10491000752874D0782853D05246179990476D1C4B
:1049200054E1C4F30250022809D003280DD0D8F86E
:10493000001004280DD00D6008F1040846E1D8F8F5
:104940000010EA17C1E90052F6E7D8F800100D8010
:10495000F2E70D70F0E718F8041B8DF80010002046
:104960008DF80100EB46012003E058F804BB4FF03E
:10497000FF3061074FF0000102D40DE009F10101A1
:104980008946B9420FDA8145F8DB1BF80910002986
:10499000F4D108E009F1010189468142FADB1BF8F4
:1049A00009100029F6D103985346A0EB09072146C8
:1049B0003846179A00F080FA284400EB090507E012
:1049C00044E008E10DE01BF8010B524617999047AF
:1049D000B9F10109F7D2534621463846179AF2E059
:1049E00039E00A21C4F302524FF0000B0091022A71
:1049F00006D058F8040BC117032A09D00AE023E0B7
:104A000008F1070020F00702F2E80201904605E0F5
:104A100000B2C117042A01D140B2C117002906DA39
:104A20000A460021404261EB02012D2202E02205EC
:104A300004D52B228DF80420012203E0E20701D0E7
:104A40002022F7E7914657E00A2100E010214FF0BD
:104A5000000B00910BE010214FF0000B44F0040418
:104A60000827009103E008204FF0000B0090C4F3EA
:104A70000252022A05D058F8040B0021032A08D05C
:104A800008E008F1070020F00702F2E80201904672
:104A900003E080B2042A00D1C0B24FF0000922071F
:104AA0002AD53278702A07D0DDF800C08CF0100CBF
:104AB0005CEA0B0C05D00EE040228DF804200122A8
:104AC00008E050EA010306D030238DF804308DF859
:104AD000052002229146009B83F0080353EA0B0352
:104AE0000AD150EA010201D1620705D530228DF8C2
:104AF00004204FF001097F1E3278582A04D039A2D1
:104B00000C920CAA02920BE03BA2F9E75B46009ADA
:104B1000FCF71CF90C9B9B5C029A521E02921370CC
:104B200050EA0102F2D1029804A9081A00F1200B00
:104B3000600702D524F4803400E001275F4502DDE0
:104B4000A7EB0B0000E0002000EB0B0100900398A6
:104B50004944401A0390E00306D453462146179A6D
:104B6000039800F0A9F90544002706E001A8524681
:104B7000C05D179990476D1C7F1C4F45F6DBE00325
:104B80000CD553462146179A039800F095F9054431
:104B900004E030205246179990476D1C0099481E3A
:104BA00000900029F5DC08E002980299524600784E
:104BB000491C0291179990476D1CBBF10001ABF1A4
:104BC000010BF1DC5BE100F065F90544761C3078FF
:104BD00000287FF40DAE19B02846BDE8F08F000024
:104BE00009280100303132333435363738396162C3
:104BF0006364656600000000303132333435363787
:104C0000383941424344454600000000600700D463
:104C1000062708F1070020F00700F0E8022380468D
:104C200003F0004C5FEA0C0001D097A009E02005DA
:104C300001D596A005E0E00701D095A001E0AFF214
:104C40004C001390307823F0004365280CD006DC2C
:104C5000452809D046281DD047287FD13BE066284B
:104C600018D067287AD136E00021112F01DB1120FE
:104C700000E0781CCDE9000104A90CA8FFF7EEFCC8
:104C8000DDE90D010C9A4FF0000B07F101091092BC
:104C900000914EE04FF000400097CDE9011004A9CB
:104CA0000CA8FFF7DBFCDDE90D020C9B0F994FF020
:104CB000000B91461093009211B9791C00EB010989
:104CC000B7EB090003D4C0F1FF3B07F10109A9EBE1
:104CD0000700019042E0012F00DA01270021112F87
:104CE00001DD112000E03846CDE9000104A90CA83F
:104CF000FFF7B4FCDDE90D010C9A00914FF0000BB9
:104D0000B946109221070FD4009A4A4503DA91461A
:104D100001E0A9F10109B9F1010F05DD109AA9F12E
:104D20000101515C3029F4D0B84202DA10F1040FCD
:104D300003DA0121CDE9011010E0002803DC8344EF
:104D4000A9EB000102E0411C494500DD8946A0EBCA
:104D50000B00401C01904FF000400290200705D44A
:104D60000198484502DB4FF0FF30019000208DF89C
:104D70004B0002980DF14B07B0F1004F25D00220F7
:104D80000C902B200D90029800280CDA40420290E3
:104D90002D200D9007E00A210298FCF765F93031CB
:104DA000029007F8011D0C99481E0C900029F2DCB6
:104DB00002980028EFD1791E0D980870307800F025
:104DC000200040F0450007F8020D11A8C01BC01DCF
:104DD00002901398007800B1012000EB09010198BE
:104DE00001EBE071029801440398401A401E0390C1
:104DF000E00306D453462146179A039800F05CF866
:104E000005441398007818B15246179990476D1CC5
:104E1000E00323D553462146179A039800F04CF837
:104E200005441BE0BBF1000F07DB0098584504DD8B
:104E30001098179910F80B0001E01799302052468E
:104E4000904701980BF1010B401E05F101050190FF
:104E500004D12E205246179990476D1CB9F10001DC
:104E6000A9F10109DEDC05E017F8010B524617999C
:104E700090476D1C0299481E02900029F4DC5346AD
:104E80002146179A03989EE62D0000002B00000093
:104E9000200000002DE9F041044600251E4617467B
:104EA000880404D405E039462020B0476D1C641EF8
:104EB000F9D52846BDE8F0812DE9F04104460025EA
:104EC0001E469046C80301D5302700E020278804FD
:104ED00004D505E041463846B0476D1C641EF9D53F
:104EE0002846BDE8F081000013B54FF6FF7301229C
:104EF00069460248FDF72AFB00981CBD8404002087
:104F000070B5FF4CFF4D2DED108B94ED010AD4EDE3
:104F1000010A20EE20FA94ED010AD4ED020A20EEF7
:104F200020CA94ED010AD4ED030A60EE20BA94ED94
:104F3000010AD4ED040A60EE20CA94ED020AD4ED11
:104F4000020A20EE20DA94ED020AD4ED030A20EEE4
:104F5000209A94ED020AD4ED040A20EE20BA94EDD2
:104F6000030AD4ED030A60EE20AA94ED030AD4EDFF
:104F7000040A20EE20AA94ED040AD4ED040A60EE9F
:104F8000209A95ED040A84ED0C0A95ED050A84ED4E
:104F90000D0A95ED060A84ED0E0AB5F9000000EE43
:104FA000100AB8EEC00A84ED0F0AB5F9020000EE4F
:104FB000100AB8EEC00A84ED100AB5F9040000EE3C
:104FC000100AB8EEC00A84ED110AB5F9060000EE29
:104FD000100AB8EEC00A84ED120AB5F9080000EE16
:104FE000100AB8EEC00A84ED130AB5F90A0000EE03
:104FF000100AB8EEC00A84ED140AFCF7F7FBA065AE
:10500000A06D616D401A00EE100AB8EE400ADFEDA7
:10501000BE0AA06DC0EE208A606594ED0F0AD4ED43
:105020000F0A94ED101A20EE200AD4ED100A00EEBB
:10503000810AD4ED110A94ED111A00EE810A00F0F4
:10504000A7FAD4ED0F0A60EE800AC4ED0F0AD4ED82
:10505000100A60EE800AC4ED100AD4ED110A20EEA9
:10506000800A84ED110A94ED120AD4ED120A94ED2F
:10507000131A20EE200AD4ED130A00EE810AD4EDB3
:10508000140A94ED141A00EE810A00F081FAD4EDAE
:10509000120AB6EE001AB0EE008A60EE800A39EE0F
:1050A0006CEA7BEE2B1AC4ED120AD4ED130A60EE03
:1050B000800AC4ED130AD4ED140A20EE800A71EEC2
:1050C0006A0A31EE4D1A84ED140A94ED120A70EE5C
:1050D000E9EA31EE692A20EE080A71EE6ADA60EE3A
:1050E0002E0A94ED130A20EE080A40EE0E0A94ED03
:1050F000140A20EE080A40EE210A94ED120A79EE15
:105100002C1A7BEE6BCA20EE080A60EEA00A20EE95
:10511000210AD4ED131A61EE881A01EE820AD4ED49
:10512000141A3AEE4C2A61EE881A01EE820AD4ED86
:10513000121A3AEE0C2A61EE881A40EE000A21EEAD
:10514000AC9AD4ED131A10EE900A61EE881A01EEB3
:10515000829AD4ED141A61EE881A01EEAD9AFBF72B
:105160003CFF41EC100BFFF70FFA51EC100BFBF773
:105170005FFF00EE100A3FEE4D1A7CEE0A2A20EE89
:10518000082A29EE080A31EE6A1A62EE880A22EE2F
:105190000E3A94ED144A71EE293A22EE2E1A00EEE0
:1051A000223A7BEE8B2A6CEE881A00EE2C1A22EE45
:1051B000222AD4ED112A00EE2D2A94ED100A20EEB9
:1051C000230A02EEE00AD4ED132A62EE822A44EEAC
:1051D000432A94ED0F4A30EE220AD4ED112A62EEF2
:1051E000A12AB5EEC00A44EE632AD4ED143A94ED38
:1051F000124A63EE813A44EE423A32EEA32AD4EDEB
:105200000F2A62EEA00AD4ED102A42EEE10AD4ED94
:10521000121AD4ED132A61EE831A42EEC11A70EE0F
:10522000A10AF1EE10FA41D0B5EEC02AF1EE10FA63
:105230003CD0F5EEC00AF1EE10FA37D0D4ED091AE1
:105240009FED321A60EE012A42EEA81A62EE012AA0
:10525000C4ED091AD4ED0A1A42EEA81AC4ED0A1ACE
:1052600060EE811A94ED0B1A01EEA81A84ED0B1A68
:1052700094ED0C1A00EE081A94ED090A31EE000ABA
:1052800084ED0C0A94ED0D0A94ED0A1A02EE080A58
:1052900030EE010A84ED0D0A94ED0E0A00EE880A44
:1052A000D4ED0B0A30EE200A84ED0E0A94ED020ACA
:1052B000D4ED0C0A94ED0D1A94ED013A20EEC00ADB
:1052C000D4ED030A00EEC10AD4ED040A94ED0E1ADF
:1052D00000EEC10AD4ED0C0A94ED0E1A00EE283A45
:1052E00094ED010A20EE200AD4ED030A00EE810AB3
:1052F000D4ED040A94ED0D1A00EEC10A08E0000096
:1053000084000020004200200000FA440AD7233C19
:10531000D4ED021AD4ED0D0A94ED0E1A40EE281ABF
:1053200094ED010A94ED032AD4ED042A20EE200A1C
:10533000D4ED020A00EEC10AD4ED040A94ED0C1A71
:1053400000EE810AD4ED0E0A94ED0D1A00EE282A23
:1053500094ED010A20EE200AD4ED020A00EE810A43
:10536000D4ED030A94ED0C1A00EEC10A40EE282A8F
:1053700023EE030A01EEA10A02EE020A02EEA20ADD
:1053800000F006F963EE000AC4ED010A61EE800A3E
:10539000C4ED020A62EE000A22EE800AC4ED030A9E
:1053A00084ED040A94ED0C0A85ED070A94ED0D0ACC
:1053B00085ED080A94ED0E0A85ED090ABDEC108B07
:1053C00070BD000010B559482DED0A8BB0F90610DC
:1053D000B0F908009FED569BDFED57BA574C9FED93
:1053E000588A9FED58BADFED58AA9FED58AADFED15
:1053F000588A00294EDA9FED57CA00282ADA91FB15
:10540000F0F0FBF7D9FD41EC100BFFF7B3F853ECCC
:10541000192B51EC100BFBF7F3FD0AD8C4ED01BAC0
:1054200084ED028A9FED4C0A84ED030A9FED4B0A3E
:105430000BE09FED4B0A84ED010A9FED4A0A84EDD3
:10544000020A84ED03BA9FED480A84ED040ABDEC1C
:105450000A8B10BDFBDD91FBF0F0FBF7ADFD41ECDD
:10546000100BFFF787F853EC192B51EC100BFBF7DF
:10547000C7FD84ED01CA06D884ED028AC4ED03AAF3
:105480009FED3A0AE1E784ED02AAC4ED038A9FED9D
:10549000380ADAE7DBDD00289FED36CA22DD91FB12
:1054A000F0F0FBF789FD41EC100BFFF763F853ECCC
:1054B000192B51EC100BFBF7A3FD0AD89FED2E0A18
:1054C00084ED010AC4ED02AA84ED038AC4ED04BA96
:1054D000BDE79FED2A0A84ED010AC4ED028A84ED3E
:1054E00003AAB2E7B3DA91FBF0F0FBF765FD41ECFC
:1054F000100BFFF73FF853EC192B51EC100BFBF797
:105500007FFD84ED01CA08D89FED1D0A84ED020AD3
:1055100084ED038A9FED1B0A97E79FED1B0A84ED3C
:1055200002BA84ED030A9FED190A8EE700420020BB
:10553000000000000000F03F0AD7A3BB8400002059
:10554000A8C64BBEE17A543F355E7ABF68910DBF65
:10555000E17A54BF0AD7A33BBE9F7A3F4ED111BC1C
:105560006F1203BC7B140EBF6F1203BBA69B443C9F
:1055700099BB16BB0AD7233B52499D3A99BB163BB0
:10558000355E7A3F6F12033C295C0FBFBC74933BBE
:1055900010EE100AF6EE000A074960EE200AA1EBB1
:1055A000600000EE100A20EE801AF7EE080A41EEC5
:1055B000400A20EE800A7047DF59375F0622014615
:1055C000492000F06BBA10B530216A2000F09EFA35
:1055D0000A20FBF7D1FF0D21242000F097FA0A20C2
:1055E000FBF7CAFF0E21282000F090FA0A20FBF7F3
:1055F000C3FF8E21312000F089FA0A20FBF7BCFF9F
:1056000001210B2000F07BF80A20FBF7B5FF0020FA
:1056100000F059F8102801D0012010BD01210B2005
:1056200000F06DF80A20FBF7A7FF00210A2000F028
:1056300066F80A2000F047F808B1022010BD0A20E1
:10564000FBF79AFF00210B2000F059F80B2000F027
:105650003AF808B1032010BD0A20FBF78DFF242182
:10566000412000F04CF8412000F02DF8242801D012
:10567000042010BD0A20FBF77FFFC021422000F06C
:105680003EF8422000F01FF8C02801D0052010BDD0
:105690000A20FBF771FF00212A2000F037FA0A20C8
:1056A000FBF76AFF0021342000F030FA0A20FBF7F4
:1056B00063FF062203210E2000F02CF96420FBF783
:1056C0005BFF002010BD10B50146322000F01EFA2D
:1056D0000A20FBF751FF8021342000F017FA0A203E
:1056E000FBF74AFF352000F0B1F9044600213420D1
:1056F00000F00CFA0A20FBF73FFF204610BD70B502
:105700000D46044600212A2000F000FA0220FBF793
:1057100033FF2146292000F0F9F90220FBF72CFF86
:105720002946642000F0F2F90220FBF725FF8121D1
:105730002A2000F0EBF9BDE870400A20FBF71CBFFF
:10574000FCF762F8FEF776FBFEF740FAFEF792FAF6
:10575000FEF7B4FA9FED0B0AFAF7E2FD0A4880ED76
:10576000000A00F025F8FFF72DFE0848017808A090
:10577000FEF7E0FCA820FBF7D7FEFEF709FA00F0E1
:10578000F6F9FEE7920A063F00000020860000209E
:10579000696D75206964203D2025780D0A000000A0
:1057A00001460020842900D0C81C704700F0B4BB1B
:1057B00030B585B06420FBF7DFFE752000F046F9B8
:1057C000124900241422887011496846FBF7EFFA49
:1057D0004FEA0D0505EB4400417815F8140000F080
:1057E00095F90120FBF7C8FE641CE4B20A2CF1D342
:1057F000032000F086F9022000F07EF9FFF7E3FEB7
:1058000000F0D0F805B0002030BD0000840000207A
:105810009466000810B50E2239493B2000F03EF98D
:10582000374800F10E04018849BA2180418849BAFD
:105830006180818849BAA180C18849BAA181018962
:10584000628B49BA891AE1814189A28B49BA891AC6
:1058500021828089E18B40BA401A60822948FFF793
:10586000ADFE2849A4F14E005C399FED271ACA6DA0
:105870004265B1F86010A0F85810D0F84E100160E1
:10588000D0F852104160D0F856108160B4F90C0085
:1058900000EE100AA4F14E00F8EEC00A80EE810A74
:1058A000F3EE050A30EE200A80ED030AB4F90E107B
:1058B00000EE101AF8EEC00A9FED140A80EE801A6E
:1058C000DFED130AC1EE201AC0ED041AB4F910106E
:1058D00001EE101AF8EEC11A81EE801AC1EE201AFC
:1058E000C0ED051AB4F9121001EE101AF8EEC11A43
:1058F00081EE801A81EE200A80ED060A10BD0000BC
:1059000040420020E00000205CEFA6436F1283417C
:105910003333654270B50E460446014615462820CD
:1059200000F0F4F80220FBF727FE0A21292000F0FE
:10593000EDF80220FBF720FE0121642000F0E6F8DC
:105940000220FBF719FE44F08001252000F0DEF86C
:105950000220FBF711FE3146262000F0D7F8022086
:10596000FBF70AFE0321342000F0D0F80220FBF7F9
:1059700003FE0321672000F0C9F80220FBF7FCFDBD
:1059800081212A2000F0C2F80620FBF7F5FD45F042
:105990008001272000F0BAF8BDE870400220FBF734
:1059A000EBBD00002DE9F041274E002706F10E0463
:1059B0004FF496750E2224493B2000F06FF8318891
:1059C000A08A49BA0844A0827188E08A49BA08448A
:1059D000E082B188208B49BA084420833189608BEA
:1059E00049BA084460837189A08B49BA0844A083EE
:1059F000B189E08B49BA0844E0830520FBF7BCFD80
:105A00007F1CAF42D6DBB4F9140090FBF5F0A08206
:105A1000B4F9160090FBF5F0E082B4F9180090FBA1
:105A2000F5F02083B4F91A0090FBF5F06083B4F927
:105A30001C0090FBF5F0A083B4F91E0090FBF5F07C
:105A4000E083BDE8F081000040420020F8B5104E30
:105A50000446002240213046FBF7C2FE44F080009D
:105A60000C4C3725621C20700123511E0A480095FA
:105A7000FCF7E2FA621C0123511E07480095FCF76F
:105A8000DBFA012240213046FBF7AAFE6078F8BD20
:105A900000140240840000202C040020F8B5134FAD
:105AA00015460E460446002240213846FBF798FE74
:105AB0000F4944F08000372408706231A1F161027F
:105AC0000870012362390B480094FCF7B5FA0849C5
:105AD0002B463246623107480094FCF7ADFA0122AA
