:020000040800F2
:10000000E0060020A1010008C32E00080D2400080E
:10001000C12E0008A7120008F532000800000000F9
:10002000000000000000000000000000C72E0008D3
:100030009513000800000000C52E0008C92E000816
:10004000BB010008BB010008BB010008BB010008A0
:10005000BB010008BB010008BB010008BB01000890
:10006000BB010008BB010008BB010008BB01000880
:10007000BB010008BB010008BB010008BB01000870
:10008000BB010008BB010008BB010008BB01000860
:10009000BB010008BB010008BB010008BB01000850
:1000A000BB010008BB010008BB010008BB01000840
:1000B000BB010008BB010008BB010008BB01000830
:1000C000BB010008BB010008BB010008BB01000820
:1000D000BB010008E9320008BB010008BB010008B1
:1000E000BB010008BB010008BB010008BB01000800
:1000F000BB010008BB010008BB010008BB010008F0
:10010000BB010008BB010008BB010008BB010008DF
:10011000BB010008BB010008712F0008BB010008EB
:10012000BB010008BB010008BB010008BB010008BF
:10013000BB010008BB010008BB010008BB010008AF
:10014000BB010008BB010008BB010008BB0100089F
:10015000BB010008BB010008BB010008BB0100088F
:10016000BB010008BB010008BB010008BB0100087F
:10017000BB010008BB010008BB0100080000000033
:10018000BB010008BB010008DFF810D000F0B8FB8D
:1001900000480047A1470008AFF30080E0060020B8
:1001A0000648804706480047FEE7FEE7FEE7FEE711
:1001B000FEE7FEE7FEE7FEE7FEE7FEE7612F000849
:1001C000890100082DE9F05F0546002092469B4614
:1001D00088460646814640241BE02846414647465D
:1001E000224600F03EFA53465A46C01A914110D3B7
:1001F00011461846224600F025FA2D1A67EB010831
:100200004F4622460120002100F01CFA17EB00099E
:100210004E41201EA4F10104DFDC484631462A4647
:100220004346BDE8F09FD2B201E000F8012B491E21
:10023000FBD270470022F6E710B513460A46044683
:100240001946FFF7F0FF204610BD2DE9FE4F80460E
:1002500081EA0300C00F0C46009021F0004123F01A
:100260000045B8EB0200A94105D240462146904620
:100270001C460B46024623F00040104347D0270D92
:10028000C7F30A00C3F30A510290401A01904028B4
:100290006BDAC3F3130040F4801B0098924620B140
:1002A0000023D2EB030A63EB0B0B01985946C0F114
:1002B0004002504600F0C6F906460D4650465946E3
:1002C000019A00F0DEF910EB08006141002487EA92
:1002D000115284EAE7731A4340D0009A62B3019A3C
:1002E000012A4FEA075215DC001B61EB02014FF0B7
:1002F000004202EA0752CDE90042001C41F580119C
:1003000032462B4600F015FA03B0BDE8F08F4046A8
:100310002146F9E7001B61EB0201001C41F5801347
:1003200000185B412018A2F5001747EB030140EAD3
:10033000D570B6196D4111E06D084FEA360645EAF1
:10034000C0754FEA0752001B61EB0201001C41F52A
:10035000801149084FEA30000019514132462B46BE
:1003600003B0BDE8F04F00F0D5B90098012240007D
:100370000023D0EB020263EBE073009821464FEAC2
:10038000E074B8EB000061EB0401E9E783F000439F
:100390005BE781F0004158E72DE9FE4F81EA030455
:1003A00004F0004421F0004100944FF0000B23F0D2
:1003B000004350EA01045ED052EA03045BD0C3F369
:1003C0000A54C1F30A552C44A4F2F3340194A0FB5F
:1003D0000254C1F3130141F48011C3F3130343F436
:1003E000801301FB024400FB034E840A970A44EA8F
:1003F000815447EA8357A4FB076802958D0A05FBE1
:1004000007854FEA932C04FB0C542705029D4FEA05
:10041000065847EA1637B5EB08056EEB070C870E52
:10042000920E47EA811742EA8312A7FB0201B6EB5C
:100430000B0164EB00042B0D43EA0C335E1844EB14
:100440001C50DA465146E7FB0201C5F313044FEA9C
:100450000B3343EA14534FEA0432019C43EA060388
:10046000A4F10C040294009CCDE900B400F061F901
:1004700003B0BDE8F08F00200146F9E72DE9F04D0B
:1004800081EA030404F0004B21F0004514464FF0CC
:10049000000A23F0004150EA050220D054EA01028C
:1004A0001DD0C5F30A570246C5F31303C1F3130069
:1004B000C1F30A5640F4801543F48013A7EB0608F5
:1004C000101BD64608F2FD3873EB050002D308F185
:1004D000010801E092185B41B8F1000F03DA002037
:1004E0000146BDE8F08D00204FF480110646844699
:1004F0000EE0171B73EB050705D3121B63EB050317
:1005000006434CEA010C49084FEA300092185B415F
:1005100050EA0107EDD152EA030012D082EA04004A
:1005200083EA0501084305D0101BAB4106D2012226
:10053000002306E000224FF0004302E06FF00102CA
:1005400053101AEB06004CEB085110EB0A0041EB7C
:100550000B01BDE8F04D00F0DDB80EB5C10F80EA2B
:10056000E0700844CA07002140F233438DE80E00D2
:100570000A460B4600F0DDF803B000BD70B5C1F3CC
:100580000A5201F000450024C1F3130140F2FF3389
:1005900041F480119A4201DA002070BD40F23343E9
:1005A0009A42A2F2334203DC524200F05AF800E0D1
:1005B00090402C43F1D0404270BD00F0004230F03A
:1005C00000400AD0C10D01F56071C0F3160042EA87
:1005D0000151C2084007114370470020014670478F
:1005E00001F0004330B421F0004150EA010206D08E
:1005F0000A0DA2F56072C1F31301002A02DC30BCBF
:1006000000207047440F44EAC104C100E01830BC28
:1006100000EBC25000F047B830B50B460146002051
:100620002022012409E021FA02F59D4205D303FAB4
:1006300002F5491B04FA02F52844151EA2F1010235
:10064000F1DC30BD202A04DB203A00FA02F1002060
:1006500070479140C2F1200320FA03F31943904000
:100660007047202A04DB203A21FA02F0002170476B
:1006700021FA02F3D040C2F120029140084319460A
:100680007047202A06DBCB17203A41FA02F043EAF2
:10069000E07306E041FA02F3D040C2F1200291403B
:1006A0000843194670470029A8BF7047401C4900FD
:1006B00008BF20F00100704710B4B0FA80FC00FAC7
:1006C0000CF050EA010404BF10BC704749B1CCF1F2
:1006D000200421FA04F411FA0CF118BF012121437E
:1006E0000843A3EB0C01CB1D4FEA00614FEA102039
:1006F00042BF002010BC704700EBC35010440029DB
:10070000A4BF10BC7047401C490008BF20F0010086
:1007100010BC704710B5141E73F1000408DA401CB9
:1007200041F1000192185B411A4301D120F0010010
:1007300010BD2DE9F04D92469B4611B1B1FA81F200
:1007400002E0B0FA80F220329046FFF77BFF0446C9
:100750000F4640EA0A0041EA0B0153465A46084355
:1007600013D0114653EA010019D0C8F14002504697
:10077000FFF777FF05460E46504659464246FFF7BB
:1007800061FF084305D0012004E020463946BDE85A
:10079000F08D0020054346EAE0762C4337430A9863
:1007A0006305E40AA0EB08000022FD0A44EA47546E
:1007B0000A3002D500200146E9E701051019694118
:1007C000DDE9084500196941BDE8F04DA2E72DE9D2
:1007D000F04D00231A461B1A8A4103DB0020014614
:1007E000BDE8F08DC1F30A52C1F3130141F4801545
:1007F0004FF0000BD10702D100186D41521E0027A7
:10080000044640F2FF11384601EB620A3E4680463C
:10081000024600204FF48011FFF723FFC2197141F7
:10082000BB1846EB0100B4EB030C75EB000C04D3D2
:10083000E41A65EB000517460E46241908F101007D
:100840006D4180463428E3DDF91946EB0600091BAB
:10085000A84103D24FF0FF32134601E000221346B5
:100860001BEB070046EB0A51BDE8F04DFFF752BF06
:10087000C1F30A52C1F3130140F2FF3341F4801176
:100880009A4202DA00200146704740F233439A420E
:10089000A2F2334202DC5242FFF7E3BEFFF7D2BEC0
:1008A00030B5041E71F1000404DB4FF000444042F7
:1008B00064EB0101141E73F1000405DB1C464FF0CC
:1008C0000043524263EB04038B4208BF824230BDB7
:1008D00030B5041E71F1000404DB4FF000444042C7
:1008E00064EB0101141E73F1000405DB1C464FF09C
:1008F0000043524263EB0403994208BF904230BD6B
:10090000064C074D06E0E06840F0010394E807005C
:1009100098471034AC42F6D3FFF73AFC704A00080F
:10092000904A000870B58C1810F8015B15F00703A9
:1009300001D110F8013B2A1106D110F8012B03E078
:1009400010F8016B01F8016B5B1EF9D12B0705D480
:100950000023521E0DD401F8013BFAE710F8013BC9
:10096000CB1A921C03E013F8015B01F8015B521EE5
:10097000F9D5A142D8D3002070BD0000F7B51546C7
:100980002DED0A0B0E4607462DED108B9CB0FE4C4C
:10099000D4ED000A20EEA00A8DED0C0A94ED030AB6
:1009A00094ED015A94ED021A60EE804A25EE00AAF9
:1009B00021EE00EA60EE00DA21EEA10A60EE85EA9F
:1009C00060EE81AA65EE010A02EE020ACDED094A47
:1009D00065EE058ACDED080A21EE018A02EEA20A33
:1009E00003F0C8FE21EE801A8DED2F1A22EE001AB8
:1009F0008DED301A22EE801A23EE030A8DED311AA6
:100A000003EEA30A04EE040A03F0B4FE24EE00BAD7
:100A100023EE00DA63EE80BAB0EE000A7AEE2A0A1C
:100A20002BEE000A8DED0B0A20EE200A10EE100AC4
:100A3000FFF7C3FDB0EE000A41EC1F0B2BEE800A5E
:100A40008DED000ADDED080ADDED094A70EEE40ADD
:100A5000CDED070A20EE200A10EE100AFFF7ADFDDB
:100A600041EC110B1DEE900A8DED101BFFF7A5FD5B
:100A700041EC1C0B18EE100AFFF79FFD9FEDC39B86
:100A800053EC192BFFF785FC53EC1C2BFFF77EFC76
:100A9000B0EE000A41EC1C0B2DEE000A8DED050AAC
:100AA00010EE100AFFF789FD53EC1C2BFFF774FCC6
:100AB0009DED101B53EC112BFFF7C7FB53EC1F2BC5
:100AC000FFF7C3FBFFF78CFD00EE100A7EEE6E0A07
:100AD0008DED060A9DED0B0A20EE200A10EE100A9D
:100AE000FFF76BFD41EC1F0B1DEE900AFFF765FD54
:100AF00041EC1C0B18EE900AFFF75FFD53EC192B2D
:100B0000FFF747FC53EC1C2BFFF740FC9DED000A60
:100B100041EC1C0B10EE100AFFF74FFD53EC1C2BA1
:100B2000FFF73AFCDDED080ADDED094A9DED050A07
:100B300041EC1C0B70EEA40A20EE200A10EE100A05
:100B4000FFF73BFD53EC1C2BFFF77FFB53EC1F2BF8
:100B5000FFF77BFBFFF744FD0FEE100A18EE100ABB
:100B6000FFF72BFD41EC1C0B18EE900AFFF725FD5B
:100B700053EC192BFFF70DFC53EC1C2BFFF706FC75
:100B80009DED0B0A41EC1C0B10EE100AFFF715FD52
:100B900053EC1C2BFFF700FC7AEE6AFA9DED050A78
:100BA0003EEE2E1A41EC1C0B60EE2F0A9DED000A62
:100BB00040EE010A10EE900AFFF7FFFC53EC1C2BED
:100BC000FFF743FBFFF70CFD9DED060A0CEE100A44
:100BD00020EE000A0FEE0F0A10EE100AFFF7EDFCF0
:100BE00041EC100B02F0DCFF51EC100BFFF7F8FCAE
:100BF00000EE100A8DED050AB0EE000A6FEE800AD5
:100C00003EEE8E0ACDED060AF0EE000A8DED000AEA
:100C100060EE200ACDED080A9DED0C0A30EE680A60
:100C200030EE480A70EE2D0AB0EE000A2CEE00FA03
:100C3000CDED0B0A2FEE2F0A10EE100AFFF7BDFCC8
:100C400041EC1E0B1DEE900AFFF7B7FC41EC1C0BAC
:100C500018EE100AFFF7B1FC53EC192BFFF799FBC4
:100C600053EC1C2BFFF792FB9DED050AF0EE000AFA
:100C700041EC1C0B60EE20DA1DEE900AFFF79DFCA4
:100C800053EC1C2BFFF788FB53EC1E2BFFF7DDFA10
:100C9000FFF7A6FCDDED070A9DED000A0EEE900AB7
:100CA0002DEEA0EA18EE100A0FEE00EAFFF785FC21
:100CB00041EC1C0B18EE900AFFF77FFC53EC192B4C
:100CC000FFF767FB53EC1C2BFFF760FB41EC180BA5
:100CD0001FEE100AFFF771FC53EC182BFFF75CFBBB
:100CE0003AEE8A0A41EC180B2DEE800A10EE100A3B
:100CF000FFF763FC53EC182BFFF7A7FAFFF770FC24
:100D00009DED301ADDED0B0A00EE100A9FED224A30
:100D100061EE201A9DED311ADDED080A41EE601AF0
:100D20006BEE800A4BEE4E0A31EEA02ADDED060A8C
:100D300061EE201A9DED2F1ADDED0B0A41EE601ACF
:100D40006BEE2E0A4DEE400A71EEA01ADDED080A98
:100D500021EE200A9DED301ADDED060A01EE600A53
:100D60006DEE0E0A4BEEEE0A70EE202ADFED090A58
:100D700094ED040A22EE201A21EEA03A01EE040AB4
:100D800084ED040A0AE000001400002000000000C6
:100D90000000E03F0AD7A33C0AD7233C94ED051A94
:100DA00062EEA00A03EE041A84ED051A94ED063AE9
:100DB00000EE843A84ED063ADDED2C3ADFEDFE0AD2
:100DC00042EE203A73EE804A9DED2D0A01EEA00A14
:100DD000D4ED021AB0EE619A70EE013A9DED2E0A42
:100DE00094ED031A02EEA00AD4ED012AF0EE418A36
:100DF00064EEE20AF0EE629A30EE033AB6EE000AD2
:100E000043EEE10A43EE410A20EE805A84ED075A90
:100E100094ED002A64EE820AB0EE428A43EE210A83
:100E200043EEC10A60EE80AA63EE820AC4ED08AA0E
:100E300043EE620A44EE810A60EE806A63EE020AC3
:100E4000C4ED096ACDED0E6A43EEA20A44EEE10A52
:100E500060EE805AC4ED0A5ACDED155ADFEDD70A7F
:100E60004AEEA02A30EEE47A05EE202A46EEA01AD9
:100E700030EEE3AA05EEA01A27EE226A70EEC36AEE
:100E800073EE207A02EE206A0AEE216A06EE816A8B
:100E900026EE00BA34EEA06A84ED0BBA66EE025A72
:100EA00042EEA05A47EEA15A4AEE015A65EE80FA88
:100EB00073EEA05AC4ED0CFA65EE82BA46EEA2BA01
:100EC00041EEA0BA46EE01BA27EE822A05EEA22A2A
:100ED0006BEE80EAC4ED0DEA07EE212A01EE202A2E
:100EE000B0EE691A0FEEA01A22EE00EAB0EE412A27
:100EF00067EE011AB0EE481A84ED0EEA0BEE201AE6
:100F0000F0EE412A41EE201AB0EE491A0EEEA01A78
:100F1000F0EE41BA4AEE011AB0EE681A0EEE201A4F
:100F2000B0EE41CA46EE811A26EE221A02EE201ACF
:100F300061EE801AC4ED0F1A07EEAB1A0AEE0C1A16
:100F400021EE00FA25EEA21A67EEA22A74EE437A89
:100F500033EE043A06EE821A45EE822A74EE646A93
:100F600074EE844A84ED10FA0BEEA01A47EE2B2A99
:100F700034EE637A06EE0C1A4CEE202AF0EE690A83
:100F80004FEE040A61EE00DA22EE80DAC4ED11DAE7
:100F9000B0EE601A26EEA06AF0EE480A84ED12DA8E
:100FA00041EE840AB0EE602A00EE846AF0EE490A4F
:100FB00024EE82AA4DEE840A01EE04AAF0EE605AF5
:100FC00007EE206AF0EE680A03EE25AA4DEE040A49
:100FD000F0EE602A07EEA06A07EE22AA33EE847ACA
:100FE00026EE006A6AEE000A84ED136AC4ED140A64
:100FF000CDED1A0A67EE023A23EE022AB0EE00AAFD
:1010000047EE813A07EE012A0BEE0A5A45EE843A82
:1010100006EEA52A01EE8A5A44EEA23A02EE842A8E
:1010200063EE800A22EE000AC4ED150ACDED070A30
:1010300084ED160A8DED000A35EE060A10EE100A50
:10104000FFF7BBFA9FED5EBB53EC1B2BFFF7A4F938
:1010500041EC1C0B18EE100AFFF7AFFA53EC1C2BF7
:10106000FFF7F3F8FFF7BCFA4FEE8AAA08EE100A72
:1010700084ED008ADDED1A0A4FEE0AAA3AEEA00AC4
:1010800010EE100AFFF799FA53EC1B2BFFF784F9C7
:1010900041EC1C0B19EE900AFFF78FFA53EC1C2B56
:1010A000FFF7D3F8FFF79CFA09EE900AC4ED019A16
:1010B0009DED0E0ADDED070A0EEE8A0A0DEE8A0A94
:1010C00030EE200A10EE100AFFF777FA53EC1B2BD4
:1010D000FFF762F941EC1C0B19EE100AFFF76DFAED
:1010E00053EC1C2BFFF7B1F8FFF77AFA09EE100A60
:1010F00084ED029ADDED150A9DED000A4EEE0A0A16
:101100004DEE0A0A30EE800A10EE100AFFF755FA8B
:1011100053EC1B2BFFF740F941EC1B0B18EE900A28
:10112000FFF74BFA53EC1B2BFFF78FF8FFF758FA3A
:1011300028EE080A00EE900AC4ED030A09EEA90A97
:1011400009EE090A00EEA00A03F014FBD4ED000A30
:10115000F8EE008A60EE801AC4ED001AD4ED010AA0
:1011600020EE801A84ED011AD4ED020A21EE281A2D
:1011700060EE800AC4ED020A94ED032A22EE000A12
:1011800084ED030A21EE000A21EE8A1A01EE200AFC
:1011900010EE100AFFF711FA41EC100B02F0E4F820
:1011A0009FED09BB51EC100B53EC1B2BFFF7F4F830
:1011B000FFF716FA30600BE0000020420AD7A33B8D
:1011C000ABAAAAAA814E5B3F6666666666A64C40DD
:1011D00094ED018A28EE280A60EE080A94ED020ACE
:1011E00060EE0A8A48EEC00AB7EE000A30EE800AC6
:1011F00010EE100AFFF7E1F994ED030AD4ED000AAE
:1012000041EC190B28EE800A60EE8A0A00EE880A8B
:1012100010EE100AFFF7D1F941EC100BB0EE491AAD
:10122000F0EE691A02F0BCFB53EC1B2B51EC100BD7
:10123000FFF7B2F8FFF7D4F93860D4ED009A94EDD7
:10124000019AD4ED028A29EEA90A94ED038A09EEE7
:10125000090A08EEE80A08EE480A10EE100AFFF73D
:10126000ACF929EE280A41EC1C0B09EE880A20EEA5
:101270000A0A10EE100AFFF7A0F941EC100BB0EECD
:101280004C1AF0EE6C1A02F08BFB53EC1B2B51EC5A
:10129000100BFFF781F8FFF7A3F928601CB0BDEC35
:1012A000108B0DB0F0BDFEE72DE9F04F00242DEDC1
:1012B000048B97B008ADDFED348A09AE05AFB0EE10
:1012C000689AB0EE688A0DF118080DF108090DF161
:1012D0000C0A41F61E1BCDE900650AAB10AA0FA946
:1012E0000EA801F0ABFACDE9008707AB13AA12A94B
:1012F00011A801F0ABF9CDE900A904AB16AA15A914
:1013000014A801F05DFB0DAA0BA90CA89DED024AE3
:10131000DDED033A9DED043ADDED052A9DED062A4B
:10132000DDED071A9DED081ADDED090A9DED0A0AAB
:10133000FFF724FB584603F0DDF9642C0BD39DED39
:101340000B0A39EE009A9DED0C0A78EE808A9DED2D
:101350000D0A38EE008A641CE4B2962CBBD30C480C
:101360009FED0A0AC9EE000AC0ED1C0AC8EE800A09
:10137000C0ED1D0AC8EE000AC0ED1E0A17B0BDEC94
:10138000048BBDE8F08F000000000000000048C2A0
:1013900014000020704772B6FEE72DE9F0410446C4
:1013A000876D00F065F9064694F83500002502289F
:1013B00006D08020606584F834500120BDE8F081BB
:1013C0002068016821F0160101602068416921F060
:1013D00080014161206C08B9A06C20B120680168CF
:1013E00021F0080101602068016821F0010101601D
:1013F0000CE000F03DF9801B052807D9202060652E
:10140000032084F8350084F83450D7E7206800685A
:10141000C007EED194F85C103F208840B8600120EE
:1014200084F8350084F834500020C7E790F8351070
:10143000022903D08021416501207047052180F8F1
:1014400035100068016821F001010160002070473B
:1014500070B5044600F00CF90546601C02D0044843
:101460000078044400F004F9401BA042FAD370BD98
:10147000040000202DE9F84FDFF8BCA1002201256F
:1014800003264FF00F090AF1040BAAF1040E00BF66
:101490000B6805FA02F42340A34270D10F7907F0DC
:1014A0000307012F01D0022F16D187684FEA4208A7
:1014B00006FA08FC27EA0C07D1F80CC00CFA08FC65
:1014C0004CEA070CC0F808C04768A7430C79C4F37E
:1014D000001494403C4344600C79E443A4070AD0D0
:1014E000C4684FEA420C06FA0CF7BC438F6807FA4F
:1014F0000CF72743C7600C7904F00304022C12D1C7
:10150000D40800EB840CDCF820405707FF0E09FAE2
:1015100007F824EA0804D1F8108008FA07F848EA26
:101520000408CCF8208004684FEA420C06FA0CF755
:10153000BC430F7907F0030707FA0CF7274307604E
:101540004C6814F4403F70D03C4C276847F4804707
:101550002760246822F0030704F480440094384C88
:1015600007EB040CDCF8084897074FEA177809FAEC
:1015700008F7BC43334FB84202D1002724E054E0BF
:10158000314FB84201D101271EE0304FB84201D19E
:10159000022719E02E4FB84201D1032714E02D4F46
:1015A000B84201D104270FE02B4FB84201D10527E3
:1015B0000AE02A4FB84201D1062705E0284FB84279
:1015C00001D1072700E0082707FA08F72743CCF8DE
:1015D0000878DAF800405746D1F804C09C435FEA27
:1015E000CC2C00D51C433C60DBF800405F46D1F8B2
:1015F00004C09C435FEA8C2C00D51C433C60DEF8A1
:1016000000407746D1F804C09C435FEA8C3C00D58B
:101610001C433C60084F083F3C68D1F804C09C4321
:101620005FEACC3C00D51C433C60521C102AFFF4FE
:101630002FAFBDE8F88F0000083C0140443802405D
:101640000030014000000240000402400008024057
:10165000000C02400010024000140240001802403A
:10166000001C02400AB1816170470904FBE70000D9
:10167000014880687047000004000020024881682B
:101680000278114481607047040000200B4810B5B7
:10169000016841F400710160016841F480610160FA
:1016A000016841F480710160032000F09BF80F2075
:1016B00000F006F800F050F8002010BD003C024099
:1016C00030B505461F4887B00024016841F010017D
:1016D0000160006806A900F01000009001A800F069
:1016E0002DF90498A8B100F049F940001649174AAD
:1016F000B0FBF1F11648491E026040F2E732C0E942
:101700000324C0E90114846100F040FB040003D00D
:1017100015E000F033F9E9E70D4800F065FB04003F
:101720000DD1362000F030F8102D07D200222946C6
:10173000362000F037F80748056000E0012407B0C4
:10174000204630BD4038024040420F0000100040AB
:1017500094020020080000200A4808B5016841F4FE
:1017600080410160006800F4804000900548001F3F
:10177000016841F080510160006800F080500090E5
:1017800008BD000044380240002809DB00F01F02B9
:10179000012191404009800000F1E020C0F80011D3
:1017A00070470000F0B40E4B1B680C46C3F30223D5
:1017B000C3F10705042D00D90425191D072901D2FD
:1017C000002300E0DB1E012606FA05F1491E214038
:1017D00099409E40761E16403143F0BC01F0B4BDE6
:1017E0000CED00E0064900F0070208684FF6FF0321
:1017F000184040EA0220034A104308607047000086
:101800000CED00E00000FA052DE9F0470E4605005A
:1018100065D0DFF81481D8F80000F7B200F00700B7
:10182000B04207D288F80070D8F8000000F0070036
:10183000B04254D128683D4C810712D5400703D5EA
:10184000206840F4E05020602878000703D5206825
:1018500040F4604020602068A96820F0F000084350
:1018600020602878C0072DD03049686808390128E1
:1018700012D0022813D0032811D009688907002943
:101880002DDA216821F0030101432160FFF7F0FE0A
:10189000814641F2883A0EE009688903EFE709685A
:1018A0008901ECE7FFF7E4FEA0EB0901514502D9FD
:1018B0000320BDE8F0872068696800F00C00B0EBF9
:1018C000810FEFD1D8F80010404601F00701B14276
:1018D00007D90770006800F00700B04201D001206E
:1018E000E7E72878400705D52068E96820F4E0504C
:1018F000084320602878000706D52068296920F46D
:10190000604040EAC100206000F058F82168084AB1
:10191000C1F30311515CC8400649086006480068DD
:10192000FFF7CEFE0020C4E7003C0240083802402A
:101930006249000810000020080000200F22026009
:101940000C4A136803F003034360136803F0F003C9
:101950008360136803F4E053C36012684FF4E053EC
:1019600003EAD20202610448006800F00700086040
:101970007047000008380240003C02400448054916
:1019800000680968044AC1F38221515CC84070476D
:101990001000002008380240724900080448054938
:1019A00000680968044AC1F34231515CC84070477D
:1019B000100000200838024072490008154810B590
:1019C000006810F00C02144813D04110042A0FD004
:1019D000082A0ED10F4C241F2268236802F03F0210
:1019E0005B0207D52068C0F38810A0FB010106E068
:1019F000084610BD2168C1F38811A1FB0001002336
:101A0000FEF7E0FB2168C1F30141491C4900B0FB2E
:101A1000F1F010BD083802400024F4002DE9F84F21
:101A200004006ED02078DFF84C93C007A9F10405BC
:101A30004AD009F104000168C1F38101012908D0ED
:101A40000068C0F3810002280AD1D9F800004002E2
:101A500006D52868800337D560680028E1D033E0D8
:101A60006068B0F5803F10D0B0F5A02F286810D086
:101A700020F480302860286820F480202860606886
:101A8000A8B1FFF7F5FD06460DE0286840F4803068
:101A9000F4E740F480202860F7E700BFFFF7E8FD97
:101AA000801B642873D828688003F7D50CE0FFF703
:101AB000DFFD064605E000BFFFF7DAFD801B642866
:101AC000F0D828688003F7D42078DFF8AC8280074C
:101AD0004FF0000A3ED5A748001D016811F00C0F19
:101AE00008D00068C0F3810002280BD1D9F80000AB
:101AF000400207D42868800716D5E068012800D185
:101B000012E033E1E068B8B10120C8F80000FFF747
:101B1000AFFD064605E000BFFFF7AAFD801B0228C7
:101B2000C0D828688007F7D52868216920F0F80018
:101B300040EAC10028600DE0C8F800A0FFF798FD5A
:101B4000064604E0FFF794FD801B02281FD8286892
:101B50008007F7D42078000722D5864F874861692F
:101B6000703771B101210160FFF782FD064604E084
:101B7000FFF77EFD801B022809D838688007F7D55B
:101B80000EE0C0F800A0FFF773FD064605E082E016
:101B9000FFF76EFD801B02287DD838688007F7D4D8
:101BA0002078400768D5DFF8CCB100270BF13C0B5B
:101BB000DBF80000C0000BD4DBF8001041F08051CE
:101BC000CBF80010DBF80000012700F080500090F7
:101BD0006B4E3068C00510D4306840F480703060BF
:101BE000FFF746FD009005E0FFF742FD0099401A1F
:101BF000022850D83068C005F6D55E4EA0686C3615
:101C000001280FD00528306810D020F00100306086
:101C1000306820F004003060A068B8B1FFF728FDFC
:101C200000900FE0306840F00100F4E740F004005D
:101C30003060F7E7FFF71CFD0099411A41F2883048
:101C4000814266D830688007F4D50EE0FFF710FDBA
:101C5000009007E0FFF70CFD0099411A41F288302F
:101C6000814256D830688007F4D42FB1DBF80010D9
:101C700021F08051CBF80010A069C8B33D49091D7F
:101C80000968C1F3810102294AD00228504607D0D1
:101C9000C8F8600000E03CE0FFF7EAFC04463BE0E7
:101CA0004746C8F86000FFF7E3FC064605E000BFC2
:101CB000FFF7DEFC801B02282BD828688001F7D4B0
:101CC000D4E907010843A16A2E4A490802EB014101
:101CD000626A41EA8211084394F82C1040EA0161DB
:101CE000C9F8001001203866FFF7C2FC044606E080
:101CF0003EE000BFFFF7BCFC001B022809D82868A3
:101D00008001F7D534E000BFFFF7B2FC001B0228CA
:101D100002D90320BDE8F88F28688001F4D427E0B9
:101D20000128F7D0D9F80000E26900F4800191425F
:101D30001CD1226A00F03F01914217D147F6C071D1
:101D4000626A0140B1EB821F10D1A26A4FF0FF33EB
:101D500000F4403103EB5202B1EB024F06D194F88C
:101D60002C1000F07060B0EB016F01D00120D1E7C2
:101D70000020CFE70438024000004742800E47426F
:101D8000007000400000FFFF7047704710B504006E
:101D900003D094F83D0010B107E0012010BD0020F1
:101DA00084F83C00204600F01EF8022084F83D0034
:101DB000211D206801F0E2F8012084F8460084F833
:101DC0003E0084F83F0084F8400084F8410084F825
:101DD000420084F8430084F8440084F8450084F805
:101DE0003D00002010BD704790F83D10012901D042
:101DF00001207047022180F83D100168CA6842F056
:101E00000102CA6000681149884214D0B0F1804FC5
:101E100011D00F4988420ED00E4988420BD00E498E
:101E2000884208D00D49884205D00D49884202D029
:101E30000C49884204D1816801F00701062903D0CA
:101E4000016841F00101016000207047000001407D
:101E50000004004000080040000C00400004014065
:101E60000040014000180040704770B5044600680B
:101E700001694FF00005C943890715D4C168C943FA
:101E8000890711D4E91E016101202077206880694B
:101E90008007204602D0FFF7E7FF04E000F098F843
:101EA000204600F096F8257720680169C943490764
:101EB00017D4C168C943490713D46FF00401016105
:101EC000022020772068806910F4407F204602D0ED
:101ED000FFF7CAFF04E000F07BF8204600F079F835
:101EE000257720680169C943090716D4C168C94329
:101EF000090712D46FF008010161042020772068DF
:101F0000C0698007204602D0FFF7AEFF04E000F072
:101F10005FF8204600F05DF8257720680169C94325
:101F2000C90617D4C168C943C90613D46FF010019C
:101F30000161082020772068C06910F4407F2046A6
:101F400002D0FFF791FF04E000F042F8204600F0D5
:101F500040F8257720680169C943C90708D1C168DD
:101F6000C943C90704D1891E0161204600F032F837
:101F700020680169C943090609D4C168C943090633
:101F800005D46FF0800101612046FFF7FDFE206857
:101F90000169C943490609D4C168C943490605D442
:101FA0006FF040010161204600F02CF820680169C3
:101FB000C94389060BD4C168C943890607D46FF0A9
:101FC000200101612046BDE87040FFF7DEBE70BD14
:101FD0007047704770B504460068074DA84201D1AC
:101FE000FFF74CFB2068A84205D10448044A016869
:101FF00012781144016070BD001000400000002004
:10200000040000207047704770470000F8B5016871
:1020100004460868CA684B6910F00F0F4FF00005BE
:1020200059D003F0010602F49077374365D0C10719
:1020300005D0D10503D5216C41F001012164410790
:1020400005D5D90703D0216C41F002012164810735
:1020500005D5D90703D0216C41F0040121640107A3
:1020600007D502F02001314303D0216C41F0080173
:102070002164216C00293AD0800604D5900602D54F
:10208000204601F00EF820684069216CC0F38010F2
:10209000090700D460B3204600F0DCFF20684069E7
:1020A000400621D52068143050E8001F21F040017F
:1020B00040E80012002AF5D1A06BA8B16C49016577
:1020C000A06BFFF7B3F9002811D0A06B016D01B030
:1020D000BDE8F040084783060FD593060DD520468E
:1020E000BDE8F84000F0DDBF2046FFF78DFFF8BDEA
:1020F0002046FFF789FF2564F8BD266B2023012EBB
:1021000079D1C60677D5D60675D508684868009097
:102110004869400640D5A16B086840680004000C7F
:10212000EAD0A28D8242E7D9E085C869B0F5807F08
:102130002DD020680C3050E8001F21F4807140E859
:102140000012002AF5D12068143050E8001F21F059
:10215000010140E80012002AF5D12068143050E84F
:10216000001F21F0400140E80012002AF5D184F858
:102170003E30256320680C3050E8001F21F010012C
:1021800040E80012002AF5D1A06BFFF706F9A08DF8
:10219000E18D401A81B229E0A08DE18D401A81B213
:1021A000E08D0028A8D00029A6D020680C3050E887
:1021B000002F22F4907240E80026002EF5D120680E
:1021C000143050E8002F22F0010240E80026002ED3
:1021D000F5D184F83E30256320680C3050E8002F9C
:1021E00022F0100240E80023002BF5D12046FFF733
:1021F0000AFFF8BDFFE705062BD5150629D594F88B
:102200003D002128F5D1A068B0F5805F01D120699B
:10221000B0B1206A411C2162216800784860E08CDE
:10222000401E0004000CE084E3D12068C16821F066
:102230008001C1602068C16841F04001C160D8E7F9
:10224000206A0088C0F308004860206A801C206271
:10225000E5E74006CDD55006CBD5CA68204622F02A
:102260004002CA6084F83D3000F0CFF8C1E70000BA
:102270004530000870B5040004D094F83D000025F6
:1022800010B106E0012070BD84F83C50204600F0FB
:1022900023F8242084F83D002068C16821F400510F
:1022A000C160204600F05EFF2068016921F4904182
:1022B00001612068416921F02A0141612068C168FB
:1022C00041F40051C1602564202084F83D0084F869
:1022D0003E00002070BD000010B586B004461421F9
:1022E0006846FDF7A7FF18492068884229D117489A
:1022F0000021026842F010020260006800F0100045
:10230000059012481438026842F001020260006829
:1023100000F0010005904FF4C06000900220CDE96C
:102320000101032003900720049069460848FFF745
:10233000A1F8002211462520FFF734FA2520FFF7E7
:1023400023FA06B010BD00000010014044380240DE
:1023500000000240704700002DE9F843044690F861
:102360003D001F4616460D4620284CD1C5B1BEB1D2
:1023700094F83C00012846D0012084F83C004FF03E
:102380000008C4F84080212084F83D00FFF770F970
:10239000A6848146E684A068B0F5805F03D004E09F
:1023A0000120BDE8F883206928B12E465FF00005C2
:1023B00084F83C800EE00026FAE78021204600F0F9
:1023C00057FFA0B9AEB116F8010B21684860E08C48
:1023D000401EE084E08C4B464FF00002009700283E
:1023E000EBD14FF04001204600F042FF30B1032016
:1023F000D7E735F8020BC0F30800E6E7202084F8A1
:102400003D000020CDE70220CBE77047FEE700004B
:1024100070B50D4C0025C4F898520C48016821F4A1
:1024200040410160016841F480410160C4F89C5260
:10243000022004F5267402F05DF9012020600220DC
:1024400002F058F9256070BD00804042000402404F
:1024500003480121C0F89812C0F89C127047000090
:102460000080404270B50D4C0025C4F898520C48CD
:10247000016821F440410160016841F4804101603C
:102480000126C4F89C62022004F5267402F032F999
:102490002660022002F02EF9256070BD00804042C7
:1024A000000402402DE9F0478146164800240168E7
:1024B00021F44041016001680160134E2546274622
:1024C0004FF00108C6F89872022002F013F9C6F81E
:1024D00098826006040ED6F81C0208B1641CE4B2AF
:1024E000012002F007F96D1CEDB2082DEAD3B9F115
:1024F000000F04D0FFF78CFF2046BDE8F087FFF700
:10250000B1FFF9E700040240008040422DE9F041AC
:1025100006461448016821F440410160016841F415
:1025200080410160104C0027C4F898723D464FF07E
:102530000108F009C4F89C027006060E022002F0A1
:10254000D9F8C4F89882022002F0D4F8C4F898723E
:10255000022002F0CFF86D1CEDB2082DE9D3BDE8E2
:10256000F0810000000402400080404270B50F4836
:10257000016821F440410160016841F4804101603B
:102580000B4C0120C4F89C02C4F89802042004F506
:10259000267402F0AFF800256560042002F0AAF866
:1025A0002560BDE87040042002F0A4B80004024099
:1025B000008040420E4810B5016821F4404101609E
:1025C000016841F4804101600A4C0020C4F898027F
:1025D000C4F89C02042004F5267402F08BF8012054
:1025E00020606060BDE81040042002F083B8000065
:1025F000000402400080404270B512480024016887
:1026000021F440410160016801600F4D0126C5F8C9
:102610009C62304602F06EF8C5F89862012002F024
:1026200069F807E0641CE4B2FA2C03D9FFF7C2FF93
:10263000012070BDD5F81C020028F3D1C5F898021E
:1026400070BD000000040240008040422DE9F05FB0
:102650001E462DED068B174688468146DDE910ABF8
:1026600000F066F8050057D12E4C606AFDF7A5FF13
:1026700041EC180BB9F90000FDF76FFF9FED2A9BA5
:1026800053EC192BFDF788FE53EC182BFDF77EFE5B
:10269000FDF7A6FF08EE100A84ED0F8AA06AFDF789
:1026A0008CFF41EC1A0BB8F90000FDF756FF53EC14
:1026B000192BFDF771FE53EC1A2BFDF767FEFDF7A2
:1026C0008FFF2064E06AFDF778FF41EC1A0BB7F941
:1026D0000000FDF742FF53EC192BFDF75DFE53ECB4
:1026E0001A2BFDF753FEFDF77BFF606494ED0C0A97
:1026F00028EE000A86ED000A94ED100AD4ED0D0ACA
:1027000020EE200A8AED000A94ED110AD4ED0E0A9B
:1027100020EE200A8BED000A2846BDEC068BBDE8B2
:10272000F09F0000E4010020000000000000103FC6
:102730002DE9F04116462DED068B82B00C4607467A
:102740006B4606223B21682000F0D2FA5FEA0008BF
:1027500063D1BDF8000040BA3880BDF8020040BA2D
:102760002080BDF8040040BA30802088404200B28A
:102770002080FDF7F2FE9FED2C8B53EC182BFDF71C
:102780000BFE2B4D41EC1A0BB5F90600FDF7E5FEEB
:102790009FED289B53EC192BFDF7FEFD53EC1A2BF4
:1027A000FDF753FDFDF7EAFE2080B7F90000FDF7C5
:1027B000D4FE53EC182BFDF7EFFD41EC1A0BB5F9E5
:1027C0000800FDF7CAFE53EC192BFDF7E5FD53ECAD
:1027D0001A2BFDF73AFDFDF7D1FE3880B6F900005F
:1027E000FDF7BBFE53EC182BFDF7D6FD41EC180BA3
:1027F000B5F90A00FDF7B1FE53EC192BFDF7CCFD3E
:1028000053EC182BFDF721FDFDF7B8FE3080208832
:10281000E880388828813088688102B04046BDEC65
:10282000068BBDE8F08100009A9999999999C93F62
:10283000E40100209A9999999999E93F2DE9F04787
:102840001D462DED028B1646DDE90A9A0F4680469D
:1028500000F030F8040024D1B8F90000FDF77DFE47
:102860009FED128B53EC182BFDF796FDFDF7B8FE8C
:102870002860B7F90000FDF770FE53EC182BFDF748
:102880008BFDFDF7ADFEC9F80000B6F90000FDF7BD
:1028900064FE53EC182BFDF77FFDFDF7A1FECAF88F
:1028A00000002046BDEC028BBDE8F087218F2F038E
:1028B0000A74513F2DE9F04116462DED048B82B08C
:1028C0000D4607466B4606224321682000F010FAA9
:1028D0005FEA000867D1374CBDF80000618840BA54
:1028E00008443880BDF80200218840BA0844288096
:1028F000BDF80400A18840BA0844308028884042CE
:1029000000B22880FDF729FE9FED2B8B53EC182B8E
:10291000FDF742FD41EC190BB4F91200FDF71DFE65
:1029200053EC182BFDF738FD53EC192BFDF78DFCFC
:10293000FDF724FE2880B7F90000FDF70EFE53ECEA
:10294000182BFDF729FD41EC190BB4F91400FDF724
:1029500004FE53EC182BFDF71FFD53EC192BFDF76C
:1029600074FCFDF70BFE3880B6F90000FDF7F5FDAD
:1029700053EC182BFDF710FD41EC190BB4F91600C0
:10298000FDF7EBFD53EC182BFDF706FD53EC192B6F
:10299000FDF75BFCFDF7F2FD308028886082388807
:1029A000A0823088E08202B04046BDEC048BBDE8D6
:1029B000F0810000E4010020000000000000E03F82
:1029C0002DE9F05F1E462DED068B174688468146A1
:1029D000DDE910AB00F088F8050079D13F4CA06923
:1029E000FDF7EBFD41EC180BB9F90000FDF7B5FD63
:1029F0009FED3B9B53EC192BFDF7CEFC53EC182BB2
:102A0000FDF7C4FCFDF7ECFD08EE100A84ED0F8A1B
:102A1000E069FDF7D2FD41EC1A0BB8F90000FDF7B3
:102A20009CFD53EC192BFDF7B7FC53EC1A2BFDF76B
:102A3000ADFCFDF7D5FD08EE900AC4ED108A206AC2
:102A4000FDF7BBFD41EC1A0BB7F90000FDF785FD62
:102A500053EC192BFDF7A0FC53EC1A2BFDF796FC59
:102A6000FDF7BEFD00EE100A04F1480184ED110AE5
:102A7000D1ED000A91ED011AD1ED021A60EE880A3B
:102A800041EE280A41EE800AC6ED000A94ED0F0AD5
:102A900061EE000A91ED030A94ED101A40EE010A6E
:102AA00091ED040A94ED111A40EE010ACAED000AF4
:102AB000D4ED0F0A94ED101A61EEA00A40EE010A5F
:102AC00091ED050A94ED111A40EE010ACBED000AD2
:102AD0002846BDEC068BBDE8F09F0000E401002015
:102AE000000000000000783F2DE9F04114462DED74
:102AF000048B82B00D4607466B46062203210C204C
:102B000000F0F6F85FEA000862D1BDF800003880F6
:102B1000BDF802002880BDF80400208028884042CB
:102B20002880208840422080B7F90000FDF715FD7D
:102B30009FED2D8B53EC182BFDF72EFC2C4E41EC0A
:102B4000190BB6F90C00FDF708FD53EC182BFDF737
:102B500023FC53EC192BFDF778FBFDF70FFD3880B4
:102B6000B5F90000FDF7F9FC53EC182BFDF714FC48
:102B700041EC190BB6F90E00FDF7EFFC53EC182BE6
:102B8000FDF70AFC53EC192BFDF75FFBFDF7F6FC94
:102B90002880B4F90000FDF7E0FC53EC182BFDF79A
:102BA000FBFB41EC190BB6F91000FDF7D6FC53EC1A
:102BB000182BFDF7F1FB53EC192BFDF746FBFDF746
:102BC000DDFC20803888B0812888F0812088308220
:102BD00011220A210C2000F000F902B04046BDECA1
:102BE000048BBDE8F0810000000000000000E03F21
:102BF000E401002010B5FFF72BFC80226B21682038
:102C000000F0EBF8642001F05BFD00226B216820EE
:102C100000F0E3F8032000F0A7F8002000F09EF891
:102C2000C82000F0C2F800223821682000F0D5F852
:102C300000226A21682000F0D0F8002223216820B9
:102C400000F0CBF882223721682000F0C6F8752109
:102C5000682000F02AF8712801D0732812D10122CF
:102C60006B21682000F0B9F800226C21682000F088
:102C7000B4F8C82000F099F800210C2000F015F8F5
:102C8000482801D0012010BD01220B210C2000F0AA
:102C9000A4F8322001F014FD11220A210C2000F0CA
:102CA0009CF801F0D1FC002010BD70B50D46044623
:102CB000FFF75CFC6006000EFFF728FCFFF79CFCAA
:102CC0002846FFF723FCFFF797FCFFF74FFC012096
:102CD00000EB4400C0B2FFF719FCFFF78DFC0020A9
:102CE000FFF7E0FB0446FFF765FC204670BD0000DF
:102CF0002DE9F0411D4614460F460646FFF736FC07
:102D00007006000EFFF702FCFFF776FC20B1FFF71C
:102D100051FC0120BDE8F0813846FFF7F7FBFFF7D3
:102D20006BFCFFF723FC012000EB4600C0B2FFF76D
:102D3000EDFBFFF761FC09E0012C0DD05FF0010015
:102D4000FFF7B0FB641E05F8010BE4B2002CF3D1D1
:102D5000FFF730FC0020DDE70020F1E7C006020E9F
:102D60001C21682000F039B8032101EBC000C2B279
:102D70001B21682000F031B8BC2801D3012210E0EB
:102D8000622801D302220CE02A2801D3032208E0A2
:102D9000142801D3042204E00A2801D3052200E00C
:102DA00006221A21682000F018B810B504464FF426
:102DB0007A70844201D9044602E0042C00D2042433
:102DC000B0FBF4F0401EC2B21921682000F005F8F3
:102DD0006008BDE81040FFF7CFBF70B515460E463E
:102DE0000446FFF7C3FB6006000EFFF78FFBFFF7FB
:102DF00003FC50B93046FFF789FBFFF7FDFB28467F
:102E0000FFF784FBFFF7F8FB18B1FFF7D3FB0120B6
:102E100070BDFFF7CFFB002070BD000010B586B07D
:102E200014216846FDF706FA1548016841F0800153
:102E30000160016801F080010591016841F0010124
:102E40000160016801F001010591016841F0020192
:102E5000016000680B4C00F0020005900122C021C7
:102E60002046FEF7FFFBC0200121CDE90001032031
:102E7000CDE9021069462046FEF7FCFA06B010BD07
:102E800030380240000402400C4810B50A49016085
:102E90004FF4E1314160002181600C22C160C0E942
:102EA00004128161C161FFF7E5F9002803D0BDE894
:102EB0001040FEF770BA10BD001001405002002013
:102EC000FEE7FEE7704770477047000030B593B0EB
:102ED00030216846FDF7AEF914210CA8FDF7AAF9D8
:102EE0001D480025016841F080510160006800F034
:102EF000805011901948016841F4804101600068D8
:102F0000022400F480401190012000900004019000
:102F10008001CDE9064008AA0420A82182E8130018
:102F20000B906846FEF77AFD08B172B6FEE70CA971
:102F30000F2081E831004FF4A0500F904FF48050E3
:102F4000109005210CA8FEF75FFC002801D072B696
:102F5000FEE713B030BD0000403802400070004072
:102F60000248016841F470010160704788ED00E09B
:102F70000148FEF77ABF000094020020F0B5026815
:102F8000254C264D264E274F274B4FF0804CA04214
:102F900009D0604507D0A84205D0B04203D0B8425E
:102FA00001D0984204D122F0700E4A6842EA0E0223
:102FB000A0421BD0604519D0A84217D0B04215D00E
:102FC000B84213D0984211D0184DA8420ED0184DD7
:102FD000A8420BD0174DA84208D0174DA84205D0E3
:102FE000164DA84202D0164DA84203D122F44075D6
:102FF000CA682A434D6922F080022A4302608A6827
:10300000C2620A688262A04201D0984201D1096975
:10301000016301214161F0BD000001400004004056
:1030200000080040000C0040000401400040014046
:10303000004401400048014000180040001C0040CE
:103040000020004010B5806B0021C185C184FEF7CF
:10305000DBFF10BD01680C3151E8002F22F49072A3
:1030600041E80023002BF5D10168143151E8002F0D
:1030700022F0010241E80023002BF5D1016B012968
:1030800009D101680C3151E8002F22F0100241E80B
:103090000023002BF5D1202180F83E100021016390
:1030A000704708B590F83E10222901D0022008BDD3
:1030B00082684FF480539A4201D1016921B1816A3B
:1030C0009A421BD04AB10AE00268816A5268C2F390
:1030D00008020A80816A891C08E0026972B10268EC
:1030E000526802F07F020A70816A491C8162C18DB8
:1030F000491E0904090CC18503D019E00268526811
:10310000F1E70168CA6822F02002CA600168CA6853
:1031100022F48072CA6001684A6922F001024A61A1
:10312000202180F83E10016B012903D0FFF712F92E
:10313000002008BD0021016301680C3151E8002F17
:1031400022F0100241E80023002BF5D101680A6843
:10315000D20602D50A6849680091818DFEF753FFB7
:10316000E6E7000070B5044600680169E26821F4F2
:103170004051114301612169A068E2690843616916
:10318000114308432168CA6849F20C639A43024319
:10319000CA6020684169A26921F44071114341610C
:1031A00031492068884202D03049884202D1FEF776
:1031B000F5FB01E0FEF7E2FBE2690023192164253B
:1031C0003226B2F5004F626828D0A0FB0101930FB0
:1031D0009200FCF7F7FF0146B0FBF5F06FF0180224
:1031E000504301EB800006EB0010B0FBF5F000F05F
:1031F000F002B1FBF5F002EB0012B1FBF5F06FF05D
:103200001803584301EB800006EB0010B0FBF5F00B
:1032100000F00F0021681044886070BDA0FB010120
:1032200092185B41FCF7CEFF0146B0FBF5F00201BE
:10323000B1FBF5F06FF01803584301EB800006EB8B
:10324000C000B0FBF5F000F0F80002EB4002B1FB6B
:10325000F5F0584301EB800006EBC000B0FBF5F041
:1032600000F00700D6E70000001001400014014004
:103270002DE9F041984617460E460446069D27E084
:10328000681C25D02DB1FEF7F3F9A0EB0800A84289
:103290001ED920680C3050E8001F21F4D07140E89E
:1032A0000012002AF5D12068143050E8001F21F0E8
:1032B000010140E80012002AF5D1202084F83D00E9
:1032C00084F83E00002084F83C000320BDE8F08133
:1032D0002068006836EA000004D00020B842CFD051
:1032E0000020F3E70120F9E70148FEF78FBE000058
:1032F00050020020FEE700000FB4054B10B503A9F3
:10330000044A029800F014FE10BC5DF814FB0000A3
:103310005D4700084802002003B40198410000986E
:1033200050EAC12018BF04204A0D18BF40F0010028
:1033300040F2FF72B2EB515F08BF40F0020001287B
:1033400008BF052002B070470907090E002804DBFA
:1033500000F1E02080F80014704700F00F0000F149
:10336000E02080F8141D704770B5C1482DED020BA8
:103370002DED0E8B82B0119D25F000449FEDBEDB3C
:103380009FEDBFEB84423EDBA4F140511098A1F1C8
:103390007F6108430FD0BC48844202DC28D11098DA
:1033A00030B39DED100B02B0BDEC0E8B02B0BDE84A
:1033B000704000F0AEBC9DED100B53EC1D2B51EC9A
:1033C000100BFCF7E9FF9DED100B41EC180B53ECD3
:1033D0001E2B51EC100BFCF7DFFF53EC182BFCF706
:1033E00034FF41EC100B02B0BDEC0E8B02B070BD8F
:1033F000012000F0D5FC02B0BDEC0E8B02B0BDE8A0
:10340000704000F09DBCA1489FEDA18B844256DA2C
:103410009DED100BB4F1795F0ADA51EC100BFFF758
:103420007BFF042808BF00F09BFC9DED100BDAE742
:1034300053EC102B51EC100BFCF7AEFF41EC190BC9
:1034400095480621B0EE490AF0EE690A784400F08A
:10345000E4FB53EC192B51EC100BFCF79DFF41ECF6
:103460001A0B8E48B0EE490AF0EE690A042178443E
:1034700000F0D3FB53EC192B51EC100BFCF78CFF35
:1034800053EC182BFCF7E1FE41EC100B51EC1A0B3E
:1034900053EC102BFCF7F2FFCDE900019DED000B82
:1034A00053EC102B9DED100B51EC100BFCF774FF3F
:1034B0009DED101B53EC112BFCF7C7FED2E09DEDE8
:1034C000100B51EC100B01F03DF953EC182BFCF7ED
:1034D00060FF9FED730BCDE9000153EC102B9DEDC8
:1034E000000B51EC100BFCF757FF41EC190B6E4829
:1034F0000621B0EE490AF0EE690A784400F08DFB2F
:1035000053EC192B51EC100BFCF746FF41EC1B0B55
:103510006648B0EE490AF0EE690A0421784400F0EA
:103520007CFB53EC192B51EC100BFCF735FF53ECE3
:10353000182BFCF78AFE41EC1C0B51EC190B01F027
:10354000D9F941EC180B5A489FED5BABA04222DC45
:1035500053EC1C2B51EC1B0BFCF790FFCDE9000149
:103560009DED000B51EC180B53EC102BFCF714FFE6
:1035700053EC182BFCF769FE53EC1A2BFCF70CFFED
:1035800053EC1D2BFCF702FF53EC1E2BFCF701FF45
:1035900041EC100B5FE08DED008B002000909DED65
:1035A000000B51EC180B53EC102BFCF74EFE9DED6D
:1035B000000B41EC1E0B53EC102B51EC100BFCF7E5
:1035C000EBFE53EC192BFCF7E4FE53EC1E2BFCF73F
:1035D00055FF41EC190B53EC1C2B51EC1B0BFCF76A
:1035E0004DFF41EC1B0B53EC1A2B51EC190BFCF764
:1035F000D3FE53EC1D2BFCF7CCFE41EC190B53EC26
:103600001A2B51EC180BFCF7C7FE53EC1B2BFCF7E5
:10361000C3FE53EC192BFCF7B9FE9DED000B41ECFA
:10362000180B53EC1A2B51EC100BFCF7B5FE9FED69
:10363000249B53EC192BFCF7ACFE41EC100B51EC26
:10364000180B53EC102BFCF7A1FE53EC192BFCF7D5
:10365000A0FE41EC100B002D3FF7C5AE51EC100B56
:1036600081F0004141EC100BBDE6000000000000BD
:103670000000F03F00000000075C143326A6913CD8
:10368000182D4454FB21F93F0000F07F0000E03F7B
:10369000000000000000F03F301500003E15000063
:1036A000000000000000E03F8214000090140000C1
:1036B0003333EF3F00000000000000000000004036
:1036C000182D4454FB21E93F70B59B482DED020BAA
:1036D0002DED068B079D25F00044A04218DC97488D
:1036E000844202DC0AD1069840B19DED060BBDEC88
:1036F000068B02B0BDE8704000F00BBB002DCCBFC4
:103700009FED8F0B9FED900BBDEC068B02B070BD53
:103710008F48A04215DD8F48A042D8BF4FF0FF343C
:1037200058DD9DED060B51EC100BFFF7F5FD04285D
:1037300008BF00F015FB9DED060BBDEC068B02B03B
:1037400070BD9DED060B51EC100B00F0FBFFCDE9B9
:10375000060181489FED828BA0423CDD8248A04259
:103760001FDD00249FED82AB9DED060B53EC1A2B61
:1037700051EC100BFCF769FD9DED060B41EC190BAC
:1037800053EC1A2B51EC100BFCF706FE53EC182BE4
:10379000FCF7FCFD53EC192BFCF770FECDE906019C
:1037A00049E09DED060B012453EC182B51EC100B56
:1037B000FCF74BFD9DED060B41EC190B53EC182B60
:1037C00051EC100BFCF7E2FD53EC192BFCF756FE05
:1037D000CDE906012FE06848A0421FDD02249FEDDD
:1037E000689B9DED060B53EC192B51EC100BFCF76D
:1037F000D3FD53EC182BFCF728FD9DED060B41EC97
:10380000180B53EC192B51EC100BFCF7BFFD53ECCC
:10381000182BFCF733FECDE906010CE09DED060BFD
:10382000032453EC102B9FED580B51EC100BFCF7BD
:1038300025FECDE906019DED060B53EC102B51EC56
:10384000100BFCF7A9FD41EC180B53EC182BFCF7FF
:10385000A3FD41EC190B4E480621B0EE490AF0EEEB
:10386000690A784400F0D9F953EC182B51EC100B8D
:10387000FCF792FD41EC180B4648B0EE490AF0EE19
:10388000690A0521784400F0C8F953EC192B51EC72
:10389000100BFCF781FD41EC100B51EC180B53ECB5
:1038A000102B002C0EDAFCF7D0FC9DED061B53EC20
:1038B000112BFCF771FD9DED061B53EC112BFCF752
:1038C00068FD35E0FCF7C1FC9DED061B53EC112BA8
:1038D000FCF762FD41EC100B2F48784400EBC4006C
:1038E00090ED001B51EC100B53EC112BFCF74EFD2F
:1038F0009DED061B53EC112BFCF748FD41EC100B22
:103900002648784400EBC40090ED001B51EC100BEE
:1039100053EC112BFCF73DFD41EC100B002DA2BF29
:10392000BDEC068B02B070BD51EC100B81F0004174
:1039300041EC100B01E70000000010440000F07F94
:10394000182D4454FB21F93F182D4454FB21F9BF95
:103950000000DC3F0000203E0000F33F00000000BC
:10396000000000000000F03F0000E63F0000000003
:103970000000000000000040008003400000000044
:10398000000000000000F83F000000000000F0BF51
:10399000D21100008811000012110000CA100000AE
:1039A00070B56F4E2DED040B2DED048B82B0DDF85C
:1039B00024C0DDE907235C422CF000411C4341EAAE
:1039C000D474069D22F00040B44205D86C422C43CA
:1039D00040EAD474B4420BD99DED081B9DED060B53
:1039E00002B0BDEC048B04B0BDE8704000F09BB9A0
:1039F000ACF14054A4F17F641C430BD0022404EAD0
:103A0000AC7444EAD27405439FED578B9FED582B5D
:103A100007D015E09DED060B51EC100B00F00BFEEE
:103A200042E0002C11BF012C9DED060B02B0BDEC55
:103A3000048B04BF04B070BD022C38D0032C3BD0E3
:103A40000B439FED4D1B9FED4E0B0AD0B14218D199
:103A5000B04209D121F0804120F0804009910790C7
:103A60000FE0002A15DA10E0474B7B44002C08BF1A
:103A700093ED000B0DD0012C10D0022C17D0032C8D
:103A80001AD0B0421DD1002A03DAB0EE410AF0EE9E
:103A9000610A02B0BDEC048B04B070BD93ED000B65
:103AA00051EC100B81F0004141EC100BF1E7B0EE4E
:103AB000480AF0EE680AECE7B0EE420AF0EE620A5D
:103AC000E7E7401A00159FED329B3C28C8BF8DEDFB
:103AD000000B17DCBCF1000FBCBF10F13C0F8DEDEB
:103AE000009B0FDB9DED080B53EC102B9DED060B9F
:103AF00051EC100BFCF7C2FC00F024FE00F09BFD23
:103B0000CDE90001B4B1012C10D0022C9FED220BA5
:103B100053EC102B9DED000B51EC100B19D0FCF762
:103B200035FC53EC182BFCF731FCBDE7019880F015
:103B3000004001909DED000B53EC192B51EC100B44
:103B4000FCF7AEFE04BF022000F02AF99DED000B49
:103B50009FE7FCF71BFC53EC182BFCF71AFCA3E7C0
:103B60000000F07F00000000182D4454FB210940A4
:103B7000182D4454FB2109C0182D4454FB21F9BFD2
:103B8000182D4454FB21F93FFA0F000000000000FB
:103B90000000000000000000075C143326A6A13CD2
:103BA00000B52DED048BB0EE409AF0EE609A83B034
:103BB00051EC190BFCF70BFE41EC180B18EE100A38
:103BC00018EE901A8DED008B002818BF01200843D5
:103BD00020F00040C0F17F6000F1E040C00F14D041
:103BE00019EE101A19EE900A8DED009B002918BFEE
:103BF0000121084320F00040C0F17F6000F1E04067
:103C0000C00F04BF012000F0CBF8B0EE480A03B0AB
:103C1000F0EE680ABDEC048B00BD70B504462DEDD6
:103C2000028B4D1E00EBC500B0EE408AF0EE608ABC
:103C300090ED000B35F0060017D053EC182B51EC2B
:103C4000100BFCF7A9FB41EC100B6D1E04EBC5003B
:103C500090ED001B51EC100B53EC112BFCF7F5FA17
:103C600041EC100B35F00600E7D1022D36D0042DC3
:103C70001CD0062D1CBFBDEC028B70BD53EC182B65
:103C800051EC100BFCF788FB94ED0A1B53EC112B45
:103C9000FCF7DBFA53EC182BFCF77EFB94ED081BCA
:103CA00053EC112BFCF7D1FA41EC100B53EC182B11
:103CB00051EC100BFCF770FB94ED061B53EC112B31
:103CC000FCF7C3FA53EC182BFCF766FB94ED040BDE
:103CD00053EC102BFCF7B9FA41EC100B53EC182BFA
:103CE00051EC100BFCF758FB94ED021B53EC112B1D
:103CF000FCF7ABFA53EC182BFCF74EFB94ED001BD2
:103D000053EC112BFCF7A1FABDEC028B41EC100B2C
:103D100070BD10B553EC102B51EC100BFCF795FA5D
:103D200041EC100B10BD10B553EC112B51EC100BE6
:103D3000FCF78BFA41EC100B10BD000000000000F6
:103D40009FED050B10B553EC102B51EC100BFCF74D
:103D500095FB41EC100B10BD0000000000000000BE
:103D60009FED050B10B553EC102B51EC100BFCF72D
:103D700013FB41EC100B10BD000000000000001010
:103D800002E008C8121F08C1002AFAD17047704724
:103D9000002001E001C1121F002AFBD17047000082
:103DA00001490860704700004C0200202DE9FF5FC8
:103DB00082B00021DDE90430020DDDF840B003439C
:103DC00018D044F61050A2F2FF3242431514119855
:103DD00001281FD0A5EB0B00401C5FEA000A4FF042
:103DE00000064E4FDFF83891B046504615D5CAF15F
:103DF000000413E0119801244AA3012801D16FEABD
:103E00000B010298119AC0E90031C0E9024206B0E4
:103E1000BDE8F09FCBF10000DFE704460021404AF7
:103E2000491842EB0450CDE9001012E0E00707D03A
:103E300032463B4640464946FCF7AEFA8046894644
:103E400032463B4610461946FCF7A6FA06460F4690
:103E50006410002CEAD1DDE90401DDE90023BAF1A8
:103E6000000F06DAFCF798FA42464B46FCF794FA44
:103E700005E0FCF703FB42464B46FCF7FFFA04461D
:103E80000E460022284BFCF723FD03D84FF0FF30ED
:103E9000014607E00022254B20463146FCF7D5F9C4
:103EA000FCF7E6FC102409E0002C0ADB0A220023C0
:103EB000FCF788F9039B30321A55641E50EA010260
:103EC000F2D1641C039AC4F111031444119A012A1B
:103ED00003D0012208430DD10AE0084304D000209A
:103EE0004FF0110B119072E7A3EB0B056D1E0DE067
:103EF0005B4504DD4FF0000205F1010504E003DA43
:103F00004FF00002A5F10105002AECD002981199AA
:103F1000C0E90231C0E9004579E700000000144023
:103F20000000F03F300000000000F0430000E03FE0
:103F30002DE9FF4F95B09A46884606460025EEE1EA
:103F4000252877D100242746F94A0121039400E06F
:103F5000044316F8013F203B01FA03F01042F7D169
:103F600030782A2811D06FF02F033078A0F130027A
:103F7000092A16D8039A44F0020402EB820203EBEA
:103F800042021044761C0390EFE758F8042B03928A
:103F9000002A03DA504244F40054039044F002042F
:103FA000761C30782E2816D116F8010F44F0040440
:103FB0002A280DD06FF02F023078A0F13003092BA2
:103FC00009D807EB870302EB4303C718761CF3E716
:103FD00058F8047B761C30786C280FD006DC4C280F
:103FE00017D068280DD06A2814D104E0742810D0A6
:103FF0007A280FD10DE044F400140AE044F4801450
:1040000001E044F440147278824202D104F5801435
:10401000761C761C307866280BD013DC582877D0B5
:1040200009DC002875D04528F6D04628F4D047286A
:104030001AD193E118E0632835D0642879D0652837
:1040400012D18BE1702873D008DC6728F1D0692881
:104050006FD06E280DD06F2806D1ACE073282CD01D
:10406000752874D0782853D05246179990476D1C04
:1040700054E1C4F30250022809D003280DD0D8F827
:10408000001004280DD00D6008F1040846E1D8F8AE
:104090000010EA17C1E90052F6E7D8F800100D80C9
:1040A000F2E70D70F0E718F8041B8DF800100020FF
:1040B0008DF80100EB46012003E058F804BB4FF0F7
:1040C000FF3061074FF0000102D40DE009F101015A
:1040D0008946B9420FDA8145F8DB1BF8091000293F
:1040E000F4D108E009F1010189468142FADB1BF8AD
:1040F00009100029F6D103985346A0EB0907214681
:104100003846179A00F080FA284400EB090507E0CA
:1041100044E008E10DE01BF8010B52461799904767
:10412000B9F10109F7D2534621463846179AF2E011
:1041300039E00A21C4F302524FF0000B0091022A29
:1041400006D058F8040BC117032A09D00AE023E06F
:1041500008F1070020F00702F2E80201904605E0AE
:1041600000B2C117042A01D140B2C117002906DAF2
:104170000A460021404261EB02012D2202E02205A5
:1041800004D52B228DF80420012203E0E20701D0A0
:104190002022F7E7914657E00A2100E010214FF076
:1041A000000B00910BE010214FF0000B44F00404D1
:1041B0000827009103E008204FF0000B0090C4F3A3
:1041C0000252022A05D058F8040B0021032A08D015
:1041D00008E008F1070020F00702F2E8020190462B
:1041E00003E080B2042A00D1C0B24FF000092207D8
:1041F0002AD53278702A07D0DDF800C08CF0100C78
:104200005CEA0B0C05D00EE040228DF80420012260
:1042100008E050EA010306D030238DF804308DF811
:10422000052002229146009B83F0080353EA0B030A
:104230000AD150EA010201D1620705D530228DF87A
:1042400004204FF001097F1E3278582A04D039A289
:104250000C920CAA02920BE03BA2F9E75B46009A93
:10426000FBF7B0FF0C9B9B5C029A521E02921370EC
:1042700050EA0102F2D1029804A9081A00F1200BB9
:10428000600702D524F4803400E001275F4502DD99
:10429000A7EB0B0000E0002000EB0B01009003985F
:1042A0004944401A0390E00306D453462146179A26
:1042B000039800F0A9F90544002706E001A852463A
:1042C000C05D179990476D1C7F1C4F45F6DBE003DE
:1042D0000CD553462146179A039800F095F90544EA
:1042E00004E030205246179990476D1C0099481EF3
:1042F00000900029F5DC08E0029802995246007807
:10430000491C0291179990476D1CBBF10001ABF15C
:10431000010BF1DC5BE100F065F90544761C3078B7
:1043200000287FF40DAE19B02846BDE8F08F0000DC
:10433000092801003031323334353637383961627B
:10434000636465660000000030313233343536373F
:10435000383941424344454600000000600700D41C
:10436000062708F1070020F00700F0E80223804646
:1043700003F0004C5FEA0C0001D097A009E0200593
:1043800001D596A005E0E00701D095A001E0AFF2CD
:104390004C001390307823F0004365280CD006DCE5
:1043A000452809D046281DD047287FD13BE0662804
:1043B00018D067287AD136E00021112F01DB1120B7
:1043C00000E0781CCDE9000104A90CA8FFF7EEFC81
:1043D000DDE90D010C9A4FF0000B07F10109109275
:1043E00000914EE04FF000400097CDE9011004A984
:1043F0000CA8FFF7DBFCDDE90D020C9B0F994FF0D9
:10440000000B91461093009211B9791C00EB010941
:10441000B7EB090003D4C0F1FF3B07F10109A9EB99
:104420000700019042E0012F00DA01270021112F3F
:1044300001DD112000E03846CDE9000104A90CA8F7
:10444000FFF7B4FCDDE90D010C9A00914FF0000B71
:10445000B946109221070FD4009A4A4503DA9146D3
:1044600001E0A9F10109B9F1010F05DD109AA9F1E7
:104470000101515C3029F4D0B84202DA10F1040F86
:1044800003DA0121CDE9011010E0002803DC8344A8
:10449000A9EB000102E0411C494500DD8946A0EB83
:1044A0000B00401C01904FF000400290200705D403
:1044B0000198484502DB4FF0FF30019000208DF855
:1044C0004B0002980DF14B07B0F1004F25D00220B0
:1044D0000C902B200D90029800280CDA404202909C
:1044E0002D200D9007E00A210298FCF795F8303155
:1044F000029007F8011D0C99481E0C900029F2DC6F
:1045000002980028EFD1791E0D980870307800F0DD
:10451000200040F0450007F8020D11A8C01BC01D87
:1045200002901398007800B1012000EB0901019876
:1045300001EBE071029801440398401A401E039079
:10454000E00306D453462146179A039800F05CF81E
:1045500005441398007818B15246179990476D1C7E
:10456000E00323D553462146179A039800F04CF8F0
:1045700005441BE0BBF1000F07DB0098584504DD44
:104580001098179910F80B0001E017993020524647
:10459000904701980BF1010B401E05F101050190B8
:1045A00004D12E205246179990476D1CB9F1000195
:1045B000A9F10109DEDC05E017F8010B5246179955
:1045C00090476D1C0299481E02900029F4DC534666
:1045D0002146179A03989EE62D0000002B0000004C
:1045E000200000002DE9F041044600251E46174634
:1045F000880404D405E039462020B0476D1C641EB1
:10460000F9D52846BDE8F0812DE9F04104460025A2
:104610001E469046C80301D5302700E020278804B5
:1046200004D505E041463846B0476D1C641EF9D5F7
:104630002846BDE8F08110B541EC100BFFF744F8B7
:1046400051EC100B10BD0000FEB500273E463D4664
:104650003C4602AA01A96846FEF72CF9BDF8000005
:10466000641C384407B2BDF80400E4B2304406B21A
:10467000BDF808000A2C284405B2EAD379420A2082
:1046800091FBF0F205490A80724292FBF0F24A80F7
:104690006A4292FBF0F08880FEBD0000E401002039
:1046A000C108064801EB41020170C2EBC1114FF68F
:1046B000FF7202EAC10141807047000044020020FD
:1046C00070B54FF40775B0FBF5F1CCB2B0FBF5F166
:1046D00005FB110604E0284600F020F8641EE4B251
:1046E000002CF8D1002E04D03046BDE8704000F018
:1046F00015B870BD0849097848434FF0E02148617A
:104700000020886101220A610A69D30701D0D2031F
:10471000FAD5086188617047440200200849498839
:1047200048434FF0E02148610020886101220A617E
:104730000A69D30701D0D203FAD5086188617047AE
:104740004402002082B0CDE9000121F00040019038
:104750009DED000B02B051EC100B704713B54FF6F6
:10476000FF73012269460248FDF7F6FD00981CBD63
:104770005002002010EE100AF6EE000A074960EE23
:10478000200AA1EB600000EE100AB7EE081A60EEF6
:10479000800A00EEC01A21EE000A7047865A375F81
:1047A0002DED028B9AB0FCF771FFFEF78FFBA8206E
:1047B000FFF776FFFEF732FBFEF766FBFEF71AFA0D
:1047C00010B13CA0FEF798FD3FA0FEF795FDFCF769
:1047D0006BFD0DF128080DF12C090DF11C0A0DF1EE
:1047E000200BCDE900980CAB12AA11A910A8FEF776
:1047F00025F8CDE900BA09AB15AA14A913A8FDF74D
:1048000025FF04A905A8CDE9000106AB18AA17A940
:1048100016A8FEF7D5F80FAA0DA90EA89DED044A1B
:10482000DDED053A9DED063ADDED072A9DED082AFE
:10483000DDED091A9DED0A1ADDED0B0A9DED0C0A5E
:10484000FCF79CF823489DED0D0AD0ED000A2248A4
:1048500070EE208ACDED0D8A9DED0E0AD0ED000A96
:104860001E4830EE208A8DED0E8A9DED0F0AD0EDA8
:10487000000A30EE200A8DED0F0A10EE100AFBF749
:104880009CFE06460F4618EE100AFBF796FE0446FD
:104890000D4618EE900AFBF790FE8DE8F00041EC13
:1048A000100B0FA053EC102BFEF726FD0A20FCF78F
:1048B000CFFD96E74D50553932353020696E697419
:1048C000206661696C0D0A00494D55393235300D4D
:1048D0000A00000084000020880000208C000020D6
:1048E00025302E31662025302E31662025302E31A0
:1048F000660D0A0000B52DED048B83B041EC190B59
:10490000FBF765FF41EC180B18EE100A18EE901A31
:104910008DED008B002818BF0120084320F00040D7
:10492000C0F17F6000F1E040C00F14D019EE101A02
:1049300019EE900A8DED009B002918BF0121084354
:1049400020F00040C0F17F6000F1E040C00F04BFE4
:104950000120FFF725FA51EC180B03B0BDEC048BD6
:1049600000BD000000000000000001020304060773
:10497000080900000000010203040000000000001C
:10498000555555555555C53F7D6FEB0312D6D4BFD0
:104990005544880E55C1C93F3B8F68B52882A4BFD6
:1049A00088B20175E0EF493F09F7FD0DE13D023F97
:1049B0004B2D8A1C273A03C0C88A599CE52A00401F
:1049C00059018D1B6C06E6BF82922EB1C5B8B33F6C
:1049D0004FBB610567ACDD3F182D4454FB21E93F17
:1049E0009BF681D20B73EF3F182D4454FB21F93F06
:1049F000E2652F227F2B7A3C075C143326A6813C8C
:104A0000BDCBF07A8807703C075C143326A6913C36
:104A1000C4EB98999999C9BF711623FEC671BCBFA2
:104A20006D9A74AFF2B0B3BF9AFDDE522DDEADBF0A
:104A30002F6C6A2C44B4A2BF0D5555555555D53F22
:104A4000FF8300922449C23F6E204CC5CD45B73F3D
:104A5000513DD0A0660DB13FEB0D76244B7BA93FB5
:104A600011DA22E33AAD903F0000000000000000A0
:104A7000904A0008000000205002000024090008AD
:104A8000F44A00085002002090040000903D000805
:104A900041320182103324F40378803F0D8ACDCC5B
:104AA000CC3D1C091A20091E40094220093E440938
:104AB0001A1CC025FD42A83F3BD89BBF4B11D43FD9
:104AC000A80E42BC63F219BC470850BDF416813FE2
:104AD00039CA7D3F5806803FB818C1F87A3F16E0C2
:104AE0002CBC8C5DF73BB75D733FF56711BD0C893E
:044AF0008924000015
:040000050800018965
:00000001FF
