:020000040800F2
:100000006806002045010008672C0008E91E00086A
:10001000652C0008C5070008094B00080000000017
:10002000000000000000000000000000A1330008F4
:100030004508000800000000FD2F0008C93D000829
:100040005F0100085F0100085F0100085F01000810
:100050005F0100085F0100085F0100085F01000800
:100060005F0100085F0100085F0100085F010008F0
:100070005F0100085F0100085F0100085F010008E0
:100080005F0100085F010008350500085F010008F6
:100090005F0100085F0100085F0100085F010008C0
:1000A000714000088D4000085F0100085F010008F2
:1000B000A5400008A9400008454300085F0100086A
:1000C0005F0100085F0100085F0100085F01000890
:1000D0005F0100085F0100085F0100085F01000880
:1000E0005F0100085F0100085F0100085F01000870
:1000F0005F0100085F0100085F0100085F01000860
:100100005F0100085F0100085F0100085F0100084F
:100110005F0100085F0100085F0100085F0100083F
:100120005F0100085F0100085F0100085F0100082F
:10013000DFF80CD000F0C0F900480047A14D0008DE
:10014000680600200648804706480047FEE7FEE7AD
:10015000FEE7FEE7FEE7FEE7FEE7FEE7FEE7FEE777
:10016000593E000831010008D2B201E000F8012B2D
:10017000491EFBD270470022F6E710B513460A4627
:1001800004461946FFF7F0FF204610BD2DE9FE4F4B
:1001900081EA030404F0004421F0004100944FF090
:1001A000000B23F0004350EA01045ED052EA03043E
:1001B0005BD0C3F30A54C1F30A552C44A4F2F334C0
:1001C0000194A0FB0254C1F3130141F48011C3F365
:1001D000130343F4801301FB024400FB034E840A23
:1001E000970A44EA815447EA8357A4FB07680295BB
:1001F0008D0A05FB07854FEA932C04FB0C54270559
:10020000029D4FEA065847EA1637B5EB08056EEB34
:10021000070C870E920E47EA811742EA8312A7FB6A
:100220000201B6EB0B0164EB00042B0D43EA0C3327
:100230005E1844EB1C50DA465146E7FB0201C5F359
:1002400013044FEA0B3343EA14534FEA0432019C80
:1002500043EA0603A4F10C040294009CCDE900B427
:1002600000F0DBF803B0BDE8F08F00200146F9E7AD
:100270002DE9F04D81EA030404F0004B21F0004524
:1002800014464FF0000A23F0004150EA050220D046
:1002900054EA01021DD0C5F30A570246C5F3130301
:1002A000C1F31300C1F30A5640F4801543F48013E0
:1002B000A7EB0608101BD64608F2FD3873EB0500C5
:1002C00002D308F1010801E092185B41B8F1000F78
:1002D00003DA00200146BDE8F08D00204FF48011C4
:1002E000064684460EE0171B73EB050705D3121B69
:1002F00063EB050306434CEA010C49084FEA300062
:1003000092185B4150EA0107EDD152EA030012D086
:1003100082EA040083EA0501084305D0101BAB41C3
:1003200006D20122002306E000224FF0004302E043
:100330006FF0010253101AEB06004CEB085110EB62
:100340000A0041EB0B01BDE8F04D00F057B870B565
:1003500021F0004303430CD0C1F30A550024D5EB30
:10036000040564EB0403D617AD1AB34102DB002089
:10037000014670BD201841EB025170BD0EB5C10F92
:1003800080EAE0700844CA07002140F233438DE858
:100390000E000A460B4600F040F803B000BD70B5F1
:1003A000C1F30A5201F000450024C1F3130140F2E9
:1003B000FF3341F480119A4201DA002070BD40F20F
:1003C00033439A42A2F2334203DC524200F006F871
:1003D00000E090402C43F1D0404270BD202A04DB65
:1003E000203A21FA02F00021704721FA02F3D040AE
:1003F000C2F12002914008431946704710B5141EFF
:1004000073F1000408DA401C41F1000192185B41CD
:100410001A4301D120F0010010BD2DE9F04D9246A4
:100420009B4611B1B1FA81F202E0B0FA80F22032BB
:10043000904600F053F804460F4640EA0A0041EAAD
:100440000B0153465A46084313D0114653EA0100A4
:1004500019D0C8F140025046FFF7C0FF05460E46CE
:1004600050465946424600F039F8084305D001206D
:1004700004E020463946BDE8F08D0020054346EAF9
:10048000E0762C4337430A986305E40AA0EB0800A2
:100490000022FD0A44EA47540A3002D500200146F2
:1004A000E9E7010510196941DDE9084500196941CD
:1004B000BDE8F04DA2E70000064C074D06E0E068FD
:1004C00040F0010394E8070098471034AC42F6D39B
:1004D000FFF732FE0869000828690008202A04DBBB
:1004E000203A00FA02F1002070479140C2F1200347
:1004F00020FA03F319439040704730B58C1810F878
:10050000012B12F00F0301D110F8013B120906D1A3
:1005100010F8012B03E010F8015B01F8015B5B1E92
:10052000F9D101E001F8013B521EFBD1A142E6D313
:10053000002030BD10B5154C2068400715D56FF070
:100540000400206002F02EFF00280DD002F05EFAB9
:100550000F480178022905D0032905D1BDE81040D4
:1005600001F0FAB80321017010BD4FF4A0712046CC
:1005700000F06EF80128F7D1800202F051FB20460E
:10058000BDE81040012100F016B800000024014031
:10059000A80000204268024B1A400A43426070479C
:1005A000FFFD3FFF426822F01F020A43426070478E
:1005B000416282627047C9430160704700298168C7
:1005C00002D041F0010101E021F00101816070479A
:1005D0000D4910B5884202D1012144150AE00B49AA
:1005E000884202D10121041504E0094988420AD158
:1005F0000121CC03204602F03DFD2046BDE810401D
:10060000002102F037BD10BD002401400028014048
:10061000003C01400029816802D041F4004101E022
:1006200021F4004181607047826822F4E0420A436D
:1006300082607047014600208968490700D5012083
:1006400070470246002012680A4200D0012070471D
:1006500010B50246002054680B0AC9B20C4011685C
:10066000194202D0002C00D0012010BD08B508446A
:1006700028300090006880B208BD002A4268C9B2E4
:1006800001D00A4300E08A434260704710B54268D7
:100690000E4B0C791A400B6842EA04221343436064
:1006A00083680B4A1340D1E9024222434C7943EA62
:1006B00044031A438260C26A097C22F47002491E14
:1006C000C9B242EA0151C16210BD0000FFFEF0FF55
:1006D000FDF7F1FF70B5072409290AD9C568A1F112
:1006E0000A0606EB4606B440A543B3401D43C56069
:1006F00007E0056901EB4106B440A543B3401D4343
:100700000561836BC3F30154121B921C02EB82043C
:100710001F22A2409343A1400B43836370BD826BB1
:10072000491E22F4401242EA0151816370470029B8
:10073000816802D041F4021101E021F402118160CC
:100740007047816841F004018160704700210160B9
:10075000017141718160C160012101747047000025
:1007600010B502F081F802F045F84FF0D8400421AE
:100770000180418841880A0641884088C9B2120A2E
:100780000E4CC0B202EB0121084460606068A0F525
:10079000A901663904D06068A0F50041663901D12D
:1007A00001F0A4FB04F036F902F050FB4FF4806135
:1007B000034801F0EDF9606810BD00000000002062
:1007C000001C0140FEE7034601B261F30F0044F64E
:1007D000E6125143CA1701EB5241CA13191444F6E9
:1007E000E6135943CB1701EB5341C9130A44114493
:1007F000494261F31F40704715280CD2DFE800F032
:100800000B0B0D0D0D0F0F0F1111111315151517E2
:100810000B191919190001200CE002200AE003202D
:1008200008E0042006E0052004E0062002E007209E
:1008300000E0092002490978062900D10820704704
:10084000A800002070472DE9F0470E46814601EBD5
:10085000460014004FF001054FEA800106D52D2215
:10086000484601F0A5FF604204B203E0202248465A
:1008700001F09EFF00274FF6FF7805EB8500400052
:1008800094FBF0F100FB114090FBF5F03030C2B268
:10089000F01B401D00EB400108EA8101484601F0D1
:1008A00087FF05EB85017F1C08EA4105042FE4D38F
:1008B00042F2107094FBF0F03030C2B2761C06EBBE
:1008C000460081004846BDE8F04701F071BF0000D6
:1008D0002DE9F05F03F0FCFA01287DD14FF4FA70A6
:1008E00003F038FBDFF8DC83F74E98F8010088F856
:1008F00000003078FFF780FFF44FDFF8D4A30A241C
:10090000DFF8D093642588F801004FF47A7B0A2839
:1009100062D2DFE800F061054ED2FEFDFCFBFAF981
:1009200098F8000001281BD0EBA1362001F050FF01
:10093000512001F085FE6C2001F082FEECA18720A1
:1009400001F046FFF0A1BD2001F042FFA22001F01E
:1009500077FED82001F074FEF1A1F32001F038FFFA
:10096000307818B94FF4784002F048F8F2A15120DD
:1009700001F02EFF3078D0B14FF4784002F03EF80D
:10098000F2480088002100EB4000400002B2BD2088
:10099000FFF759FF307810B11F2002F02FF801F057
:1009A00085F900EB4000400002B20D21F6E31F2064
:1009B000E4E798F8000002281ED0E5A1362001F0F7
:1009C00007FFE9A1512001F003FF6C2001F038FE80
:1009D000872001F035FE00E0FAE3E9A1A22001F052
:1009E000F7FEEDA1BD2001F0F3FED82001F028FEB6
:1009F000CBA1F32001F0ECFE3078ED4C022804D0BE
:100A0000032816D0042847D12DE04FF4784001F098
:100A1000F5FFB4F9002001216C20FFF714FF1F201F
:100A200001F0ECFFB4F9042007216C20FFF70BFF65
:100A300012E0B4F9002001216C20FFF704FF4FF40D
:100A4000784001F0DBFFB4F9042007216C20FFF7A8
:100A5000FAFE1F2001F0D2FFB4F918200D216C20FE
:100A6000FFF7F1FE18E0B4F9002001216C20FFF738
:100A7000EAFEB4F9042007216C20FFF7E4FE4FF4EE
:100A8000784001F0BBFFB4F918200D216C20FFF76E
:100A9000DAFE1F2001F0B2FFAC480088092100EB0C
:100AA0004000400002B2A220FFF7CDFE01F0FEF8A8
:100AB00000EB4000400002B27FE098F800000328FD
:100AC0001CD0BCA1362001F083FEA7A1512001F06B
:100AD0007FFE6C2001F0B4FD872001F0B1FDBBA1C9
:100AE000A22001F075FEBFA1BD2001F071FED8204B
:100AF00001F0A6FD8AA1F32001F06AFE3078BF4C18
:100B000005280BD0062805E063E348E37FE203E213
:100B1000CFE054E016D0072847D12DE04FF47840BD
:100B200001F06CFFB4F9002001216C20FFF78BFE6F
:100B30001F2001F063FFB4F9042007216C20FFF7A8
:100B400082FE12E0B4F9002001216C20FFF77BFE49
:100B50004FF4784001F052FFB4F9042007216C20D3
:100B6000FFF771FE1F2001F049FFB4F918200D2195
:100B70006C20FFF768FE18E0B4F9002001216C201A
:100B8000FFF761FEB4F9042007216C20FFF75BFE3C
:100B90004FF4784001F032FFB4F918200D216C2099
:100BA000FFF751FE1F2001F029FFB7F900200921AE
:100BB000A220FFF748FEBAF900200921EEE298F8DA
:100BC000000004281CD08EA1362001F001FE66A191
:100BD000512001F0FDFD6C2001F032FD872001F075
:100BE0002FFD8DA1A22001F0F3FD91A1BD2001F008
:100BF000EFFDD82001F024FD49A1F32001F0E8FD2C
:100C00003078914C082804D0092816D00A2847D1FA
:100C10002DE04FF4784001F0F1FEB4F900200121FD
:100C20006C20FFF710FE1F2001F0E8FEB4F904204D
:100C300007216C20FFF707FE12E0B4F90020012124
:100C40006C20FFF700FE4FF4784001F0D7FEB4F9B6
:100C5000042007216C20FFF7F6FD1F2001F0CEFED7
:100C6000B4F918200D216C20FFF7EDFD18E0B4F960
:100C7000002001216C20FFF7E6FDB4F904200721D4
:100C80006C20FFF7E0FD4FF4784001F0B7FEB4F9B7
:100C900018200D216C20FFF7D6FD1F2001F0AEFEBD
:100CA000B9F900200921A220FFF7CDFDBAF90220F1
:100CB00083E798F80000052803D0362001F0C0FC37
:100CC000C4E0DCE07C000020B4000020AC00002088
:100CD0009C000020AA000020202048616C6C20535A
:100CE000656E736F722044656D6F202000000000F8
:100CF0002054617267657420202020204D65617347
:100D0000757265640000000020202020202020282B
:100D100072706D292020202020202020000000005B
:100D2000203C3E204D6F766520205E7C204368612C
:100D30006E676520000000002053706565642063C5
:100D40006F6E74726F6C206D6F646500AE00002072
:100D50002020202020202053706565642020202042
:100D600020202020000000002020202050202020D3
:100D700020204920202020204420202000000000A6
:100D800020546172676574202020202020202028B4
:100D900072706D2900000000204D656173757265E9
:100DA000642020202020202872706D29000000007F
:100DB000A401002020202020202020546F72717573
:100DC0006520202020202020000000002054617297
:100DD00067657420202020202020202028497129A8
:100DE00000000000204D656173757265642020204D
:100DF00020202020284971290000000084010020C3
:100E00002020202020202020466C757820202020C3
:100E100020202020000000002054617267657420AB
:100E200020202020202020202849642900000000C4
:100E3000204D65617375726564202020202020207C
:100E4000284964290000000064010020F6A1512017
:100E500001F0BEFC6C2001F0F3FBF9A1872001F04A
:100E6000B7FCA22001F0ECFBFBA1BD2001F0B0FC1F
:100E7000D82001F0E5FBFEA1F32001F0A9FC01F070
:100E800067FE06B25F4696FBF7F00BFB106090FB27
:100E9000F5F03030C2B28421872001F089FC96FB46
:100EA000F5F005FB106090FBF4F03030C2B29021F9
:100EB000872001F07DFC96FBF4F004FB10603030DD
:100EC000C2B29C21872001F073FC01F051FE06465E
:100ED00090FBF7F007FB106090FBF5F03030C2B2EA
:100EE0004821BD2001F064FC96FBF5F005FB106085
:100EF00090FBF4F03030C2B25421BD2001F058FC18
:100F000096FBF4F004FB1060BDE8F05F3030C2B235
:100F10006021BD2001F04CBC98F8000006281FD0CD
:100F2000AFF24C21362001F053FC512001F088FB38
:100F3000D5A16C2001F04CFCD9A1872001F048FC20
:100F4000DDA1A22001F044FCE1A1BD2001F040FCA4
:100F5000D82001F075FBAFF23821F32001F038FC06
:100F600030780C2804D00D2814D00E2841D129E067
:100F70004FF4784001F042FDDBA1512001F028FC44
:100F80001F2001F03BFDB7F9002005218720FFF766
:100F90005AFC10E0D4A1512001F01AFC4FF4784023
:100FA00001F02CFDB7F9002005218720FFF74BFC4D
:100FB0001F2001F023FDB9F900200521A220FFF731
:100FC00042FC16E0C8A1512001F002FCB7F9002054
:100FD00005218720FFF737FC4FF4784001F00EFD24
:100FE000B9F900200521A220FFF72DFC1F2001F0F8
:100FF00005FD5446BAF900200D218720FFF723FC98
:10100000B4F902200D21A220FFF71DFCC7E498F8D7
:101010000000BB4E072833D0362001F011FB4FF4FF
:10102000784001F0EBFCB7A1512001F0D1FB1F206B
:1010300001F0E4FC3068000501D5B8A117E0306884
:10104000800501D5BBA112E03068C00501D5BEA165
:101050000DE03068400501D5C0A108E030684007C8
:1010600001D5C4A103E03068000703D5C7A16C20F7
:1010700001F0AEFB872001F0E3FABD2001F0E0FAB9
:10108000306810F4506F47D0306898F8001010F4B2
:10109000406F98F801004CD0884202D0A22001F0A5
:1010A000CFFAC0A1A22001F093FB01F051FD06B2DE
:1010B00096FBFBF10BFB116090FBF5F03030C2B2F8
:1010C0008421A22001F074FB96FBF5F005FB106073
:1010D00090FBF4F03030C2B29021A22001F068FB06
:1010E00096FBF4F004FB10603030C2B29C21A220C9
:1010F00001F05EFB2022A821A22001F059FB56221C
:10110000B421A22001F054FBD82001F099FABDE8E7
:10111000F05FF32001F094BAA22001F091FAA4A1AB
:10112000D82001F055FBBDE8F05FA7A1F32001F046
:101130004FBB884202D0A22001F082FA01F018FDD4
:101140000646A7A1A22001F043FB96FBFBF10BFB97
:10115000116090FBF5F03030C2B28421A22001F082
:1011600027FB96FBF5F005FB106090FBF4F03030A8
:10117000C2B29021A22001F01BFB96FBF4F004FB0D
:1011800010603030C2B29C21A22001F011FB20225D
:10119000A821A22001F00CFB4322B1E7FEE198F860
:1011A0000000082814D0362001F04AFA8FA15120FF
:1011B00001F00EFB93A16C2001F00AFB872001F0E7
:1011C0003FFAA22001F03CFABD2001F039FA9BE77A
:1011D000E2E198F8000009281DD090A1362001F026
:1011E000F7FA94A1512001F0F3FA6C2001F028FAEB
:1011F00096A1872001F0ECFA9AA1A22001F0E8FA6A
:10120000BD2001F01DFAD82001F01AFAAFF2F0412A
:10121000F32001F0DDFA3078DFF86092984E994FB4
:10122000DFF86482112831E120506F776572205316
:101230007461676520537461747573200000000049
:101240002020444320627573203D2020202020561A
:101250006F6C742000000000202054203D202020CE
:1012600020202043656C7369757320200000000006
:10127000203C3E204D6F766520202020202020201D
:101280002020202000000000202020202054617217
:10129000676574204D6561737572656400000000B8
:1012A00049712020202020202020202020202020C4
:1012B0002020202000000000496420202020202041
:1012C000202020202020202020202020000000009E
:1012D0005370656564202872706D292020202020BD
:1012E0002020202000000000546F7271756520637B
:1012F0006F6E74726F6C206D6F646520000000006B
:101300009000002020202020212121204641554C02
:10131000542021212120202000000000204275734C
:1013200020556E64657220566F6C7461676520206D
:10133000000000002020204F7665722043757272F5
:10134000656E7420202020002020204F76657220BA
:1013500048656174696E6720202020002020427556
:1013600073204F76657220566F6C7461676520201C
:1013700000000000202053746172742D7570206687
:1013800061696C6564202020000000004572726F66
:1013900072206F6E20737065656420666462636B93
:1013A000000000002020444320627573203D0000AF
:1013B000202020507265737320274B657927207495
:1013C0006F202020000000002020207265747572BC
:1013D0006E20746F206D656E752020200000000067
:1013E0002020202020202054203D0000204D6F741C
:1013F0006F722069732073746F7070696E6720203C
:1014000000000000202020706C656173652077610A
:1014100069742E2E2E202020000000002020204F56
:1014200062736572766572204761696E7320202051
:101430000000000020202020204B312020202020F0
:1014400020204B32202020200000000020202020DF
:101450002020504C4C204761696E732020202020B2
:1014600000000000202020202050202020202020CC
:10147000202049202020202000000000D80000204B
:10148000DC000020C8000020CA0000202BD0122859
:1014900042D013285FD014287ED1D9F80000032150
:1014A00090FBF4F002B26C20FFF7CDF930680C210C
:1014B00090FBF5F002B26C20FFF7C5F9B7F90020F8
:1014C0000321BD20FFF7BFF94FF4784001F096FAF1
:1014D000B8F900200C21BD20FFF7B5F9BDE8F05F99
:1014E0001F2001F08BBA4FF4784001F087FAD9F849
:1014F0000000032190FBF4F002B26C20FFF7A3F987
:101500001F2001F07BFA30680C2190FBF5F002B24D
:101510006C20FFF798F917E0D9F80000032190FB41
:10152000F4F002B26C20FFF78EF94FF4784001F02E
:1015300065FA30680C2190FBF5F002B26C20FFF7E1
:1015400082F91F2001F05AFAB7F900200321BD20CB
:10155000FFF779F91DE0D9F80000032190FBF4F0C2
:1015600002B26C20FFF76FF930680C2190FBF5F0A8
:1015700002B26C20FFF767F94FF4784001F03EFAB1
:10158000B7F900200321BD20FFF75DF91F2001F00E
:1015900035FAB8F9002000E005E00C21BDE8F05F65
:1015A000BD20FFF750B9BDE8F09F000010B507A1BE
:1015B000002001F00DF90BA11B2001F009F9BDE895
:1015C00010400EA1F32001F003B900002053544D48
:1015D0003332204D6F746F7220436F6E74726F6C74
:1015E000000000002020504D534D20464F432076F0
:1015F000657220322E30202000000000203C3E206A
:101600004D6F766520205E7C204368616E676520A3
:101610000000000070B500F049FB01461248114A75
:10162000B0F9000001F0D6FB104908800020488086
:1016300008880C1D20804888608001F0A3FA0646C7
:1016400000F0FAFA251F0246E9686868334600F0A0
:1016500013F80749A8602088088006496088088038
:1016600070BD0000A4010020AE0000207E0000201C
:10167000AC000020AA0000203FB481B0BDF90600F4
:10168000DFF888C05043C11700EB5140DCF8101060
:10169000C013484390FBF3F0DCF81440410004FB16
:1016A00002F090FBF3F0BDF9085001EB0010284464
:1016B000174CB0F5004FA8BF47F6FF7003DA10F5DE
:1016C000004FD8BF2046ADF80000BDF904005043DC
:1016D000C11700EB5140DCF80C20C013504390FBC5
:1016E000F3F0BDF90A10A1EB4001B1F5004FA8BF1E
:1016F00047F6FF7103DA11F5004FD8BF2146ADF868
:101700000210009805B030BC7047000010010020A6
:101710000180FFFF024B5A611961D86070470000D9
:101720001001002010B50A48002444F63952048004
:101730004480001D0480448006480146FFF7EAFF0C
:101740000348001F04804480001F0480448010BDB3
:1017500086000020AD0901002DE9F04100F03CFBBE
:1017600002F09AF832490860FFF72DF8314D2860F1
:1017700000F05CFA0146286801F010FC2E4E2F4F55
:101780002F4A3060B6F90010B7F9000001F022FBD3
:1017900060F30F040546B6F90210B7F90200294AB2
:1017A00001F018FB3E1D60F31F4403464FF4004751
:1017B000B6F90000791E28446FEA010C0CF1010211
:1017C000B84201DB084602E0604500DC10461E4DD1
:1017D0002880B6F902001844B84201DB084602E04E
:1017E000604500DC1046688001F05AFC286801F072
:1017F0007DFC1649086001F02DFE104822B2083029
:10180000B0F90010C1EBC1111144CA1701EB5261CC
:10181000C9110180B0F90210C1EBC11101EB2441E3
:10182000CA1701EB5261C9114180BDE8F081000087
:1018300094000020980000209C00002082000020DE
:101840008401002064010020A0000020A4000020EA
:1018500070B50B4801880B4801800B49098841800D
:1018600001F090F9054600F0E7F9064C0246241F06
:101870002B46E1686068FFF7FFFEA06070BD0000C6
:10188000AC00002082000020AA0000208000A0F10F
:10189000C0400029016802D041F0010101E0024A84
:1018A0001140016070470000FEFF0F0010B5D0E945
:1018B00001121143D0E903231A4311434269114332
:1018C00082691143C2691143026A1143426A11439A
:1018D000826A1143C26A1143026B1143026892008B
:1018E000A2F1C04211608168082907D1016889000E
:1018F000A1F1C0410A6842F040020A60416BD1E99F
:10190000002342EA03128B688C891B0243EA0443DA
:101910001A430B8A42EA03520B7D896942EA036249
:101920000A4301688900A1F1C0414A60C16AB1F56A
:10193000804F08D000686FF070418000A0F1C04077
:10194000C0F8041110BD816BD1E9002342EA0312F3
:101950008B680C8A1B0243EA04531A430B7D896986
:1019600042EA036200680A438000A0F1C040C0F868
:10197000042110BD38B50121042001F06FFB0D4D8D
:10198000284600F019F8684600F004F94FF4706436
:10199000ADF8004001208DF8020010208DF8030002
:1019A0006946284600F062F82146284600F0EEF825
:1019B00038BD000000080140254910B5884206D115
:1019C0000121042001F056FB002104203BE02149C5
:1019D000884206D10121082001F04CFB002108209B
:1019E00031E01D49884206D10121102001F042FB5F
:1019F0000021102027E01949884206D1012120202A
:101A000001F038FB002120201DE01549884206D155
:101A10000121402001F02EFB0021402013E011495C
:101A2000884206D10121802001F024FB0021802082
:101A300009E00D4988420AD184150121204601F0B0
:101A400019FB00212046BDE8104001F013BB10BD7A
:101A500000080140000C014000100140001401404A
:101A600000180140001C014000200140F0B5CA7878
:101A7000002502F00F03D20601D58A7813430A78B5
:101A80004FF00F0E12F0FF0F4FF001021CD0046850
:101A90000F8802FA05F63740B74211D14FEA850C9C
:101AA0000EFA0CF724EA070703FA0CF43C43CF784C
:101AB000282F02D0482F02D002E0466100E00661E4
:101AC0006D1C082DE4D304600C88FF2C1ED94468DB
:101AD0005FF0000606F1080702FA07F50F882F40AD
:101AE000AF420FD14FEA860C0EFA0CF7BC4303FA53
:101AF0000CF73C43CF78282F00D14561CF78482F91
:101B000000D10561761C082EE4D34460F0BD41F499
:101B100080328261816182618169806970470000E1
:101B2000F0B5144C002801DAE36900E06368420D67
:101B3000120185B2C0F301579540C0F30346032F4D
:101B400005D0C2020AD50322B240934307E023F036
:101B50007062636823F07063636002E0AB4343F03C
:101B6000706201B12A43002801DAE261F0BD6260CF
:101B7000F0BD000000000140806880B2704702465E
:101B8000002092680A4200D00120704741617047EE
:101B9000016170474FF6FF710180022181700421BD
:101BA000C1707047F0B50021124B134E0A461C88D5
:101BB00024F002041C8002EB420436F814C006EB49
:101BC00044077C88641C04FB0CF4B3F800C04CF0A0
:101BD000020CA3F800C021443C79521C64F30705B1
:101BE000062AE4D30622891CB1FBF2F1C0E90015F4
:101BF000F0BD00000C040040C4010020094910B5EC
:101C00004978094B01EB410433F8141003EB44030A
:101C10005C881B79641C614363F30702C0E900120E
:101C200010BD0000E8000020C40100200148B0F908
:101C30000E007047E80000201CB5184C60790028A1
:101C4000684602D0FFF7AEFF01E0FFF7D7FFDDE9FE
:101C50000002E3790021012B11D052B27F2A19D062
:101C60000F4B1B88B3F5487F09D20E4B984206D81C
:101C700042F6E06398420AD9A389022B01D221825D
:101C800008E00949B1FBF0F04243228202E04FF440
:101C900000402082B4F910001CBD0000E8000020C4
:101CA00028040040808D5B00000082060748B0F9E0
:101CB000100010F5004F06D005494843C11700EB4E
:101CC00091308014704741F288307047E80000205E
:101CD0008032020070B588B00121022001F0A6F91F
:101CE00001213A48FFF71CFF0121102001F0B6F94D
:101CF00007A8FFF74FFF4FF4E070ADF81C00042079
:101D00008DF81F0007A93248FFF7B0FE314E30466C
:101D100002F046FB03A802F069FE4FF6FF70ADF833
:101D200010000024ADF8124003A9304602F010FE66
:101D3000684602F08FFC0B20ADF800400225ADF89C
:101D40000800ADF802506946304602F0EDFB012272
:101D50004FF44871304602F0ADFD304602F08AFC87
:101D60000121304602F0A9FD5021304602F0AFFDBE
:101D70000421304602F0B9FD0121304602F03FFE59
:101D80001D208DF818008DF819508DF81A4001208B
:101D90008DF81B0006A800F067FF41F65F61304632
:101DA00002F0E2FA01220221304602F05BFC01223D
:101DB0001146304602F056FC0021304602F09DFDEF
:101DC0000121304602F0D6FA08B070BD000C1A00AE
:101DD000001001400004004008480146B0F91020FE
:101DE000B1F90E1012F5004F03D01144C1814281A8
:101DF000704742891144C18170470000E80000200B
:101E00002DE9F041214C00220221204602F02AFC5B
:101E10001F490022CA700A714A718A71CA718A8187
:101E20008A704A704FF448734FF6FF7719480125BE
:101E300013E04E7806EB460620F816704E7806EB57
:101E4000460600EB460673804E7806EB460600EB2E
:101E5000460635714E78761C4E704E78062EE8D3C5
:101E6000052048700948283003808A8100212046D7
:101E700002F043FD0121204602F07CFA2046BDE835
:101E8000F0410122022102F0EDBB000000040040FD
:101E9000E8000020C401002010B501F0F7F80E4959
:101EA000072817D2DFE800F016070D0A1304100008
:101EB00046F6AA200DE049F254500AE06FF4804043
:101EC00007E04EF6AB2004E041F2565001E04FF43B
:101ED0008040C88110BD0000E80000200148C079A2
:101EE00070470000E8000020FEE70000F8B54FF062
:101EF000D844E020208000206080072161801021EC
:101F0000618009216180172767800B22628041264A
:101F10006680892262804B2262800A2262800C23C2
:101F200063800E236380182565801B2565800F253F
:101F300065804FF0E10CA4F800C0608067801A272C
:101F40006780042767806380062363802F23638074
:101F50004523638043236380022363806280618022
:101F60004FF0320CA4F802C04FF0360CA4F802C0B7
:101F70006580F7252580A9256580512565802C255C
:101F8000658082256580C02525801125658061805A
:101F9000C12121806680C5212180608062808021EE
:101FA0006180B1212180B02161806580B4212180D0
:101FB0006380B6212180638022216180B721218046
:101FC000C6216180BE21218060806780E921218057
:101FD0006080042000F0D2FC3A20208055206080F0
:101FE000258004480090401E0090FCD129202080CC
:101FF000F8BD000080A90300014840787047000048
:10200000B00000200149002008707047B000002097
:102010002DE9FC414FF6FF76ADF80060ADF80460A5
:1020200004214C48FFF7ABFD4B4C002590BB6946A3
:1020300001A802F077FDBDF80000B04203D0BDF862
:102040000410B14201D1A5707AE0C0F5F07080B201
:10205000FB39ADF8000045293ED2042105220323B7
:1020600002270126B0F5CC7F01D9072003E0B0F5A7
:10207000AA7F02D90620207012E0B0F5887F01D92E
:1020800021700DE0CC2801D9227009E0882802D9FE
:10209000237005E020E0442801D9277000E0267075
:1020A000207804281AD0207805281DD0207801280F
:1020B00020D0207806281DD0207807281AD0207834
:1020C00002283FD020780328BDD1A07805283FD032
:1020D000A2700520BDE8FC812570B4E7A078022835
:1020E00036D0A7700220F5E7A078032830D0A3707F
:1020F0000320EFE7A07801282AD001F0D5FE10B91F
:10210000E07880071CD401F0CFFE012814D006E04F
:1021100040F00200E070642001F010FF10E001F0D8
:10212000C3FE01280CD1E078810709D500F0FD003D
:10213000E070A6700120CDE7E0788107EFD4E7E7F3
:102140000020C7E7A078042802D0A1700420C1E7CE
:102150000620BFE700180140B00000202DE9F05F25
:10216000FFF756FFF8490026142348700A790D241A
:102170000C25052704214FF0130A4FF0110B4FF0E7
:10218000080E4FF0070C4FF00609152A1BD2DFE8A6
:1021900002F00B2B5465788BADCAF2EDECEBEAE95B
:1021A000E81A1AE7E6E5E400E74A06280BD2DFE87A
:1021B00000F00A0CF6090303E448016881F001010C
:1021C000016017E21371BDE8F09FE1480378032B2B
:1021D00008D00378022B05D001780029F3D1012122
:1021E00001704AE00170EEE7D74CDA4A0628EAD2DD
:1021F000DFE800F003F41517040CE4E7B2F900007F
:10220000B0F5FA7FDFDC10880A3006E0B2F9000092
:1022100010F5FA7FD7DB10880A381080D3E7022048
:102220002EE1CB48007808B92671CCE72371CAE7C4
:1022300001780029C7D10121D4E7C34A0628C2D2B8
:10224000DFE800F003CC30AD0406BCE7C24935E05E
:10225000C149A6E00880B6E71071B4E7BA4A06287B
:10226000B1D2DFE800F003BB0A0C0406ABE7BA49C1
:1022700047E0B9494EE08880A5E71171A3E7022045
:10228000EAE7B14A06289ED2DFE800F003A80A0C6C
:10229000040698E7B04951E0AF4958E0088392E757
:1022A000177190E70320D7E7A74A06288BD2DFE80B
:1022B00000F003951417040D85E7A84947F69B72B3
:1022C000B1F9000090428EDC6430C3E7A348B0F956
:1022D0000010642987DB64395FE082F8049072E7BC
:1022E0009A480068C007C8D10E20B5E7964A06286C
:1022F00094D2DFE800F004731503050ED0E762E71F
:10230000964947F6E672B1F90400904286DC19302E
:10231000B1E79249B1F90400192886DB1938AAE718
:1023200082F804C04FE7884A06288ED2DFE800F022
:1023300004562003050ED0E745E7884947F69B720F
:10234000B1F91800904286DC6430A7E78349B1F9FF
:10235000180064288ADB6438A0E723E1E9E0C7E0DD
:10236000A7E096E06FE04EE041E02EE01FE002E0E3
:1023700082F804E027E7744A06288AD2DFE800F0F2
:10238000042E35030510CBE71DE7754847F69B7211
:10239000B0F90010914284DC6431018013E722E13E
:1023A0006F49B1F90000642886DB643852E7664A59
:1023B000062894D2DFE800F0041222030507D7E7CD
:1023C00001E767499DE76649A4E75F4A062886D288
:1023D000DFE800F00304090B0507F4E67AE0604942
:1023E000ACE75F49B3E70B2036E7092034E7564AEC
:1023F00001286FD0022803D0032893D10A202BE7AD
:1024000082F804B0DFE6504A06288BD2DFE800F0FD
:10241000040D0B030505D5E6D5E64C48016881F0AF
:1024200001010160E1E01471CDE649480378032B16
:102430003FF402AF0378022BFAD00178002999D13A
:1024400001210170EFE7404C464A062892D2DFE8AE
:1024500000F003D61619040DB5E6B2F9000044F2F7
:102460005B71884286DC10886430D6E6B2F90000E1
:1024700044F25B71C84287DB10886438CDE60E20D9
:102480002071A0E63248007800287FF4CFAE257195
:1024900099E62D4B344A062892D2DFE800F005B0C9
:1024A00006080403E2E7D8E78DE61F718BE61C718E
:1024B00089E6254B2D4A06288FD2DFE800F003A0DD
:1024C0001416040C7FE6106810F1FA0F85DC106812
:1024D000FA3006E093E010682549884292DB1068E4
:1024E000FA3810606FE6122000E00B2018716AE6DF
:1024F000154B204A41F2883406288DD2DFE800F0DF
:10250000037F1316040B5EE610681B4988428BDCC0
:1025100010682044E5E71068A04285DB1068A0F54C
:1025200098508838DDE783F804A04CE683F804B0BF
:1025300049E6054C114A06288ED2DFE800F02160FA
:102540000331222A72E60000B00000209000002033
:10255000A8000020AE000020A4010020840100207B
:1025600064010020AC000020AA000020D800002058
:1025700040D8F6FFDC00002014EC3100C800002039
:1025800021E6B2F90000B0F5FA4F8DDC1088193061
:1025900043E6B2F90000002886DD108819383CE6D1
:1025A00012206DE71B4A1C4B06288BD2DFE800F097
:1025B00003271424040C06E6B3F90000B0F5FA4F23
:1025C00090DC1888193005E0B3F90000002889DD97
:1025D000188819381880F6E510480068C0071048B8
:1025E000007804D008B1012036E61671EBE500282A
:1025F0007FF428AF1571E6E582F804A0E3E508480A
:102600000278032A3FF418AE0278022A7FF410AE53
:10261000E8E50000B0000020CA0000209000002083
:10262000A800002070B51D461446049E00F082F9F3
:1026300004FB05F03146BDE8704000F009B9000028
:1026400001B5064882B0182340889DF808104FF461
:10265000BE7200906420FFF7E5FF0EBD0000002071
:102660002DE9F0411C46DDE90653203A2C27D6B26D
:102670004FF0D848102B12D018230C2200F05AF932
:102680004046A8F80070214B06EB4602002103EB00
:1026900002160022735CDF071ED045801DE0102368
:1026A000082200F047F94346A8F8007018490020B6
:1026B00001EB06160021325CD70701D05D8000E0F7
:1026C0005C80491C5208C9B20829F5D3401CC0B22D
:1026D0001028EFD3BDE8F0814480521C5B08D2B2D1
:1026E000082AD8D3491CCAB20021B35CDF0701D045
:1026F000458000E04480491C5B08C9B20429F5D339
:10270000521CD1B23029C4D3E4E70000B054000811
:10271000C04E00082DE9FF4F82B01646DDE90F7B61
:102720000D4604464FF4F07A4FF4A0794FF01808A4
:102730001AE000BFBBF1100F1CD004F10C00504593
:1027400002D900241835ADB205F11800484501D969
:1027500000242546CDE9007829462046059BFFF751
:102760007FFF0C34A4B2761C3278002AE2D106B086
:10277000BDE8F08F4FF0100804F10800504502D971
:1027800000241035ADB205F11000484501D90024F0
:102790002546CDE90078327829462046059BFFF78B
:1027A0005FFF083416F8012FA4B2002AE4D1DEE757
:1027B0003CB50C46054B014618251888CDE90005A7
:1027C0006434A0B25B88FFF74BFF3CBD00000020E3
:1027D00003B5074882B018230288CDE900230A46D2
:1027E0004388BDF808106420FFF794FF0FBD000078
:1027F0000000002000B5012197B0080200F00AFC9B
:1028000002200F9000200521CDE910014FF08051EA
:10281000CDE914010621CDE90010082102911290A2
:1028200013901021CDE90310069009020790CDE91D
:1028300008010A900B900C900FA80D900E9068461E
:10284000FFF734F801210620FFF720F817B000BD8C
:1028500010B500224FF0D8432C241C8001E0598091
:10286000521C8242FBD310BDF8B50121084600F08E
:10287000F5FB0121602000F0F1FB0121080200F0CE
:10288000EDFB0121802000F0E9FB0121802000F018
:10289000E5FB03248DF8024018258DF803504CF217
:1028A0000370204EADF8000069463046FFF7DEF8B1
:1028B0004FF68070ADF8000069461B48FFF7D6F868
:1028C0008DF802408DF803501024ADF800406946A1
:1028D0003046FFF7CBF82020ADF8000069463046BF
:1028E000FFF7C4F82002ADF8000069460F48FFF773
:1028F000BDF80F4E0125ADF8005069463046FFF790
:10290000B5F88DF803408DF80250A401ADF80040F1
:1029100069463046FFF7AAF821463046FFF736F9F8
:10292000F8BD0000001401400018014000200140E3
:10293000001C014030B54FF0D8442A252580050AF7
:102940006580C5B265801044401E020A6280C0B234
:1029500060802B202080080A6080C8B26080C81880
:10296000401E010A6180C0B2608030BD01B5BDF873
:1029700000000149488008BD00000020F0B536275E
:10298000002201232A253F242B2679064FF0DF0C55
:10299000012806D0022813D0032814D004281FD100
:1029A00021E00F80082048800D804A804A804B80BB
:1029B0004C800E804A804A804B80A1F802C00FE014
:1029C0000F80682011E00F80C82048800D804A8069
:1029D0004A804B804C800E804A804A804B804C80DD
:1029E0002C200880F0BD0F80A82048800D804A80F0
:1029F0004A804B80A1F802C0EDE7000001B5BDF8A8
:102A000000000149088008BD000000200648B0F918
:102A100000104288C1EB81111144CA1701EB926189
:102A20008911018070470000B800002010B500F047
:102A300023F8012802D1000200F0F2F800F008F8B3
:102A4000022804D1BDE81040800200F0E9B810BDB2
:102A5000084843F67051B0F90000884201DD0120BA
:102A6000704741F6B861884201DA022070470020C1
:102A700070470000B80000200B4881688288C1EBD5
:102A8000C1211144C90A816046F2AC40814201D3A0
:102A90000120704745F67B50814203D3034800680C
:102AA000C005F5D400207047B80000209000002039
:102AB00010B501F003FA244CC0B32068C00506D558
:102AC000FFF7DAFF18B9206820F4807020602068D2
:102AD000400506D5FFF7BCFF18B9206820F48060D8
:102AE00020602068000506D5FFF7B2FF18B92068FE
:102AF00020F4006020602068800509D54FF4004173
:102B00001248FFF73CF818B1206820F400702060EC
:102B10002068400703D5206820F00400206020686A
:102B2000000703D5206820F008002060FFF764FA52
:102B3000012806D1206840F60C71084201D101201D
:102B400010BD002010BD00009000002000200140BA
:102B50000648B0F90000C0EB001000EB8000C11780
:102B600000EB5140C0F3CF3070470000B8000020A8
:102B70000348592180684843C0F3C73070470000BC
:102B8000B80000200148B0F900007047B8000020EC
:102B900010B500F037F8FEF7C5FDFFF731F9FFF784
:102BA0007BF900F03FFB00F00DFE0E480021018094
:102BB0004180006800F04EFC0B4940F62B10088065
:102BC000042001F0CDF90121084801F0DDFB00BF30
:102BD00001F0D0F90028FBD0BDE81040012000F042
:102BE00013BC0000A4000020AC000020002C014019
:102BF00003480021816042F61461018070470000A3
:102C0000B800002003490020486103494861034996
:102C100048617047A4010020840100206401002065
:102C200010B504464FF4167001F08EF900210948E2
:102C300001F0AAFB08480168214301600749072009
:102C4000087007490F200870BDE81040002000F010
:102C5000DBBB0000002C014090000020A8000020F9
:102C6000B4000020FEE7704770B50F23C4780178E8
:102C70000122F4B1144C2468457804F4E064C4F5EE
:102C8000E064240AC4F10406E3408478B5401C40A3
:102C90002C4301F1E021230181F80034007800F099
:102CA0001F018A404009800000F1E020C0F80021A7
:102CB00070BD01F01F0082404809800000F1E02053
:102CC000C0F8802170BD00000CED00E0024908430F
:102CD00002490860704700000000FA050CED00E0B2
:102CE0000907090E002806DA00F00F0000F1E020C5
:102CF00080F8141D704700F1E02080F80014704740
:102D00002DE9F04F2E4C40F62B13238040F61B7517
:102D100005804FF4006BA0F802B040F6CC06868028
:102D20004FF48047C7804FF0640EA0F818E04FF4CE
:102D3000005CA0F81AC00023DFF88890C36147F652
:102D4000FF78A0F80890A0F80A804FF0604A4FEA98
:102D50008834C0F80CA0C0E904431B484B610380D1
:102D60000D80A1F802B08E80CF80A1F818E0A1F804
:102D70001AC0CB61A1F80890A1F80A80C1E903A4A8
:102D80001249FA20536108804FF42F7010801020F0
:102D900050804FF4C87191800101D1804FF4FA71D5
:102DA000118350834BF64100D361108144F2BF7010
:102DB00050810748D06040421061BDE8F08F0000AC
:102DC000AC0000200080FFFFAA000020AE00002021
:102DD0000041B8FFF0B5431AB2F90050B2F904103F
:102DE0005D4391B159435469CE17611846EBE470C5
:102DF00014694FEAE476671A864104DBD468E61763
:102E00000F1BB04104DA546103E00020506100E080
:102E10005161D069191AB2F91800D3614843518839
:102E2000D488536995FBF1F193FBF4F31944538B68
:102E300090FBF3F00144B2F90A00884204DDB2F9D4
:102E40000800884200DC08B2F0BD00002DE9FC411A
:102E50004FF6FF70002100904FF4A0734FF4F07212
:102E60000846FFF7DFFB48F21F464FF48C78282313
:102E70004422414600200096FFF7D4FB1824002589
:102E8000CDE9005440F21D17334638A239461020D0
:102E9000FFF740FC4FF47846442228234146104671
:102EA0000096FFF7BFFBCDE90054334630A2394608
:102EB0005D20FFF72FFC4FF4FC6628234422414697
:102EC00088200096FFF7AEFBCDE90054334629A2D7
:102ED00039469120FFF71EFC4FF620562823442246
:102EE0004146CC200096FFF79DFBCDE900543346C8
:102EF00022A23946D620FFF70DFC40F2FF7644228D
:102F00002823414690000096FFF78CFBCDE9005442
:102F100033461CA2394640F21310FFF7FBFB760143
:102F20002823442241464FF4AA700096FFF77AFB0B
:102F3000CDE90054334615A239464FF4B270FFF77D
:102F4000E9FB4FF61F062823482241464FF4CC7078
:102F50000096FFF767FBCDE9005433460DA23946D2
:102F60004FF4D470FFF7D6FBBDE8FC8153454C000D
:102F700055500000444F574E000000004C45465449
:102F80000000000052494748540000004B455931A9
:102F9000000000004B45593200000000E0B5054636
:102FA000084601F079FD014613482BB22D1401604B
:102FB000B0F90060B0F9027003FB06F2D11702EB22
:102FC0005141CA1305FB07F1C81701EB5040A2EBB2
:102FD000E031204661F30F0003FB07F2D11702EB4B
:102FE0005141CA1305FB06F1CB1701EB534102EB2C
:102FF000E13161F31F40E0BD780000207047000020
:10300000034A516821F44041014351607047000078
:1030100000100240044A0029516901D0014300E038
:10302000814351617047000000100240044A0029AA
:10303000D16901D0014300E08143D16170470000B4
:1030400000100240044A0029116901D0014300E048
:10305000814311617047000000100240044A0029BA
:10306000916901D0014300E0814391617047000004
:1030700000100240044A0029D16801D0014300E059
:103080008143D160704700000010024010B5034832
:10309000FEF772FDC0F3821010BD00000010014069
:1030A00010B50F4A0F4CB2F90000B2F9021000FB44
:1030B00000F301FB0133A34211D91B0E3D3B0A4C27
:1030C000DBB234F813305843C41700EB5440C0133C
:1030D00010805943C81701EB5040C013508010BDF9
:1030E000A00000202196753D8066000870B5134E43
:1030F00004B20314B6F90050B6F9026004FB05F2FD
:10310000D11702EB5141CA1303FB06F1C81701EBBB
:10311000504002EBE031384661F30F0004FB06F249
:10312000D11702EB5141CA1303FB05F1CB1701EB99
:103130005341C2EBE13161F31F4070BD78000020C4
:103140002DE9F001DFF880800023B8F900409C46AB
:10315000A8F102001A4620214FEA040530F9046F55
:103160002344B0F902403244491EF7D19818C117E0
:1031700000EB91608311154F00247B81A8F10200C0
:103180005FF02001EA1A30F9046F02FB02CCF21A58
:10319000B0F9025002FB0244491EF3D10CEB0400CB
:1031A000C11700EB9160811103FB03F0C21700EB24
:1031B00052607A8CC01150438142D4BF012000205C
:1031C000B870BDE8F0017047E80100202801002038
:1031D0000D490288CA8242888A8182880A83C2880D
:1031E000CA8102894A8342898A8382890A82C28982
:1031F0004A82028A8A82428ACA83828A0A848269CD
:103200008A63808B488470472801002004498288A3
:103210008A81C288CA810288CA834088088470472C
:103220002801002070B5094D00246C62AC62EC628C
:103230002C63AC706C632C706C702C816C81802161
:103240000348FCF798FFEC7070BD000028010020D7
:10325000E80100201CB515488188ADF80010C18830
:10326000ADF8021041694FF46152890391FBF2F10C
:10327000ADF804108069FDF781F84FF066320C4B11
:10328000FCF784FF00220B4BFCF7F2FF0D22FDF749
:103290005EF80022084BFCF7EBFFFDF780F8ADF875
:1032A00006006846FFF7B2FF1CBD0000C400002006
:1032B00066661640000024400020CC4010B588B05F
:1032C0004FF49A60ADF8000040F63A50ADF80400B3
:1032D00043F2F100ADF808000120ADF810007F20A6
:1032E000BDF8101000EBD0704FEA41014010ADF86E
:1032F0001010F5D1BDF910008003FDF73FF8224A08
:10330000224BFCF743FF6FF00F02FDF720F8FDF7AB
:1033100046F81F4CADF80A0060694FF46151800314
:1033200090FBF1F0ADF80200A069FDF727F84FF02F
:103330006632184BFCF72AFF0022174BFCF798FF68
:103340000D22FDF704F80022144BFCF791FFFDF766
:1033500026F8ADF80600A088ADF81200E088ADF8B8
:1033600014004FF48040ADF80C004010ADF80E0092
:1033700040F2444006900820ADF81C006846FFF774
:1033800027FF08B010BD0000A7E8482EFF21094024
:10339000C400002066661640000024400020CC4097
:1033A0007047000010B518210C48FDF75FF90C4973
:1033B000088018210B48FDF759F90B4908800B4884
:1033C0000178022902D00078032805D10548083089
:1033D000016821F400410160012010BD0028014076
:1033E000BC00002000240140BA000020A8000020FA
:1033F0000448016841F40041016002480421083892
:10340000FDF7D9B80824014070B501460F4C1048AB
:1034100001290CD00022012101F024F9206820F4B8
:1034200080502060206840F40040206070BD21681A
:1034300041F4805121600121054600F095FF2846A6
:10344000BDE870400122114601F00CB9082401408A
:10345000002C01402DE9FF4F05B244F2A836754318
:10346000071442F210767743C7F1000C0CEB050607
:1034700000223D44C5F1000506EBD67605EBD57577
:10348000C84F14461346114676104FEA65050DD510
:10349000002D02DA4FF0050C15E0BCF1000F02DC44
:1034A0004FF0040C0FE04FF0030C0CE0002D02DB9A
:1034B0004FF0020C07E0BCF1000F02DC4FF0060CED
:1034C00001E04FF0010C87F801C04FF0000C87F8C5
:1034D00000C0BB4697F801804FEA204C42F21077BB
:1034E0000CFB07F900B244F2A83C00FB0CFE09EB10
:1034F0000E00404200EBD0704010C9F10007009070
:10350000381A42F2107C60440190C0170390009872
:103510004FEAE07AF81707EBD03907EB0E0000EB23
:10352000D0704FEA600E0098ACEB0707AEEB0000DE
:1035300060440090C01702904FEAEE70BE444FEA1C
:10354000EE77B8F1070F65D2DFE808F06404317850
:10355000A6D7FB000399019800EB913140F2E240BD
:1035600000EBA14082B205EBDA3002EB604084B29E
:10357000A4EB694083B2A2F6C410404280B2F128A5
:1035800003D900BF40F6C31107E1111B89B2B1EBAB
:10359000400F70D802F1F10081B240F6C4108142B0
:1035A000F2D301208BF80000F3E081B2F5E0029A3B
:1035B000009906EBD03001EB923240F2E24101EB90
:1035C000A2418AB205EBDA3102EB6141A2EB604025
:1035D0008CB283B2A4F6C410404280B2F12802D962
:1035E00040F6C31156E0A11A89B2B1EB400F3FD8A3
:1035F00004F1F10081B240F6C41081424AD30120A7
:103600008BF8000042E081B244E0674D28606748D3
:10361000674D28609BF800506648002D05887DD0D6
:1036200045F400550580634814300280001D048075
:10363000001D0380001D0180BDE8FF8F0EEB973257
:1036400040F2E24101EBA2418AB206EBD030A2EB9C
:10365000604083B203EB694084B2A4F6C4104042D8
:1036600080B2F128BCD8E11A89B2B1EB400F03D97E
:10367000A4F10F00C7E77FE004F1F10081B240F64A
:10368000C410814206D301258BF8005041F28730E7
:10369000401AB8E74848B8E70399019800EB913120
:1036A00040F2E24000EBA14082B205EBDA3002EBDF
:1036B000604084B2A4EB694083B2A3F6C4104042D8
:1036C00080B2F12803D900BF40F6C31110E0191BE6
:1036D00030E000BF03F1F10081B240F6C410814236
:1036E00006D301208BF8000041F28730401A81B2E6
:1036F0002D4D3148286031488AE7029A009906EB3F
:10370000D03001EB923240F2E24101EBA2418AB2A9
:1037100005EBDA3102EB61418CB201E03FE010E0F1
:10372000A2EB604083B2A3F6C410404280B2F128FD
:10373000CAD8991A89B2B1EB400FCBD9A3F10F00C7
:10374000D5E70EEB973240F2E24101EBA2418AB29B
:1037500006EBD030A2EB604083B203EB694084B249
:10376000A2F6C410404280B2F1283FF60BAFD11A46
:1037700089B2B1EB400F02D9A2F10F0015E702F1B7
:10378000F10081B240F6C410814206D301258BF8C6
:10379000005041F28730401A07E7094835E725F421
:1037A00000553FE7FA00002038240140003415009E
:1037B00038280140202C014000AC170000301500D3
:1037C00000B0170070B5324E00224FF490613046C1
:1037D000FCF753FF2F4C00254FF4E041A580E58016
:1037E00025813046FCF720FF01213046FCF712FF0F
:1037F00003213046FCF793FF002301220B213046C2
:10380000FCF768FF002302220C213046FCF762FF20
:10381000002303220D213046FCF75CFF04213046D3
:10382000FCF7C9FE01213046FCF781FF65800421C9
:103830003046FCF706FF0028F9D014213046FCF78B
:1038400015FFA18801EBD000A08018213046FCF7BD
:103850000DFFE18801EBD000E0801C213046FCF731
:1038600005FF218901EBD000208104213046FCF7BF
:10387000A2FE01213046FCF75AFF6088401C80B24E
:1038800060801028D3D3BDE8704000F00DBA00006E
:1038900000240140FA0000202DE9F04339494FF49B
:1038A0000044621E91F801C08B88CE880D89364F86
:1038B000DFF8D890D143BCF1070F1DD2DFE80CF040
:1038C0001C264848040426003D68A3EB45038B42B0
:1038D00002DA61F30F0006E0A34202DB62F30F009D
:1038E00001E063F30F00D9F80030A6EB43038B42ED
:1038F00004DA00BF61F31F40BDE8F083A34202DB9E
:1039000062F31F40F8E763F31F40F5E73B68A6EB5F
:1039100043038B4202DA61F31F4006E0A34202DB5D
:1039200062F31F4001E063F31F40D9F80030C5EB9C
:103930004303A3EB2043A34202DB62F30F00DBE768
:103940008B4202DA61F30F00D6E763F30F00D3E78F
:103950003E68A3EB46038B4202DA61F30F0006E0F8
:10396000A34202DB62F30F0001E063F30F00D9F81A
:103970000030C5EB430305B25B1BA342C0DA8B42A8
:10398000C1DAB7E7FA0000203C2401403C2801409E
:103990002DE9F04F93B04FF40040FFF731FB0121C8
:1039A0000846FFF737FB01211D20FFF757FB0121D8
:1039B0004802FFF753FB4FF4806A01215046FFF79E
:1039C0004DFB0121C802FFF749FB09A8FEF7E2F809
:1039D0003F20ADF8240000248DF8274009A9AC4809
:1039E000FEF744F8AB4800F0DBFC0FA800F0FEFF48
:1039F000ADF83C402020ADF83E0040F6C410ADF8D4
:103A000040004FF480770125ADF842708DF84450A6
:103A10000FA9A04800F09CFF684600F041FF60201D
:103A2000ADF800004FF00408ADF8048040F20550F6
:103A3000ADF80600ADF80840ADF80C40ADF8025006
:103A4000ADF80A40ADF80E406946924800F018FE05
:103A50006946904800F05AFE69468E4800F0A0FE84
:103A600009A8FEF797F84FF47060ADF82400182607
:103A7000DFF824B28DF827604FF003098DF8269007
:103A800009A95846FDF7F2FF4FF46040ADF8240055
:103A90008DF827608DF82690DFF8009209A9484636
:103AA000FDF7E4FF4FF4E0615846FEF730F809A84F
:103AB000FEF770F82803ADF824008DF8278009A9D7
:103AC0004846FDF7D3FF684600F0EAFE7020ADF8E7
:103AD0000000ADF8044040F6C310ADF80600ADF8A4
:103AE00008400820ADF80A00ADF80C40ADF80250CF
:103AF000ADF80E406946674800F096FE082165481B
:103B000000F0FEFD0821634800F040FE08216148F6
:103B100000F084FE08215F4800F0B8FEE802ADF82E
:103B20002C00ADF830701C20ADF83200ADF83440F8
:103B30006803ADF83600ADF82EA0ADF838400BA9FB
:103B4000544800F000FC2021524800F0C6FE8021BD
:103B5000504800F00CFC01214E4800F00BFC012104
:103B60004C4800F0D5FC01214A4800F0FDFB002242
:103B70000121484800F076FD00221021454800F060
:103B800071FDDFF81C814046FCF722FDDFF814913F
:103B90004846FCF71DFD01214046FCF70FFD0121C1
:103BA0004846FCF70BFD04A8FCF7D0FD4FF4A0201D
:103BB00004904FF46027E802CDE906708DF81450A8
:103BC0008DF815408DF8205004A94046FCF75EFDA5
:103BD00004A8FCF7BBFDE802CDE906708DF814508F
:103BE0008DF815408DF8205004A94846FCF74EFD8D
:103BF0004046FCF7A6FD4846FCF7A3FDC146DFF8AA
:103C0000A4804846FCF716FD07464046FCF712FD27
:103C10000742F6D1FFF7D6FD022147464046FCF7A2
:103C20007EFD002301220B213846FCF753FD0023C3
:103C300002220A213846FCF74DFD4FF4A060FFF741
:103C400045F812208DF828008DF829508DF82A406B
:103C50008DF82B500AA8FFF707F819208DF82800D7
:103C60008DF829508DF82A408DF82B500AA8FEF7C0
:103C7000FBFF8DF828608DF829408DF82A408DF8DB
:103C80002B500AA8FEF7F0FF13B0BDE8F08F00003C
:103C900000100140002C014000080140000C0140D0
:103CA000002401400028014070B51A4C0221204632
:103CB000FCF735FD184D02212846FCF730FD0023A6
:103CC00001220C212046FCF705FD002302220F21D2
:103CD0002046FCF7FFFC00212046FCF7A5FC012153
:103CE0002846FCF797FC0D492046FCF753FC0F21B2
:103CF0002046FCF757FC002240F2AE712046FCF74C
:103D000057FC2046BDE8704001224FF4B861FCF733
:103D1000B4BC000000240140002801400002400023
:103D20000CB50021264801910091026842F48032CE
:103D300002604FF4A063026802F400320092019A1C
:103D4000521C0192009A12B9019A9A42F3D1026868
:103D5000920333D5012100911A490A6842F01002FA
:103D60000A600A6822F003020A600A6842F002024E
:103D70000A604168416041684160416841F4806186
:103D80004160416821F47C114160416841F4E811CF
:103D90004160016841F08071016001688901FCD5D2
:103DA000416821F003014160416841F00201416036
:103DB0004168C1F381010229FAD10CBD00910CBD0B
:103DC000001002400020024070B5204CA08810B1C5
:103DD000A088401EA080E08810B1E088401EE080EE
:103DE000208910B12089401E2081608808B1401EC2
:103DF00060806089032510B1401E608104E0658108
:103E0000FFF79EF9FFF726FA207818B12078401EB8
:103E1000207070BD25700E480068C1070D480078FD
:103E20000ED00328F5D1FDF741FFA0F59851883950
:103E300002D10820FEF7F4FEBDE87040FDF7EABBB2
:103E40000328E6D1BDE87040FDF702BD0401002063
:103E500090000020A80000200F4810B5016841F034
:103E60000101016041680D4A1140416001680C4A3E
:103E700011400160016821F480210160416821F452
:103E8000FE0141604FF41F018160FFF749FF0549C2
:103E90004FF00060086010BD001002400000FFF805
:103EA000FFFFF6FE08ED00E00348008908B100209E
:103EB00070470120704700000401002003488088FB
:103EC00008B1002070470120704700000401002065
:103ED0000348C08808B100207047012070470000E7
:103EE0000401002070B5144800684FF0E026C0F3CC
:103EF000022448F69F40706175170F212846FEF78F
:103F0000EFFE0020B06107203061C4F107000428F3
:103F100000D90420211D072901D2002400E0E41E5D
:103F200001218140491E01F00301A1402846BDE85E
:103F30007040FEF7D5BE00000CED00E0014908819D
:103F4000704700000401002001498880704700008C
:103F5000040100200149C8807047000004010020CE
:103F60004FF6FF7101EA40000149488070470000A8
:103F7000040100200348408808B100207047012058
:103F8000704700000401002070B5048C24F0010487
:103F90000484058B048C4FF6FF7606EA0313134363
:103FA00025F0F3050E4A2B4390420ED00D4A904265
:103FB0000BD0B0F1804F08D00B4A904205D00B4A8D
:103FC000904202D00A4A904202D124F0020201E05B
:103FD00024F00A020A4342F001010383018470BD08
:103FE000002C014000340140000400400008004063
:103FF000000C0040F0B5048C24F010040484078BFE
:10400000048C4FF6FF7527F4734705EA03333B43EF
:1040100005EA02221A43114B05EA011698420ED016
:104020000F4B98420BD0B0F1804F08D00D4B984207
:1040300005D00D4B984202D00C4B984205D124F08C
:104040002001314341F0100104E024F0A0030B43B0
:1040500043F0100102830184F0BD0000002C0140F8
:10406000003401400004004000080040000C004003
:1040700010B54FF40070FEF7D3FDBDE8104080216D
:10408000014800F074B90000002C014010B5012176
:10409000034800F069F9BDE81040FFF7A9B9000036
:1040A000002C0140704700002DE9F047DFF88882BE
:1040B0000121404600F030FA0026A04F012580B1D2
:1040C0000121404600F050F9B878FF2802D2B878B4
:1040D000401CB870B878022801D3FD713E82BDE85B
:1040E000F0873C78FEF7D2FF02210A1FCB1E387002
:1040F000032837D0052817D0062851D07F203872E2
:104100000221C246404600F02FF9B9894FF6FF79E7
:10411000494502D2B889401CB881787805285DD01D
:104120007878401C78705AE0052C0AD0062C10D004
:10413000032C10D097F9080000280EDA47F6FF701C
:1041400042E097F90800002801DA397207E03A7274
:10415000F4E73D7203E03B72F0E77F28D0D045F2F0
:10416000555031E0032C0AD0052C10D0062C10D06D
:1041700097F9080000280EDA4DF2545024E097F920
:104180000800002801DA397207E03A72F4E73D725C
:1041900003E03B72F0E77F28B2D04AF6AA2013E092
:1041A000062C04D0032C11D0052C11D006E097F971
:1041B0000800002801DA397200E03A7297F9080025
:1041C000002807DA42F6AB20F88199E73D7203E058
:1041D0003B72F7E77F2893D0FE8191E77E70FE71F6
:1041E000B878DFF85481564C002808F1280850466A
:1041F00041D000F08FF9B8F8001043463A4607E086
:1042000092F802C0ACF1010C82F802C000F58030D7
:1042100092F802C0BCF1000FF2D14FF400484FF405
:10422000803C604507D305EB4101400889B2414518
:10423000F7D34946484692F801C00CEB4C0C24F8E1
:104240001C00507800EB400004EB40004180117AE4
:10425000507800EB400004EB40000171107908B188
:10426000167133E01888B0F5487F2FD21888401CAB
:10427000188015712AE000F04DF9797801EB4101C1
:1042800024F811003A7A797801EB410104EB4101FD
:104290000A71B8F800104246FB7843B17878491C9F
:1042A00000EB400004EB40004180FE700EE0B0F5F2
:1042B000AA4F3AD21088B8B3787800EB400004EBEC
:1042C000400041801088401E1080FD70B879B846CB
:1042D00028B398F80100C44600EB400034F8107091
:1042E00098F8010000EB400004EB4000428898F889
:1042F000010000EB400004EB400090F904100020A6
:1043000000EB400324F8137004EB43035A80197147
:10431000401C0528F4D18CF806608CF80550FDF798
:104320008BFCA8F81000DAE6FFE7787800EB400095
:1043300004EB40004180C9E700040040E800002091
:10434000C4010020704710B50A884B88CC881A43F6
:104350008B8823431A430B891A434B8989891A4353
:104360000A43A0F8442010BDC94301827047C943E5
:10437000018270470029018802D041F0010101E06B
:1043800021F0010101807047002930F8441F02D05C
:1043900041F4004101E0C1F30E01018070470000CB
:1043A0004B4910B5884202D10121C41486E0B0F116
:1043B000804F09D0474988420DD101210220FEF7E4
:1043C00041FE0021022064E001210846FEF73AFE8A
:1043D000002101205DE04049884206D101210420EE
:1043E000FEF730FE0021042053E03C49884206D10C
:1043F00001210820FEF726FE0021082049E0384967
:10440000884206D101211020FEF71CFE0021102059
:104410003FE03449884206D101212020FEF712FEF8
:104420000021202035E03049884202D10121441486
:1044300044E02E49884202D10121CC043EE02C49BF
:10444000884202D101210C0538E02A49884202D174
:1044500001214C0532E02849884206D10121402043
:10446000FEF7F0FD0021402013E02449884206D1E8
:1044700001218020FEF7E6FD0021802009E020498F
:1044800088420AD1841501212046FEF7DBFD002178
:104490002046BDE81040FEF7D5BD1A49884202D13A
:1044A00001210C040AE01849884202D101214C0480
:1044B00004E0164988420AD101218C042046FEF707
:1044C000D9FD2046BDE810400021FEF7D3BD10BD48
:1044D000002C01400004004000080040000C004097
:1044E000001000400014004000340140004C014026
:1044F000005001400054014000180040001C0040E2
:1045000000200040004001400044014000480140BC
:1045100081827047808E704702460020128A0A42CC
:1045200000D00120704700002DE9F05F0D460446E1
:104530000888434FDFF80CC1DFF80C814988AA884E
:104540002B894FF0804960B3042833D04FF6FF7EAB
:10455000082838D0208C9B4620F480502084A38BE0
:10456000268C704600EA022223F473431A4300EAC1
:104570000B3010430EEA013EBC420BD0644509D01B
:104580004C4507D0444505D0304A944202D0304BC8
:104590009C4248D126F4005141EA0E0141F4805179
:1045A00046E02046FFF7F0FCE9882046BDE8F05FD2
:1045B00000F0A5B92046FFF71DFDE9882046BDE8BB
:1045C000F05F00F0A4B9208C20F480702084B4F84F
:1045D0001CA0208C0EEA031313432AF0F30A0EEA00
:1045E000012B43EA0A03BC420BD0644509D04C4579
:1045F00007D0444505D0154A944202D0144A94424B
:1046000004D120F4007040EA0B0002E020F42060A6
:10461000084340F48070A3832084E9882046BDE8E5
:10462000F05F00F080B926F402420A4342F4805160
:10463000A08320462184E988BDE8F05F00F07BB9C3
:10464000002C0140003401400004004000080040FC
:10465000000C004000210180418001228280C18045
:1046600001817047002A828901D00A4300E08A4311
:1046700082817047018921F00701018170470000A4
:1046800030B5028C22F001020284028C8388048BF4
:1046900022F0020224F073050C882C430D89154387
:1046A0004A882A43114DA8420BD0114DA84208D088
:1046B000104DA84205D0104DA84202D00F4DA8427F
:1046C0000DD122F008054A8923F440732A4322F0D1
:1046D00004058A882A438D891D43CB892B43838017
:1046E0000483C9888186028430BD0000002C01400B
:1046F00000340140004001400044014000480140B6
:10470000028B22F008020A430283704770B5028CC4
:1047100022F010020284028C8488038B0D8823F41B
:10472000E6464FF6FF7303EA052535430E8922F06E
:10473000200203EA061616434A8803EA02123243AD
:10474000104EB04202D0104EB04215D122F0800679
:104750004A8924F4406403EA0212324322F04006FC
:104760008A8803EA021232438E8903EA86062643C8
:10477000CC8903EA8404344384800583C988018793
:10478000028470BD002C014000340140028B4FF6C2
:10479000FF7322F4006203EA012111430183704791
:1047A00070B5028C22F480720284028C8488838B20
:1047B0000D8823F073031D4322F400730E894FF616
:1047C000FF7202EA06261E434B8802EA03233343A4
:1047D000104EB04202D0104EB04215D123F4006604
:1047E0004B8924F4405402EA0323334323F48066C4
:1047F0008B8802EA032333438E8902EA0616264396
:10480000CC8902EA0414344384808583C988818773
:10481000038470BD002C014000340140828B22F0E3
:1048200008020A438283704770B5028C22F48052DA
:104830000284048C8288838B0D8823F4E6464FF62D
:10484000FF7303EA0525354324F400560C8903EA77
:10485000043434434E8803EA06362643094CA0420A
:1048600002D0094CA04205D122F480448A8903EA8F
:104870008212224382808583C988A0F84010068472
:1048800070BD0000002C014000340140828B4FF6C7
:10489000FF7322F4006203EA012111438183704710
:1048A0000021018041808180C1800181418181811D
:1048B000C18170470185828270470029818802D0BA
:1048C00041F0800101E021F0800181807047028980
:1048D00022F070020A4302817047828822F070023F
:1048E000828082880A4382807047028922F0070210
:1048F000028102890A430281704781847047028BDA
:1049000022F00C020283028B0A4302837047028B5F
:1049100022F440620283028B4FF6FF7303EA012107
:104920000A4302837047828B22F00C028283828BBF
:104930000A4382837047828B22F440628283828B97
:104940004FF6FF7303EA01210A4382837047000098
:1049500030B502881B4B1C4C98420DD0A0420BD0A6
:10496000B0F1804F08D0194DA84205D0184DA8428B
:1049700002D0184DA84203D122F070054A882A437C
:10498000154DA84206D0154DA84203D022F440751B
:10499000CA882A4302808A8882850A8802859842CA
:1049A0000AD0A04208D00E4A904205D00D4A90424B
:1049B00002D00D4A904201D1097A018601218182FB
:1049C00030BD0000002C01400034014000040040D4
:1049D00000080040000C004000100040001400409F
:1049E0000040014000440140004801404FF6FF7183
:1049F000818000210180C1804180017270470029BF
:104A0000018802D041F0040101E021F0040101809D
:104A100070470000F8B501214020FEF71FFB082079
:104A2000ADF8000001241B4F8DF8024010258DF8D1
:104A3000035069463846FDF719F8ADF8005069464D
:104A40003846FDF713F82020ADF800008DF802403D
:104A500048268DF8036069463846FDF707F8402080
:104A6000ADF800008DF802408DF8035069463846D5
:104A7000FCF7FCFF0420ADF800008DF802408DF833
:104A8000036069463846FCF7F1FF40213846FDF7E0
:104A90007DF8F8BD0018014010B500F500429209FC
:104AA00012F44074C0F387121649C2F1FF0316D006
:104AB000B4F5807F1CD0B4F5007F09D0B4F5407FF9
:104AC0001FD131F8133031F8121063F31F400DE09D
:104AD00031F8122031F8131062F31F400FE031F863
:104AE000122031F81310524262F31F40494206E08F
:104AF00031F8133031F812105B4263F31F4061F359
:104B00000F0010BD06670008FEE701B5002004E0B5
:104B10000B21491EC9B2FCD2401C00998842F7D330
:104B200008BD00007CB50C460546002201A9684678
:104B300000F072F820B14FF6FF70288020807CBD15
:104B40000C4A0098D2E9151303FB0013D66D0199A6
:104B500006FB0133D66E93FBF6F32B80D2E91835B2
:104B600005FB0030936E03FB0100D16E90FBF1F06A
:104B7000E4E700000800002070B5264C064610212E
:104B80002046FDF703F808212046FCF7FFFF00252B
:104B9000C5F1070026FA00F0C0074FF010012046CB
:104BA00002D0FCF7F5FF01E0FCF7F0FF0520FFF76E
:104BB000ACFF08212046FCF7EBFF0520FFF7A5FF1F
:104BC00008212046FCF7E2FF6D1CEDB2082DDFD373
:104BD0000025102126462046FCF7D8FF0821304644
:104BE000FCF7D6FF002408213046FCF7CFFF202138
:104BF0003046FCF7C4FFC4F10B018840284385B25E
:104C000008213046FCF7C4FF641CE4B20C2CEAD344
:104C1000284670BD001801402DE9F0438DB089464B
:104C200080461646002528216846FBF7A4FA4B4F1C
:104C30006C4604213846FCF7A2FF18B1CEB10A2D0C
:104C4000F7D314E00BA90AA800F08AF8BDF82800F1
:104C500024F8150004EB4501BDF82C006D1C88827A
:104C6000EDB2ECE704213846FCF789FF08B9002EC5
:104C7000F8D10A2D09D04FF0FF30C8F80000C9F86C
:104C8000000001200DB0BDE8F083BDF90000BDF9C2
:104C900014208446174661463B46012534F91560C9
:104CA000864201DA304602E08E4200DD31466D1C5C
:104CB000EDB20A2DF2D3012504EB4506B6F91460D6
:104CC000964201DA324602E09E4200DD33466D1C18
:104CD000EDB20A2DF0D3BDF90220BDF90430BDF9C3
:104CE0000640624423441A44BDF908301A44BDF911
:104CF0000A301A44BDF90C301A44BDF90E301A447A
:104D0000BDF910301A44BDF912301A44121A521A61
:104D1000D310C8F80030BDF91620BDF91830BDF920
:104D20001A403A4423441A44BDF91C301A44BDF9D0
:104D30001E301A44BDF920301A44BDF922301A44FD
:104D4000BDF924301A44BDF926301A44101A401A0D
:104D5000C1100020C9F8001094E7000000180140BD
:104D600070B506460D469020FFF706FF04460A2060
:104D7000FFF7CBFED020FFF7FFFE2C80308070BD08
:104D800002E008C8121F08C1002AFAD17047704714
:104D9000002001E001C1121F002AFBD17047000072
:104DA0004FF48060FDF792FFFCF7E4FDFEF7F0FDA5
:104DB000FCF790FFFEF782FAFEF734FAFFF792F85D
:104DC000374A38493848FDF79BFFFDF71BF9FDF7D7
:104DD0000FFFFBF7C5FC1F20FDF710FE4FF6FF701D
:104DE000FDF7C4FDFCF7E2FB304F0026304C314D9F
:104DF000FBF76EFDFDF71AFEFDF7B0F920780828E5
:104E0000F6D2DFE800F00405040E1E04323CEFE7A2
:104E1000FDF7BEFE40F6B830FFF7A2F80220207082
:104E2000E6E7FDF75BF810B10820FDF7F9FEFCF7A7
:104E30003DFFA0F598518839DAD10820FDF7F0FE42
:104E4000D6E700211C48FFF79FFA062020700020BB
:104E5000FEF7DAFA1948468006800068FEF7FAFA8B
:104E60004FF4FA60FFF770F8C2E7FFF727F8012860
:104E7000BED1FDF733F80028BAD02670B8E7FDF7A9
:104E800017FE0128B4D12868C00701D03E7001E0A8
:104E90000C2038702670286840F002002860A7E7D0
:104EA000A40100206401002084010020B40000203F
:104EB000A800002090000020002C0140A400002049
:104EC00000000000000000000000000000000000E2
:104ED000000018181818180808080800181800000A
:104EE0000000003C2424000000000000000000003E
:104EF000000000442424FF242424FF221212000076
:104F00000000083C2E6A0E0C38686A6A2E1C0800E5
:104F10000000002625151D166858545452620000E2
:104F20000000001C3434140C0E4A5363F61C0000BD
:104F30000000000808080000000000000000000059
:104F400000004020301010101010101020204000E1
:104F50000000020404080808080808080406030002
:104F600000000018187E183C5A18180000000000B5
:104F70000000000000080808FF0808080000000002
:104F80000000000000000000000000000606020013
:104F900000000000000000007F0000000000000092
:104FA00000000000000000000000000006060000F5
:104FB0000000004020201010080804040201000036
:104FC0000000003C26424242424242623418000045
:104FD00000000010181E1A181818181818180000C9
:104FE0000000003C66426020301008047E7E000015
:104FF0000000003C664260303060404226180000ED
:1050000000000020303828242622FF202020000025
:105010000000007C06020A3E62404063361C00002D
:105020000000001018080C3E46C2C242663C000058
:105030000000007E40602030101808080C0C0000B2
:105040000000003C6242623E3E424342663C000039
:105050000000003C62434363363C1018080C00001B
:1050600000000000000000180000000018180000F8
:1050700000000000000000180000000018180800E0
:105080000000004020100806020408102040000024
:105090000000000000007F0000007F000000000012
:1050A0000000000204081020402010080602000042
:1050B0000000003C66626030100800000808000034
:1050C0000000003C4279696555555529023C0000B5
:1050D0000000001818183C24243E664242C3000019
:1050E0000000003E6242423E3E4242427E1E0000BE
:1050F0000000003C66424202024242466C38000018
:105100000000001E32624242424242623E0E0000F5
:105110000000007E0202027E7E0202027E7E00000D
:105120000000007E020202023E02020202020000B1
:105130000000003C66424202727242466C58000017
:10514000000000424242427E7E4242424242000011
:105150000000001818181818181818181818000047
:105160000000004040404040404042623E1C000081
:105170000000006222121A0E1E12322262C20000C9
:105180000000000202020202020202027E7E000011
:1051900000000066666666765E5A5A5A5A4A0000F1
:1051A0000000004246464E4A5A5272626262000055
:1051B0000000003C6642424343434262261800001E
:1051C0000000003E624242427E0E020202020000E5
:1051D0000000003C6642424343435272267800007E
:1051E0000000003E624242623E12322262420000F1
:1051F0000000003C6662060C38604242663C0000DB
:105200000000007E18181818181818181818000030
:10521000000000424242424242424242663C00009A
:10522000000000434262662624341C18181800004F
:10523000000000D95B5B5A5A565666662626000067
:105240000000006226241C18181C3426624300004B
:10525000000000436226341C1818181818180000A3
:105260000000007E60203010080C04067E7E0000E6
:1052700000780808080808080808080808087800DE
:105280000000000204040408081010102020404010
:10529000001E1010101010101010101010101E0012
:1052A0000018344200000000000000000000000070
:1052B000000000000000000000000000000000FFEF
:1052C000000C1810000000000000000000000000AA
:1052D000000000000000003C62706E62725C000022
:1052E000000000020202023E62424262661A0000B0
:1052F000000000000000003C62020242661C000048
:10530000000000404040407E62424262665C000015
:10531000000000000000003C627E0242663800008F
:10532000000000780808087E08080808080800003F
:10533000000000000000007C22223C023E62423E4F
:10534000000000020202027A46424242424200004B
:105350000000001818000018181818181818000075
:105360000000003030000030303030303030321E3D
:1053700000000002020202321A1E162262420000DF
:105380000000001818181818181818181818000015
:1053900000000000000000EFDBDBDBDBDBDB0000FC
:1053A000000000000000007A4642424242420000F3
:1053B000000000000000003C62424242661800000B
:1053C000000000000000003E62424262661A0202D3
:1053D000000000000000007E62424262665C4040C5
:1053E00000000000000000340C0404040404000069
:1053F000000000000000003C66063842663C0000E9
:10540000000000000808083F08080808487000006D
:10541000000000000000004242424262765C000050
:1054200000000000000000426624241C1818000040
:1054300000000000000000DB5B5A566626240000D6
:1054400000000000000000263418183C264200002E
:1054500000000000000000426624241C1818080EFA
:10546000000000000000007E30100804067E0000EE
:10547000006030303030303010303030303020008C
:10548000181818181818181818181818181818189C
:1054900000060404040404040804040404040400CE
:1054A000044E720000000000000000000000000038
:1054B00000000000000000000000000000000000EC
:1054C00000000000000000000000000000000000DC
:1054D00000000000000000000000000000000000CC
:1054E00000000000000060006000600060006000DC
:1054F00060006000600060006000600060002000EC
:10550000000000007000700070000000000000004B
:105510000000000000000000980198019801980127
:1055200098000000000000000000000000000000E3
:10553000000000000000000000000000000000006B
:105540000000000000000000100310031003180307
:105550001801FF07FF07080188018801FF07FF07FF
:105560008C008C008C008400C4000000000000004F
:105570000000000000002000F000F801AC032C0344
:105580002C032C003C007800E000E001A00326037F
:1055900026032E03AC03FC01F000200020000000D5
:1055A00000000000000000000C021E0112011201A8
:1055B0009200920052005E002C03A0079004900419
:1055C000D00488048804840704030000000000005D
:1055D00000000000000000007000F8008C008C014A
:1055E0008C00CC00780038003C003E066606E602DF
:1055F000C60386038E07FC06700000000000000052
:1056000000000000000000003000300030003000DA
:10561000300000000000000000000000000000005A
:10562000000000000000000000000000000000007A
:105630000000000000000006000380018000C000A0
:10564000C00040004000600060006000400040007A
:105650004000C00080008001000300060000000040
:1056600000000000020006000C00080018001000F6
:10567000300020002000200020002000200020001A
:1056800030001000180008000C00060002000000A6
:105690000000000000000000600060006204660678
:1056A000FE07F801F000FC036E0762046000600072
:1056B00000000000000000000000000000000000EA
:1056C000000000000000000000000000000060007A
:1056D0006000600060006000FF0760006000600024
:1056E00060006000000000000000000000000000FA
:1056F00000000000000000000000000000000000AA
:105700000000000000000000000000000000000099
:10571000000000000C000C000C0008000400000059
:105720000000000000000000000000000000000079
:105730000000000000000000FF0700000000000063
:105740000000000000000000000000000000000059
:105750000000000000000000000000000000000049
:105760000000000000000000000000000000000039
:10577000000000000C000C000C0000000000000005
:10578000000000000000000400040002000200010C
:1057900080018000C00040002000200010001000A8
:1057A00008000C00040006000200000000000000D9
:1057B00000000000000000007000F8019C030C03D2
:1057C000060306060606060606060606060606067C
:1057D00006030C039C03F8016000000000000000B9
:1057E0000000000000000000400060007000780031
:1057F0006C00640060006000600060006000600099
:105800006000600060006000000000000000000018
:105810000000000000000000F000FC018C03060303
:1058200006030003000380018001C00060007000D7
:1058300038001C000C00FE07000000000000000003
:105840000000000000000000F000F8010C03060357
:10585000060300030003E001E001800300030006EB
:10586000060606038C03F80170000000000000002B
:10587000000000000000000000018001C001C00124
:10588000E001B001B00198018C018C018601FF0F8D
:10589000FF0F800180018001000000000000000077
:1058A00000000000000000000000FC030C000C00E1
:1058B0000C000400FE01CE030603000300060006F0
:1058C000030306038603FC017000000000000000D3
:1058D0000000000000000000C001C0006000600087
:1058E00030001800F800FC030C0706060606060642
:1058F000060606060C03F803F00000000000000096
:1059000000000000000000000000FE070006000389
:10591000000380018001C000C000600060006000E2
:1059200030003000300018000000000000000000CF
:1059300000000000000000007000FC010C030603E2
:10594000060306038C03FC01FC018E030606060613
:10595000060606060E03FC01F00000000000000031
:1059600000000000000000007000FC018E03060330
:1059700006070307060306038E03FC01F001C000BF
:10598000E00060003000300018000000000000005F
:105990000000000000000000000000000000000007
:1059A0000000000060006000000000000000000037
:1059B00000000000600060006000000000000000C7
:1059C00000000000000000000000000000000000D7
:1059D0000000000060006000000000000000000007
:1059E0000000000060006000600020002000000057
:1059F0000000000000000000000400038001C0005F
:105A00006000300018000C0006000C001800300088
:105A10006000C000800100030004000000000000DE
:105A20000000000000000000000000000000000076
:105A30000000FF070000000000000000FF07FF0754
:105A40000000000000000000000000000000000056
:105A50000000000000000000020006000800300006
:105A60006000C00080010003000600038001C00048
:105A70006000300008000600020000000000000086
:105A800000000000000000007000F8019C030C03FF
:105A9000060300038003C001C00060006000200016
:105AA00000000000600060006000000000000000D6
:105AB0000000000000000000E000180104020404DF
:105AC000E20592059A05990489048904C904CA0269
:105AD000BA03020004000801F0000000000000000A
