:020000040800F2
:1000000000C00020212500081D1F00081F1F000838
:10001000211F0008231F0008251F00080000000002
:100020000000000000000000000000006152000815
:10003000271F000800000000015300084553000876
:100040006925000869250008692500086925000858
:100050006925000869250008692500086925000848
:100060006925000869250008692500086925000838
:100070006925000869250008692500086925000828
:100080006925000869250008692500086925000818
:100090006925000869250008692500086925000808
:1000A00069250008692500086925000869250008F8
:1000B000291F0008391F0008692500086925000864
:1000C00069250008692500086925000869250008D8
:1000D00069250008491F0008591F00086925000804
:1000E00069250008692500086925000869250008B8
:1000F00069250008692500086925000869250008A8
:100100006925000869250008692500086925000897
:100110006925000869250008691F0008791F000883
:100120006925000869250008692500086925000877
:1001300000000000000000000000000000000000BF
:1001400000000000000000000000000000000000AF
:10015000000000000000000000000000000000009F
:10016000000000000000000000000000000000008F
:10017000000000000000000000000000000000007F
:10018000000000000000000000000000000000006F
:10019000000000000000000000000000000000005F
:1001A000000000000000000000000000000000004F
:1001B000000000000000000000000000000000003F
:1001C000000000000000000000000000000000002F
:1001D000000000000000000000000000000000001F
:0401E0005FF8E0F1F3
:1001F00010B5054C237833B9044B13B10448AFF361
:1002000000800123237010BDC00900200000000001
:1002100058EC000808B5034B1BB103490348AFF382
:10022000008008BD00000000C409002058EC000850
:1002300081F0004102E000BF83F0004330B54FEA97
:1002400041044FEA430594EA050F08BF90EA020F04
:100250001FBF54EA000C55EA020C7FEA645C7FEA97
:10026000655C00F0E2804FEA5454D4EB5555B8BFBA
:100270006D420CDD2C4480EA020281EA030382EA2B
:10028000000083EA010180EA020281EA0303362DBD
:1002900088BF30BD11F0004F4FEA01314FF4801C90
:1002A0004CEA113102D0404261EB410113F0004FA2
:1002B0004FEA03334CEA133302D0524263EB430359
:1002C00094EA050F00F0A780A4F10104D5F1200EF7
:1002D0000DDB02FA0EFC22FA05F2801841F1000152
:1002E00003FA0EF2801843FA05F359410EE0A5F126
:1002F00020050EF1200E012A03FA0EFC28BF4CF057
:10030000020C43FA05F3C01851EBE37101F000450C
:1003100007D54FF0000EDCF1000C7EEB00006EEB19
:100320000101B1F5801F1BD3B1F5001F0CD34908A3
:100330005FEA30004FEA3C0C04F101044FEA4452FA
:1003400012F5800F80F09A80BCF1004F08BF5FEA81
:10035000500C50F1000041EB045141EA050130BD61
:100360005FEA4C0C404141EB0101013C28BFB1F573
:10037000801FE9D291F0000F04BF01460020B1FABE
:1003800081F308BF2033A3F10B03B3F120020CDA91
:100390000C3208DD02F1140CC2F10C0201FA0CF06F
:1003A00021FA02F10CE002F11402D8BFC2F1200CD4
:1003B00001FA02F120FA0CFCDCBF41EA0C0190408A
:1003C000E41AA2BF01EB0451294330BD6FEA0404D3
:1003D0001F3C1CDA0C340EDC04F11404C4F12002BE
:1003E00020FA04F001FA02F340EA030021FA04F3D0
:1003F00045EA030130BDC4F10C04C4F1200220FA27
:1004000002F001FA04F340EA0300294630BD21FA64
:1004100004F0294630BD94F0000F83F4801306BF2A
:1004200081F480110134013D4EE77FEA645C18BF1E
:100430007FEA655C29D094EA050F08BF90EA020FB5
:1004400005D054EA000C04BF1946104630BD91EAAD
:10045000030F1EBF0021002030BD5FEA545C05D1B0
:100460004000494128BF41F0004130BD14F58004EF
:100470003CBF01F5801130BD01F0004545F0FE4163
:1004800041F470014FF0000030BD7FEA645C1ABF98
:10049000194610467FEA655C1CBF0B46024650EACF
:1004A000013406BF52EA033591EA030F41F40021FB
:1004B00030BD00BF90F0000F04BF0021704730B581
:1004C0004FF4806404F132044FF000054FF0000156
:1004D00050E700BF90F0000F04BF0021704730B517
:1004E0004FF4806404F1320410F0004548BF4042EC
:1004F0004FF000013EE700BF42004FEAE2014FEA41
:1005000031014FEA02701FBF12F07F4393F07F4F1B
:1005100081F06051704732F07F4208BF704793F01E
:100520007F4F04BF41F40021704730B54FF4607431
:1005300001F0004521F000411CE700BF50EA010234
:1005400008BF704730B54FF000050AE050EA0102DD
:1005500008BF704730B511F0004502D5404261EB4D
:1005600041014FF4806404F132045FEA915C3FF48E
:10057000D8AE4FF003025FEADC0C18BF03325FEA2B
:10058000DC0C18BF033202EBDC02C2F1200300FADC
:1005900003FC20FA02F001FA03FE40EA0E0021FA01
:1005A00002F11444BDE600BF70B54FF0FF0C4CF4EF
:1005B000E06C1CEA11541DBF1CEA135594EA0C0FA1
:1005C00095EA0C0F00F0DEF82C4481EA030621EADC
:1005D0004C5123EA4C5350EA013518BF52EA033517
:1005E00041F4801143F4801338D0A0FB02CE4FF0C9
:1005F0000005E1FB02E506F00042E0FB03E54FF0F9
:100600000006E1FB03569CF0000F18BF4EF0010EF0
:10061000A4F1FF04B6F5007F64F5407404D25FEAEC
:100620004E0E6D4146EB060642EAC62141EA55519F
:100630004FEAC52040EA5E504FEACE2EB4F1FD0CE1
:1006400088BFBCF5E06F1ED8BEF1004F08BF5FEA5F
:10065000500E50F1000041EB045170BD06F0004611
:1006600046EA010140EA020081EA0301B4EB5C04BE
:10067000C2BFD4EB0C0541EA045170BD41F48011B6
:100680004FF0000E013C00F3AB8014F1360FDEBFDB
:10069000002001F0004170BDC4F10004203C35DAB7
:1006A0000C341BDC04F11404C4F1200500FA05F33A
:1006B00020FA04F001FA05F240EA020001F00042DB
:1006C00021F0004110EBD37021FA04F642EB060151
:1006D0005EEA430E08BF20EAD37070BDC4F10C047B
:1006E000C4F1200500FA04F320FA05F001FA04F23F
:1006F00040EA020001F0004110EBD37041F100012B
:100700005EEA430E08BF20EAD37070BDC4F1200535
:1007100000FA05F24EEA020E20FA04F301FA05F29D
:1007200043EA020321FA04F001F0004121FA04F245
:1007300020EA020000EBD3705EEA430E08BF20EA15
:10074000D37070BD94F0000F0FD101F0004640004F
:1007500041EB010111F4801F08BF013CF7D041EAD1
:10076000060195F0000F18BF704703F000465200D5
:1007700043EB030313F4801F08BF013DF7D043EAA6
:100780000603704794EA0C0F0CEA135518BF95EA5C
:100790000C0F0CD050EA410618BF52EA4306D1D1E3
:1007A00081EA030101F000414FF0000070BD50EA02
:1007B000410606BF1046194652EA430619D094EA8C
:1007C0000C0F02D150EA013613D195EA0C0F05D176
:1007D00052EA03361CBF104619460AD181EA0301CA
:1007E00001F0004141F0FE4141F470014FF0000082
:1007F00070BD41F0FE4141F4780170BD70B54FF01D
:10080000FF0C4CF4E06C1CEA11541DBF1CEA13559C
:1008100094EA0C0F95EA0C0F00F0A7F8A4EB05047E
:1008200081EA030E52EA03354FEA013100F0888075
:100830004FEA03334FF0805545EA131343EA12633E
:100840004FEA022245EA111545EA10654FEA0026F3
:100850000EF000419D4208BF964244F1FD0404F5AC
:10086000407402D25B084FEA3202B61A65EB030508
:100870005B084FEA32024FF480104FF4002CB6EBC5
:10088000020E75EB030E22BFB61A754640EA0C0045
:100890005B084FEA3202B6EB020E75EB030E22BF85
:1008A000B61A754640EA5C005B084FEA3202B6EBC6
:1008B000020E75EB030E22BFB61A754640EA9C0085
:1008C0005B084FEA3202B6EB020E75EB030E22BF55
:1008D000B61A754640EADC0055EA060E18D04FEA13
:1008E000051545EA16754FEA06164FEAC30343EAB3
:1008F00052734FEAC2025FEA1C1CC0D111F4801F80
:100900000BD141EA00014FF000004FF0004CB6E778
:1009100011F4801F04BF01430020B4F1FD0C88BF17
:10092000BCF5E06F3FF6AFAEB5EB030C04BFB6EB22
:10093000020C5FEA500C50F1000041EB045170BD15
:100940000EF0004E4EEA113114EB5C04C2BFD4EB42
:100950000C0541EA045170BD41F480114FF0000EC6
:10096000013C90E645EA060E8DE60CEA135594EA42
:100970000C0F08BF95EA0C0F3FF43BAF94EA0C0F45
:100980000AD150EA01347FF434AF95EA0C0F7FF4BA
:1009900025AF104619462CE795EA0C0F06D152EA0E
:1009A00003353FF4FDAE1046194622E750EA4106F2
:1009B00018BF52EA43067FF4C5AE50EA41047FF403
:1009C0000DAF52EA43057FF4EBAE12E780F0004032
:1009D00002E000BF81F0004142001FBF5FEA410317
:1009E00092EA030F7FEA226C7FEA236C6AD04FEA17
:1009F0001262D2EB1363C1BFD2184140484041405C
:100A0000B8BF5B42192B88BF704710F0004F40F40D
:100A1000000020F07F4018BF404211F0004F41F429
:100A2000000121F07F4118BF494292EA030F3FD0F5
:100A3000A2F1010241FA03FC10EB0C00C3F1200308
:100A400001FA03F100F0004302D5494260EB400097
:100A5000B0F5000F13D3B0F1807F06D340084FEA02
:100A6000310102F10102FE2A51D2B1F1004F40EBF7
:100A7000C25008BF20F0010040EA0300704749005F
:100A800040EB0000013A28BFB0F5000FEDD2B0FAFC
:100A900080FCACF1080CB2EB0C0200FA0CF0AABF1F
:100AA00000EBC25052421843BCBFD04018437047BD
:100AB00092F0000F81F4000106BF80F400000132C3
:100AC000013BB5E74FEA41037FEA226C18BF7FEA9A
:100AD000236C21D092EA030F04D092F0000F08BFDC
:100AE0000846704790EA010F1CBF0020704712F0C3
:100AF0007F4F04D1400028BF40F00040704712F102
:100B000000723CBF00F50000704700F0004343F066
:100B1000FE4040F4000070477FEA226216BF08469C
:100B20007FEA23630146420206BF5FEA412390EA5F
:100B3000010F40F4800070474FF0000304E000BF55
:100B400010F0004348BF40425FEA000C08BF704706
:100B500043F0964301464FF000001CE050EA0102CA
:100B600008BF70474FF000030AE000BF50EA0102DF
:100B700008BF704711F0004302D5404261EB4101CC
:100B80005FEA010C02BF84460146002043F0B643F1
:100B900008BFA3F18053A3F50003BCFA8CF2083A16
:100BA000A3EBC25310DB01FA02FC634400FA02FC1F
:100BB000C2F12002BCF1004F20FA02F243EB020026
:100BC00008BF20F00100704702F1200201FA02FC88
:100BD000C2F1200250EA4C0021FA02F243EB02007B
:100BE00008BF20EADC7070474FF0FF0C1CEAD052BF
:100BF0001EBF1CEAD15392EA0C0F93EA0C0F6FD080
:100C00001A4480EA010C400218BF5FEA41211ED05D
:100C10004FF0006343EA501043EA5111A0FB013149
:100C20000CF00040B1F5000F3EBF490041EAD3711E
:100C30005B0040EA010062F17F02FD2A1DD8B3F19A
:100C4000004F40EBC25008BF20F00100704790F009
:100C5000000F0CF0004C08BF49024CEA502040EA5B
:100C600051207F3AC2BFD2F1FF0340EAC250704721
:100C700040F400004FF00003013A5DDC12F1190F5F
:100C8000DCBF00F000407047C2F10002410021FAD1
:100C900002F1C2F1200200FA02FC5FEA310040F1E9
:100CA000000053EA4C0308BF20EADC70704792F062
:100CB000000F00F0004C02BF400010F4000F013A9A
:100CC000F9D040EA0C0093F0000F01F0004C02BF95
:100CD000490011F4000F013BF9D041EA0C018FE704
:100CE0000CEAD15392EA0C0F18BF93EA0C0F0AD00A
:100CF00030F0004C18BF31F0004CD8D180EA010030
:100D000000F00040704790F0000F17BF90F0004FC8
:100D1000084691F0000F91F0004F14D092EA0C0FAA
:100D200001D142020FD193EA0C0F03D14B0218BF3D
:100D3000084608D180EA010000F0004040F0FE4083
:100D400040F40000704740F0FE4040F4400070471F
:100D50004FF0FF0C1CEAD0521EBF1CEAD15392EA9E
:100D60000C0F93EA0C0F69D0A2EB030280EA010C8E
:100D700049024FEA402037D04FF0805343EA111127
:100D800043EA10130CF000408B4238BF5B0042F185
:100D90007D024FF4000C8B4224BF5B1A40EA0C002A
:100DA000B3EB510F24BFA3EB510340EA5C00B3EB5C
:100DB000910F24BFA3EB910340EA9C00B3EBD10F4A
:100DC00024BFA3EBD10340EADC001B0118BF5FEA9C
:100DD0001C1CE0D1FD2A3FF650AF8B4240EBC250C5
:100DE00008BF20F0010070470CF0004C4CEA502086
:100DF0007F32C2BFD2F1FF0340EAC250704740F4D5
:100E000000004FF00003013A37E792F0000F00F0C6
:100E1000004C02BF400010F4000F013AF9D040EA44
:100E20000C0093F0000F01F0004C02BF490011F4D8
:100E3000000F013BF9D041EA0C0195E70CEAD153D0
:100E400092EA0C0F08D142027FF47DAF93EA0C0FB7
:100E50007FF470AF084676E793EA0C0F04D14B029B
:100E60003FF44CAF08466EE730F0004C18BF31F04D
:100E7000004CCAD130F000427FF45CAF31F0004347
:100E80007FF43CAF5FE700BF2DE9F047089E0D46B9
:100E900004468846002B4DD18A42944668D9B2FA5E
:100EA00082F252B101FA02F3C2F1200120FA01F1FB
:100EB0000CFA02FC41EA030894404FEA1C41B8FBDB
:100EC000F1F71FFA8CFE01FB178807FB0EF0230CCD
:100ED00043EA084398420AD91CEB030307F1FF35A4
:100EE00080F01E81984240F21B81023F63441B1A2E
:100EF000B3FBF1F001FB103300FB0EFEA4B244EA99
:100F00000344A6450AD91CEB040400F1FF3380F02A
:100F10000981A64540F20681644402380021A4EB11
:100F20000E0440EA07401EB10023D440C6E9004346
:100F3000BDE8F0878B4208D9002E00F0EE8000213A
:100F4000C6E900050846BDE8F087B3FA83F1002939
:100F50004AD1AB4202D3824200F2FC80841A65EB94
:100F6000030301209846002EE2D0C6E90048DFE7DF
:100F700002B9FFDEB2FA82F2002A40F09180A1EBC2
:100F80000C0001214FEA1C471FFA8CFEB0FBF7F35F
:100F900007FB1300250C45EA00450EFB03F0A842B1
:100FA00008D91CEB050503F1FF3802D2A84200F274
:100FB000CE8043462D1AB5FBF7F007FB10550EFB0C
:100FC00000FEA4B244EA0544A64508D91CEB04047B
:100FD00000F1FF3502D2A64500F2B6802846A4EB08
:100FE0000E0440EA03409EE7C1F120078B4022FA3D
:100FF00007FC4CEA030C25FA07FA4FEA1C49BAFB36
:10100000F9F820FA07F309FB18AA8D401FFA8CFEA5
:101010001D4300FA01F308FB0EF02C0C44EA0A44CD
:10102000A04202FA01F20BD91CEB040408F1FF3ACA
:1010300080F08880A04240F28580A8F102086444D4
:10104000241AB4FBF9F009FB104400FB0EFEADB20C
:1010500045EA0444A64508D91CEB040400F1FF3519
:101060006CD2A6456AD90238644440EA0840A0FB25
:101070000295A4EB0E04AC42C846AE4656D353D0FC
:10108000002E69D0B3EB080264EB0E0422FA01F3E0
:1010900004FA07F71F43CC40C6E90074002147E774
:1010A0000CFA02FCC2F1200125FA01F34FEA1C47B9
:1010B00020FA01F195400D43B3FBF7F107FB113323
:1010C0001FFA8CFE280C40EA034001FB0EF383421A
:1010D00004FA02F408D91CEB000001F1FF382FD20A
:1010E00083422DD902396044C01AB0FBF7F307FBE5
:1010F0001300ADB245EA004503FB0EF0A84208D943
:101100001CEB050503F1FF3816D2A84214D9023BA7
:101110006544281A43EA014138E73146304607E77B
:101120002F46E4E61846F9E64B45A9D2B9EB02088A
:1011300065EB0C0E0138A3E74346EAE7284694E73F
:101140004146D1E7D0467BE76444023847E7023B9B
:1011500065442FE7084606E73146E9E6704700BFD9
:10116000844641EA000313F0030349D1403A23D3F4
:101170000B6803604B6843608B688360CB68C36017
:101180000B6903614B6943618B698361CB69C361FF
:101190000B6A03624B6A43628B6A8362CB6AC362E7
:1011A0000B6B03634B6B43638B6B8363CB6BC363CF
:1011B00040304031403ADBD230320BD30B68036011
:1011C0004B6843608B688360CB68C360103010311C
:1011D000103AF3D20C3205D351F8043B40F8043BEB
:1011E000043AF9D2043208D0D2071CBF11F8013BEF
:1011F00000F8013B01D30B8803806046704700BFB5
:10120000082A13D38B07B1D010F00303AED0C3F17B
:101210000403D21ADB071CBF11F8013B00F8013BA5
:10122000A4D331F8023B20F8023B9FE7043AD9D31C
:10123000013A11F8013B00F8013BF9D20B78037039
:101240004B7843708B788370604670474FF0FF3C5B
:1012500006E000BF4FF0010C02E000BF4FF0010CB0
:101260004DF804CD4FEA410C7FEA6C5C4FEA430C29
:1012700018BF7FEA6C5C1BD001B050EA410C0CBF78
:1012800052EA430C91EA030F02BF90EA020F0020DA
:10129000704710F1000F91EA030F58BF994208BF41
:1012A00090422CBFD8176FEAE37040F001007047FE
:1012B0004FEA410C7FEA6C5C02D150EA013C07D155
:1012C0004FEA430C7FEA6C5CD6D152EA033CD3D0A0
:1012D0005DF8040B704700BF8446104662468C469A
:1012E0001946634600E000BF01B5FFF7B7FF0028CD
:1012F00048BF10F1000F01BD4DF808EDFFF7F4FFF6
:101300000CBF012000205DF808FB00BF4DF808ED80
:10131000FFF7EAFF34BF012000205DF808FB00BFA3
:101320004DF808EDFFF7E0FF94BF012000205DF8C5
:1013300008FB00BF4DF808EDFFF7CEFF94BF01207A
:1013400000205DF808FB00BF4DF808EDFFF7C4FF73
:1013500034BF012000205DF808FB00BF4FEA410CBC
:101360007FEA6C5C02D150EA013C0AD14FEA430C9F
:101370007FEA6C5C02D152EA033C02D14FF00000DC
:1013800070474FF0010070474FEA410212F500121A
:1013900015D211D56FF47873B3EB625212D94FEABC
:1013A000C12343F0004343EA505311F0004F23FAA6
:1013B00002F018BF404270474FF00000704750EAFB
:1013C000013005D111F0004008BF6FF000407047B8
:1013D0004FF00000704700BF53B94AB9002908BF59
:1013E00000281CBF4FF0FF314FF0FF30FFF7B6BEB3
:1013F000ADF1080C6DE904CEFFF746FDDDF804E021
:10140000DDE9022304B07047012810D0022812D071
:1014100000B583B00A4B019313230093094B0A4A8A
:101420000A49012003F0DCFA03B05DF804FB084B25
:101430001B6859627047074B1B685962704700BFB1
:10144000B0ED0008ECED00086CED0008A8ED000818
:101450006C100020B410002000B583B03C210F4870
:1014600002F0F4FD3C210E4802F0F0FD47F230514D
:101470000120FFF7C9FF47F230510220FFF7C4FFF8
:10148000084B019344230093074B084A0849032063
:1014900003F0A6FA03B05DF804FB00BF6C10002057
:1014A000B4100020C4ED0008DCED00086CED00086D
:1014B000A8ED000800B583B003F066FDFF21002011
:1014C00003F054FC0721012003F050FC0721022007
:1014D00003F04CFC0721032003F048FCA721042063
:1014E00003F044FCA721052003F040FC032003F097
:1014F0006FFC03F015FC064B019316230093054B7C
:10150000054A0649032003F06BFA03B05DF804FBBB
:1015100040EE000854EE000800EE000838EE000827
:1015200010B582B00E4C0021204602F015FD0421BA
:10153000204602F011FD0821204602F00DFD0C218D
:10154000204602F009FD074B01930E230093064B42
:10155000064A0749032003F043FA02B010BD00BF5A
:1015600044110020A0EE0008B8EE000860EE00086C
:1015700098EE000800B583B001904FF6FF7301228A
:1015800001A9034802F04EFF019803B05DF804FB87
:101590008C1100200246FF200B46013989B28BB125
:1015A00012F8013B5840002302E04000C0B2013372
:1015B000072BF1DC10F0800FF7D0400080F01D0009
:1015C000C0B2F4E77047000010B504460268634BF0
:1015D0009A4204D02268624B9A4216D010BD614BE9
:1015E0001B780D2B07D00A2B0BD05F490A685F4888
:1015F000835401320A6001225A495D4803F05BF9C5
:10160000E8E75C4B01221A60F5E75B4B1C68012C94
:1016100010D9022C2DD0022CE0D9584B9B78DA1E21
:1016200094422ED2564B1A78544B1A550134524BD1
:101630001C60D3E76CB9524B1B78552B03D04E4B33
:1016400000221A60CAE74D4A13704B4B01221A6000
:10165000C4E7012CC2D14A4B1B78AA2B03D0464BBE
:1016600000221A60BAE7454A5370434B02221A60BF
:10167000B4E7434B1A78414B9A703F4B03221A60F0
:10168000ACE794420FD09442A8D99A1E94421FD03E
:10169000013B9C422AD0394B9C78374B1B689C42BB
:1016A0009CD1002137E0033B99B23448FFF772FF29
:1016B000344B1870324B1B78984203D02E4B0022CB
:1016C0001A608BE72D4A135501342B4B1C6085E7BC
:1016D0002B4B1B780D2B03D0274B00221A60DAE727
:1016E000264A13550134244B1C60D4E7244B1B7845
:1016F0000A2B03D0204B00221A60CCE71F4A135557
:1017000001341D4B1C60C6E71F4BB3F900201F4B73
:1017100023F8112001318C420BDD0023012BF3DC77
:101720008A1C03EB42021548805C174AD0540133EF
:10173000F4E7124BDB780B2B03D00F4B00221A601F
:101740004CE7124AB2F90010114B1980B2F902109D
:101750005980B2F904209A80EFE700BF00380140B9
:10176000004400401C0C0020100A0020DC0900206E
:101770008C110020140A0020240C0020280C0020CA
:10178000200C0020270D0020180C0020180A002033
:10179000280D002000B583B001220949094803F053
:1017A0008AF8094B01934FF48E730093074B084A54
:1017B0000849032003F014F903B05DF804FB00BFEF
:1017C0001C0C00208C11002004EF00081CEF000806
:1017D000C4EE0008FCEE000810B504460C4B19607E
:1017E00001225A6005229A60194600F0A9FF58B9F3
:1017F000204601F08BF80A21204600F0DBFE20464F
:1018000000F09AFF80B210BD00F0AAFAF0E700BF26
:10181000300D002000000000F0B585B0344B01937E
:1018200045230093334B344A3449042003F0D8F85D
:10183000002500240BE011213148FFF7CDFFFFF711
:101840007FF901462046FFF7C7F804460135B5F594
:101850007A7FF0DB274F284E284D2046FEF74CFEBE
:10186000CDE90201274B01934E2300933B463246BC
:101870002946042003F0B4F823492046FFF768FA0C
:10188000FEF73AFE18A3D3E90023FEF78DFECDE95B
:1018900002011E4B01934F2300933B4632462946DB
:1018A000042003F09DF821461948FFF751FA194B1F
:1018B00018601868FEF720FECDE90201164B01936F
:1018C000512300933B4632462946042003F088F812
:1018D000124B0193532300933B4632462946042082
:1018E00003F07EF805B0F0BD6666666666664A3F40
:1018F00064EF0008ECEF000828EF000860EF000834
:10190000400D00207CEF000800007A4490EF0008B2
:10191000000096443C0D00209CEF0008C0EF00083A
:1019200000B583B0FFF778FF064B019317230093B0
:10193000054B064A0649032003F052F803B05DF850
:1019400004FB00BFD8EF000804F0000828EF0008EF
:1019500060EF000800B585B0002301930293039364
:101960001148124A02608360037303754FF46022CA
:10197000C26143600123036101F068F868B9102374
:101980000193012302930023039301A9064800F069
:10199000D7FE28B905B05DF804FB00F0E1F9EEE7E9
:1019A00000F0DEF9F6E700BF400D00200024014002
:1019B00000B585B000230193029303931148124AA6
:1019C00002608360037303754FF46022C261436059
:1019D0000123036101F03AF868B908230193012358
:1019E00002930023039301A9064800F0A9FE28B939
:1019F00005B05DF804FB00F0B3F9EEE700F0B0F9D4
:101A0000F6E700BF700D00200028014000B589B046
:101A1000002304930593069307930368174A9342A0
:101A200005D0174A93420DD009B05DF804FB154B61
:101A30009A6942F400729A619B6903F400730193FE
:101A4000019BF1E70F4B9A6942F480629A619A69AF
:101A500002F480620292029A9A6942F008029A6144
:101A60009B6903F008030393039B0123049303235F
:101A7000059304A9044801F0AFF9D5E7002401401B
:101A80000028014000100240000C014008B54FF44E
:101A90007A7003F031FBFAE7034B0360034B0B60F2
:101AA00080231360704700BFCC0F0020CC0D0020B6
:101AB00030B5C5B0002542954395012142A803F0F9
:101AC00022FB564B186040954195012140A803F038
:101AD0001AFB534B1860534C0DF1E40CA646BEE8BC
:101AE0000F00ACE80F009EE807008CE807002946CD
:101AF00039A803F0CCFA4C4B18600DF1C80C04F176
:101B00001C0EBEE80F00ACE80F009EE807008CE852
:101B10000700294632A803F0BAFA444B18600DF1C9
:101B2000AC0C04F1380EBEE80F00ACE80F009EE8E4
:101B300007008CE8070029462BA803F0A8FA3C4BC5
:101B400018600DF1900C04F1540EBEE80F00ACE8E3
:101B50000F009EE807008CE80700294624A803F040
:101B600096FA344B18600DF1740C04F1700EBEE857
:101B70000F00ACE80F009EE807008CE8070029463C
:101B80001DA803F084FA2C4B18600DF1580C04F1D9
:101B90008C0EBEE80F00ACE80F009EE807008CE852
:101BA0000700294616A803F072FA244B18600DF1BD
:101BB0003C0C04F1A80EBEE80F00ACE80F009EE854
:101BC00007008CE8070029460FA803F060FA1C4BB9
:101BD00018600DF1200C04F1C40EBEE80F00ACE853
:101BE0000F009EE807008CE80700294608A803F0CC
:101BF0004EFA144B18600DF1040CE0340FCCACE835
:101C00000F0094E807008CE80700294601A803F0BC
:101C10003EFA0D4B186045B030BD00BFC40D00202A
:101C2000C80D002070EC0008C00D0020A80D002099
:101C3000AC0D0020A00D0020B00D0020BC0D002038
:101C4000B80D0020A40D0020B40D00202DE9F043B4
:101C500089B000240494059406940794354B9A693E
:101C600042F020029A619A6902F020020092009AE2
:101C70009A6942F010029A619A6902F01002019288
:101C8000019A9A6942F004029A619A6902F0040288
:101C90000292029A9A6942F008029A619B6903F0E3
:101CA00008030393039BDFF8908022460F214046F0
:101CB00001F0B2F901224FF48051404601F0ACF935
:101CC000DFF8789001220421484601F0A5F91C4E66
:101CD00001224FF44071304601F09EF941F20F03AA
:101CE00004930125059506940327079704A9404608
:101CF00001F072F802230493124B0593069404A991
:101D0000304601F069F8042304930595069407977B
:101D100004A9484601F060F84FF440730493059518
:101D20000695079704A9304601F056F809B0BDE8BA
:101D3000F08300BF00100240001001400014014079
:101D4000000C01400000111008B50268034B9A42D4
:101D500000D008BD00F01CFCFBE700BF00100040F5
:101D600072B6FEE700B597B0282200210CA805F056
:101D70005FF900230793089309930A930B93019348
:101D80000293039304930593069301220C924FF45C
:101D900080330D9310920222139214934FF4E013A8
:101DA00015930CA801F05EF9C8B90F23079302211F
:101DB0000891002309934FF480620A920B9307A8BD
:101DC00001F082FB68B9022301934FF400430393AF
:101DD00001A801F073FC30B917B05DF804FBFFF700
:101DE000BFFFFFF7BDFFFFF7BBFF08B500F0BEFB6D
:101DF000FFF7B8FFFFF72AFF00F026F900F056F9C9
:101E000000F06AFA00F0DEFAFFF7A4FDFFF7D0FD5C
:101E100000F0F2FA00F07CF904F0E4FCFFF748FE71
:101E200003F030F9FEE7000000B583B0114B9A696A
:101E300042F001029A619A6902F001020092009A4E
:101E4000DA6942F08052DA61DB6903F08053019372
:101E5000019B00220F216FF0010000F09DFE064A59
:101E6000536823F0E06343F00073536003B05DF800
:101E700004FB00BF001002400000014030B589B0F3
:101E80000446214BDA6942F01002DA61DB6903F0A3
:101E900010030193019B02A903A801F0F1FB069B2B
:101EA000CBB901F0CDFB03461848A0FB03239B0CE4
:101EB000013B1748174A026040F2E732C2604360B4
:101EC000002303618360836101F0DCFE054630B1CD
:101ED000284609B030BD01F0B3FB4300E4E70C48ED
:101EE00001F086FD05460028F2D1362000F08CFE78
:101EF0000F2C01D90125EBE700222146362000F006
:101F00004BFE054B1C60E3E70010024083DE1B43E1
:101F1000201000200010004008000020FEE7FEE72F
:101F2000FEE7FEE7FEE7704708B5024801F0A0FDB6
:101F300008BD00BF6C10002008B5024801F098FDF4
:101F400008BD00BFB410002008B5024802F054FBE1
:101F500008BD00BF8C11002008B5024802F04CFB00
:101F600008BD00BFD411002008B5024801F080FD73
:101F700008BD00BF2010002008B5024801F078FD20
:101F800008BD00BFFC1000200120704708B504F018
:101F9000FDFC162303604FF0FF3008BD08B54FF07D
:101FA000FF31FFF7F3FFFEE770B50C46164600253C
:101FB00006E0AFF30080214601F8010B01350C4625
:101FC000B542F6DB304670BD70B50C4616460025AE
:101FD00004E014F8010BFFF7CDFA0135B542F8DB48
:101FE000304670BD4FF0FF3070474FF400534B60E8
:101FF00000207047012070470020704710B503464D
:102000000C4A0D490D48006840B10C480068034473
:10201000521A934206D8094A136010BD0748084C6B
:102020000460F2E704F0B2FC0C2303604FF0FF30D1
:10203000F3E700BF00C0002000040000681000208B
:10204000B82800207047000000B58DB02422002180
:1020500003A804F0EDFF00230193029312484FF010
:1020600080420260436083604EF66022C26003617A
:1020700083610323039301230593099303A901F0CB
:1020800059FE50B900230193029301A9064802F0BA
:1020900043F828B90DB05DF804FBFFF761FEF1E7E6
:1020A000FFF75EFEF6E700BF6C10002000B58DB0B4
:1020B0002422002103A804F0BBFF00230193029314
:1020C0001148124A0260436083604EF66022C2608B
:1020D000036183610323039301230593099303A9F8
:1020E00001F028FE50B900230193029301A906488C
:1020F00002F012F828B90DB05DF804FBFFF730FECE
:10210000F1E7FFF72DFEF6E7B410002000040040D1
:1021100000B583B00023009301930F480F4A02607B
:1021200047224260836040F2F312C260836101F093
:10213000A9FD50B90023009301936946064801F0B8
:10214000EBFF28B903B05DF804FBFFF709FEF1E7E8
:10215000FFF706FEF6E700BFFC1000200014004069
:1021600000B589B000230493059306930793036891
:10217000B3F1804F05D0254A934225D009B05DF8D0
:1021800004FB03F50433DA6942F00102DA61DA692B
:1021900002F001020092009A9A6942F004029A61E8
:1021A0009B6903F004030193019B0323049304A997
:1021B000174800F011FE002205211C2000F0ECFC65
:1021C0001C2000F021FDD9E7124BDA6942F002022F
:1021D000DA61DA6902F002020292029A9A6942F026
:1021E00004029A619B6903F004030393039BC023D9
:1021F000049304A9064800F0EFFD002205211D20EC
:1022000000F0CAFC1D2000F0FFFCB7E7000400400E
:10221000000801400010024002680E4B9A4200D0B4
:10222000704700B583B003F5FE33DA6942F020024F
:10223000DA61DB6903F020030193019B002207218F
:10224000372000F0A9FC372000F0DEFC03B05DF879
:1022500004FB00BF001400400268094B9A4200D002
:10226000704782B003F55C439A6942F400529A6168
:102270009B6903F400530193019B02B0704700BFB8
:102280000034014000B587B0002302930393049308
:10229000059302680E4B9A4202D007B05DF804FB2A
:1022A00003F55C439A6942F010029A619B6903F05E
:1022B00010030193019B4FF4707302930223039365
:1022C0000323059302A9034800F086FDE5E700BF5C
:1022D000003401400010014010B592B00024109469
:1022E000119409940A940B940C940D940E940F94E9
:1022F0002022214601A804F09BFE3048304B0360A9
:102300004460846041F61F43C3600461446184619A
:1023100001F0E4FC00283CD100231093119310A994
:10232000264801F0F9FE002836D1602309930022E7
:102330000A920B920C920D920E920F9209A91F48CD
:1023400001F08CFD58BB042209A91C4801F086FD50
:1023500040BB082209A9194801F080FD28BB0C22C6
:1023600009A9164801F07AFD10BB002301930293DE
:102370000393049305934FF400520692089301A926
:102380000E4801F007FFB0B90C48FFF77BFF12B011
:1023900010BDFFF7E5FCBFE7FFF7E2FCC5E7FFF77D
:1023A000DFFCD0E7FFF7DCFCD3E7FFF7D9FCD6E78B
:1023B000FFF7D6FCD9E7FFF7D3FCE5E7441100208F
:1023C0000034014008B50A480A4B03604FF4E1337A
:1023D000436000238360C36003610C224261836118
:1023E000C36101F0EFFF00B908BDFFF7B9FCFBE7DF
:1023F0008C1100200038014008B50A480A4B0360E0
:102400004FF4E133436000238360C36003610C2217
:1024100042618361C36101F0D5FF00B908BDFFF7D8
:102420009FFCFBE7D41100200044004030B589B088
:10243000002304930593069307930368344A934259
:1024400004D0344A934233D009B030BD324B9A693C
:1024500042F480429A619A6902F480420092009AA2
:102460009A6942F004029A619B6903F004030193A4
:10247000019B4FF4007304930223059303230793F6
:10248000264D04A9284600F0A7FC4FF4806304936E
:1024900000240594069404A9284600F09DFC2246D9
:1024A0000521252000F078FB252000F0ADFBCBE7CF
:1024B000194BDA6942F40032DA61DA6902F4003267
:1024C0000292029A9A6942F004029A619B6903F0AF
:1024D00004030393039B0423049302230593032320
:1024E00007930E4D04A9284600F076FC08230493B8
:1024F00000240594069404A9284600F06DFC2246A9
:102500000521262000F048FB262000F07DFB9BE7FC
:102510000038014000440040001002400008014023
:10252000FFF790FD0B480C490C4A002302E0D458F9
:10253000C4500433C4188C42F9D3094A094C00230F
:1025400001E013600432A242FBD304F025FAFFF746
:102550004CFC704700000020C009002068F900080A
:10256000C0090020B4280020FEE7000008B5074A93
:10257000136843F010031360032000F0FBFA0F20F0
:10258000FFF77CFCFFF750FC002008BD0020024054
:10259000034A1168034B1B780B441360704700BF5C
:1025A0001C12002004000020014B1868704700BF77
:1025B0001C120020F0B583B005460C4600230193A1
:1025C000FFF7F2FF2B689A6812F4807F23D1074649
:1025D0005A6812F4807F03D1DB6A13F4700F29D09C
:1025E000504B1E68022001F0F5F8B6FBF0F62B68A0
:1025F00019694D4A114236D1D96802F15C42114243
:1026000031D11969494A114240D1DA68484B1A421E
:102610003ED0292041E0AB6A43F02003AB620023A7
:1026200085F82430012003B0F0BD2B681B6813F03F
:10263000020F0FD02B681B6813F0020F4FD1B4F1BB
:10264000FF3FF7D0002CF0D0FFF7AEFFC31BA34233
:10265000F0D9EAE7AB6A43F00403AB62002385F8E4
:1026600024300320DFE71969304A114204D1D968C8
:1026700002F16E4211420DD019692E4A0A405AB930
:10268000DA682C4B13405BB1FC2006E0292004E003
:10269000142002E0542000E0FC2000FB06F607E0D6
:1026A0005420FAE7019BB34210D3019B01330193FD
:1026B000019BB34213D2B4F1FF3FF6D0002CF1D00E
:1026C000FFF772FFC01BA042EFD9EBE7AB6A43F004
:1026D0000403AB62002385F824300320A3E72B68B2
:1026E0006FF012021A60AB6A43F40073AB622B689E
:1026F0009B6803F46023B3F5602F01D0002092E7BC
:10270000287B60B9AB6A23F48073AB62AB6A13F4C5
:10271000805F88D1AB6A43F00103AB6283E700209E
:1027200081E700BF0000002024499224922449122E
:1027300092244900499224000368D86C7047000035
:1027400030B482B00022019290F82420012A00F0D7
:1027500091800346012280F824204A68062A2DD859
:102760000468606B02EB8202053A4FF01F0C0CFA12
:1027700002FC20EA0C000D6805FA02F202436263D3
:102780000A68092A3AD91C68E06802EB42021E3A3C
:102790004FF0070C0CFA02FC20EA0C008D6805FAD9
:1027A00002F20243E2600A68103A012A36D9002098
:1027B000002283F8242002B030BC70470C2A0ED8C7
:1027C0000568286B02EB8202233A1F24944020EA1A
:1027D00004000C6804FA02F202432A63D0E7056899
:1027E000E86A02EB8202413A1F24944020EA040086
:1027F0000C6804FA02F20243EA62C1E71C6820692D
:1028000002EB42024FF0070C0CFA02FC20EA0C002B
:102810008D6805FA02F202432261C4E71A6816487D
:10282000824205D09A6A42F020029A620120BFE7F4
:10283000906810F4000F1BD1906840F40000906085
:102840000A68102A01D00020B2E70C4A12680C492D
:10285000A1FB0212920C02EB82025200019202E0F2
:10286000019A013A0192019A002AF9D100209FE7CA
:1028700000209DE702209EE7002401400000002088
:1028800083DE1B4330B583B00023019303689A684D
:1028900012F0010F33D104469A6842F001029A60A7
:1028A000184B1B68184AA2FB03239B0C019302E000
:1028B000019B013B0193019B002BF9D1FFF774FEB3
:1028C000054623689B6813F0010F16D1FFF76CFED5
:1028D000431B022BF5D923689B6813F0010FF0D13D
:1028E000A36A43F01003A362E36A43F00103E362C7
:1028F000002384F82430012002E0002000E00020C2
:1029000003B030BD0000002083DE1B4390F824306C
:10291000012B68D010B50446012380F82430FFF75E
:10292000B1FF00285BD1A36A23F4407323F00103B5
:1029300043F48073A36223682C4A934227D0A26A8F
:1029400022F48012A2625A6812F4806F05D0A26A43
:1029500022F4405242F48052A262A26A12F4805FD2
:102960002BD0E26A22F00602E262002284F82420E0
:102970006FF002021A6023689A6802F46022B2F5CE
:10298000602F1DD09A6842F480129A602AE0A2F566
:102990008062526812F4702FD1D0A26A42F4801281
:1029A000A262134A526812F4806FD6D0A26A22F44F
:1029B000405242F48052A262CFE70022E262D4E7A2
:1029C0000A4A934204D09A6842F4A0029A6009E04D
:1029D000A2F58062526812F4702FD3D1F3E700237E
:1029E00084F8243010BD0220704700BF0028014049
:1029F0000024014038B503689A6812F0010F01D134
:102A0000002038BD04469A6822F001029A60FFF760
:102A1000CBFD054623689B6813F0010F13D0FFF729
:102A2000C3FD431B022BF5D923689B6813F0010FEC
:102A3000F0D0A36A43F01003A362E36A43F00103FA
:102A4000E3620120DDE70020DBE70000002800F062
:102A5000888070B50446836A002B52D02046FFF769
:102A6000C9FFA36A13F0100375D1002873D1A26ABD
:102A700022F4885222F0020242F00202A26262684C
:102A8000266839498E4242D0E1690A43217B42EAF5
:102A90004102A568B5F5807F02D0012D3ED01D46CC
:102AA00094F814C0BCF1010F3BD0716821F4694166
:102AB000294371602568AE682C4931401143A960F3
:102AC000A168B1F5807F01D0012902D12369013BC2
:102AD0001B052568E96A21F470010B43EB6223684A
:102AE0009968234B0B409A422CD0A36A23F012031F
:102AF00043F01003A362E36A43F00103E3620120A1
:102B00002EE0C36280F82430FEF780FFA6E7E1697B
:102B1000B1F5402FB9D14FF40021B6E74FF48075DD
:102B2000BEE731B9A169013945EA413141F4006597
:102B3000BBE7A16A41F02001A162E16A41F0010115
:102B4000E162B2E70023E362A36A23F0030343F0E8
:102B50000103A36204E0A36A43F01003A36201200F
:102B600070BD0120704700BF003C0140FDF7E1FF50
:102B7000FE0E1FFF074AD36823F4E0631B041B0CFF
:102B8000000200F4E060034343F0BF6343F400330A
:102B9000D360704700ED00E000B5194BDB68C3F36C
:102BA0000223C3F1070CBCF1040F28BF4FF0040C43
:102BB00003F1040EBEF1060F18D9033B4FF0FF3EA0
:102BC0000EFA0CFC21EA0C0199400EFA03F322EAFA
:102BD0000303194300280BDB0901C9B200F160406F
:102BE00000F5614080F800135DF804FB0023E5E781
:102BF00000F00F000901C9B2024B1954F4E700BFFD
:102C000000ED00E014ED00E0002807DB00F01F02FB
:102C1000400901239340024A42F82030704700BF28
:102C200000E100E090F82130DBB2022B06D0042353
:102C30008363002380F82030012070470268136806
:102C400023F00E0313600268136823F0010313607E
:102C5000036CC16B012202FA03F34B6080F8212060
:102C6000002380F8203018467047000008B590F81F
:102C70002130DBB2022B03D004238363012008BD83
:102C80000268136823F00E0313600268136823F0D0
:102C90000103136003684C4A93424ED9783A934239
:102CA00024D01432934230D0143293422FD01432B5
:102CB00093422FD0143293422FD0143293422FD00C
:102CC000143293422FD002F5627293422ED0143206
:102CD00093422DD0143293422CD01432934202D01E
:102CE0004FF4803203E04FF4805200E00122374B72
:102CF0005A60012380F82130002380F82030436B94
:102D0000002B5ED098470020B9E71022EFE74FF480
:102D10008072ECE74FF48052E9E74FF48032E6E747
:102D20004FF48012E3E74FF08072E0E70122DEE724
:102D30001022DCE74FF48072D9E7254A934224D071
:102D40001432934225D01432934224D01432934249
:102D500024D01432934224D01432934224D014321B
:102D6000934224D002F56272934223D014329342EC
:102D700022D01432934221D01432934202D04FF425
:102D8000803203E04FF4805200E00122114B5A6080
:102D9000AFE71022FAE74FF48072F7E74FF4805262
:102DA000F4E74FF48032F1E74FF48012EEE74FF092
:102DB0008072EBE70122E9E71022E7E74FF4807227
:102DC000E4E700205BE700BF80000240000402400F
:102DD000080002400000024070B582B00024A44602
:102DE000B0E0874DAA4210D007D9864DAA420CD038
:102DF00005F58035AA4208D013E0A5F58015AA4252
:102E000003D005F57025AA4207D18A68002A62D04E
:102E1000012A5BD04361082403E0A5F58015AA428E
:102E2000F3D0BEF1FF0F58D80646BEF1FF0F56D8BB
:102E30004FEA8C0233680F25954023EA050304FA14
:102E400002F2134333604B6813F0805F78D06E4B0F
:102E50009A6942F001029A619B6903F001030193B0
:102E6000019B4FEA9C02951C684B53F825600CF0BF
:102E700003039D000F23AB4026EA0306644B9842F0
:102E800033D003F58063984200F0988003F58063A7
:102E9000984200F0958003F58063984200F092809C
:102EA00003F58063984200F08F8003F580639842B9
:102EB00019D006231AE0CC68B3E7CC680434B0E735
:102EC000CC680834ADE7CC680C34AAE70361082469
:102ED000A7E70024A5E70424A3E7061DA5E7ACF1B6
:102EE00008029200A6E7052300E00023AB4033432D
:102EF0000232464D45F822304B6813F4801F65D0EE
:102F0000444A936843EA0E0393604B6813F4001F2E
:102F100062D0404AD36843EA0E03D3604B6813F48F
:102F2000003F5FD03B4A536843EA0E0353604B684F
:102F300013F4803F5CD0374A136843EA0E031360F2
:102F40000CF1010C0A6832FA0CF357D0012303FA92
:102F50000CF302EA030E33EA0202F1D14A68122AA4
:102F60003FF63FAF122A3FF65CAF01A555F822F0BD
:102F70000B2E0008B72E0008C12E0008D32E000823
:102F8000232E0008232E0008232E0008232E0008DD
:102F9000232E0008232E0008232E0008232E0008CD
:102FA000232E0008232E0008232E0008232E0008BD
:102FB000232E0008BB2E0008C72E0008012395E72A
:102FC000022393E7032391E704238FE7114A9368D1
:102FD00023EA0E03936098E70E4AD36823EA0E03B0
:102FE000D3609BE70B4A536823EA0E0353609EE7C6
:102FF000084A136823EA0E031360A1E702B070BD0C
:1030000000002210000031100010024000000140BA
:1030100000080140000401400AB101617047090441
:1030200001617047C36801EA030221EA030141EA32
:10303000024101617047000082B0084B1B68084ADA
:10304000A2FB03235B0A00FB03F3019300BF019B78
:103050005A1E0192002BF9D102B0704700000020E7
:10306000D34D6210002800F0F18170B582B00446A3
:10307000036813F0010F2CD0994B5B6803F00C032D
:10308000042B1DD0964B5B6803F00C03082B12D069
:103090006368B3F5803F41D0002B55D103F18043E5
:1030A00003F504331A6822F480321A601A6822F495
:1030B00080221A6037E08A4B5B6813F4803FE7D0C8
:1030C000874B1B6813F4003F03D06368002B00F0AC
:1030D000BF81236813F0020F75D0814B5B6813F03A
:1030E0000C0F5FD07E4B5B6803F00C03082B54D0B1
:1030F0002369002B00F08A807A4B01221A60FFF7C7
:1031000053FA0546764B1B6813F0020F75D1FFF793
:103110004BFA401B0228F5D903209EE1704A136840
:1031200043F480331360636843B3FFF73DFA054609
:103130006B4B1B6813F4003FCBD1FFF735FA401BF4
:103140006428F5D9032088E1B3F5A02F09D0644B9A
:103150001A6822F480321A601A6822F480221A60F7
:10316000E1E703F18043A3F53C331A6842F480227F
:103170001A601A6842F480321A60D4E7FFF714FA32
:103180000546574B1B6813F4003FA2D0FFF70CFA1B
:10319000401B6428F5D903205FE1514B5B6813F4B1
:1031A000803FA5D14E4B1B6813F0020F03D023695B
:1031B000012B40F04F814A4A136823F0F8036169FC
:1031C00043EAC1031360236813F0080F33D0A369E7
:1031D000002B5CD0434B0122C3F88024FFF7E4F9B5
:1031E00005463F4B5B6A13F0020F21D1FFF7DCF974
:1031F000401B0228F5D903202FE1394A136823F038
:10320000F803616943EAC1031360DCE7354B002230
:103210001A60FFF7C9F90546314B1B6813F0020F1E
:10322000D1D0FFF7C1F9401B0228F5D9032014E1E2
:103230000120FFF701FF236813F0040F00F09680D0
:10324000274BDB6913F0805F34D1254BDA6942F0FC
:103250008052DA61DB6903F080530193019B012501
:10326000214B1B6813F4807F26D0E368012B3DD0EF
:10327000002B53D103F1804303F504331A6A22F083
:1032800001021A621A6A22F004021A6233E0154B34
:103290000022C3F88024FFF787F90546104B5B6ACC
:1032A00013F0020FC7D0FFF77FF9401B0228F5D9B2
:1032B0000320D2E00025D3E70B4A136843F4807360
:1032C0001360FFF771F90646074B1B6813F4807F04
:1032D000CBD1FFF769F9801B6428F5D90320BCE046
:1032E0000010024000004242007000405F4A136A32
:1032F00043F001031362E36833B3FFF755F9064661
:103300005A4B1B6A13F0020F2FD1FFF74DF9801BA8
:1033100041F288339842F3D903209EE0052B09D06F
:10332000524B1A6A22F001021A621A6A22F004024F
:103330001A62E0E74D4B1A6A42F004021A621A6AF6
:1033400042F001021A62D6E7FFF72EF90646474B14
:103350001B6A13F0020F08D0FFF726F9801B41F219
:1033600088339842F3D9032077E0E5B9E369002B6D
:1033700072D03E4A526802F00C02082A56D0022B44
:1033800017D03B4B00221A66FFF70EF90446374B65
:103390001B6813F0007F47D0FFF706F9001B0228D7
:1033A000F5D9032059E0314AD36923F08053D36122
:1033B000DCE72F4B00221A66FFF7F6F805462B4B89
:1033C0001B6813F0007F06D0FFF7EEF8401B0228C1
:1033D000F5D9032041E0236AB3F5803F1AD0234991
:1033E0004B6823F47413226A606A024313434B60F0
:1033F0001F4B01221A66FFF7D7F804461B4B1B68C8
:1034000013F0007F0ED1FFF7CFF8001B0228F5D98B
:10341000032022E0154A536823F40033A1680B43CC
:103420005360DCE7002018E0002016E0012B16D0E6
:103430000E4B5B6803F48031226A914211D103F490
:103440007013626A93420ED1002006E0012070479B
:10345000012002E0012000E0002002B070BD012048
:10346000FBE70120F9E70120F7E700BF0010024069
:10347000000042420F4B5B6803F00C02082A01D0A7
:103480000D487047C3F383420C49885C13F4803FB6
:103490000BD0084B5B68C3F34043094AD35C064A30
:1034A00002FB00F0B0FBF3F07047064B03FB00F0AB
:1034B000704700BF0010024000127A0058F0000868
:1034C00068F0000800093D00002800F0A08070B5F9
:1034D0000D460446524B1B6803F007038B420BD288
:1034E0004F4A136823F007030B431360136803F07C
:1034F00007038B4240F08D80236813F0020F17D032
:1035000013F0040F04D0474A536843F4E063536058
:10351000236813F0080F04D0424A536843F4605301
:103520005360404A536823F0F003A1680B43536093
:10353000236813F0010F31D06368012B20D0022BD8
:1035400025D0384A126812F0020F64D035494A6813
:1035500022F0030213434B60FFF726F80646314B77
:103560005B6803F00C036268B3EB820F16D0FFF7C1
:103570001BF8801B41F288339842F0D9032045E0C4
:10358000284A126812F4003FE0D101203EE0254AAB
:10359000126812F0007FD9D1012037E0204B1B6860
:1035A00003F00703AB420AD91D4A136823F007034F
:1035B0002B431360136803F00703AB422DD123683C
:1035C00013F0040F06D0174A536823F4E063E16850
:1035D0000B435360236813F0080F07D0114A536858
:1035E00023F46053216943EAC1035360FFF742FFAC
:1035F0000C4B5B68C3F303130B4AD35CD8400B4BF3
:1036000018600B4B1868FEF739FC002070BD0120D4
:1036100070470120FAE70120F8E70120F6E700BF34
:10362000002002400010024040F00008000000208E
:1036300008000020014B1868704700BF0000002000
:1036400008B5FFF7F7FF044B5B68C3F30223034A97
:10365000D35CD84008BD00BF0010024050F0000805
:1036600008B5FFF7E7FF044B5B68C3F3C223034AC7
:10367000D35CD84008BD00BF0010024050F00008E5
:103680000F2303600B4B5A6802F0030242605A6832
:1036900002F0F00282605A6802F4E062C2605B6885
:1036A000DB0803F4E0630361034B1B6803F00703CB
:1036B0000B607047001002400020024070B582B0DD
:1036C0000446036813F0010F36D03F4BDB6913F05B
:1036D000805F49D13C4BDA6942F08052DA61DB69A4
:1036E00003F080530193019B0125384B1B6813F4B1
:1036F000807F3BD0344B1B6A13F4407313D0626855
:1037000002F440729A420ED02F4A136A23F440709A
:103710002F490126C1F840640026C1F840641062B8
:1037200013F0010F36D1284A136A23F440736168FD
:103730000B431362002D3ED1236813F0020F06D015
:10374000214A536823F44043A1680B435360236824
:1037500013F0100F34D01C4A536823F480036169BE
:103760000B43536000202CE00025BEE7174A136886
:1037700043F480731360FEF717FF0646134B1B6874
:1037800013F4807FB6D1FEF70FFF801B6428F5D9B4
:10379000032016E0FEF708FF06460B4B1B6A13F0EA
:1037A000020FC0D1FEF700FF801B41F28833984220
:1037B000F3D9032005E0D36923F08053D361BBE73D
:1037C000002002B070BD00BF001002400070004039
:1037D0000000424208B501380F2863D8DFE800F046
:1037E0003557622F626262326262626262626208AE
:1037F0002F4B5A68186810F0807054D0C2F383437E
:103800002C49C85C12F4803F15D0294B5B68C3F388
:103810004043294AD25C294BB3FBF2F303FB00F08F
:10382000234B5B6813F4800F3DD14000244BA3FB76
:103830000030400837E0234B03FB00F0F0E7FFF7D0
:1038400019FE30E0FFF716FE2DE0194B1B6A40F21F
:1038500002321A40B2F5817F26D003F44073B3F5EB
:10386000007F04D0B3F5407F09D000201BE0104A50
:10387000526A12F0020FF5D049F6404013E00C4BAB
:10388000186810F400300ED04FF224400BE0FFF720
:10389000E7FE074B5B68C3F3813301335B00B0FB8A
:1038A000F3F000E0002008BD4FF40040FBE700BF4C
:1038B000001002406CF000087CF0000800127A0052
:1038C000ABAAAAAA00093D0030B4036A026A22F03A
:1038D000010202624268846924F073040D682C437B
:1038E00023F0020C8B6843EA0C03104DA84203D06E
:1038F00005F50065A84205D123F00803CD682B43E8
:1039000023F00403094DA84203D005F50065A84241
:1039100005D122F440724D692A438D692A434260E1
:1039200084614A684263036230BC7047002C0140E6
:1039300030B4036A026A22F4807202624268C46987
:1039400024F0730C0C6844EA0C0523F400738C68B3
:1039500043EA0423114CA04203D004F50064A042C2
:1039600006D123F40063CC6843EA042323F4806384
:103970000A4CA04203D004F50064A04207D122F40F
:1039800040524C6942EA04128C6942EA04124260D5
:10399000C5614A68C263036230BC7047002C0140B5
:1039A00030B4036A026A22F4805202624468C26937
:1039B00022F4E6420D6842EA052223F400538D68A2
:1039C00043EA0533094DA84203D005F50065A84236
:1039D00004D124F480444D6944EA85144460C261F2
:1039E0004A680264036230BC704700BF002C01408B
:1039F00090F83D30DBB2012B2FD1022380F83D300F
:103A00000268D36843F00103D3600368154A934208
:103A100018D002F50062934214D0B3F1804F11D058
:103A2000A2F5983293420DD002F58062934209D0FC
:103A300002F58062934205D01A6842F001021A60D2
:103A4000002070479A6802F00702062A07D01A6819
:103A500042F001021A6000207047012070470020E8
:103A6000704700BF002C0140704770477047704797
:103A700010B5044603681A6912F0020F11D0DA6813
:103A800012F0020F0DD06FF002021A6101230377CA
:103A900003689B6913F0030F70D0FFF7E6FF002364
:103AA000237723681A6912F0040F12D0DA6812F033
:103AB000040F0ED06FF004021A61022323772368EB
:103AC0009B6913F4407F5FD02046FFF7CEFF0023B1
:103AD000237723681A6912F0080F12D0DA6812F0FF
:103AE000080F0ED06FF008021A61042323772368B1
:103AF000DB6913F0030F4ED02046FFF7B6FF00231B
:103B0000237723681A6912F0100F12D0DA6812F0C6
:103B1000100F0ED06FF010021A610823237723686C
:103B2000DB6913F4407F3DD02046FFF79EFF002362
:103B3000237723681A6912F0010F03D0DA6812F0B4
:103B4000010F36D123681A6912F0800F03D0DA68AA
:103B500012F0800F34D123681A6912F0400F03D09D
:103B6000DA6812F0400F32D123681A6912F0200F80
:103B700003D0DA6812F0200F30D110BDFFF774FFC8
:103B80002046FFF773FF8AE72046FFF76DFF2046C8
:103B9000FFF76CFF9BE72046FFF766FF2046FFF725
:103BA00065FFACE72046FFF75FFF2046FFF75EFFAB
:103BB000BDE76FF001021A612046FEF7C5F8C1E7C4
:103BC0006FF080021A61204600F00EFBC3E76FF031
:103BD00040021A612046FFF74AFFC5E76FF0200256
:103BE0001A61204600F0FFFAC7E700000368244A84
:103BF000904212D002F5006290420ED0B0F1804F98
:103C00000BD0A2F59832904207D002F58062904224
:103C100003D002F58062904203D123F070034A681A
:103C20001343174A904212D002F5006290420ED020
:103C3000B0F1804F0BD0A2F59832904207D002F538
:103C40008062904203D002F58062904203D123F457
:103C50004073CA68134323F080034A691343036027
:103C60008B68C3620B688362054B984203D003F5EF
:103C70000063984201D10B690363012343617047DC
:103C8000002C014040B310B5044690F83D30F3B12C
:103C9000022384F83D30214651F8040BFFF7A6FFBC
:103CA000012384F8463084F83E3084F83F3084F8AD
:103CB000403084F8413084F8423084F8433084F84E
:103CC000443084F8453084F83D30002010BD80F841
:103CD0003C30FEF7A1FADBE70120704740B310B596
:103CE000044690F83D30F3B1022384F83D3021467C
:103CF00051F8040BFFF77AFF012384F8463084F86B
:103D00003E3084F83F3084F8403084F8413084F805
:103D1000423084F8433084F8443084F8453084F8E5
:103D20003D30002010BD80F83C30FEF795FADBE70F
:103D300001207047002857D070B50D46044690F812
:103D40003D30002B4BD0022384F83D30226893682D
:103D500023F4804323F007039360214651F8040BBA
:103D6000FFF744FF21688A688B690E6A2868104350
:103D700023F4407C2CF0030CAA68AB6942EA0323CD
:103D800043EA0C0323F47C4323F0FC03EA69D5F8EF
:103D90000CC04CEA022C4CEA030C2A6A13032A6971
:103DA00043EA021343EA0C0326F022066A686D69AF
:103DB00042EA05123243886021688B6123681A62E7
:103DC000012384F8463084F83E3084F83F3084F88C
:103DD000423084F8433084F83D30002070BD80F8D4
:103DE0003C30FEF7BDF9AEE70120704730B4036AFE
:103DF000026A22F0100202624468826922F4E642FA
:103E00000D6842EA052223F020038D6843EA05137A
:103E1000114DA84203D005F50065A84206D123F054
:103E20008003CD6843EA051323F040030A4DA842FE
:103E300003D005F50065A84207D124F440644D691C
:103E400044EA85048D6944EA8504446082614A68D5
:103E50008263036230BC7047002C014038B590F893
:103E60003C30012B66D004460D46012380F83C30DF
:103E70000C2A5AD8DFE802F0075959591B595959E9
:103E80003059595944000068FFF71EFD22689369B4
:103E900043F0080393612268936923F0040393615C
:103EA0002268936929690B43936100203EE0006812
:103EB000FFF79CFF2268936943F4006393612268D3
:103EC000936923F48063936122689369296943EAC3
:103ED00001239361002029E00068FFF729FD226893
:103EE000D36943F00803D3612268D36923F0040344
:103EF000D3612268D36929690B43D361002015E09F
:103F00000068FFF74DFD2268D36943F40063D36175
:103F10002268D36923F48063D3612268D369296955
:103F200043EA0123D361002000E00120002384F84C
:103F30003C3038BD0220FCE701F01F01012303FAE9
:103F400001FC036A23EA0C030362036A02FA01F12B
:103F50000B4303627047000010B504460846002971
:103F60003AD194F83E30DBB2013B18BF0123002B5D
:103F700066D1002849D1022384F83E30012201464F
:103F80002068FFF7D9FF23682F4A934203D002F538
:103F90000062934203D15A6C42F400425A6423688F
:103FA000294A934241D002F5006293423DD0B3F1D9
:103FB000804F3AD0A2F59832934236D002F5806213
:103FC000934232D002F5806293422ED01A6842F0BA
:103FD00001021A60002032E0042908D008290DD01F
:103FE00094F84130DBB2013B18BF0123BFE794F8DE
:103FF0003F30DBB2013B18BF0123B8E794F84030F3
:10400000DBB2013B18BF0123B1E7042805D0082823
:1040100007D0022384F84130B0E7022384F83F3010
:10402000ACE7022384F84030A8E79A6802F0070260
:10403000062A07D01A6842F001021A60002010BD5B
:104040000120FCE70020FAE7002C014038B50446C7
:1040500090F83E00C0B294F83F3094F84220D2B2BB
:1040600094F843C00D46B1B9012849D1012A48D17D
:10407000022384F83E3084F842307DB3042D39D0D9
:10408000012200212068FFF757FF01220421206848
:10409000FFF752FF27E0DBB25FFA8CFC042912D055
:1040A000012833D1012B2CD1012A31D1BCF1010FD0
:1040B00030D1022384F83E3084F83F3084F8423017
:1040C00084F84330D9E7012B1CD1BCF1010F1BD17F
:1040D000022384F83F3084F84330CEE701220021E8
:1040E0002068FFF729FF2268136843F0010313607B
:1040F000002006E0012204212068FFF71DFFF2E7FF
:10410000012038BD0120FCE71846FAE70120F8E756
:104110001846F6E71046F4E790F83C30012B34D00F
:1041200010B4012380F83C30022380F83D3003684E
:104130005A689C6822F0700C0A6842EA0C025A60C5
:104140000368134A934212D002F5006293420ED0E4
:10415000B3F1804F0BD0A2F59832934207D002F50D
:104160008062934203D002F58062934204D124F02E
:1041700080044A6814439C60012380F83D3000238A
:1041800080F83C30184610BC70470220704700BFD2
:10419000002C014090F83C30012B22D0012380F804
:1041A0003C30CB6823F440738A68134323F4806364
:1041B0004A68134323F400630A68134323F48053CB
:1041C0000A69134323F400534A69134323F48043D9
:1041D000CA69134302685364002380F83C301846D0
:1041E00070470220704770477047026802F10C0365
:1041F00053E8003F23F490730C3242E80031002969
:10420000F3D1026802F1140353E8003F23F00103E5
:10421000143242E800310029F3D1036B012B05D0A1
:10422000202380F84230002303637047026802F1C4
:104230000C0353E8003F23F010030C3242E8003136
:104240000029F3D1ECE790F84130DBB2212B01D00B
:10425000022070478368B3F5805F17D0036A5A1C49
:1042600002621A7803685A60C38C9BB2013B9BB20E
:10427000C3844BB90268D36823F08003D36002681B
:10428000D36843F04003D360002070470369002BDC
:10429000E4D1036A1B880268C3F308035360036A0E
:1042A00002330362E0E7000010B5044602681369B8
:1042B00023F44053C1680B431361836802691343BD
:1042C00042691A430168CB6823F4B05323F00C030E
:1042D0001343CB600268536923F4407381690B4335
:1042E00053610268134B9A4220D0FFF7A9F90246A6
:1042F00002EB820202EB820263689B00B2FBF3F2E4
:104300000D48A0FB02314909642303FB11231B0163
:104310003233A0FB03235B0903F0F00202EB01122E
:1043200003F00F03216813448B6010BDFFF798F969
:104330000246DDE7003801401F85EB512DE9F843C7
:1043400005460F4616469946DDF820802C682468FD
:1043500037EA04030CBF4FF0010C4FF0000CB445DA
:104360002DD1B8F1FF3FF1D0B8F1000F05D0FEF725
:104370001BF9A0EB09004045E8D92A6802F10C03BB
:1043800053E8003F23F4D0730C3242E80031002997
:10439000F3D12A6802F1140353E8003F23F001032C
:1043A000143242E800310029F3D1202385F841304E
:1043B00085F84230002385F84030032000E00020DB
:1043C000BDE8F88360B310B5044690F8413013B3EC
:1043D000242384F841302268D36823F40053D36047
:1043E0002046FFF761FF2268136923F490431361AD
:1043F0002268536923F02A0353612268D36843F487
:104400000053D36000206064202384F8413084F896
:104410004230606310BD80F84030FEF707F8D7E700
:10442000012070472DE9F04182B01E4690F84130DE
:10443000DBB2202B4BD104460D46904600294AD0D2
:104440000AB9012044E000234364212380F841306D
:10445000FEF7AAF80746A4F82480A4F82680A368EB
:10446000B3F5805F02D04FF000080FE02369FBB185
:104470004FF000080AE038F8023B2268C3F3080353
:104480005360E28C92B2013A92B2E284E38C9BB226
:104490008BB100963B46002280212046FFF74EFF5D
:1044A000D8B9002DE7D015F8012B23685A60E8E74A
:1044B000A8460025EAE700963B4600224021204618
:1044C000FFF73CFF58B9202384F8413000E0022078
:1044D00002B0BDE8F0810120FAE70320F8E70320ED
:1044E000F6E7704708B50168CA6822F04002CA6062
:1044F000202280F84120FFF7F4FF002008BD70471C
:1045000008B5406A0023C385C384FFF7F8FF08BDE0
:10451000704790F84230DBB2222B69D18368B3F543
:10452000805F4FD0826AB3F5805F04D0002B56D1F4
:104530000369002B53D103685B681370836A0133EE
:104540008362C38D9BB2013B9BB2C385002B51D1CB
:1045500000B583B00268D36823F02003D3600268FB
:10456000D36823F48073D3600268536923F0010396
:104570005361202380F8423000234363036B012BF7
:1045800033D100230363026802F10C0353E8003FB8
:1045900023F010030C3242E800310029F3D1036804
:1045A0001A6812F0100F06D0002201921A680192C8
:1045B0005B680193019B818DFFF7AAFF002003B088
:1045C0005DF804FB0269002AACD1826A03685B686B
:1045D000C3F308031380836A02338362B1E703687D
:1045E0005B6803F07F031370A8E7FCF7EDFFE5E7D6
:1045F000022070470020704730B583B0044602683F
:104600001368D068516913F00F0505D113F0200F1E
:1046100002D010F0200F19D12DB111F0010119D1E4
:1046200010F4907F16D1216B01297DD013F0800FFB
:1046300003D010F0800F40F0188113F0400F03D02A
:1046400010F0400F40F0158103B030BD2046FFF759
:1046500060FFF9E713F0010F06D010F4807F03D05C
:10466000626C42F00102626413F0040F04D019B1CD
:10467000626C42F00202626413F0020F04D019B1BE
:10468000626C42F00402626413F0080F07D010F06D
:10469000200F00D119B1626C42F008026264626CB2
:1046A000002AD1D013F0200F02D010F0200F29D112
:1046B00023685B6903F04003626C12F0080F00D1BD
:1046C00063B32046FFF791FD23685B6913F0400F49
:1046D00020D0226802F1140353E8003F23F0400386
:1046E000143242E800310029F3D1E36B73B1634A1D
:1046F0005A63E06BFEF7BAFA0028A5D0E06B436B73
:104700009847A1E72046FFF704FFD1E72046FFF7CF
:10471000F6FE99E72046FFF7F2FE95E72046FFF701
:10472000EEFE002363648FE713F0100F3FF47EAFBB
:1047300010F0100F3FF47AAF002301931368019338
:1047400053680193019B536913F0400F51D0E26B02
:1047500013685B689BB2002B3FF476AFA18D994242
:104760007FF672AFE3859369202B37D0226802F180
:104770000C0353E8003F23F480730C3242E800310D
:104780000029F3D1226802F1140353E8003F23F01B
:104790000103143242E800310029F3D1226802F10A
:1047A000140353E8003F23F04003143242E8003181
:1047B0000029F3D1202384F84230002323632268A8
:1047C00002F10C0353E8003F23F010030C3242E8DF
:1047D00000310029F3D1E06BFEF724FA0223636372
:1047E000A18DE38D9BB2C91A89B22046FFF790FED6
:1047F0002AE7A18DE38D9BB2C91A89B2E38D9BB2E2
:10480000002B3FF421AF00293FF41EAF226802F1D4
:104810000C0353E8003F23F490730C3242E800305D
:104820000028F3D1226802F1140353E8003F23F07B
:104830000103143242E800300028F3D1202384F829
:10484000423000232363226802F10C0353E8003F47
:1048500023F010030C3242E800300028F3D1022389
:1048600063632046FFF754FEEEE62046FFF7EBFCBD
:10487000EAE62046FFF736FEE6E600BF01450008FF
:1048800081628285C28500234364222380F84230FE
:10489000036923B10268D36843F48073D36002686C
:1048A000536943F0010353610268D36843F0200366
:1048B000D3600020704708B590F84230DBB2202B5F
:1048C00008D149B10AB9012008BD00230363FFF7ED
:1048D000D7FFF9E70220F7E70120F5E708B5012047
:1048E00001F0F2F8024B186008B1002008BDFEE7A5
:1048F0002012002008B50246014802F0F7FB08BD6F
:1049000080F0000808B54FF0FF31024B186801F045
:10491000E6F808BD2012002008B500231A46194603
:104920000248006801F000F808BD00BF2012002016
:10493000004870478CEF0008004870478CEF000873
:1049400008B5002001F0D8FB08BD000070B50024B8
:1049500012E00B4D04EB441606F1300028441F22F0
:104960000021023002F064FB3544002385F8313029
:1049700085F851300134E4B2042CEAD970BD00BF8F
:1049800024120020014B83F8F1007047241200200C
:1049900008B5084B93F8F23023B9064B012283F88F
:1049A000F32008BDFFF7AEFF024B012283F8F4208D
:1049B000F7E700BF2412002008B5084B93F8F23047
:1049C00023B9064B002283F8F32008BDFFF7A4FFAC
:1049D000024B002283F8F420F7E700BF24120020E6
:1049E0002DE9F0438FB005460E469046994608469D
:1049F00002F0E4FB074600240C94ADF83440089420
:104A000009940A940B94052D07D9B24B1B687BB10E
:104A100040F23A22B049B1489847B14B93F8F1308F
:104A20001BB1AF4B1B78AB4212D20FB0BDE8F08385
:104A3000A94B40F23A2204920393A8490291A94952
:104A400001910092A84AA9492046FFF7C9FFFEE755
:104A5000304600F0EDF9A842E7D3A549304602F010
:104A6000A9FD0028E1D018AB0793FFF791FF0121C2
:104A7000284600F037FA28BB00240221284600F01F
:104A800031FA40BB1C21284600F02CFA002842D104
:104A9000E021284600F026FA002840F09380079B8A
:104AA000179AC4F580619348204406F077F90444CE
:104AB000B4F5806F00F2EA80002880F2E9804FF4BC
:104AC0008064E5E08C4B53F825208A49002000F0F3
:104AD0007DFA0446D1E7324686492144204600F05B
:104AE00075FA04440F2F07D9844A8249214420468D
:104AF00000F06CFA0444C5E7C7F10F0220210DEB6A
:104B0000010002F095FA08AA7A492144204600F0F3
:104B10005DFA0444E8E77A4A76492144204600F0E9
:104B200055FA04440421284600F0DCF990B9082124
:104B3000284600F0D7F920BB1021284600F0D2F912
:104B4000002835D16F4A6B492144204600F03EFAD7
:104B500004449DE7FFF7ECFE0246664921442046E7
:104B600000F034FA04441821284600F0BBF900286C
:104B7000DDD0624A5F492144204600F027FA044410
:104B8000D5E7FFF7D9FE02465A492144204600F0F6
:104B90001DFA04441021284600F0A4F90028CBD0C7
:104BA000564A54492144204600F010FA0444C3E711
:104BB000FFF7C6FE02464F492144204600F006FAA0
:104BC0000444BFE7504A4B492144204600F0FEF917
:104BD00004442021284600F085F990B98021284618
:104BE00000F080F978BB4021284600F07BF90028CE
:104BF00044D1464A3F492144204600F0E7F90444A5
:104C00004DE742463B492144204600F0DFF9044489
:104C10004021284600F066F938B13D4A3549214423
:104C2000204600F0D3F90444D8E78021284600F05C
:104C300059F90028D2D0314A2E492144204600F0AB
:104C4000C5F90444CAE7169B324A05210CA802F0B4
:104C500073FA0CAA27492144204600F0B7F904440E
:104C60004021284600F03EF90028BCD0234A2149C3
:104C70002144204600F0AAF90444B4E74A461D49FD
:104C80002144204600F0A2F90444B2E74FF48064C6
:104C9000631CB3F5806F01D940F2FF34104B93F8D9
:104CA000203033B11348002303551B4902F082FC26
:104CB00060B1104D194A2919204600F087F92118D2
:104CC0002846FFF717FEFFF777FEAEE6FFF774FE04
:104CD000ABE600BF1C130020A8F10008CCF00008D0
:104CE00024120020E8F0000888F00008C4F0000852
:104CF0002512002020130020F0F100080CF100081C
:104D000010F1000814F1000818F1000824F100085F
:104D10001CF1000820F1000844120020C0ED00083A
:104D20000C4B93F8F03003B9704700B585B0012003
:104D3000FFF728FE084B0293084B0193F4230093DE
:104D4000074B084A08490420FFF74AFE05B05DF802
:104D500004FB00BF2412002030F1000838F10008E5
:104D60008CF1000888F0000828F1000830B587B001
:104D700004460D46052807D90E4B1B6853B14FF466
:104D80009E720D490D48984736340D4B43F8245018
:104D900007B030BD084B4FF49E720492039307494D
:104DA0000291084901910092074A08490020FFF743
:104DB00017FEFEE71C130020E0F10008CCF000080D
:104DC00024120020E8F0000888F00008C4F0000871
:104DD00010B586B00446052807D90E4B1B6843B1B1
:104DE0004FF4AB720C490D4898470D4B1C7006B040
:104DF00010BD094B4FF4AB72049203930749029123
:104E0000084901910092084A08490020FFF7E8FD8F
:104E1000FEE700BF1C130020CCF10008CCF0000816
:104E200024120020E8F0000888F00008C4F0000810
:104E300070B586B0064640B1234B93F8F030002B96
:104E40003FD0FFF75FFD002419E0204B1B682BB11A
:104E50004FF4EE721E491F489847EDE71C4B4FF484
:104E6000EE72049203931B4902911B490191009237
:104E70001A4A1B49FFF7B4FDFEE70134E4B2042CE3
:104E800019D804EB4412104B134493F85130002B03
:104E9000F3D002F130030C4919441E22023130468E
:104EA00002F0BAF90028E8D104EB4415064B1D4482
:104EB00095F8314000E00524FFF77EFD204606B05E
:104EC00070BD0524FAE700BF241200201C13002047
:104ED000B4F1000860F10008E8F0000888F000086C
:104EE000C4F0000830B587B004460D46052807D940
:104EF000114B1B686BB140F2D922104910489847FA
:104F00003634104B53F824302B4212D0012007B016
:104F100030BD0A4B40F2D922049203930849029112
:104F2000094901910092094A09490020FFF758FDFB
:104F3000FEE70020EBE700BF1C13002098F10008FB
:104F4000CCF0000824120020E8F0000888F00008E7
:104F5000C4F0000808B50B4B83F8F20058B193F881
:104F6000F4301BB9074A92F8F3202AB91BB1054B5C
:104F700093F8F3301BB108BDFFF7C4FCFBE7FFF764
:104F8000CBFCF8E72412002038B50F4B93F8F03033
:104F900013B10024204638BDFFF7A0FC04460028CA
:104FA000F8D10120FFF7D6FF074D002385F8F33035
:104FB00085F8F4300520FFF70BFFFFF7C7FC01234E
:104FC00085F8F030E6E700BF2412002070B586B007
:104FD000054616460C4681B136B3304601780029A5
:104FE00039D005F1010CB5F5806F34D2013023467C
:104FF00003F8011B1C466546F0E7184B1B6823B1FC
:105000002C22174917489847E6E7154B2C220492A3
:10501000039314490291144901910092134A1449CF
:105020000020FFF7DDFCFEE70C4B1B6823B12D22AF
:105030000B4910489847D0E7094B2D22049203935F
:105040000C490291084901910092084A0849002040
:10505000FFF7C6FCFEE7801B06B070BD1C130020E6
:1050600050F2000848F20008E8F0000808F20008D2
:10507000C4F000084CF20008842801D003307047C7
:105080000020704708B500F0F5FF002008BD2DE9AD
:10509000F04387B004460F464569BDB18669AEB19D
:1050A000D0F80480D0F80090B0F90800FFF7E4FFD2
:1050B0000296019500903B4622694946404600F021
:1050C0006BFF0590059807B0BDE8F083656826681A
:1050D000D4F81080B4F90800FFF7CEFF05AB0193B8
:1050E00000903B461FFA88F23146284600F08EFFBA
:1050F0000128E7D00020E6E708B500B9012001F05B
:1051000017F9002008BD10B582B044687CB10129B0
:1051100003D00024204602B010BD03230093234691
:1051200000221146012000F08FFB0446F2E701291E
:10513000F0D103220021012000F0CFFB044600281B
:10514000E8D000231A46194600F0EEFBE2E700F132
:10515000080343604FF0FF328260C36003610023A5
:105160000360704700230361704743684B609A688F
:105170008A60516099600861036801330360704779
:1051800030B40D68B5F1FF3F11D000F108031C46A3
:105190005B681A68AA42FAD963684B6099608C60B0
:1051A0006160086103680133036030BC70470469C3
:1051B000F2E70369416882688A60416851605A6811
:1051C000824206D0002202611A68013A1A60186809
:1051D000704782685A60F5E782B0002301930D4B57
:1051E0001B68B3F1FF3F08D04FF0500383F31188E1
:1051F000BFF36F8FBFF34F8FFEE74FF0500383F382
:105200001188BFF36F8FBFF34F8F019B002BFCD032
:1052100002B070470C00002006480068006880F368
:10522000088862B661B6BFF34F8FBFF36F8F00DFA0
:1052300000BF000008ED00E04FF0807340F8043C30
:1052400021F0010140F8081C034B40F80C3C40F8E9
:10525000202C4038704700BFD951000800000000E2
:10526000074B19680868B0E8F00F80F30988BFF3AE
:105270006F8F4FF0000080F311884EF00D0E7047D5
:10528000402700204FF0500383F31188BFF36F8F46
:10529000BFF34F8F0B4A136801331360012B00D00B
:1052A00070474FF0E023D3F8043D13F0FF0FF7D021
:1052B0004FF0500383F31188BFF36F8FBFF34F8F0D
:1052C000FEE700BF0C000020094B1B6843B94FF0FC
:1052D000500383F31188BFF36F8FBFF34F8FFEE747
:1052E000013B034A13600BB983F31188704700BF79
:1052F0000C00002000000000000000000000000082
:10530000EFF30980BFF36F8F0D4B1A6820E9F00FA0
:1053100010602DE908404FF0500080F3118801F033
:105320002DF84FF0000080F31188BDE8084019689F
:105330000868B0E8F00F80F30988BFF36F8F7047FB
:105340004027002008B54FF0500383F31188BFF3C6
:105350006F8FBFF34F8F00F0E3FE28B14FF0E023D3
:105360004FF08052C3F8042D002383F3118808BD49
:105370004FF0E022002313619361054B1B68054940
:10538000A1FB03139B09013B536107231361704782
:1053900000000020D34D621010B582B02A4B1A785D
:1053A000D2B20192FF221A701B78DBB28DF8033063
:1053B0009DF8033003F05003244A1370244B072256
:1053C0001A6009E0224A1368013B13609DF803301C
:1053D0005B00DBB28DF803309DF8033013F0800FD3
:1053E000F0D11B4B1B68032B08D04FF0500383F305
:1053F0001188BFF36F8FBFF34F8FFEE71B02144A74
:10540000136003F4E0631360019BDBB20E4A137078
:105410004FF0E023D3F8202D42F47002C3F8202D82
:10542000D3F8202D42F07042C3F8202DFFF7A0FFE3
:105430000024084B1C60FFF7EFFE00F09FFFFFF712
:10544000CBFE204602B010BD00E400E02017002093
:10545000241700200C000020124A12F0070F1ED063
:10546000D11D21F00701C1F5805313440A460E48AF
:105470000260002141601344083B23F007030B48FE
:10548000036059601960991A51601360084B1960E4
:10549000084B1960084B4FF000421A6070474FF4F8
:1054A0008053E4E72C17002038270020281700201D
:1054B00034270020302700202C270020154B1A46C7
:1054C0001B688342FBD3516802EB010C844509D071
:1054D000416800EB010C634509D00360904218D08D
:1054E000106070474068014451601046F0E710B406
:1054F000094C2468A3420AD05B68194441601368D0
:105500001B680360904200D0106010BC70470460BC
:10551000F8E77047382700202817002070B50546A7
:1055200000F0E2FD344B1B68A3B1344B1B681D42F5
:105530004AD135B1083515F0070F02D025F007051F
:105540000835002D42D02E4B1B68AB424DD32D4A5F
:10555000146804E0FFF780FFE7E722461C46636813
:10556000AB4202D22368002BF7D1234B1B68A34226
:105570003DD0166808362368136063685B1B102BE8
:1055800010D9601910F0070F08D04FF0500383F3C3
:105590001188BFF36F8FBFF34F8FFEE743606560E5
:1055A000FFF78CFF626816490B689B1A0B6016495F
:1055B00009688B4201D214490B60104B1B681343DE
:1055C00063600023236002E0002600E0002600F074
:1055D00033FE16F0070F0CD04FF0500383F3118801
:1055E000BFF36F8FBFF34F8FFEE70026EFE7002674
:1055F000EDE7304670BD00BF281700202C270020A3
:1056000030270020382700203427002080B338B509
:105610000446A0F1080550F8043C164A12681342EB
:1056200008D14FF0500383F31188BFF36F8FBFF39E
:105630004F8FFEE750F8081C41B14FF0500383F341
:105640001188BFF36F8FBFF34F8FFEE723EA02038A
:1056500040F8043C00F048FD54F8041C064A136866
:105660000B4413602846FFF729FF00F0E5FD38BD25
:10567000704700BF2C270020302700200346406AD7
:1056800018B11B6B1868C0F10700704710B50446CD
:10569000FFF7F8FDA26BE36B9A4204D00024FFF7FA
:1056A00013FE204610BD0124F9E710B50446FFF7AC
:1056B000E9FDA36B23B90124FFF706FE204610BDC8
:1056C0000024F9E770B504461546866B026C5AB99A
:1056D00003681BB100200136A66370BD406800F06E
:1056E000B9FF00236360F6E76DB98068FBF738FD0A
:1056F000226CA3681344A3606268934219D32368A1
:10570000A3602846E7E7C068FBF72AFD226C5142F8
:10571000E3689B1AE3602268934202D263680B44F9
:10572000E360022D01D00020D5E726B1013E002024
:10573000D1E72846CFE70020CDE738B50546FFF78B
:10574000A1FD95F8454064B201E0013C64B2002C33
:105750000ADD6B6A43B105F1240000F073FE0028F6
:10576000F3D000F003FFF0E7FF2385F84530FFF7A3
:10577000ABFDFFF787FD95F8444064B201E0013CC2
:1057800064B2002C0ADD2B6943B105F1100000F072
:1057900059FE0028F3D000F0E9FEF0E7FF2385F87A
:1057A0004430FFF791FD38BD38B5E0B10D460446F1
:1057B000FFF768FD2368E26B216C01FB023060603B
:1057C0000020A063A360013A02FB0133E360FF23E2
:1057D00084F8443084F84530FDB9236963B9FFF794
:1057E00073FD012038BD4FF0500383F31188BFF3E0
:1057F0006F8FBFF34F8FFEE704F1100000F022FE21
:105800000028ECD04FF0E0234FF08052C3F8042D75
:10581000BFF34F8FBFF36F8FE1E704F11000FFF785
:1058200096FC04F12400FFF792FCD8E710B503467C
:1058300002980C4631B90060C36304640121FFF78C
:10584000B3FF10BD0260F7E740B94FF0500383F398
:105850001188BFF36F8FBFF34F8FFEE710B584B091
:105860001C46844653B192B189B94FF0500383F37B
:105870001188BFF36F8FBFF34F8FFEE74FF05003D8
:1058800083F31188BFF36F8FBFF34F8FFEE76AB1C9
:1058900048230393039B482B13D04FF0500383F30B
:1058A0001188BFF36F8FBFF34F8FFEE70029EFD052
:1058B0004FF0500383F31188BFF36F8FBFF34F8F07
:1058C000FEE7012384F8463000949DF818306046C6
:1058D000FFF7ACFF204604B010BD40B94FF05003B5
:1058E00083F31188BFF36F8FBFF34F8FFEE7F0B5DF
:1058F00083B00C4615460746A1B101FB00F04830C5
:10590000FFF70CFE064650B1002380F846300090A9
:105910002B4600F1480221463846FFF787FF304604
:1059200003B0F0BD0846EAE7F0B585B0019288B152
:105930000F461D460446B1B1022D20D1E36B012B69
:105940001DD04FF0500383F31188BFF36F8FBFF367
:105950004F8FFEE74FF0500383F31188BFF36F8F33
:10596000BFF34F8FFEE7036C002BE5D04FF05003E1
:1059700083F31188BFF36F8FBFF34F8FFEE700F003
:10598000FBFD064658B9019B002B48D04FF0500351
:1059900083F31188BFF36F8FBFF34F8FFEE70026AD
:1059A0003DE02A4639462046FFF78CFE636A7BB904
:1059B00048B14FF0E0234FF08052C3F8042DBFF3FD
:1059C0004F8FBFF36F8FFFF77FFC012005B0F0BD55
:1059D00004F1240000F036FD0028F4D04FF0E0235D
:1059E0004FF08052C3F8042DBFF34F8FBFF36F8F7A
:1059F000E9E7FFF769FC0020E8E702A800F068FD8E
:105A0000012619E0002384F8443021E0002384F8C3
:105A1000453023E02046FFF790FE00F00DFCFFF735
:105A200031FCA26BE36B9A42BBD3022DB9D0019B30
:105A3000002BDED0002EE0D0FFF746FC00F054FB38
:105A4000FFF720FC94F8442052B2B2F1FF3FD9D0C6
:105A500094F8452052B2B2F1FF3FD7D0FFF734FCA3
:105A600001A902A800F040FDD8B92046FFF70EFEBC
:105A70000028CFD0019904F1100000F0CBFC2046A3
:105A8000FFF75BFE00F0D8FB0028C8D14FF0E02301
:105A90004FF08052C3F8042DBFF34F8FBFF36F8FC9
:105AA000BDE72046FFF749FE00F0C6FB00208DE76A
:105AB00048B108B5002141600160C1600B460A464B
:105AC000FFF732FF08BD704710B5024600210120E4
:105AD000FFF703FF0446FFF7EBFF204610BD70B54C
