:020000040800F2
:10000000C0060020853700084D0200084F02000896
:1000100051020008530200085502000800000000C9
:10002000000000000000000000000000570200086F
:1000300059020008000000005B020008CF360008EB
:100040009F3700089F3700089F3700089F37000838
:100050009F3700089F3700089F3700089F37000828
:100060009F3700089F3700089F3700089F37000818
:100070009F3700089F3700089F3700089F37000808
:100080009F3700089F3700085D0200089F3700086F
:100090009F3700089F3700089F3700089F370008E8
:1000A000B3020008C90200089F3700089F37000804
:1000B000DB020008FF290008DD0200089F37000866
:1000C0009F3700089F3700089F3700089F370008B8
:1000D0009F370008091C00089F3700089F37000859
:1000E0009F3700089F3700089F3700089F37000898
:1000F0009F3700089F3700089F3700089F37000888
:100100009F3700089F3700089F3700089F37000877
:100110009F3700089F3700089F3700089F37000867
:100120009F3700089F3700089F3700089F37000857
:10013000DFF810D003F0CEFC00480047490100086A
:10014000AFF30080C00600204FF4806000F078F923
:1001500001F08EFD02F04BFE02F0C6FA03F05CFAED
:10016000314A3249324801F0FDFF01F01AFF314CAB
:100170000120207030494FF47A7008802F4F304DA5
:10018000002620780828FCD2DFE800F00405040EE1
:100190001E04323CF5E701F0DDFE40F6B83003F016
:1001A00088FA02202070ECE702F0E7FB10B108208B
:1001B00001F0FEFE02F05DFBA0F598518839E0D118
:1001C000082001F0F5FEDCE700211E4801F003F9EC
:1001D00006202070002003F0C9F91B4846800680E5
:1001E000006803F009F84FF4FA6003F044FAC8E736
:1001F00003F044FA0128C4D102F0BFFB0028C0D0AC
:100200002670BEE701F027FF0128BAD12868C00791
:1002100001D03E7001E00C2038702670286840F054
:1002200002002860ADE70000F8010020B8010020BE
:10023000D801002050000020560000205900002066
:1002400038000020002C01404C0000207047FEE7E1
:10025000FEE7FEE7FEE770477047704710B5204C99
:100260002068400715D56FF00400206003F0AAF95C
:1002700000280DD001F03AFF1A480178022905D074
:10028000032905D1BDE8104001F0EABD032101704A
:1002900010BD4FF4A071204600F0A4FA0128F7D158
:1002A000800201F085FE2046BDE81040012100F0EB
:1002B00096BA10B54FF4007001F07AFEBDE8104018
:1002C0008021094801F0B3BA10B50121064801F0B8
:1002D0009FFABDE8104003F06BB97047704700000B
:1002E0000024014050000020002C01400CB50021EA
:1002F0004B4801910091026842F4803202604FF451
:10030000A063026802F400320092019A521C01922A
:10031000009A12B9019A9A42F3D10268920333D536
:10032000012100913F490A6842F010020A600A6800
:1003300022F003020A600A6842F002020A60416881
:10034000416041684160416841F4806141604168B9
:1003500021F47C114160416841F4E8114160016879
:1003600041F08071016001688901FCD5416821F08C
:1003700003014160416841F0020141604168C1F3FD
:1003800081010229FAD10CBD00910CBD244810B5A1
:10039000016841F0010101604168234A1140416058
:1003A0000168224A11400160016821F48021016046
:1003B000416821F4FE0141604FF41F018160FFF7A5
:1003C00095FF1B494FF00060086010BD144910B53F
:1003D0004868184A10F00C03174803D0042B01D0CA
:1003E000082B0AD002604968134AC1F30311121D99
:1003F000515C0268CA40026010BD4A684B6802F452
:1004000070124FF0020413F4803F04EB924202D0CA
:100410004B689B0301D5094B00E0064B5A43E1E7CB
:1004200000100240002002400000FFF8FFFFF6FE2F
:1004300008ED00E000127A000000002000093D00F5
:100440002849084328490860704770B50F23C478CD
:1004500001780122F4B1244C2468457804F4E06466
:10046000C4F5E064240AC4F10406E3408478B5408E
:100470001C402C4301F1E021230181F80034007875
:1004800000F01F018A404009800000F1E020C0F820
:10049000002170BD01F01F0082404809800000F17A
:1004A000E020C0F8802170BD104A114001430E4881
:1004B000001F016070470C4A121D0029116801D00D
:1004C000014300E08143116070474FF0E0210428B0
:1004D000086903D020F004000861704740F0040070
:1004E000FAE700000000FA050CED00E080FFFF1FB6
:1004F000C54910B5884202D1012144150AE0C3491B
:10050000884202D10121041504E0C14988420AD180
:100510000121CC03204600F0D6FB2046BDE8104068
:10052000002100F0D0BB10BD10B54268B94B0C796A
:100530001A400B6842EA0422134343608368B64AB8
:100540001340D1E9024222434C7943EA44031A435F
:100550008260C26A097C22F47002491EC9B242EA72
:100560000151C16210BD00210160017141718160C2
:10057000C1600121017470470029816802D041F0F7
:10058000010101E021F001018160704700298168CB
:1005900002D041F4807101E021F4807181607047E4
:1005A000002A4268C9B201D00A4300E08A4342608F
:1005B0007047816841F00801816070470146002062
:1005C0008968090700D501207047816841F004015E
:1005D00081607047014600208968490700D50120E5
:1005E00070470029816802D041F4A00101E021F4A4
:1005F000A00181607047014600208968490200D54A
:10060000012070474268491E22F4604242EA4131AB
:10061000416070470029416802D041F4006101E067
:1006200021F400614160704770B5072409290AD997
:10063000C568A1F10A0606EB4606B440A543B340DF
:100640001D43C56007E0056901EB4106B440A543C1
:10065000B3401D4305611F23072A09D2446B521E74
:1006600002EB820293409C4391400C43446370BD73
:100670000D2A09D2046BD21F02EB820293409C43E5
:1006800091400C43046370BDC46A0D3A02EB8202D0
:1006900093409C4391400C43C46270BD0029816823
:1006A00002D041F4801101E021F480118160704793
:1006B000C06C80B2704754484C30006870470029C5
:1006C000416802D041F4806101E021F48061416021
:1006D00070470029416802D041F4805101E021F4C3
:1006E000805141607047826822F4E0420A43826090
:1006F00070470029816802D041F4004101E021F4F3
:100700000041816070470029816802D041F40211E4
:1007100001E021F4021181607047014600208968E0
:10072000890200D50120704770B5072409290AD92C
:10073000C568A1F10A0606EB4606B440A543B340DE
:100740001D43C56007E0056901EB4106B440A543C0
:10075000B3401D430561836BC3F30154121B921C0C
:1007600002EB82041F22A2409343A1400B43836308
:1007700070BD826B491E22F4401242EA015181632E
:10078000704708B508440090026008BD08B50844E9
:1007900028300090006880B208BD42681F4B1A40A4
:1007A0000A4342607047416282627047426822F0A9
:1007B0001F020A4342607047134908310028086845
:1007C00002D040F4000001E020F40000086070470F
:1007D0000246002012680A4200D001207047C94337
:1007E0000160704710B50246002054680B0AC9B278
:1007F0000C401168194202D0002C00D0012010BD1D
:100800006FEA112101607047002401400028014077
:10081000003C0140FFFEF0FFFDF7F1FFFFFD3FFF51
:10082000914910B5884206D10121042000F04BFA0D
:10083000002104203BE08D49884206D10121082097
:1008400000F041FA0021082031E08949884206D1B0
:100850000121102000F037FA0021102027E08549FF
:10086000884206D10121202000F02DFA002120200D
:100870001DE08149884206D10121402000F023FA81
:100880000021402013E07D49884206D101218020CB
:1008900000F019FA0021802009E0794988420AD144
:1008A00084150121204600F00EFA00212046BDE803
:1008B000104000F008BA10BD10B50121084600F044
:1008C00002FA0021BDE81040012000F0FCB9F0B5AB
:1008D000CA78002502F00F03D20601D58A781343A7
:1008E0000A784FF00F0E12F0FF0F4FF001021DD0EB
:1008F000D0F800400F8802FA05F63740B74211D110
:100900004FEA850C0EFA0CF724EA070703FA0CF4F9
:100910003C43CF78282F02D0482F02D002E0466116
:1009200000E006616D1C082DE4D304600C88FF2CE8
:100930001ED944685FF0000606F1080702FA07F5C1
:100940000F882F40AF420FD14FEA860C0EFA0CF7FA
:10095000BC4303FA0CF73C43CF78282F00D1456104
:10096000CF78482F00D10561761C082EE4D344606F
:10097000F0BD4FF6FF710180022181700421C1702A
:1009800070470246002092680A4200D0012070475A
:10099000806880B2704702460020D2680A4200D0C8
:1009A00001207047C06880B27047016170474161A3
:1009B00070470AB10161704741617047C16070477B
:1009C00041F480328261816182618169806970470E
:1009D0002C4B10B51A684FF68074224042EA001082
:1009E0000843186010BD2849C8617047F0B5254C10
:1009F000002801DAE36900E06368420D120185B264
:100A0000C0F301579540C0F30346032F05D0C2023F
:100A10000AD50322B240934307E023F07062636873
:100A200023F07063636002E0AB4343F0706201B196
:100A30002A43002801DAE261F0BD6260F0BD10B522
:100A40008A0721F003040F49130F21440F228C68F9
:100A50009A4094438C608A68984002438A6010BD33
:100A60000949C1F8DC00704700080140000C014052
:100A7000001001400014014000180140001C01401A
:100A8000002001400000014000002042A44801680D
:100A900041F0010101604168A24A114041600168D2
:100AA000A14A11400160016821F480210160416880
:100AB00021F4FE0141604FF41F01816070479849A5
:100AC0000A6822F480320A600A6822F480220A60EE
:100AD000B0F5803F07D0B0F5802F03D1086840F40F
:100AE000A02008607047086840F48030F9E70246AB
:100AF000002053098A49012B0AD0022B0AD0496AE7
:100B000002F01F02012393400B4200D001207047E6
:100B10000968F5E7096AF3E718B500204FF4A06407
:100B200000903120FFF7E3FF0099491C0091A1429A
:100B300001D00028F5D03120FFF7D9FF002800D0E0
:100B4000012018BD76490A6822F0F80242EAC00086
:100B500008607047754908607047714A53680843D8
:100B600023F47C131843506070477049086670473F
:100B70006B4A516821F00301014351607047684896
:100B8000406800F00C007047654A516821F0F001A0
:100B9000014351607047624A516821F4E0610143AA
:100BA000516070475E494A6822F4605242EAC000D0
:100BB000486070475A4A0029517A01D0014300E049
:100BC0008143517270475949C1F8D8007047544A5F
:100BD000516821F44041014351607047504900225F
:100BE00081F8202081F82020012802D0042802D199
:100BF000052081F8200070474D490860704748493A
:100C00000A6A02430A6270474949443908607047DA
:100C100030B543494A6812F00C03464A03D0042B0E
:100C200001D0082B21D002604A680F23424C03EA0E
:100C30001212A35C0268DA4042604B68072505EA9D
:100C40001323E35C22FA03F383604B6805EAD323A2
:100C5000E35CDA40C2604968032303EA9131231F51
:100C6000595CB2FBF1F1016130BD4A684B6802F496
:100C700070124FF0020413F4803F04EB924202D052
:100C80004B689B0301D52D4B00E02A4B5A43CAE722
:100C9000234A0029516901D0014300E08143516199
:100CA00070471F4A0029916901D0014300E0814348
:100CB000916170471A4A0029D16901D0014300E0CF
:100CC0008143D1617047164A0029D16801D00143A0
:100CD00000E08143D1607047114A0029116901D0B9
:100CE000014300E0814311617047114940390860B8
:100CF00070470E49C86470470949C8717047084871
:100D0000416A41F0807141627047054A0146002006
:100D100092680A4200D001207047014988727047EA
:100D2000001002400000FFF8FFFFF6FE0000424204
:100D30008004424200127A001800002000093D00A1
:100D4000F94910B5884202D10121C41486E0B0F1FE
:100D5000804F09D0F54988420DD101210220FFF7CB
:100D6000BBFF0021022064E001210846FFF7B4FF29
:100D7000002101205DE0EE49884206D101210420D6
:100D8000FFF7AAFF0021042053E0EA49884206D178
:100D900001210820FFF7A0FF0021082049E0E649D3
:100DA000884206D101211020FFF796FF0021102074
:100DB0003FE0E249884206D101212020FFF78CFF65
:100DC0000021202035E0DE49884202D1012144146F
:100DD00044E0DC49884202D10121CC043EE0DA49FA
:100DE000884202D101210C0538E0D849884202D15D
:100DF00001214C0532E0D649884206D1012140202C
:100E0000FFF76AFF0021402013E0D249884206D153
:100E100001218020FFF760FF0021802009E0CE49FA
:100E200088420AD1841501212046FFF755FF002191
:100E30002046BDE81040FFF74FBFC849884202D1A5
:100E400001210C040AE0C649884202D101214C0468
:100E500004E0C44988420AD101218C042046FFF7EE
:100E600032FF2046BDE810400021FFF72CBF10BD27
:100E700030B50288AC4BB24C98420DD0A0420BD09A
:100E8000B0F1804F08D0A94DA84205D0A84DA84286
:100E900002D0A84DA84203D122F070054A882A4307
:100EA000A54DA84206D0A54DA84203D022F4407516
:100EB000CA882A4302808A8882850A8802859842E5
:100EC0000AD0A04208D0A54A904205D0A44A904238
:100ED00002D0A44A904201D1097A0186012181827F
:100EE00030BD30B5028C22F001020284028C83886E
:100EF000048B22F0020224F073050C882C430D8928
:100F000015434A882A43884DA8420BD08C4DA842ED
:100F100008D0924DA84205D0914DA84202D0914DE3
:100F2000A8420DD122F008054A8923F440732A43D0
:100F300022F004058A882A438D891D43CB892B43DF
:100F400083800483C9888186028430BD70B5028C99
:100F500022F010020284028C8488038B0D8823F413
:100F6000E6464FF6FF7303EA052535430E8922F066
:100F7000200203EA061616434A8803EA02123243A5
:100F8000694EB04202D06E4EB04215D122F08006BA
:100F90004A8924F4406403EA0212324322F04006F4
:100FA0008A8803EA021232438E8903EA86062643C0
:100FB000CC8903EA8404344384800583C98801878B
:100FC000028470BD70B5028C22F480720284028C9F
:100FD0008488838B0D8823F073031D4322F40073F0
:100FE0000E894FF6FF7202EA06261E434B8802EA7C
:100FF000032333434C4EB04202D0514EB04215D180
:1010000023F400664B8924F4405402EA032333435B
:1010100023F480668B8802EA032333438E8902EA35
:1010200006162643CC8902EA04143443848085835F
:10103000C9888187038470BD70B5028C22F4805208
:101040000284048C8288838B0D8823F4E6464FF655
:10105000FF7303EA0525354324F400560C8903EA9F
:10106000043434434E8803EA063626432E4CA0420D
:1010700002D0334CA04205D122F480448A8903EA8D
:101080008212224382808583C988A0F8401006849A
:1010900070BD828B22F440628283828B4FF6FF7395
:1010A00003EA01210A4382837047828B22F00C02FB
:1010B0008283828B0A4382837047028B22F44062D0
:1010C0000283028B4FF6FF7303EA01210A43028376
:1010D0007047F0B5048C24F010040484078B048C52
:1010E0004FF6FF7527F4734705EA03333B4305EAE0
:1010F00002221A430C4B05EA011698420ED0104BFF
:1011000098420BD0B0F1804F08D0084B984205D0E0
:10111000074B984202D0074B984225D124F020017A
:10112000314341F0100124E0002C01400004004054
:1011300000080040000C0040001000400014004077
:1011400000340140004C0140005001400054014077
:1011500000180040001C00400020004000400140FA
:10116000004401400048014024F0A0030B4343F039
:10117000100102830184F0BD028B22F00C02028375
:10118000028B0A430283704770B5048C24F001047B
:101190000484058B048C4FF6FF7606EA0313134391
:1011A00025F0F305F94A2B4390420ED0F84A9042BD
:1011B0000BD0B0F1804F08D0F64A904205D0F64AE5
:1011C000904202D0F54A904202D124F0020201E09E
:1011D00024F00A020A4342F001010383018470BD36
:1011E0002DE9F05F0D4604460888E84FDFF8A0C3FC
:1011F000DFF8A0834988AA882B894FF0804960B323
:10120000042832D04FF6FF7E082836D0208C9B462B
:1012100020F480502084A38B268C704600EA0222A2
:1012200023F473431A4300EA0B3010430EEA013EE5
:10123000BC420BD0644509D04C4507D0444505D08D
:10124000D54A944202D0D54B9C4245D126F4005158
:1012500041EA0E0141F4805143E02046FFF794FF3C
:10126000E9882046BDE8F05F86E72046FFF731FFBA
:10127000E9882046BDE8F05F1FE7208C20F48070ED
:101280002084B4F81CA0208C0EEA031313432AF028
:10129000F30A0EEA012B43EA0A03BC420BD0644571
:1012A00009D04C4507D0444505D0BB4A944202D0F2
:1012B000BA4A944204D120F4007040EA0B0002E0E4
:1012C00020F42060084340F48070A3832084E988E0
:1012D0002046BDE8F05FE8E626F402420A4342F405
:1012E0008051A08320462184E988BDE8F05FD0E6E4
:1012F0002DE9F0410C46002649880746012501B931
:101300000226A288012A00D10225208823890028EC
:10131000384610D0FFF7DDFEE1883846FFF7CDFEF6
:1013200023892A4631463846FFF72EFFE1883846A2
:10133000BDE8F04120E7FFF727FFE1883846FFF7D7
:101340001BFF23892A4631463846FFF7C2FEE18853
:101350003846BDE8F041B0E610B50A884B88CC8825
:101360001A438B8823431A430B891A434B89898973
:101370001A430A43A0F8442010BD4FF6FF71818044
:1013800000210180C18041800172704700210180ED
:1013900041808180C180018141818181C18170470B
:1013A00000210180418001228280C180018170473B
:1013B0000021018041808180C18001814181818142
:1013C00070470029018802D041F0010101E021F0BD
:1013D000010101807047002930F8441F02D041F418
:1013E000004101E0C1F30E0101807047002A8289AB
:1013F00001D00A4300E08A438281704781827047AE
:101400001143A0F848107047002A828901D00A438E
:1014100000E08A4382817047018921F00701018140
:101420007047028922F070020A430281704700B5BA
:101430000346FFF7F6FF188940F00700188100BD4A
:1014400070B516460D46602904464FF0010231463C
:101450000AD0FFF799FE29462046FFF7E2FF2089D0
:1014600040F00700208170BDFFF733FEF3E730B591
:1014700004894FF6FF7505EA03231343E4B20B43D7
:101480002343038130BD10B50446FFF7F0FF2089E8
:1014900040F07700208110BD10B50446FFF7E7FF4C
:1014A000208940F48040208110BD018582827047F0
:1014B000028822F070020A430280704770B50589E5
:1014C000048B068C25F007050D434FF6FC410C40BC
:1014D00040F201110C434FF6FF7101EA031126F0AF
:1014E00022061143314305810483018470BD028BC0
:1014F00022F070020A4302837047028B4FF6FF739B
:1015000022F4E04203EA0121114301837047828BF8
:1015100022F070020A4382837047828B4FF6FF737A
:1015200022F4E04203EA012111438183704700293C
:10153000018802D041F0800101E021F080010180AA
:1015400070470029818802D041F0040101E021F0B8
:101550000401818070470029818802D041F0080190
:1015600001E021F00801818070470029818802D0C4
:1015700041F0010101E021F0010181807047028BFF
:1015800022F008020A43028370470000002C014049
:10159000003401400004004000080040000C0040FE
:1015A000028B4FF6FF7322F4006203EA012111431C
:1015B0000183E9E7828B22F008020A438283E3E792
:1015C000828B4FF6FF7322F4006203EA012111437C
:1015D0008183D9E7028B22F004020A430283D3E716
:1015E000028B4FF6FF7322F4806203EA012111435C
:1015F0000183C9E7828B22F004020A438283C3E796
:10160000828B4FF6FF7322F4806203EA01211143BB
:101610008183B9E7028B22F080020A430283B3E799
:10162000028B4FF6FF73C2F30E0203EA012111434E
:101630000183A9E7828B22F080020A438283A3E719
:10164000828B4FF6FF73C2F30E0203EA01211143AE
:10165000818399E7028C22F002020A43028493E715
:10166000028C22F008020A4302848DE7028C4FF6B6
:10167000FF7322F0200203EA01111143018483E782
:10168000028C4FF6FF7322F0800203EA011111432E
:10169000018479E7028C4FF6FF7322F4007203EAAB
:1016A0000121114301846FE7028C4FF6FF7322F48E
:1016B000006203EA01211143018465E7028C4FF6C1
:1016C000FF7322F4005203EA0131114301845BE706
:1016D00010B50123048C8B409C430484038C8A4006
:1016E0001343038410BD10B50423048C8B409C432A
:1016F0000484038C8A401343038410BD30B5012455
:10170000058C00F118038C40A543058489B1082994
:101710000FD0091FC1F34E001844016821F4E041C5
:10172000016001684FF6FF7303EA02221143016072
:1017300030BD03EB5100016821F0700101600168C8
:10174000F4E70029018802D041F0020101E021F014
:101750000201018018E70029018802D041F004014C
:1017600001E021F0040101800EE70029818802D008
:1017700041F0800101E021F08001818004E70288CE
:1017800022F00802028002880A430280FCE6828876
:1017900022F07002828082880A438280F4E6028905
:1017A00022F00702028102890A430281ECE60289E3
:1017B00022F08002028102890A430281E4E68184E8
:1017C000E2E68185E0E68186DEE60187DCE6818768
:1017D000DAE6A0F84010D7E6028822F440720280D0
:1017E00002880A430280CFE6808ECDE6008FCBE6EA
:1017F000808FC9E6B0F84000C6E6808CC4E6008D54
:10180000C2E602460020128A0A4200D00120BBE64E
:10181000C9430182B8E602460020138A92890B422E
:1018200002EA010202D0002A00D00120ACE6C9433E
:101830000182A9E6C44910B588420AD101218C036E
:101840002046FFF740FA2046BDE810400021FFF790
:101850003ABABE49884202D101214C0410E0BC4989
:10186000884202D101218C040AE0BA49884202D19F
:101870000121CC0404E0B84988420AD101210C05B9
:101880002046FFF729FA2046BDE810400021FFF767
:1018900023BA10BD30B50446008A85B00D464CF61B
:1018A000FF710840E98801432182A1894EF6F310B7
:1018B0000140A8882A8910436A890A431043A081FD
:1018C000A08A4FF6FF410840A9890143A1826846DA
:1018D000FFF79EF99C48844201D1039800E00298EA
:1018E000A189090400EBC00101EB0010296801D5B2
:1018F000490000E08900B0FBF1F06422B0FBF2F196
:1019000009010B096FF018056B4300EB8300A389F5
:101910001D044FF0320306D503EBC000B0FBF2F01C
:1019200000F0070005E003EB0010B0FBF2F000F060
:101930000F000843208105B030BD4FF416510160FF
:1019400000218180C18001810C2242818181704708
:1019500010B5038A4FF2FF0213400A884C882243D5
:101960008C88C9880C4322431A43028210BD00218F
:10197000018041808180C18070470029818902D027
:1019800041F4005101E021F400518181704710B50C
:10199000C1F3421301F01F040121A140012B07D024
:1019A000022B07D01430002A026805D00A4304E055
:1019B0000C30F8E71030F6E78A43026010BD002AC9
:1019C000828A01D00A4300E08A4382827047028AF9
:1019D00022F00F020282028A0A4302827047828941
:1019E00022F40062828182890A4382817047002941
:1019F000818902D041F0020101E021F002018181E0
:101A00007047028A22F020020282028A0A4302827E
:101A100070470029018A02D041F4804101E021F49D
:101A2000804101827047C1F308018180704780883E
:101A3000C0F308007047818941F00101818170473E
:101A4000028BD2B20283028B42EA012101837047EA
:101A5000028B02F47F420283028B0A4302837047A7
:101A60000029818A02D041F0200101E021F020010B
:101A7000818270470029818A02D041F0100101E083
:101A800021F01001818270470029818A02D041F043
:101A9000080101E021F00801818270470029818955
:101AA00002D041F4004101E0C1F30E018181704791
:101AB0000029818A02D041F4006101E021F4006133
:101AC00081827047828A22F004028282828A0A43DB
:101AD000828270470029818A02D041F0020101E030
:101AE00021F00201818270470246002012880A42DA
:101AF00000D001207047C9430180704730B501F024
:101B00001F0201240025C1F3421304FA02F2012B43
:101B10000FD0022B0FD0838A4FEA11210088134285
:101B200004FA01F400EA040001D000B101252846BE
:101B300030BD8389F0E7038AEEE70A0A012191406C
:101B4000C943018070470000003801400044004054
:101B500000480040004C00400050004070474049A1
:101B60000A885206FCD53E4AC1B2121D1180704748
:101B700070B5054686B0012144F20500FFF791F8E3
:101B80004FF40070ADF8100003248DF812401820B7
:101B9000344E8DF8130004A93046FEF798FE301538
:101BA000ADF8100004208DF8130004A93046FEF7AC
:101BB0008EFE25208DF814008DF815408DF8164006
:101BC00001208DF8170005A8FEF73FFC0020ADF8B6
:101BD0000400ADF80600ADF80800ADF80C000C20CC
:101BE0001F4CADF80A00009569462046FFF752FEEB
:101BF000012240F225512046FFF7C9FE012120466F
:101C0000FFF7BBFE06B070BD70B5154C40F2255114
:101C10002046FFF773FF00280ED02046FFF707FF8E
:101C2000C2B2114801880B0406D44C044FF00003E3
:101C300006D50A2A01D0038070BD41F400410DE0B1
:101C40000D2A09D0C1F30D04084D491C89B22A554B
:101C50000180C729EFD870BD41F48041018070BD7B
:101C6000003801400008014028000020F00000205A
:101C700038B501210420FFF714F80D4D2846FEF772
:101C8000CFFD6846FEF775FE4FF47064ADF8004076
:101C900001208DF8020010208DF8030069462846C7
:101CA000FEF715FE21462846FEF781FE38BD0000EE
:101CB00000080140034601B261F30F0044F6E6124A
:101CC0005143CA1701EB5241CA13191444F6E613E3
:101CD0005943CB1701EB5341C9130A4411444942FC
:101CE00061F31F40704710B500F50042920912F4ED
:101CF0004074C0F387125249C2F1FF0316D0B4F505
:101D0000807F1CD0B4F5007F09D0B4F5407F1FD18F
:101D100031F8133031F8121063F31F400DE031F841
:101D2000122031F8131062F31F400FE031F8122037
:101D300031F81310524262F31F40494206E031F875
:101D4000133031F812105B4263F31F4061F30F0050
:101D500010BDE0B505460846FFF7C5FF0146394806
:101D60002BB22D140160B0F90060B0F9027003FBD2
:101D700006F2D11702EB5141CA1305FB07F1C81750
:101D800001EB5040A2EBE031204661F30F0003FB72
:101D900007F2D11702EB5141CA1305FB06F1CB172D
:101DA00001EB534102EBE13161F31F40E0BD10B59F
:101DB000254A264CB2F90000B2F9021000FB00F3EC
:101DC00001FB0133A34212D91B0E3C3B1C4CDBB27E
:101DD000883C34F813305843C41700EB5440C01308
:101DE00010805943C81701EB5040C013508010BDFC
:101DF00070B5144E04B20314B6F90050B6F902607F
:101E000004FB05F2D11702EB5141CA1303FB06F1A3
:101E1000C81701EB504002EBE031384661F30F0088
:101E200004FB06F2D11702EB5141CA1303FB05F183
:101E3000CB1701EB5341C2EBE13161F31F4070BDA1
:101E40005A3F00082A00002048000020F1CD353C10
:101E50002D49002008804880091F0880488070476D
:101E600070B500F09CFD01F052F928490860FFF7B9
:101E700021FF274C206000F08EFD01462068FFF70F
:101E800068FF244D204E244A2860B5F90010B6F9A9
:101E9000000000F013FA214C214A2080B5F902100D
:101EA000B6F9020000F00AFA6080FFF780FF2068B0
:101EB000FFF79EFF1B490860BDE8704001F09CB928
:101EC00010B500F0D6FC01461848174AB0F90000DA
:101ED00000F0F4F90C49091F0880002048800A88A6
:101EE000081D02804988418091B2114A1180114930
:101EF0004088088010BD0E480188034801800D49C4
:101F00000988418070470000320000203C0000201A
:101F10004000002044000020D8010020480000209C
:101F2000B80100204C000020F801002056000020DD
:101F30005400002052000020014800787047000043
:101F4000580000207C49002048617C4948617C4958
:101F50004861704710B5FFF7F5FFFFF779FF00F014
:101F600043FC00F02DFD00F0DEFE764800210180EC
:101F70004180006801F040F9734940F27E200880FA
:101F8000042001F096FB01217048FFF724FA00BFFE
:101F900001F096FB0028FBD0BDE81040012001F0C5
:101FA000E5BA6B480021816044F2693101807047D5
:101FB00010B504464FF4167001F05DFB0021634834
:101FC000FFF709FA6348016821430160624907206D
:101FD000087062490F200870BDE81040002001F031
:101FE000C5BA5B4846F63A51B0F90000884201DDB7
:101FF0000120704741F69911884201DA02207047AA
:1020000000207047524881688288C1EBC121114489
:10201000C90A816046F2AC40814201D30120704779
:1020200045F67B50814203D34A480068C005F5D489
:102030000020704710B5FFF7E5FF012802D100022C
:10204000FFF7B6FFFFF7CDFF022803D1BDE8104030
:102050008002ADE710BD10B501F010FB3D4CC0B3E0
:102060002068C00506D5FFF7CDFF18B9206820F419
:10207000807020602068400506D5FFF7B2FF18B9D0
:10208000206820F4806020602068000506D5FFF7F6
:10209000A8FF18B9206820F400602060206880053F
:1020A00009D54FF400412E48FEF76BFC18B12068AB
:1020B00020F4007020602068400703D5206820F0DD
:1020C000040020602068000703D5206820F0080085
:1020D0002060FFF731FF012806D1206840F60C711F
:1020E000084201D1012010BD002010BD1848B0F9F0
:1020F00000104288C1EB81111144CA1701EB9261B3
:102100008911018070471248B0F9000070471048EB
:10211000B0F90000C0EB001000EB8000C11700EB2D
:102120005140C0F3CF307047094859218068484377
:10213000C0F3C73070470000F8010020D80100202C
:10214000B80100204C00002054000020002C014069
:102150005C000020380000205000002059000020C2
:10216000002001402DE9F04F704C40F27E23238087
:102170004FF4007540F22D2AA0F800A0458040F2EF
:102180002E372C018780C4804FF0320BA0F818B096
:1021900044830023DFF898C1C36147F6FF78A0F8B5
:1021A00008C0A0F80A804FF070494FEA4836C0F8DE
:1021B0000C90C0E904635F484B610380A1F800A064
:1021C0004D808F80CC80A1F818B04C83CB61A1F8F2
:1021D00008C0A1F80A80C1E903965749A6205361B7
:1021E00008804FF4E170108020205080962090806D
:1021F000D58005201083402050834EF67B40D3616C
:10220000108141F2853050814C48D06040421061CD
:10221000BDE8F08F70B5002801DA404200B24FF4FB
:10222000FA64631000220A2802DC0C808B8010E024
:10223000322810DC424EA0F10A0505FB06F0C61755
:1022400000EB965004EBA02008804FF4C840684390
:102250002AE00A8370BDC82812DC3A4EA0F132058C
:1022600005FB06F0C61700EB965003EBA020088094
:1022700035486843C31700EB935004EBA02018E0E7
:102280004FF4FA74A04216DCA0F1C8046FF455753F
:1022900004FB05F0C51700EB955040F2EE2505EB69
:1022A000A020088027486043C41700EB945003EB3C
:1022B000A0208880CDE70C808C80CAE7F0B5431A57
:1022C000B2F90050B2F904005D4390B1584354692B
:1022D000C617201846EBE47114694FEAE476271A12
:1022E0008E4104DBD468E617071BB14101DA546163
:1022F00000E05061D069191AB2F91800D36148435F
:102300005188D488536995FBF1F193FBF4F3194498
:10231000538B90FBF3F00144B2F90A00884204DDCC
:10232000B2F90800884200DC08B2F0BD5400002079
:102330000080FFFF520000205600002000F6D8FF6A
:10234000009CFFFF56F9FFFF56E5FFFF10B588B070
:1023500040F2EE50ADF800004FF45070ADF80400BC
:1023600040F60840ADF808000120ADF8100040F23A
:10237000FD1000BFBDF8101000EBD0704FEA410116
:102380004010ADF81010F5D1BDF91000000301F0B8
:1023900003FBC04AC04B01F007FA6FF00F0201F0D7
:1023A000E4FA01F00AFBBD4CADF80A0060694FF495
:1023B0007A51800390FBF1F0ADF80200A06901F0C2
:1023C000EBFA0022B64B01F0EFF90022B54B01F019
:1023D0005DFA0B2201F0C9FA0022B34B01F056FA64
:1023E00001F0EBFAADF80600A088ADF81200E08825
:1023F000ADF814004FF48040ADF80C00C010ADF8FB
:102400000E0040F2D73006900820ADF81C00684658
:1024100001F0CAFC08B010BD10B501F0FBFC9F49EB
:10242000002208B14A7008E04878401CC0B24870E9
:10243000032802D34A70002010BD012010BD10B542
:1024400001F0E2FC99494843C11700EB9130801438
:1024500010BD2DE9F041FFF7F2FF002800DA4042FD
:102460008E4C05B22069C11700EB1140001400EB3F
:1024700080014901CA1701EB926141F38F110029D4
:1024800000DA49420EB296214843C11700EB916031
:1024900040F38F10002800DA404207B201F0BAFC86
:1024A0000021012810D1602D0EDDBD420CDBB542AC
:1024B0000ADC2089401C80B220813C2802D3012004
:1024C000BDE8F0810020FBE72181FBE710B501F0BA
:1024D00095FCC11700EB9170801010BD6F48002172
:1024E00001704180C1600161018170472DE9F047B1
:1024F0006A4C20462178C06899B101292CD0022964
:1025000028D1401C2146E060B1F90A200969B0F5E4
:10251000AF5F114422D82161D4E907010844E0618A
:1025200027E06349B1F90010002907DB40F2EB1105
:1025300061811D21216258B95E4808E06FF4F57190
:1025400061816FF01C01216210B95A484042E0617C
:1025500001202070BDE8F0870220FAE745F6C0525E
:10256000904201D8216104E00420FFF721FDFFF72C
:10257000B5FF2069C11700EB114000144FF47A51E8
:1025800091FBF0F04FF4803191FBF0F0618808444A
:10259000608000F0BCFD48490860FFF78BFBDFF866
:1025A0001C91C9F80000B4F90210FFF7D2FB444EA9
:1025B0003060E069434CC11700EB915080122080DD
:1025C000414D4FF00008A5F80080B6F900103F4AD1
:1025D000B4F90000FFF772FE3D4F3E4A3880B6F96D
:1025E0000210B5F90000FFF769FE7880FFF7DFFB06
:1025F0003868FFF7FDFB384E306000F0FDFDFFF757
:1026000082FD0246D9F80010306801F085FAFFF724
:1026100020FF01289ED1B4F9000030490002486132
:10262000FFF75CFF2E49032008702E480068C007A2
:1026300090D140F27E202080A5F800808AE71CB56A
:1026400016488188ADF80010C188ADF802104169C4
:102650004FF47A52890391FBF2F1ADF804108069CE
:1026600001F09AF900220E4B01F09EF800220D4B6A
:1026700001F00CF90B2201F078F900220A4B01F06D
:1026800005F901F09AF9ADF80600684601F0AAFBD9
:102690001CBD0000A7E8482EFF210940680000206B
:1026A00000803440000024400040CF400071020010
:1026B0005600002000F80E003C00002040000020E2
:1026C000440000205400002052000020D8010020C7
:1026D00048000020B80100204C000020F801002034
:1026E000500000203800002070B588B00121022081
:1026F000FEF7E0FA0121F848FEF778F901211020F1
:10270000FEF7CFFA07A8FEF734F94FF4E070ADF802
:102710001C0004208DF81F0007A9F048FEF7D7F829
:10272000EF4E3046FEF70CFB03A8FEF726FE4FF6F1
:10273000FF70ADF810000024ADF8124003A9304638
:10274000FEF796FB6846FEF72BFE0B20ADF8004027
:102750000225ADF80800ADF8025069463046FEF794
:102760003FFD01224FF4C8613046FEF79EFE304621
:10277000FEF752FE01213046FEF7F7FF50213046AA
:10278000FEF74FFE04213046FFF709F801213046DD
:10279000FEF7E1FF1D208DF818008DF819508DF817
:1027A0001A4001208DF81B0006A8FDF74EFE41F6E9
:1027B0005F613046FFF72CF8012202213046FEF718
:1027C00015FE012211463046FEF710FE002130466C
:1027D000FEF7F5FF01213046FEF7F3FD08B070BDAE
:1027E000C0490020888170472DE9F041BC4C00228F
:1027F00002212046FEF7FAFDBA490022CA700A718A
:102800004A718A71CA718A818A704A704FF4C863AA
:102810004FF6FF77B448012513E04E7806EB4606E5
:1028200020F816704E7806EB460600EB46067380DD
:102830004E7806EB460600EB460635714E78761C60
:102840004E704E78062EE8D305204870A4482830F4
:1028500003808A8100212046FEF7B1FF0121204636
:10286000FEF7AFFD2046BDE8F04101220221FEF750
:10287000BDBD9C48B0F9100010F5004F06D09B4933
:102880004843C11700EB91308014704741F2883003
:102890007047944880897047924910B54978924BA7
:1028A00001EB410433F8141003EB44035C881B79FB
:1028B000641C614363F30702C0E9001210BDF0B568
:1028C0000021874B884E0A460C331C8824F00204F2
:1028D0001C8002EB420436F814C006EB44077C88E7
:1028E000641C04FB0CF4B3F800C04CF0020CA3F819
:1028F00000C021443C79521C64F30705062AE4D346
:102900000622891CB1FBF2F1C0E90015F0BD1CB52F
:10291000744C60790028684602D0FFF7D0FF01E0D0
:10292000FFF7BAFFDDE90002E3790021012B12D0A5
:1029300052B27F2A1AD06A4B28331B88B3F5C86F6E
:1029400009D26B4B984206D848F6AE4398420AD952
:10295000A389022B01D2218208E06649B1FBF0F085
:102960004243228202E04FF400402082B4F910007A
:102970001CBD5C490020C87170475A48C079704737
:10298000584901208871704710B55448FEF700F887
:10299000C0F3821010BD5348B0F90E007047514883
:1029A0000146B0F91020B1F90E1012F5004F03D016
:1029B0001144C1814281704742891144C1817047ED
:1029C00010B5FFF7E1FF4749072817D2DFE800F00D
:1029D00016070D0A1304100046F6AA200DE049F26E
:1029E00054500AE06FF4804007E04EF6AB2004E05C
:1029F00041F2565001E04FF48040C88110BD2DE9EE
:102A0000F047DFF8DC8001214046FEF7FAFE0026A1
:102A1000344F012580B101214046FEF7F9FEB87818
:102A2000FF2802D2B878401CB870B878022801D3C9
:102A3000FD713E82BDE8F0873C78FFF7A5FF0221DB
:102A40000A1FCB1E3870032838D0052817D0062857
:102A500063D07F2038720221C2464046FEF7D8FE7E
:102A6000B9894FF6FF79494502D2B889401CB8812F
:102A70007878052871D07878401C78706EE0052C45
:102A80000BD0062C11D0032C11D097F90800002888
:102A90000FDA00BF47F6FF7054E097F908000028EE
:102AA00001DA397207E03A72F4E73D7203E03B72F3
:102AB000F0E77F28CFD045F2555043E0032C1BD0E0
:102AC000052C21D0062C21D097F9080000281FDA08
:102AD0004DF2545036E00000000C1A000010014086
:102AE000000400408C000020180200200071020049
:102AF000808D5B000000DC0597F90800002801DAF2
:102B0000397207E03A72E3E73D7203E03B72DFE7B8
:102B10007F28A0D04AF6AA2014E0062C04D0032C6B
:102B200012D0052C12D006E097F90800002801DA2F
:102B3000397200E03A7297F90800002808DA00BFFD
:102B400042F6AB20F88186E73D7203E03B72F7E77F
:102B50007F2880D0FE817EE7FFE77E70FE71B87827
:102B6000DFF85081544C0028504642D0FEF73CFE1E
:102B7000B8F8001043463A4608E000BF92F802C099
:102B8000ACF1010C82F802C000F5803092F802C06E
:102B9000BCF1000FF2D14FF400484FF4803C604587
:102BA00007D305EB4101400889B24145F7D34946B7
:102BB000484692F801C00CEB4C0C24F81C005078ED
:102BC00000EB400004EB40004180117A507800EBAC
:102BD000400004EB40000171107908B1167133E038
:102BE0001888B0F5C86F2FD21888401C188015714E
:102BF0002AE0FEF7F9FD797801EB410124F8110094
:102C00003A7A797801EB410104EB41010A71B8F895
:102C100000104246FB7843B17878491C00EB400035
:102C200004EB40004180FE700EE0B0F5AA4F3AD2AE
:102C30001088B8B3787800EB400004EB4000418086
:102C40001088401E1080FD70B879B84628B398F8F7
:102C50000100C44600EB400034F8107098F8010001
:102C600000EB400004EB4000428898F8010000EBC4
:102C7000400004EB400090F90410002000EB4003FA
:102C800024F8137004EB43035A801971401C052883
:102C9000F4D18CF806608CF80550FFF738FEA8F8E0
:102CA0001000C7E6FFE7787800EB400004EB400037
:102CB0004180C9E7280400401802002070B5FF4C8D
:102CC00002212046FDF755FDFD4D02212846FDF766
:102CD00050FD002301220C212046FDF725FD002395
:102CE00002220F212046FDF71FFD00212046FDF79F
:102CF000FAFC01212846FDF7FCFCF2492046FDF7CD
:102D00004CFD0F212046FDF751FD002240F6A75152
:102D10002046FDF748FD2046BDE8704001224FF4F3
:102D2000B861FDF73DBC70B5E44E00224FF49061F0
:102D30003046FDF735FCE44C00254FF4E041A5801A
:102D4000E58025813046FDF7CEFC01213046FDF7B8
:102D5000D0FC03213046FDF70CFD002301220B219E
:102D60003046FDF7E1FC002302220C213046FDF73E
:102D7000DBFC002303220D213046FDF7D5FC0421A6
:102D80003046FDF72CFD01213046FDF7BCFC658087
:102D900004213046FDF71CFD0028F9D014213046EF
:102DA000FDF7F4FCA18801EBD000A080182130468B
:102DB000FDF7ECFCE18801EBD000E0801C213046FF
:102DC000FDF7E4FC218901EBD0002081042130468D
:102DD000FDF705FD01213046FDF795FC6088401C9C
:102DE00080B260801028D3D3BDE8704066E72DE93B
:102DF000F04F93B04FF40040FDF7E9FE0121084683
:102E0000FDF746FF01211D20FDF74BFF0121480280
:102E1000FDF747FF4FF4806A01215046FDF741FF5F
:102E20000121C802FDF73DFF09A8FDF7A2FD3F20E3
:102E3000ADF8240000248DF8274009A9A348FDF728
:102E400046FDA348FDF77CFF0FA8FEF796FAADF804
:102E50003C402020ADF83E0040F6CA00ADF84000EE
:102E60004FF480770125ADF842708DF844500FA9DA
:102E70009748FDF7FDFF6846FEF788FA6020ADF839
:102E800000000426ADF8046040F20550ADF80600DD
:102E9000ADF80840ADF80C40ADF80250ADF80A406E
:102EA000ADF80E4069468A48FEF71BF86946884827
:102EB000FEF74CF869468648FEF784F809A8FDF746
:102EC00058FD4FF47060ADF824004FF01809DFF89A
:102ED00004B28DF827904FF003088DF8268009A9D9
:102EE0005846FDF7F4FC4FF46040ADF8240018207C
:102EF0008DF827008DF82680DFF8DC8109A940468F
:102F0000FDF7E5FC4FF4E0615846FDF759FD09A8CF
:102F1000FDF72FFD2803ADF824008DF8276009A9DF
:102F20004046FDF7D4FC6846FEF730FA7020ADF855
:102F30000000ADF8044040F6C900ADF80600ADF859
:102F400008400820ADF80A00ADF80C40ADF802507A
:102F5000ADF80E4069465E48FEF76EF808215C4801
:102F6000FEF70DFB08215A48FEF71AFB08215848C6
:102F7000FEF720FB08215648FEF722FBE802ADF8D9
:102F80002C00ADF834408000ADF830701226ADF85A
:102F90003600ADF82EA0ADF83260ADF838400BA980
:102FA0004B48FEF7D9F920214948FEF7F0FB802174
:102FB0004748FEF73CFC01214548FEF702FA012193
:102FC0004348FEF71BFA01214148FEF721FC00228D
:102FD00001213F48FEF70AFA002210213C48FEF783
:102FE00005FADFF8D8804046FDF782FADFF8D0A076
:102FF0005046FDF77DFA01214046FDF7BDFA01215B
:103000005046FDF7B9FA04A8FDF7ADFA4FF4A02039
:1030100004904FF46027E802CDE906708DF8145053
:103020008DF815408DF8205004A94046FDF77CFA34
:1030300004A8FDF798FAE802CDE906708DF814505F
:103040008DF815408DF8205004A95046FDF76CFA14
:103050004046FDF7BAFA5046FDF7B7FAC246DFF828
:1030600060805046FDF7B6FA07464046FDF7B2FAD3
:103070000742F6D1FFF757FE022147464046FDF7CB
:1030800078FB002301220B213846FDF74DFB00237E
:1030900002220A213846FDF747FB4FF4A060FDF7F6
:1030A000CFF98DF828608DF829508DF82A408DF8D9
:1030B0002B500AA8FDF7C9F919200FE000240140A0
:1030C00000280140000240009E0000200010014046
:1030D000002C014000080140000C01408DF8280040
:1030E0008DF829508DF82A408DF82B500AA8FDF74D
:1030F000ACF98DF828908DF829408DF82A408DF88C
:103100002B500AA8FDF7A1F913B0BDE8F08F2DE907
:10311000F043FE494FF40044621E91F801C08B88D1
:10312000CE880D89FA4FDFF8EC93D143BCF1070F3D
:103130001CD2DFE80CF01B254747040425003D683E
:10314000A3EB45038B4202DA61F30F0006E0A342D2
:1031500002DB62F30F0001E063F30F00D9F80030E7
:10316000A6EB43038B4203DA61F31F40BDE8F08313
:10317000A34202DB62F31F40F8E763F31F40F5E769
:103180003B68A6EB43038B4202DA61F31F4006E083
:10319000A34202DB62F31F4001E063F31F40D9F852
:1031A0000030C5EB4303A3EB2043A34202DB62F3F1
:1031B0000F00DBE78B4202DA61F30F00D6E763F31F
:1031C0000F00D3E73E68A3EB46038B4202DA61F3BC
:1031D0000F0006E0A34202DB62F30F0001E063F39D
:1031E0000F00D9F80030C5EB430305B25B1BA342C7
:1031F000C0DA8B42C1DAB7E72DE9FF4F05B243F6DB
:10320000E4467543071442F228367743C7F1000CB1
:103210000CEB050600223D44C5F1000506EBD67611
:1032200005EBD575B94F14461346114676104FEA93
:1032300065050DD5002D02DA4FF0050C15E0BCF147
:10324000000F02DC4FF0040C0FE04FF0030C0CE019
:10325000002D02DB4FF0020C07E0BCF1000F02DC96
:103260004FF0060C01E04FF0010C87F801C04FF061
:10327000000C87F800C0BB4697F801804FEA204C4D
:1032800042F228370CFB07F900B243F6E44C00FB8E
:103290000CFE09EB0E00404200EBD0704010C9F16B
:1032A00000070090381A42F2283C60440190C01791
:1032B000039000984FEAE07AF81707EBD03907EB54
:1032C0000E0000EBD0704FEA600E0098ACEB0707E1
:1032D000AEEB000060440090C01702904FEAEE7021
:1032E000BE444FEAEE77B8F1070F67D2DFE808F087
:1032F0006604317AA8DAFE000399019800EB913157
:1033000040F2654000EBA14082B205EBDA3002EBFF
:10331000604084B2A4EB694083B2A2F6CA00404286
:1033200080B2DB2803D900BF40F6C90119E1111BA7
:1033300089B2B1EB400F72D802F1DB0081B240F6E6
:10334000CA008142F2D301208BF8000005E181B26E
:1033500007E1029A009906EBD03001EB923240F27D
:10336000654101EBA2418AB205EBDA3102EB614122
:10337000A2EB60408CB283B2A4F6CA00404280B295
:10338000DB2802D940F6C90158E0A11A89B2B1EB95
:10339000400F41D804F1DB0081B240F6CA008142FF
:1033A0004CD301208BF8000044E081B246E0584D38
:1033B0002D1F28605848574D2D1F28609BF800503E
:1033C0005648002D05887CD045F4005505805348AB
:1033D00014300280001D0480001D0380001D018048
:1033E000BDE8FF8F0EEB973240F2654101EBA24141
:1033F0008AB206EBD030A2EB604083B203EB6940A7
:1034000084B2A4F6CA00404280B2DB28BAD8E11ADE
:1034100089B2B1EB400F03D9A4F10F00C5E78FE0EB
:1034200004F1DB0081B240F6CA00814206D30125D7
:103430008BF8005041F29310401AB6E73848B6E7CF
:103440000399019800EB913140F2654000EBA140F7
:1034500082B205EBDA3002EB604084B2A4EB694043
:1034600083B2A3F6CA00404280B2DB2803D900BF72
:1034700040F6C90110E0191B31E000BF03F1DB0089
:1034800081B240F6CA00814206D301208BF80000C9
:1034900041F29310401A81B21D4D21482D1F286022
:1034A000204888E7029A009901EB923240F2654188
:1034B00001EBA2418AB205EBDA3102EB61418CB239
:1034C00001E050E012E006EBD030A2EB604083B2A6
:1034D000A3F6CA00404280B2DB28C9D8991A89B243
:1034E000B1EB400FCAD9A3F10F00D4E70EEB97322E
:1034F00040F2654101EBA2418AB206EBD030A2EB6B
:10350000604083B203EB694084B20DE09E0000206E
:103510003C2401403C28014000341500202C01408F
:1035200000AC170000301500A2F6CA00404280B27D
:10353000DB283FF6F9AED11A89B2B1EB400F02D9C0
:10354000A2F10F0003E702F1DB0081B240F6CA00EE
:10355000814206D301258BF8005041F29310401AA6
:10356000F5E6264823E725F400552FE770B5014618
:10357000234C244801290CD000220121FDF736FFFD
:10358000206820F480502060206840F400402060D3
:1035900070BD216841F48051216001210546FEF78C
:1035A00037F92846BDE8704001221146FDF71EBFDD
:1035B0001348016841F400410160114804210838B2
:1035C000FDF70DB910B518210F48FDF7DFF80F49C9
:1035D00008800B4818210838FDF7D8F80C490880F6
:1035E0000C480178022902D00078032804D104484D
:1035F000016821F400410160012010BD00B01700F6
:1036000008240140002C01400028014060000020F7
:103610005E0000205000002070B5564800684FF052
:10362000E026C0F3022448F69F40706175170F2111
:10363000284600F08EF80020B06107203061C4F108
:103640000700042800D90420211D072901D20024E5
:1036500000E0E41E01218140491E01F00301A14068
:103660002846BDE8704000F074B8434988808888D7
:103670000028FCD170474049888070473E488088C8
:1036800008B100207047012070473B49C88070474F
:103690003948C08808B1002070470120704736497A
:1036A000088170473448008908B100207047012024
:1036B00070474FF6FF7101EA40002F49488070477C
:1036C0002D48408808B1002070470120704770B530
:1036D000294CA08810B1A088401EA080E08810B1BD
:1036E000E088401EE080208910B12089401E2081A2
:1036F000608808B1401E60806089032510B1401EBB
:10370000608104E0658100F007FBFEF798FF2078F8
:1037100018B12078401E207070BD257017480068D1
:10372000C107174800780ED00328F5D1FFF7A1F89C
:10373000A0F59851883902D10820FEF739FCBDE880
:103740007040FEF7BDBB0328E6D1BDE87040FEF730
:10375000D2BB0907090E002806DA00F00F0000F1BD
:10376000E02080F8141D704700F1E02080F800147C
:10377000704700000CED00E0A80000203800002099
:10378000500000200648804706480047FEE7FEE755
:10379000FEE7FEE7FEE7FEE7FEE7FEE7FEE7FEE701
:1037A0008D030008310100082DE9FE4F81EA030472
:1037B00004F0004421F0004100944FF0000B23F08E
:1037C000004350EA01045ED052EA03045BD0C3F325
:1037D0000A54C1F30A552C44A4F2F3340194A0FB1B
:1037E0000254C1F3130141F48011C3F3130343F4F2
:1037F000801301FB024400FB034E840A970A44EA4B
:10380000815447EA8357A4FB076802958D0A05FB9C
:1038100007854FEA932C04FB0C542705029D4FEAC1
:10382000065847EA1637B5EB08056EEB070C870E0E
:10383000920E47EA811742EA8312A7FB0201B6EB18
:103840000B0164EB00042B0D43EA0C335E1844EBD0
:103850001C50DA465146E7FB0201C5F313044FEA58
:103860000B3343EA14534FEA0432019C43EA060344
:10387000A4F10C040294009CCDE900B400F0DBF844
:1038800003B0BDE8F08F00200146F9E72DE9F04DC7
:1038900081EA030404F0004B21F0004514464FF088
:1038A000000A23F0004150EA050220D054EA010248
:1038B0001DD0C5F30A570246C5F31303C1F3130025
:1038C000C1F30A5640F4801543F48013A7EB0608B1
:1038D000101BD64608F2FD3873EB050002D308F141
:1038E000010801E092185B41B8F1000F03DA0020F3
:1038F0000146BDE8F08D00204FF480110646844655
:103900000EE0171B73EB050705D3121B63EB0503D2
:1039100006434CEA010C49084FEA300092185B411B
:1039200050EA0107EDD152EA030012D082EA040006
:1039300083EA0501084305D0101BAB4106D20122E2
:10394000002306E000224FF0004302E06FF0010286
:1039500053101AEB06004CEB085110EB0A0041EB38
:103960000B01BDE8F04D00F057B870B521F00043F1
:1039700003430CD0C1F30A550024D5EB040564EBD6
:103980000403D617AD1AB34102DB0020014670BD17
:10399000201841EB025170BD0EB5C10F80EAE070F6
:1039A0000844CA07002140F233438DE80E000A465E
:1039B0000B4600F040F803B000BD70B5C1F30A52E9
:1039C00001F000450024C1F3130140F2FF3341F43C
:1039D00080119A4201DA002070BD40F233439A42CE
:1039E000A2F2334203DC524200F006F800E09040BD
:1039F0002C43F1D0404270BD202A04DB203A21FA4A
:103A000002F00021704721FA02F3D040C2F12002F7
:103A1000914008431946704710B5141E73F1000415
:103A200008DA401C41F1000192185B411A4301D1B0
:103A300020F0010010BD2DE9F04D92469B4611B1DA
:103A4000B1FA81F202E0B0FA80F22032904600F042
:103A500053F804460F4640EA0A0041EA0B01534678
:103A60005A46084313D0114653EA010019D0C8F151
:103A700040025046FFF7C0FF05460E4650465946E5
:103A8000424600F039F8084305D0012004E0204602
:103A90003946BDE8F08D0020054346EAE0762C4328
:103AA00037430A986305E40AA0EB08000022FD0AE8
:103AB00044EA47540A3002D500200146E9E70105EF
:103AC00010196941DDE9084500196941BDE8F04D6B
:103AD000A2E70000064C074D06E0E06840F0010355
:103AE00094E8070098471034AC42F6D3FCF724FB67
:103AF0005C4100087C410008202A04DB203A00FADF
:103B000002F1002070479140C2F1200320FA03F334
:103B100019439040704700002DE9F74F7C4C88B066
:103B2000B4F91200D4F82CE0C0EBC0314342A0EB52
:103B3000C03C7145B8BFE16204DBBEEBC33FD8BFF8
:103B4000C4F82CC0D4F830E07145B8BF216304DB61
:103B5000BEEBC33FD8BFC4F830C0B4F910C0656A2B
:103B6000CCEBCC31CCF10003ACEBCC3EA942B8BFDE
:103B7000616204DBB5EBC33FD8BFC4F824E0A56A9B
:103B8000A942B8BFA16204DBB5EBC33FD8BFC4F8FC
:103B900028E0BDF82430616AD4F828A091FBFCF538
:103BA000CDF81CA09AFBFCFABDF826E0EB1AAAEBB4
:103BB0000E0CBDF920E0CDF818A00EFB02FE4FEA76
:103BC000EE760EEB564EBDF922604FEAEE3E7243A2
:103BD000D61702EB5642D2130FFA82FACDF808A09C
:103BE000B4F91660B4F90C201BB20FFA8CFC0FFA72
:103BF0008EFE2DB2B4F91A705A4306FB151107FB5D
:103C00000E221144E26AB4F9189092FBF0FE0FFA0A
:103C10008EF809FB18110391B4F914E0216B00FB35
:103C20000EFA91FBFAF5CDF814A0B4F91CB0B4F972
:103C30000AE0B4F90EA0CDF810E00BFB0EFE05FB78
:103C40000EF50AFB0353DDF818A09D180FFA8AF34E
:103C5000DDF81CA006FB13A3B4F90C60DDF808A086
:103C600006FB0CF607FB0A6691FBF0F0DDF814A0EA
:103C7000334492FBFAF200B209FB1036B4F90E306D
:103C800003FB0C110EFB1217DDF810E0BEF1000F64
:103C9000B4BF4FF0FF310121A4F80480E08040421E
:103CA000484308FB01F20FFA80F90FFA82F8B4F9E1
:103CB0000800FEF718F80190BDF90410BDF90600E0
:103CC00001FB09F1CA1701EB524100FB08F0C217D2
:103CD00000EB5240C913C01309B200B200F0A0F8C3
:103CE000E178491CC9B2E170402904BF0021E170AC
:103CF0000849E27821F812002189084420810398BC
:103D00002763A662E56260620BB0BDE8F08F000039
:103D1000B40000203C0200202DE9F001DFF8808093
:103D20000023B8F900409C46A8F102001A46202161
:103D30004FEA040530F9046F2344B0F902403244DD
:103D4000491EF7D19818C11700EB91608311154FE8
:103D500000247B81A8F102005FF02001EA1A30F90B
:103D6000046F02FB02CCF21AB0F9025002FB0244CB
:103D7000491EF3D10CEB0400C11700EB91608111D7
:103D800003FB03F0C21700EB52607A8CC011504362
:103D90008142D4BF01200020B870BDE8F001704717
:103DA0003C020020B40000200D490288CA824288EB
:103DB0008A8182880A83C288CA8102894A834289A9
:103DC0008A8382890A82C2894A82028A8A82428AD4
:103DD000CA83828A0A8482698A63808B4884704796
:103DE000B4000020044982888A81C288CA8102887E
:103DF000CA83408808847047B40000200148B0F9A5
:103E000008007047B40000200148B0F90A0070476C
:103E1000B40000200148807870470000B400002002
:103E2000224B081AB3F91E10B3F920C001FB00F2AF
:103E3000596B0CFB00F000290FDB0028A4BF93F89E
:103E400000C0BCF1000F06D1081844BF6FF000405D
:103E5000586310D40EE000290BDC0028DCBF93F877
:103E600001C0BCF1000F04D108440028C8BF1048AD
:103E700000E008445863D11702EB9141C21789133F
:103E800000EB923001EBA040996B01228842C8BF41
:103E90001A7007DC49428842A2BF0021197059708C
:103EA00001DA5A70084600B270470000B4000020E2
:103EB0000100008002E008C8121F08C1002AFAD1E0
:103EC00070477047002001E001C1121F002AFBD19A
:103ED0007047E37ECE7DC07CB87BB77A397A417972
:103EE0004F7863777B769975BC74E4731073A8720E
:103EF000DB7113714E708D6FD16E176E626DB06C89
:103F0000586CAB6B016B5A6AB66915697768DC67E8
:103F10004367F8666366D1654165B4642964A0634C
:103F2000196394625362D1615161D4605860DE5F5D
:103F3000665FEF5E7A5E415ECF5D5E5DEF5C815CE9
:103F4000155CAB5B425BDA5AA65A415ADC59795987
:103F50001859B7585858F9579D570000C900920191
:103F60005B022403ED03B6047F0548061107D90759
:103F7000A2086A09330AFB0AC40B8C0C540D1C0EF0
:103F8000E30EAB0F72103A110112C8128F135514C1
:103F90001C15E215A8166E173318F918BE19821AE7
:103FA000471B0B1CCF1C931D571E1A1FDD1F9F2084
:103FB00061212322E522A62367242825E825A826B7
:103FC00067272628E528A329612A1F2BDC2B992C9B
:103FD000552D112ECC2E872F4130FB30B5316E324E
:103FE0002633DF3396344D350436BA366F372438EE
:103FF000D9388C39403AF23AA53B563C073DB83D9A
:10400000683E173FC53F73402141CE417A42254368
:10401000D0437A442445CD4575461C47C34769487B
:104020000F49B449584AFB4A9D4B3F4CE04C814DE7
:10403000204EBF4E5D4FFB4F97503351CE516852CB
:1040400002539B533254C9546055F5558A561D5737
:10405000B0574258D3586459F359825A0F5B9C5B4E
:10406000285CB35C3E5DC75D4F5ED75E5D5FE35F1E
:104070006860EB606E61F0617162F1627063EE63C3
:104080006C64E8646365DD655666CF664667BC6749
:104090003268A66819698B69FD696D6ADC6A4A6BCA
:1040A000B76B236C8E6CF86C616DC96D306E966E5B
:1040B000FB6E5E6FC16F22708370E27040719D7104
:1040C000F9715472AE7207735E73B5730A745F74DC
:1040D000B27404755575A575F37541768D76D876ED
:1040E00022776B77B377FA773F788478C778097946
:1040F0004A798979C879057A417A7C7AB67AEE7AF2
:10410000267B5C7B917BC57BF87B297C597C887CFA
:10411000B67CE37C0E7D397D627D897DB07DD57D69
:10412000FA7D1D7E3E7E5F7E7E7E9C7EB97ED57E44
:10413000EF7E097F217F377F4D7F617F747F867F90
:10414000977FA67FB47FC17FCD7FD87FE17FE97F56
:10415000F07FF57FF97FFD7FFE7F00007C41000846
:1041600000000020F0000000B43E00086C4200088F
:10417000F0000020D0050000C43E000800A24A0460
:104180000000000000000000010203040607080907
:1041900002040608000000000102030401020304F7
:1041A00006070809000000000000000000000000F1
:1041B00000000000030000000000000000000000FC
:1041C00000000000000000000000000000000000EF
:1041D00000000000000000000000000000000000DF
:1041E00000000000000000008F01460000000000F9
:1041F000000000000000000053A5FFFF5E64010006
:1042000000000000000000000000000000000000AE
:10421000000000000000000000000000000000009E
:104220000000000003000000000000000000030088
:10423000000000000000000000000000000000007E
:10424000000000000000000000000000000000006E
:10425000000000000000000000000000000000005E
:0C42600000000000000000000000000052
:0400000508000131BD
:00000001FF
