:020000040800F2
:1000000048060020490100086F2B0008711D0008F8
:100010006D2B0008CD070008714E0008000000009D
:10002000000000000000000000000000753600081D
:100030004D08000800000000FD2E000831410008B6
:100040006301000863010008630100086301000800
:1000500063010008630100086301000863010008F0
:1000600063010008630100086301000863010008E0
:1000700063010008630100086301000863010008D0
:1000800063010008630100083905000863010008E6
:1000900063010008630100086301000863010008B0
:1000A000D9430008F5430008630100086301000814
:1000B0000D44000811440008AD4600086301000823
:1000C0006301000863010008630100086301000880
:1000D0006301000863010008630100086301000870
:1000E0006301000863010008630100086301000860
:1000F0006301000863010008630100086301000850
:10010000630100086301000863010008630100083F
:10011000630100086301000863010008630100082F
:10012000630100086301000863010008630100081F
:10013000DFF810D000F0C2F9004800470D51000868
:10014000AFF3008048060020064880470648004775
:10015000FEE7FEE7FEE7FEE7FEE7FEE7FEE7FEE777
:10016000FEE7FEE7C141000831010008D2B201E01C
:1001700000F8012B491EFBD270470022F6E710B5AC
:1001800013460A4604461946FFF7F0FF204610BD05
:100190002DE9FE4F81EA030404F0004421F0004100
:1001A00000944FF0000B23F0004350EA01045ED0AE
:1001B00052EA03045BD0C3F30A54C1F30A552C443A
:1001C000A4F2F3340194A0FB0254C1F3130141F4EF
:1001D0008011C3F3130343F4801301FB024400FBBB
:1001E000034E840A970A44EA815447EA8357A4FBE2
:1001F000076802958D0A05FB07854FEA932C04FBDF
:100200000C542705029D4FEA065847EA1637B5EB0E
:1002100008056EEB070C870E920E47EA811742EA3B
:100220008312A7FB0201B6EB0B0164EB00042B0D5C
:1002300043EA0C335E1844EB1C50DA465146E7FBA8
:100240000201C5F313044FEA0B3343EA14534FEA98
:100250000432019C43EA0603A4F10C040294009CBE
:10026000CDE900B400F0DBF803B0BDE8F08F00206A
:100270000146F9E72DE9F04D81EA030404F0004B53
:1002800021F0004514464FF0000A23F0004150EAE7
:10029000050220D054EA01021DD0C5F30A570246D8
:1002A000C5F31303C1F31300C1F30A5640F48015DC
:1002B00043F48013A7EB0608101BD64608F2FD385E
:1002C00073EB050002D308F1010801E092185B41CD
:1002D000B8F1000F03DA00200146BDE8F08D0020E0
:1002E0004FF48011064684460EE0171B73EB05079A
:1002F00005D3121B63EB050306434CEA010C4908C6
:100300004FEA300092185B4150EA0107EDD152EA02
:10031000030012D082EA040083EA0501084305D0F5
:10032000101BAB4106D20122002306E000224FF051
:10033000004302E06FF0010253101AEB06004CEB91
:10034000085110EB0A0041EB0B01BDE8F04D00F045
:1003500057B870B521F0004303430CD0C1F30A55E0
:100360000024D5EB040564EB0403D617AD1AB341A2
:1003700002DB0020014670BD201841EB025170BD28
:100380000EB5C10F80EAE0700844CA07002140F2B0
:1003900033438DE80E000A460B4600F040F803B0E8
:1003A00000BD70B5C1F30A5201F000450024C1F34D
:1003B000130140F2FF3341F480119A4201DA002028
:1003C00070BD40F233439A42A2F2334203DC524200
:1003D00000F006F800E090402C43F1D0404270BDA0
:1003E000202A04DB203A21FA02F00021704721FA8A
:1003F00002F3D040C2F120029140084319467047F1
:1004000010B5141E73F1000408DA401C41F100011C
:1004100092185B411A4301D120F0010010BD2DE973
:10042000F04D92469B4611B1B1FA81F202E0B0FA6A
:1004300080F22032904600F053F804460F4640EA1E
:100440000A0041EA0B0153465A46084313D01146AD
:1004500053EA010019D0C8F140025046FFF7C0FF2F
:1004600005460E4650465946424600F039F80843C4
:1004700005D0012004E020463946BDE8F08D00207B
:10048000054346EAE0762C4337430A986305E40ABD
:10049000A0EB08000022FD0A44EA47540A3002D5C6
:1004A00000200146E9E7010510196941DDE9084529
:1004B00000196941BDE8F04DA2E70000064C074D68
:1004C00006E0E06840F0010394E807009847103424
:1004D000AC42F6D3FFF730FE746C0008946C000851
:1004E000202A04DB203A00FA02F1002070479140F4
:1004F000C2F1200320FA03F319439040704730B54E
:100500008C1810F8012B12F00F0301D110F8013BE9
:10051000120906D110F8012B03E010F8015B01F875
:10052000015B5B1EF9D101E001F8013B521EFBD1DA
:10053000A142E6D3002030BD10B5164C206840071C
:1005400016D56FF00400206003F096F800281FD045
:1005500002F0E0F910480078022805D0032817D1EE
:10056000BDE8104001F088B8BDE8104002F048BF77
:100570004FF4A071204600F06FF8012808D18002E6
:1005800002F0D2FA2046BDE81040012100F017B871
:1005900010BD000000240140A00000204268024B72
:1005A0001A400A4342607047FFFD3FFF426822F055
:1005B0001F020A4342607047416282627047C9432A
:1005C000016070470029816802D041F0010101E01B
:1005D00021F00101816070470D4910B5884202D1B8
:1005E000012144150AE00B49884202D1012104157A
:1005F00004E0094988420AD10121CC03204602F0D7
:10060000B9FC2046BDE81040002102F0B3BC10BD8B
:100610000024014000280140003C0140002981687D
:1006200002D041F4004101E021F4004181607047B3
:10063000826822F4E0420A4382607047014600204B
:100640008968490700D501207047024600201268DA
:100650000A4200D00120704710B5024600205468BD
:100660000B0AC9B20C401168194202D0002C00D00C
:10067000012010BD08B5084428300090006880B201
:1006800008BD002A4268C9B201D00A4300E08A438B
:100690004260704710B542680E4B0C791A400B68E7
:1006A00042EA04221343436083680B4A1340D1E9B2
:1006B000024222434C7943EA44031A438260C26AED
:1006C000097C22F47002491EC9B242EA0151C1629A
:1006D00010BD0000FFFEF0FFFDF7F1FF70B507242D
:1006E00009290AD9C568A1F10A0606EB4606B440F5
:1006F000A543B3401D43C56007E0056901EB410612
:10070000B440A543B3401D430561836BC3F301545B
:10071000121B921C02EB82041F22A2409343A140B1
:100720000B43836370BD826B491E22F4401242EA80
:100730000151816370470029816802D041F40211A0
:1007400001E021F4021181607047816841F00401E9
:100750008160704700210160017141718160C16059
:10076000012101747047000010B502F001F801F09A
:10077000C5FF4FF0D84004210180418841880A0616
:1007800041884088C9B2120A0E4CC0B202EB012166
:10079000084460606068A0F5A901663904D060680B
:1007A000A0F50041663901D101F0E4FA04F0E6FA5F
:1007B00002F0CCFA4FF48061034801F02DF9606833
:1007C00010BD000000000020001C0140FEE70346B1
:1007D00001B261F30F0044F6E6125143CA1701EB70
:1007E0005241CA13191444F6E6135943CB1701EBCF
:1007F0005341C9130A441144494261F31F407047F1
:1008000015280CD2DFE800F00B0B0D0D0D0F0F0FAC
:1008100011111113151515170B19191919000120AC
:100820000CE002200AE0032008E0042006E0052096
:1008300004E0062002E0072000E0092002490978D0
:10084000062900D108207047A000002070472DE93C
:10085000F0470E46814601EB460014004FF00105BB
:100860004FEA800106D52D22484601F025FF60425F
:1008700004B203E02022484601F01EFF00274FF695
:10088000FF7805EB8500400094FBF0F100FB114080
:1008900090FBF5F03030C2B2F01B401D00EB400180
:1008A00008EA8101484601F007FF05EB85017F1C3E
:1008B00008EA4105042FE4D342F2107094FBF0F0F3
:1008C0003030C2B2761C06EB460081004846BDE8D7
:1008D000F04701F0F1BE00002DE9F05F03F0ACFC41
:1008E00001287DD14FF4FA7003F0E8FCDFF8DC83D7
:1008F000F74E98F8010088F800003078FFF780FF85
:10090000F44FDFF8D4A30A24DFF8D093642588F8E5
:1009100001004FF47A7B0A2862D2DFE800F061051B
:100920004ED2FEFDFCFBFAF998F8000001281BD01E
:10093000EBA1362001F0D0FE512001F005FE6C2025
:1009400001F002FEECA1872001F0C6FEF0A1BD205F
:1009500001F0C2FEA22001F0F7FDD82001F0F4FD65
:10096000F1A1F32001F0B8FE307818B94FF47840C7
:1009700001F0C8FFF2A1512001F0AEFE3078D0B1F5
:100980004FF4784001F0BEFFF2480088002100EBF0
:100990004000400002B2BD20FFF759FF307810B18F
:1009A0001F2001F0AFFF01F0C5F800EB4000400050
:1009B00002B20D21F6E31F20E4E798F800000228B8
:1009C0001ED0E5A1362001F087FEE9A1512001F0FB
:1009D00083FE6C2001F0B8FD872001F0B5FD00E03A
:1009E000FAE3E9A1A22001F077FEEDA1BD2001F01C
:1009F00073FED82001F0A8FDCBA1F32001F06CFE1E
:100A00003078ED4C022804D0032816D0042847D1B2
:100A10002DE04FF4784001F075FFB4F9002001217A
:100A20006C20FFF714FF1F2001F06CFFB4F90420C5
:100A300007216C20FFF70BFF12E0B4F90020012121
:100A40006C20FFF704FF4FF4784001F05BFFB4F92E
:100A5000042007216C20FFF7FAFE1F2001F052FF4F
:100A6000B4F918200D216C20FFF7F1FE18E0B4F95D
:100A7000002001216C20FFF7EAFEB4F904200721D1
:100A80006C20FFF7E4FE4FF4784001F03BFFB4F92F
:100A900018200D216C20FFF7DAFE1F2001F032FF35
:100AA000AC480088092100EB4000400002B2A220BF
:100AB000FFF7CDFE01F03EF800EB4000400002B22F
:100AC0007FE098F8000003281CD0BCA1362001F07C
:100AD00003FEA7A1512001F0FFFD6C2001F034FDC1
:100AE000872001F031FDBBA1A22001F0F5FDBFA1DF
:100AF000BD2001F0F1FDD82001F026FD8AA1F320F0
:100B000001F0EAFD3078BF4C05280BD0062805E03F
:100B100063E348E37FE203E2CFE054E016D0072826
:100B200047D12DE04FF4784001F0ECFEB4F90020FD
:100B300001216C20FFF78BFE1F2001F0E3FEB4F9CA
:100B4000042007216C20FFF782FE12E0B4F9002098
:100B500001216C20FFF77BFE4FF4784001F0D2FEBC
:100B6000B4F9042007216C20FFF771FE1F2001F06B
:100B7000C9FEB4F918200D216C20FFF768FE18E0BB
:100B8000B4F9002001216C20FFF761FEB4F90420C4
:100B900007216C20FFF75BFE4FF4784001F0B2FEB6
:100BA000B4F918200D216C20FFF751FE1F2001F031
:100BB000A9FEB7F900200921A220FFF748FEBAF9E3
:100BC00000200921EEE298F8000004281CD08EA134
:100BD000362001F081FD66A1512001F07DFD6C20E1
:100BE00001F0B2FC872001F0AFFC8DA1A22001F042
:100BF00073FD91A1BD2001F06FFDD82001F0A4FC90
:100C000049A1F32001F068FD3078914C082804D008
:100C1000092816D00A2847D12DE04FF4784001F07A
:100C200071FEB4F9002001216C20FFF710FE1F2097
:100C300001F068FEB4F9042007216C20FFF707FEDD
:100C400012E0B4F9002001216C20FFF700FE4FF400
:100C5000784001F057FEB4F9042007216C20FFF71B
:100C6000F6FD1F2001F04EFEB4F918200D216C2076
:100C7000FFF7EDFD18E0B4F9002001216C20FFF72B
:100C8000E6FDB4F9042007216C20FFF7E0FD4FF4E6
:100C9000784001F037FEB4F918200D216C20FFF7E1
:100CA000D6FD1F2001F02EFEB9F900200921A22057
:100CB000FFF7CDFDBAF9022083E798F80000052878
:100CC00003D0362001F040FCC4E0DCE07C000020D2
:100CD000AC000020A400002094000020A20000200E
:100CE000202048616C6C2053656E736F72204465E0
:100CF0006D6F202000000000205461726765742031
:100D0000202020204D65617375726564000000002D
:100D1000202020202020202872706D2920202020D3
:100D20002020202000000000203C3E204D6F7665F2
:100D300020205E7C204368616E6765200000000013
:100D400020537065656420636F6E74726F6C206DE4
:100D50006F646500A6000020202020202020205362
:100D600070656564202020202020202000000000E5
:100D7000202020205020202020204920202020201A
:100D80004420202000000000205461726765742018
:100D9000202020202020202872706D2900000000D3
:100DA000204D656173757265642020202020202805
:100DB00072706D2900000000840100202020202096
:100DC000202020546F727175652020202020202063
:100DD00000000000205461726765742020202020EC
:100DE000202020202849712900000000204D656145
:100DF00073757265642020202020202028497129E5
:100E0000000000006401002020202020202020205D
:100E1000466C757820202020202020200000000033
:100E2000205461726765742020202020202020201B
:100E30002849642900000000204D656173757265C2
:100E40006420202020202020284964290000000060
:100E500044010020F6A1512001F03EFC6C2001F07D
:100E600073FBF9A1872001F037FCA22001F06CFB95
:100E7000FBA1BD2001F030FCD82001F065FBFEA1F4
:100E8000F32001F029FC01F0E7FD06B25F4696FB76
:100E9000F7F00BFB106090FBF5F03030C2B284210C
:100EA000872001F009FC96FBF5F005FB106090FB34
:100EB000F4F03030C2B29021872001F0FDFB96FBA8
:100EC000F4F004FB10603030C2B29C21872001F0A6
:100ED000F3FB01F0D1FD064690FBF7F007FB106035
:100EE00090FBF5F03030C2B24821BD2001F0E4FBA8
:100EF00096FBF5F005FB106090FBF4F03030C2B2C9
:100F00005421BD2001F0D8FB96FBF4F004FB1060E7
:100F1000BDE8F05F3030C2B26021BD2001F0CCBB33
:100F200098F8000006281FD0AFF24C21362001F0BF
:100F3000D3FB512001F008FBD5A16C2001F0CCFBC4
:100F4000D9A1872001F0C8FBDDA1A22001F0C4FBDC
:100F5000E1A1BD2001F0C0FBD82001F0F5FAAFF20D
:100F60003821F32001F0B8FB30780C2804D00D288C
:100F700014D00E2841D129E04FF4784001F0C2FC92
:100F8000DBA1512001F0A8FB1F2001F0BBFCB7F949
:100F9000002005218720FFF75AFC10E0D4A1512042
:100FA00001F09AFB4FF4784001F0ACFCB7F9002057
:100FB00005218720FFF74BFC1F2001F0A3FCB9F9A6
:100FC00000200521A220FFF742FC16E0C8A1512015
:100FD00001F082FBB7F9002005218720FFF737FCDD
:100FE0004FF4784001F08EFCB9F900200521A220D1
:100FF000FFF72DFC1F2001F085FC5446BAF90020B4
:101000000D218720FFF723FCB4F902200D21A22037
:10101000FFF71DFCC7E498F80000BB4E072833D04B
:10102000362001F091FA4FF4784001F06BFCB7A143
:10103000512001F051FB1F2001F064FC30680005D5
:1010400001D5B8A117E03068800501D5BBA112E039
:101050003068C00501D5BEA10DE03068400501D55E
:10106000C0A108E03068400701D5C4A103E03068A2
:10107000000703D5C7A16C2001F02EFB872001F0EB
:1010800063FABD2001F060FA306810F4506F47D069
:10109000306898F8001010F4406F98F801004CD0B8
:1010A000884202D0A22001F04FFAC0A1A22001F094
:1010B00013FB01F0D1FC06B296FBFBF10BFB1160B8
:1010C00090FBF5F03030C2B28421A22001F0F4FA96
:1010D00096FBF5F005FB106090FBF4F03030C2B2E7
:1010E0009021A22001F0E8FA96FBF4F004FB1060D6
:1010F0003030C2B29C21A22001F0DEFA2022A821C9
:10110000A22001F0D9FA5622B421A22001F0D4FA8B
:10111000D82001F019FABDE8F05FF32001F014BA0D
:10112000A22001F011FAA4A1D82001F0D5FABDE85F
:10113000F05FA7A1F32001F0CFBA884202D0A2202D
:1011400001F002FA01F098FC0646A7A1A22001F0E6
:10115000C3FA96FBFBF10BFB116090FBF5F030300E
:10116000C2B28421A22001F0A7FA96FBF5F005FB9C
:10117000106090FBF4F03030C2B29021A22001F058
:101180009BFA96FBF4F004FB10603030C2B29C2155
:10119000A22001F091FA2022A821A22001F08CFACD
:1011A0004322B1E7FEE198F80000082814D0362069
:1011B00001F0CAF98FA1512001F08EFA93A16C20A1
:1011C00001F08AFA872001F0BFF9A22001F0BCF9F2
:1011D000BD2001F0B9F99BE7E2E198F80000092889
:1011E0001DD090A1362001F077FA94A1512001F092
:1011F00073FA6C2001F0A8F996A1872001F06CFA2F
:101200009AA1A22001F068FABD2001F09DF9D82032
:1012100001F09AF9AFF2F041F32001F05DFA307875
:10122000DFF86092984E994FDFF86482112831E11F
:1012300020506F7765722053746167652053746125
:1012400074757320000000002020444320627573F1
:10125000203D2020202020566F6C742000000000CC
:10126000202054203D20202020202043656C7369DD
:101270007573202000000000203C3E204D6F7665F5
:1012800020202020202020202020202000000000DE
:101290002020202020546172676574204D656173A1
:1012A0007572656400000000497120202020202014
:1012B00020202020202020202020202000000000AE
:1012C00049642020202020202020202020202020B1
:1012D00020202020000000005370656564202872E3
:1012E000706D2920202020202020202000000000D8
:1012F000546F7271756520636F6E74726F6C206DC0
:101300006F6465200000000088000020202020205D
:10131000212121204641554C5420212121202020EB
:10132000000000002042757320556E6465722056DF
:101330006F6C746167652020000000002020204F42
:101340007665722043757272656E742020202000CD
:101350002020204F7665722048656174696E672091
:10136000202020002020427573204F766572205681
:101370006F6C7461676520200000000020205374AA
:101380006172742D7570206661696C65642020201F
:10139000000000004572726F72206F6E20737065DE
:1013A000656420666462636B000000002020444393
:1013B00020627573203D00002020205072657373F9
:1013C00020274B65792720746F2020200000000023
:1013D00020202072657475726E20746F206D656EAA
:1013E00075202020000000002020202020202054F4
:1013F000203D0000204D6F746F722069732073745C
:101400006F7070696E67202000000000202020703F
:101410006C6561736520776169742E2E2E20202003
:10142000000000002020204F6273657276657220F4
:101430004761696E732020200000000020202020DA
:10144000204B31202020202020204B322020202023
:1014500000000000202020202020504C4C2047611C
:10146000696E732020202020000000002020202012
:101470002050202020202020202049202020202013
:1014800000000000D0000020D4000020C000002098
:10149000C20000202BD0122842D013285FD014287D
:1014A0007ED1D9F80000032190FBF4F002B26C2049
:1014B000FFF7CDF930680C2190FBF5F002B26C20FB
:1014C000FFF7C5F9B7F900200321BD20FFF7BFF9E9
:1014D0004FF4784001F016FAB8F900200C21BD2035
:1014E000FFF7B5F9BDE8F05F1F2001F00BBA4FF42C
:1014F000784001F007FAD9F80000032190FBF4F0DE
:1015000002B26C20FFF7A3F91F2001F0FBF930684D
:101510000C2190FBF5F002B26C20FFF798F917E070
:10152000D9F80000032190FBF4F002B26C20FFF721
:101530008EF94FF4784001F0E5F930680C2190FB0A
:10154000F5F002B26C20FFF782F91F2001F0DAF902
:10155000B7F900200321BD20FFF779F91DE0D9F884
:101560000000032190FBF4F002B26C20FFF76FF94A
:1015700030680C2190FBF5F002B26C20FFF767F9A0
:101580004FF4784001F0BEF9B7F900200321BD20E7
:10159000FFF75DF91F2001F0B5F9B8F9002000E070
:1015A00005E00C21BDE8F05FBD20FFF750B9BDE8B4
:1015B000F09F000010B507A1002001F08DF80BA1ED
:1015C0001B2001F089F8BDE810400EA1F32001F0C6
:1015D00083B800002053544D3332204D6F746F7226
:1015E00020436F6E74726F6C000000002020504D1D
:1015F000534D20464F432076657220322E302020F6
:1016000000000000203C3E204D6F766520205E7C6F
:10161000204368616E6765200000000010B500F08F
:1016200089FA01460B480A4AB0F9000001F056FB5E
:1016300009490880002048800A88081D02804988DE
:10164000418091B2054A118005494088088010BD4B
:1016500084010020A60000207E000020A4000020BD
:10166000A20000200349002008804880091F08804C
:10167000488070478200002070B500F0F1FA02F057
:1016800075FA15490860FFF7A2F8144C206000F0C5
:1016900011FA0146206801F001FC114D114E124A69
:1016A0002860B5F90010B6F9000001F017FB0F4CE7
:1016B0000F4A2080B5F90210B6F9020001F00EFBC6
:1016C000608001F06DFC206801F090FC0949086021
:1016D000BDE8704002F028B88C0000209000002087
:1016E0009400002082000020640100209800002067
:1016F000440100209C000020034801880348018029
:101700000349098841807047A4000020820000201E
:10171000A20000208000A0F1C0400029016802D092
:1017200041F0010101E0024A1140016070470000F0
:10173000FEFF0F0010B5D0E901121143D0E90323D9
:101740001A4311434269114382691143C26911432B
:10175000026A1143426A1143826A1143C26A114309
:10176000026B114302689200A2F1C04211608168CD
:10177000082907D101688900A1F1C0410A6842F037
:1017800040020A60416BD1E9002342EA03128B68F0
:101790008C891B0243EA04431A430B8A42EA035230
:1017A0000B7D896942EA03620A4301688900A1F15D
:1017B000C0414A60C16AB1F5804F08D000686FF03F
:1017C00070418000A0F1C040C0F8041110BD816BD1
:1017D000D1E9002342EA03128B680C8A1B0243EA18
:1017E00004531A430B7D896942EA036200680A4385
:1017F0008000A0F1C040C0F8042110BD38B501211F
:10180000042001F0ABFB0D4D284600F019F86846A6
:1018100000F004F94FF47064ADF8004001208DF839
:10182000020010208DF803006946284600F062F897
:101830002146284600F0EEF838BD000000080140BF
:10184000254910B5884206D10121042001F092FB00
:10185000002104203BE02149884206D101210820D3
:1018600001F088FB0021082031E01D49884206D1A3
:101870000121102001F07EFB0021102027E01949F2
:10188000884206D10121202001F074FB0021202094
:101890001DE01549884206D10121402001F06AFB74
:1018A0000021402013E01149884206D10121802007
:1018B00001F060FB0021802009E00D4988420AD137
:1018C00084150121204601F055FB00212046BDE88A
:1018D000104001F04FBB10BD00080140000C01405A
:1018E000001001400014014000180140001C01409C
:1018F00000200140F0B5CA78002502F00F03D2069F
:1019000001D58A7813430A784FF00F0E12F0FF0FBB
:101910004FF001021CD004680F8802FA05F6374028
:10192000B74211D14FEA850C0EFA0CF724EA0707EB
:1019300003FA0CF43C43CF78282F02D0482F02D072
:1019400002E0466100E006616D1C082DE4D30460EE
:101950000C88FF2C1ED944685FF0000606F10807CA
:1019600002FA07F50F882F40AF420FD14FEA860CDD
:101970000EFA0CF7BC4303FA0CF73C43CF78282F40
:1019800000D14561CF78482F00D10561761C082E23
:10199000E4D34460F0BD41F48032826181618261B0
:1019A0008169806970470000F0B5144C002801DAA5
:1019B000E36900E06368420D120185B2C0F301578C
:1019C0009540C0F30346032F05D0C2020AD5032277
:1019D000B240934307E023F07062636823F07063C2
:1019E000636002E0AB4343F0706201B12A43002818
:1019F00001DAE261F0BD6260F0BD0000000001406C
:101A0000806880B270470246002092680A4200D087
:101A10000120704741617047016170474FF6FF71C7
:101A20000180022181700421C1707047F0B500214E
:101A3000124B134E0A461C8824F002041C8002EB51
:101A4000420436F814C006EB44077C88641C04FB8F
:101A50000CF4B3F800C04CF0020CA3F800C0214411
:101A60003C79521C64F30705062AE4D30622891C3C
:101A7000B1FBF2F1C0E90015F0BD00000C0400401C
:101A8000A4010020094910B54978094B01EB410434
:101A900033F8141003EB44035C881B79641C614326
:101AA00063F30702C0E9001210BD0000E00000204F
:101AB000A40100200148B0F90E007047E0000020AA
:101AC0001CB5184C60790028684602D0FFF7AEFFBD
:101AD00001E0FFF7D7FFDDE90002E3790021012BE8
:101AE00011D052B27F2A19D00F4B1B88B3F5487F13
:101AF00009D20E4B984206D842F6E06398420AD9C2
:101B0000A389022B01D2218208E00949B1FBF0F040
:101B10004243228202E04FF400402082B4F91000D8
:101B20001CBD0000E000002028040040808D5B0008
:101B3000000082060748B0F9100010F5004F06D0EB
:101B400005494843C11700EB91308014704741F2BA
:101B500088307047E00000208032020070B588B005
:101B60000121022001F0E2F901213A48FFF71CFFB0
:101B70000121102001F0F2F907A8FFF74FFF4FF401
:101B8000E070ADF81C0004208DF81F0007A9324852
:101B9000FFF7B0FE314E304602F0B6FD03A803F069
:101BA000D9F84FF6FF70ADF810000024ADF81240E0
:101BB00003A9304603F080F8684602F0FFFE0B20D0
:101BC000ADF800400225ADF80800ADF802506946B6
:101BD000304602F05DFE01224FF44871304603F0BA
:101BE0001DF8304602F0FAFE0121304603F019F8E4
:101BF0005021304603F01FF80421304603F029F845
:101C00000121304603F0AFF81D208DF818008DF843
:101C100019508DF81A4001208DF81B0006A800F01D
:101C2000A7FF41F65F61304602F052FD012202211A
:101C3000304602F0CBFE01221146304602F0C6FECD
:101C40000021304603F00DF80121304602F046FD38
:101C500008B070BD000C1A000010014000040040E4
:101C600008480146B0F91020B1F90E1012F5004FE6
:101C700003D01144C1814281704742891144C1811E
:101C800070470000E00000202DE9F041214C0022C7
:101C90000221204602F09AFE1F490022CA700A71F2
:101CA0004A718A71CA718A818A704A704FF4487386
:101CB0004FF6FF771948012513E04E7806EB4606EC
:101CC00020F816704E7806EB460600EB4606738049
:101CD0004E7806EB460600EB460635714E78761CCC
:101CE0004E704E78062EE8D30520487009482830FB
:101CF00003808A810021204602F0B3FF01212046A3
:101D000002F0ECFC2046BDE8F0410122022102F085
:101D10005DBE000000040040E0000020A40100209F
:101D200010B501F033F90E49072817D2DFE800F0AB
:101D300016070D0A1304100046F6AA200DE049F21A
:101D400054500AE06FF4804007E04EF6AB2004E008
:101D500041F2565001E04FF48040C88110BD0000B0
:101D6000E00000200148C07970470000E00000203A
:101D7000FEE70000F8B54FF0D844E02020800020B6
:101D8000608007216180102161800921618017270F
:101D900067800B22628041266680892262804B2206
:101DA00062800A2262800C2363800E2363801825E0
:101DB00065801B2565800F2565804FF0E10CA4F838
:101DC00000C0608067801A2767800427678063806F
:101DD000062363802F23638045236380432363802E
:101DE00002236380628061804FF0320CA4F802C04D
:101DF0004FF0360CA4F802C06580F7252580A92590
:101E00006580512565802C25658082256580C025EB
:101E10002580112565806180C12121806680C521D2
:101E200021806080628080216180B1212180B02189
:101E300061806580B42121806380B6212180638028
:101E400022216180B7212180C6216180BE212180AD
:101E500060806780E92121806080042000F012FD0D
:101E60003A20208055206080258004480090401E44
:101E70000090FCD129202080F8BD000080A903003B
:101E80002DE9F04101F054FA002800DA40421B4CE1
:101E900005B22069C11700EB1140001400EB80016E
:101EA0004901CA1701EB926141F38F11002900DA51
:101EB00049420EB296214843C11700EB916040F3AE
:101EC0008F10002800DA404207B201F055FA0021D5
:101ED000012810D1602D0EDDBD420CDBB5420ADCBD
:101EE0002089401C80B220813C2802D30120BDE81B
:101EF000F0810020FBE72181FBE70000BC0000200F
:101F00000148407870470000A800002001490020E7
:101F100008707047A80000202DE9FC414FF6FF76BD
:101F2000ADF80060ADF8046004214C48FFF76BFD8C
:101F30004B4C002590BB694601A802F0A7FFBDF8F5
:101F40000000B04203D0BDF80410B14201D1A57029
:101F50007AE0C0F5F07080B2FB39ADF80000452999
:101F60003ED204210522032302270126B0F5CC7FAF
:101F700001D9072003E0B0F5AA7F02D9062020701E
:101F800012E0B0F5887F01D921700DE0CC2801D98D
:101F9000227009E0882802D9237005E020E0442857
:101FA00001D9277000E02670207804281AD0207804
:101FB00005281DD02078012820D0207806281DD0A3
:101FC000207807281AD0207802283FD020780328CC
:101FD000BDD1A07805283FD0A2700520BDE8FC81C6
:101FE0002570B4E7A078022836D0A7700220F5E764
:101FF000A078032830D0A3700320EFE7A078012851
:102000002AD002F005F910B9E07880071CD402F05C
:10201000FFF8012814D006E040F00200E0706420D0
:1020200002F040F910E002F0F3F801280CD1E0785A
:10203000810709D500F0FD00E070A6700120CDE712
:10204000E0788107EFD4E7E70020C7E7A07804280D
:1020500002D0A1700420C1E70620BFE700180140AC
:10206000A80000202DE9F05FFFF756FFF849002691
:10207000142348700A790D240C25052704214FF0FC
:10208000130A4FF0110B4FF0080E4FF0070C4FF0F2
:102090000609152A1BD2DFE802F00B2B5465788B5A
:1020A000ADCAF2EDECEBEAE9E81A1AE7E6E5E4007E
:1020B000E74A06280BD2DFE800F00A0CF609030312
:1020C000E448016881F00101016017E21371BDE885
:1020D000F09FE1480378032B08D00378022B05D04A
:1020E00001780029F3D1012101704AE00170EEE787
:1020F000D74CDA4A0628EAD2DFE800F003F41517D5
:10210000040CE4E7B2F90000B0F5FA7FDFDC1088D8
:102110000A3006E0B2F9000010F5FA7FD7DB10882C
:102120000A381080D3E702202EE1CB48007808B9A6
:102130002671CCE72371CAE701780029C7D10121B4
:10214000D4E7C34A0628C2D2DFE800F003CC30ADA2
:102150000406BCE7C24935E0C149A6E00880B6E7FD
:102160001071B4E7BA4A0628B1D2DFE800F003BB29
:102170000A0C0406ABE7BA4947E0B9494EE088804B
:10218000A5E71171A3E70220EAE7B14A06289ED22B
:10219000DFE800F003A80A0C040698E7B04951E014
:1021A000AF4958E0088392E7177190E70320D7E71B
:1021B000A74A06288BD2DFE800F003951417040D18
:1021C00085E7A84947F69B72B1F9000090428EDC82
:1021D0006430C3E7A348B0F90010642987DB643991
:1021E0005FE082F8049072E79A480068C007C8D19F
:1021F0000E20B5E7964A062894D2DFE800F0047373
:102200001503050ED0E762E7964947F6E672B1F985
:102210000400904286DC1930B1E79249B1F904001C
:10222000192886DB1938AAE782F804C04FE7884AE4
:1022300006288ED2DFE800F004562003050ED0E712
:1022400045E7884947F69B72B1F91800904286DC51
:102250006430A7E78349B1F9180064288ADB643841
:10226000A0E723E1E9E0C7E0A7E096E06FE04EE0F9
:1022700041E02EE01FE002E082F804E027E7744A24
:1022800006288AD2DFE800F0042E35030510CBE7DC
:102290001DE7754847F69B72B0F90010914284DC47
:1022A0006431018013E722E16F49B1F9000064282D
:1022B00086DB643852E7664A062894D2DFE800F0ED
:1022C000041222030507D7E701E767499DE766493E
:1022D000A4E75F4A062886D2DFE800F00304090B72
:1022E0000507F4E67AE06049ACE75F49B3E70B2005
:1022F00036E7092034E7564A01286FD0022803D078
:10230000032893D10A202BE782F804B0DFE6504A75
:1023100006288BD2DFE800F0040D0B030505D5E697
:10232000D5E64C48016881F001010160E1E01471DB
:10233000CDE649480378032B3FF402AF0378022B24
:10234000FAD00178002999D101210170EFE7404CC2
:10235000464A062892D2DFE800F003D61619040D8B
:10236000B5E6B2F9000044F25B71884286DC108861
:102370006430D6E6B2F9000044F25B71C84287DBF4
:1023800010886438CDE60E202071A0E6324800782F
:1023900000287FF4CFAE257199E62D4B344A0628EC
:1023A00092D2DFE800F005B006080403E2E7D8E7C0
:1023B0008DE61F718BE61C7189E6254B2D4A062898
:1023C0008FD2DFE800F003A01416040C7FE610683B
:1023D00010F1FA0F85DC1068FA3006E093E010681F
:1023E0002549884292DB1068FA3810606FE61220A7
:1023F00000E00B2018716AE6154B204A41F2883440
:1024000006288DD2DFE800F0037F1316040B5EE68A
:1024100010681B4988428BDC10682044E5E710688F
:10242000A04285DB1068A0F598508838DDE783F876
:1024300004A04CE683F804B049E6054C114A06288E
:102440008ED2DFE800F021600331222A72E600001C
:10245000A800002088000020A0000020A600002086
:10246000840100206401002044010020A400002019
:10247000A2000020D000002040D8F6FFD4000020A9
:1024800014EC3100C000002021E6B2F90000B0F5E4
:10249000FA4F8DDC1088193043E6B2F900000028AD
:1024A00086DD108819383CE612206DE71B4A1C4B6C
:1024B00006288BD2DFE800F003271424040C06E67C
:1024C000B3F90000B0F5FA4F90DC1888193005E038
:1024D000B3F90000002889DD188819381880F6E55E
:1024E00010480068C0071048007804D008B10120E7
:1024F00036E61671EBE500287FF428AF1571E6E5A6
:1025000082F804A0E3E508480278032A3FF418AEF5
:102510000278022A7FF410AEE8E50000A80000204F
:10252000C200002088000020A000002070B51D46D9
:102530001446049E00F082F904FB05F03146BDE824
:10254000704000F009B9000001B5064882B01823B8
:1025500040889DF808104FF4BE7200906420FFF789
:10256000E5FF0EBD000000202DE9F0411C46DDE92D
:102570000653203A2C27D6B24FF0D848102B12D051
:1025800018230C2200F05AF94046A8F80070214B9D
:1025900006EB4602002103EB02160022735CDF0704
:1025A0001ED045801DE01023082200F047F9434665
:1025B000A8F800701849002001EB06160021325CD3
:1025C000D70701D05D8000E05C80491C5208C9B289
:1025D0000829F5D3401CC0B21028EFD3BDE8F08124
:1025E0004480521C5B08D2B2082AD8D3491CCAB214
:1025F0000021B35CDF0701D0458000E04480491C26
:102600005B08C9B20429F5D3521CD1B23029C4D316
:10261000E4E700001C5800082C5200082DE9FF4F89
:1026200082B01646DDE90F7B0D4604464FF4F07A82
:102630004FF4A0794FF018081AE000BFBBF1100F5B
:102640001CD004F10C00504502D900241835ADB25D
:1026500005F11800484501D900242546CDE9007848
:1026600029462046059BFFF77FFF0C34A4B2761C59
:102670003278002AE2D106B0BDE8F08F4FF01008A2
:1026800004F10800504502D900241035ADB205F11F
:102690001000484501D900242546CDE9007832785C
:1026A00029462046059BFFF75FFF083416F8012FE7
:1026B000A4B2002AE4D1DEE73CB50C46054B014646
:1026C00018251888CDE900056434A0B25B88FFF7AF
:1026D0004BFF3CBD0000002003B5074882B0182323
:1026E0000288CDE900230A464388BDF8081064201B
:1026F000FFF794FF0FBD00000000002000B501218E
:1027000097B0080200F006FC02200F90002005217F
:10271000CDE910014FF08051CDE914010621CDE93A
:10272000001008210291129013901021CDE903109E
:10273000069009020790CDE908010A900B900C90D1
:102740000FA80D900E906846FEF7F4FF01210620B9
:10275000FEF7E0FF17B000BD10B500224FF0D843E0
:102760002C241C8001E05980521C8242FBD310BDF6
:10277000F8B50121084600F0F1FB0121602000F0CE
:10278000EDFB0121080200F0E9FB0121802000F0AF
:10279000E5FB0121802000F0E1FB03248DF80240DD
:1027A00018258DF803504CF20370204EADF8000050
:1027B00069463046FFF79EF84FF68070ADF800008E
:1027C00069461B48FFF796F88DF802408DF80350D4
:1027D0001024ADF8004069463046FFF78BF8202002
:1027E000ADF8000069463046FFF784F82002ADF8E6
:1027F000000069460F48FFF77DF80F4E0125ADF840
:10280000005069463046FFF775F88DF803408DF8A3
:102810000250A401ADF8004069463046FFF76AF85F
:1028200021463046FFF7F6F8F8BD000000140140DD
:102830000018014000200140001C014030B54FF05D
:10284000D8442A252580050A6580C5B265801044D4
:10285000401E020A6280C0B260802B202080080ADD
:102860006080C8B26080C818401E010A6180C0B292
:10287000608030BD01B5BDF800000149488008BD49
:1028800000000020F0B53627002201232A253F242E
:102890002B2679064FF0DF0C012806D0022813D032
:1028A000032814D004281FD121E00F80082048807D
:1028B0000D804A804A804B804C800E804A804A803E
:1028C0004B80A1F802C00FE00F80682011E00F805C
:1028D000C82048800D804A804A804B804C800E8002
:1028E0004A804A804B804C802C200880F0BD0F80AD
:1028F000A82048800D804A804A804B80A1F802C001
:10290000EDE7000001B5BDF800000149088008BDF1
:10291000000000200648B0F900104288C1EB811188
:102920001144CA1701EB92618911018070470000C0
:10293000B000002010B500F023F8012802D10002F9
:1029400000F0F2F800F008F8022804D1BDE81040C9
:10295000800200F0E9B810BD084843F67051B0F9A4
:102960000000884201DD0120704741F6B8618842CD
:1029700001DA02207047002070470000B0000020FC
:102980000B4881688288C1EBC1211144C90A81606A
:1029900046F2AC40814201D30120704745F67B509E
:1029A000814203D303480068C005F5D40020704776
:1029B000B00000208800002010B501F033FC244C4A
:1029C000C0B32068C00506D5FFF7DAFF18B9206844
:1029D00020F4807020602068400506D5FFF7BCFF1A
:1029E00018B9206820F4806020602068000506D5B2
:1029F000FFF7B2FF18B9206820F40060206020685B
:102A0000800509D54FF400411248FEF7FCFF18B1CC
:102A1000206820F4007020602068400703D52068FB
:102A200020F0040020602068000703D5206820F013
:102A300008002060FFF764FA012806D1206840F6FC
:102A40000C71084201D1012010BD002010BD000012
:102A500088000020002001400648B0F90000C0EBCB
:102A6000001000EB8000C11700EB5140C0F3CF30E5
:102A700070470000B0000020034859218068484397
:102A8000C0F3C73070470000B00000200148B0F923
:102A900000007047B000002010B500F037F8FEF7D6
:102AA000E1FDFFF7F1F8FFF73BF900F04DFC00F016
:102AB000F3FF0E48002101804180006800F034FEE1
:102AC0000B4940F62B100880042001F0FDFB01218A
:102AD000084801F00DFE00BF01F000FC0028FBD00B
:102AE000BDE81040012000F0F9BD00009C0000206E
:102AF000A4000020002C014003480021816042F620
:102B00001461018070470000B000002003490020DC
:102B100048610349486103494861704784010020C6
:102B2000640100204401002010B504464FF41670E3
:102B300001F0BEFB0021094801F0DAFD08480168F8
:102B40002143016007490720087007490F200870DA
:102B5000BDE81040002000F0C1BD0000002C014085
:102B600088000020A0000020AC000020FEE7704795
:102B700070B50F23C47801780122F4B1144C246895
:102B8000457804F4E064C4F5E064240AC4F1040662
:102B9000E3408478B5401C402C4301F1E02123013F
:102BA00081F80034007800F01F018A40400980005D
:102BB00000F1E020C0F8002170BD01F01F0082404C
:102BC0004809800000F1E020C0F8802170BD0000BD
:102BD0000CED00E00249084302490860704700001C
:102BE0000000FA050CED00E00907090E002806DADE
:102BF00000F00F0000F1E02080F8141D704700F194
:102C0000E02080F8001470472DE9F04F2E4C40F67C
:102C10002B13238040F61B7505804FF4006BA0F842
:102C200002B040F6CC0686804FF48047C7804FF054
:102C3000640EA0F818E04FF4005CA0F81AC000235E
:102C4000DFF88890C36147F6FF78A0F80890A0F8F5
:102C50000A804FF0604A4FEA8834C0F80CA0C0E9FF
:102C600004431B484B6103800D80A1F802B08E80A5
:102C7000CF80A1F818E0A1F81AC0CB61A1F80890A4
:102C8000A1F80A80C1E903A41249FA20536108801F
:102C90004FF42F701080102050804FF4C871918035
:102CA0000101D1804FF4FA71118350834BF641003A
:102CB000D361108144F2BF7050810748D060404218
:102CC0001061BDE8F08F0000A40000200080FFFF2D
:102CD000A2000020A60000200041B8FFF0B5431A72
:102CE000B2F90050B2F904005D4390B15843546901
:102CF000C617201846EBE47114694FEAE476271AE8
:102D00008E4104DBD468E617071BB14101DA546138
:102D100000E05061D069191AB2F91800D361484334
:102D20005188D488536995FBF1F193FBF4F319446E
:102D3000538B90FBF3F00144B2F90A00884204DDA2
:102D4000B2F90800884200DC08B2F0BD2DE9FC4170
:102D50004FF6FF70002100904FF4A0734FF4F07213
:102D60000846FFF7E3FB48F21F464FF48C78282310
:102D70004422414600200096FFF7D8FB1824002586
:102D8000CDE9005440F21D17334638A239461020D1
:102D9000FFF744FC4FF4784644222823414610466E
:102DA0000096FFF7C3FBCDE90054334630A2394605
:102DB0005D20FFF733FC4FF4FC6628234422414694
:102DC00088200096FFF7B2FBCDE90054334629A2D4
:102DD00039469120FFF722FC4FF620562823442243
:102DE0004146CC200096FFF7A1FBCDE900543346C5
:102DF00022A23946D620FFF711FC40F2FF7644228A
:102E00002823414690000096FFF790FBCDE900543F
:102E100033461CA2394640F21310FFF7FFFB760140
:102E20002823442241464FF4AA700096FFF77EFB08
:102E3000CDE90054334615A239464FF4B270FFF77E
:102E4000EDFB4FF61F062823482241464FF4CC7075
:102E50000096FFF76BFBCDE9005433460DA23946CF
:102E60004FF4D470FFF7DAFBBDE8FC8153454C000A
:102E700055500000444F574E000000004C4546544A
:102E80000000000052494748540000004B455931AA
:102E9000000000004B45593200000000E0B5054637
:102EA000084601F0ADFF014613482BB22D14016016
:102EB000B0F90060B0F9027003FB06F2D11702EB23
:102EC0005141CA1305FB07F1C81701EB5040A2EBB3
:102ED000E031204661F30F0003FB07F2D11702EB4C
:102EE0005141CA1305FB06F1CB1701EB534102EB2D
:102EF000E13161F31F40E0BD780000207047000021
:102F0000034A516821F44041014351607047000079
:102F100000100240044A0029516901D0014300E039
:102F2000814351617047000000100240044A0029AB
:102F3000D16901D0014300E08143D16170470000B5
:102F400000100240044A0029116901D0014300E049
:102F5000814311617047000000100240044A0029BB
:102F6000916901D0014300E0814391617047000005
:102F700000100240044A0029D16801D0014300E05A
:102F80008143D160704700000010024010B5034833
:102F9000FEF736FDC0F3821010BD000000100140A6
:102FA00010B50F4A0F4CB2F90000B2F9021000FB45
:102FB00000F301FB0133A34211D91B0E3D3B0A4C28
:102FC000DBB234F813305843C41700EB5440C0133D
:102FD00010805943C81701EB5040C013508010BDFA
:102FE000980000202196753DEC69000870B5134EDD
:102FF00004B20314B6F90050B6F9026004FB05F2FE
:10300000D11702EB5141CA1303FB06F1C81701EBBC
:10301000504002EBE031384661F30F0004FB06F24A
:10302000D11702EB5141CA1303FB05F1CB1701EB9A
:103030005341C2EBE13161F31F4070BD78000020C5
:103040002DE9F74F7C4C88B0B4F91200D4F82CE08D
:10305000C0EBC0314342A0EBC03C7145B8BFE16258
:1030600004DBBEEBC33FD8BFC4F82CC0D4F830E0BB
:103070007145B8BF216304DBBEEBC33FD8BFC4F8C2
:1030800030C0B4F910C0656ACCEBCC31CCF1000390
:10309000ACEBCC3EA942B8BF616204DBB5EBC33FE9
:1030A000D8BFC4F824E0A56AA942B8BFA16204DB76
:1030B000B5EBC33FD8BFC4F828E0BDF82430616A3F
:1030C000D4F828A091FBFCF5CDF81CA09AFBFCFAE3
:1030D000BDF826E0EB1AAAEB0E0CBDF920E0CDF806
:1030E00018A00EFB02FE4FEAEE760EEB564EBDF92F
:1030F00022604FEAEE3E7243D61702EB5642D213DD
:103100000FFA82FACDF808A0B4F91660B4F90C20D1
:103110001BB20FFA8CFC0FFA8EFE2DB2B4F91A70A6
:103120005A4306FB151107FB0E221144E26AB4F95B
:10313000189092FBF0FE0FFA8EF809FB181103911C
:10314000B4F914E0216B00FB0EFA91FBFAF5CDF80F
:1031500014A0B4F91CB0B4F90AE0B4F90EA0CDF88B
:1031600010E00BFB0EFE05FB0EF50AFB0353DDF82A
:1031700018A09D180FFA8AF3DDF81CA006FB13A314
:10318000B4F90C60DDF808A006FB0CF607FB0A6634
:1031900091FBF0F0DDF814A0334492FBFAF200B298
:1031A00009FB1036B4F90E3003FB0C110EFB12179D
:1031B000DDF810E0BEF1000FB4BF4FF0FF31012188
:1031C000A4F80480E0804042484308FB01F20FFA73
:1031D00080F90FFA82F8B4F9080001F011FE0190AD
:1031E000BDF90410BDF9060001FB09F1CA1701EB96
:1031F000524100FB08F0C21700EB5240C913C01344
:1032000009B200B200F04AFFE178491CC9B2E1708E
:10321000402904BF0021E1700849E27821F812003A
:1032200021890844208103982763A662E5626062D1
:103230000BB0BDE8F08F000008010020C80100209D
:103240002DE9F001DFF880800023B8F900409C46AA
:10325000A8F102001A4620214FEA040530F9046F54
:103260002344B0F902403244491EF7D19818C117DF
:1032700000EB91608311154F00247B81A8F10200BF
:103280005FF02001EA1A30F9046F02FB02CCF21A57
:10329000B0F9025002FB0244491EF3D10CEB0400CA
:1032A000C11700EB9160811103FB03F0C21700EB23
:1032B00052607A8CC01150438142D4BF012000205B
:1032C000B870BDE8F0017047C80100200801002077
:1032D0000D490288CA8242888A8182880A83C2880C
:1032E000CA8102894A8342898A8382890A82C28981
:1032F0004A82028A8A82428ACA83828A0A848269CC
:103300008A63808B488470470801002004498288C2
:103310008A81C288CA810288CA834088088470472B
:10332000080100200148B0F90A0070470801002098
:1033300010B5FFF7F7FF03494843C11700EB913081
:10334000801410BD8032020070B5094D00246C62FB
:10335000AC62EC622C63AC706C632C706C702C8172
:103360006C8180210348FCF708FFEC7070BD000001
:1033700008010020C8010020014880787047000043
:10338000080100201CB515488188ADF80010C188DF
:10339000ADF8021041694FF46152890391FBF2F1DB
:1033A000ADF804108069FCF7EBFF4FF066320C4B70
:1033B000FCF7EEFE00220B4BFCF75CFF0D22FCF746
:1033C000C8FF0022084BFCF755FFFCF7EAFFADF8F9
:1033D00006006846FFF79AFF1CBD0000BC000020F5
:1033E00066661640000024400020CC4003480021BF
:1033F00001704180C160016101817047BC00002003
:103400002DE9F047534C20462178C068A1B101292D
:103410002DD0022929D1401C2246E060B2F90A10C1
:10342000126941F2B0331144984222D82161D4E9A3
:1034300007010844E06127E04749B1F9001000297D
:1034400007DB40F2F91161817721216258B94348C5
:1034500008E06FF4FC7161816FF07601216210B9B0
:103460003E484042E06101202070BDE8F087022024
:10347000FAE745F26042904201D8216104E004205D
:10348000FFF752FBFFF7B2FF2069C11700EB1140B5
:1034900000144FF4615191FBF0F04FF4803191FB37
:1034A000F0F061880844608000F060FB2C490860FF
:1034B000FDF78DF9DFF8AC90C9F80000B4F90210FF
:1034C000FFF7ECFC284E3060E069284CC11700EB98
:1034D000915080122080264D4FF00008A5F8008002
:1034E000B6F90010234AB4F90000FFF7F7FB224FAA
:1034F000224A3880B6F90210B5F90000FFF7EEFB5A
:103500007880FFF74DFD3868FFF770FD1C4E306086
:1035100000F00AF9FFF7BAFA0246D9F8001030684D
:10352000FFF78EFDFEF7ACFC01289ED1B4F9000038
:10353000144900024861FFF759FF1349032008703E
:1035400012480068C00790D140F62B102080A5F8E3
:1035500000808AE7BC000020A6000020000437009D
:103560008C0000209000002094000020A400002087
:10357000A2000020640100209800002044010020E7
:103580009C00002084010020A00000208800002072
:1035900010B588B04FF49A60ADF8000040F63A508C
:1035A000ADF8040043F2F100ADF808000120ADF8D9
:1035B00010007F20BDF8101000EBD0704FEA4101E1
:1035C0004010ADF81010F5D1BDF910008003FCF7E4
:1035D000D7FE224A224BFCF7DBFD6FF00F02FCF70F
:1035E000B8FEFCF7DEFE1F4CADF80A0060694FF430
:1035F0006151800390FBF1F0ADF80200A069FCF787
:10360000BFFE4FF06632184BFCF7C2FD0022174B8D
:10361000FCF730FE0D22FCF79CFE0022144BFCF759
:1036200029FEFCF7BEFEADF80600A088ADF812003A
:10363000E088ADF814004FF48040ADF80C00401065
:10364000ADF80E0040F2444006900820ADF81C0092
:103650006846FFF73DFE08B010BD0000A7E8482E01
:10366000FF210940BC00002066661640000024408F
:103670000020CC407047000010B518210C48FCF722
:10368000F9FF0C49088018210B48FCF7F3FF0B49A0
:1036900008800B480178022902D00078032805D160
:1036A00005480830016821F400410160012010BD87
:1036B00000280140B400002000240140B200002096
:1036C000A00000200448016841F400410160024864
:1036D00004210838FCF773BF0824014070B5014687
:1036E0000F4C104801290CD00022012101F06EF985
:1036F000206820F480502060206840F40040206062
:1037000070BD216841F4805121600121054600F01F
:10371000DFFF2846BDE870400122114601F056B98E
:1037200008240140002C01402DE9FF4F05B244F26E
:10373000A8367543071442F210767743C7F1000CA0
:103740000CEB050600223D44C5F1000506EBD676DC
:1037500005EBD575C84F14461346114676104FEA4F
:1037600065050DD5002D02DA4FF0050C15E0BCF112
:10377000000F02DC4FF0040C0FE04FF0030C0CE0E4
:10378000002D02DB4FF0020C07E0BCF1000F02DC61
:103790004FF0060C01E04FF0010C87F801C04FF02C
:1037A000000C87F800C0BB4697F801804FEA204C18
:1037B00042F210770CFB07F900B244F2A83C00FB80
:1037C0000CFE09EB0E00404200EBD0704010C9F136
:1037D00000070090381A42F2107C60440190C01734
:1037E000039000984FEAE07AF81707EBD03907EB1F
:1037F0000E0000EBD0704FEA600E0098ACEB0707AC
:10380000AEEB000060440090C01702904FEAEE70EB
:10381000BE444FEAEE77B8F1070F65D2DFE808F053
:1038200064043178A6D7FB000399019800EB91312D
:1038300040F2E24000EBA14082B205EBDA3002EB4D
:10384000604084B2A4EB694083B2A2F6C410404247
:1038500080B2F12803D900BF40F6C31107E1111B64
:1038600089B2B1EB400F70D802F1F10081B240F69D
:10387000C4108142F2D301208BF80000F3E081B242
:10388000F5E0029A009906EBD03001EB923240F25B
:10389000E24101EBA2418AB205EBDA3102EB614170
:1038A000A2EB60408CB283B2A4F6C410404280B256
:1038B000F12802D940F6C31156E0A11A89B2B1EB42
:1038C000400F3FD804F1F10081B240F6C4108142AC
:1038D0004AD301208BF8000042E081B244E0674DFA
:1038E00028606748674D28609BF800506648002DA7
:1038F00005887DD045F4005505806348143002806A
:10390000001D0480001D0380001D0180BDE8FF8FA5
:103910000EEB973240F2E24101EBA2418AB206EB94
:10392000D030A2EB604083B203EB694084B2A4F6CE
:10393000C410404280B2F128BCD8E11A89B2B1EB80
:10394000400F03D9A4F10F00C7E77FE004F1F100B5
:1039500081B240F6C410814206D301258BF8005095
:1039600041F28730401AB8E74848B8E70399019810
:1039700000EB913140F2E24000EBA14082B205EB56
:10398000DA3002EB604084B2A4EB694083B2A3F664
:10399000C410404280B2F12803D900BF40F6C311E1
:1039A00010E0191B30E000BF03F1F10081B240F6D6
:1039B000C410814206D301208BF8000041F2873009
:1039C000401A81B22D4D3148286031488AE7029A69
:1039D000009906EBD03001EB923240F2E24101EB6C
:1039E000A2418AB205EBDA3102EB61418CB201E00F
:1039F0003FE010E0A2EB604083B2A3F6C410404267
:103A000080B2F128CAD8991A89B2B1EB400FCBD94C
:103A1000A3F10F00D5E70EEB973240F2E24101EB44
:103A2000A2418AB206EBD030A2EB604083B203EB36
:103A3000694084B2A2F6C410404280B2F1283FF639
:103A40000BAFD11A89B2B1EB400F02D9A2F10F002E
:103A500015E702F1F10081B240F6C410814206D3AD
:103A600001258BF8005041F28730401A07E70948DA
:103A700035E725F400553FE7F200002038240140E7
:103A80000034150038280140202C014000AC1700FC
:103A90000030150000B0170070B5324E00224FF410
:103AA00090613046FCF7EDFD2F4C00254FF4E041CE
:103AB000A580E58025813046FCF7BAFD012130461E
:103AC000FCF7ACFD03213046FCF72DFE002301225C
:103AD0000B213046FCF702FE002302220C21304667
:103AE000FCF7FCFD002303220D213046FCF7F6FD18
:103AF00004213046FCF763FD01213046FCF71BFE34
:103B0000658004213046FCF7A0FD0028F9D014217F
:103B10003046FCF7AFFDA18801EBD000A080182152
:103B20003046FCF7A7FDE18801EBD000E0801C21C6
:103B30003046FCF79FFD218901EBD0002081042154
:103B40003046FCF73CFD01213046FCF7F4FD60886F
:103B5000401C80B260801028D3D3BDE8704000F0D4
:103B60000DBA000000240140F20000202DE9F043CE
:103B700039494FF40044621E91F801C08B88CE8809
:103B80000D89364FDFF8D890D143BCF1070F1DD215
:103B9000DFE80CF01C264848040426003D68A3EB2F
:103BA00045038B4202DA61F30F0006E0A34202DB19
:103BB00062F30F0001E063F30F00D9F80030A6EBC9
:103BC00043038B4204DA00BF61F31F40BDE8F0837A
:103BD000A34202DB62F31F40F8E763F31F40F5E7FF
:103BE0003B68A6EB43038B4202DA61F31F4006E019
:103BF000A34202DB62F31F4001E063F31F40D9F8E8
:103C00000030C5EB4303A3EB2043A34202DB62F386
:103C10000F00DBE78B4202DA61F30F00D6E763F3B4
:103C20000F00D3E73E68A3EB46038B4202DA61F351
:103C30000F0006E0A34202DB62F30F0001E063F332
:103C40000F00D9F80030C5EB430305B25B1BA3425C
:103C5000C0DA8B42C1DAB7E7F20000203C24014011
:103C60003C2801402DE9F04F93B04FF40040FFF79E
:103C700047F901210846FFF74DF901211D20FFF703
:103C80006DF901214802FFF769F94FF4806A0121BB
:103C90005046FFF763F90121C802FFF75FF909A851
:103CA000FDF7BCFE3F20ADF8240000248DF827402E
:103CB00009A9AC48FDF71EFEAB4800F025FD0FA892
:103CC00001F048F8ADF83C402020ADF83E0040F649
:103CD000C410ADF840004FF480770125ADF8427074
:103CE0008DF844500FA9A04800F0E6FF684600F0A8
:103CF0008BFF6020ADF800004FF00408ADF80480A1
:103D000040F20550ADF80600ADF80840ADF80C40A3
:103D1000ADF80250ADF80A40ADF80E406946924841
:103D200000F062FE6946904800F0A4FE69468E48A5
:103D300000F0EAFE09A8FDF771FE4FF47060ADF8DF
:103D400024001826DFF824B28DF827604FF003090D
:103D50008DF8269009A95846FDF7CCFD4FF4604038
:103D6000ADF824008DF827608DF82690DFF80092DA
:103D700009A94846FDF7BEFD4FF4E0615846FDF73E
:103D80000AFE09A8FDF74AFE2803ADF824008DF8C5
:103D9000278009A94846FDF7ADFD684600F034FFCD
:103DA0007020ADF80000ADF8044040F6C310ADF847
:103DB0000600ADF808400820ADF80A00ADF80C4048
:103DC000ADF80250ADF80E406946674800F0E0FEDD
:103DD0000821654800F048FE0821634800F08AFE8B
:103DE0000821614800F0CEFE08215F4800F002FF84
:103DF000E802ADF82C00ADF830701C20ADF83200B0
:103E0000ADF834406803ADF83600ADF82EA0ADF83B
:103E100038400BA9544800F04AFC2021524800F0D9
:103E200010FF8021504800F056FC01214E4800F060
:103E300055FC01214C4800F01FFD01214A4800F0CB
:103E400047FC00220121484800F0C0FD002210215B
:103E5000454800F0BBFDDFF81C814046FCF7BCFB89
:103E6000DFF814914846FCF7B7FB01214046FCF708
:103E7000A9FB01214846FCF7A5FB04A8FCF76AFC56
:103E80004FF4A02004904FF46027E802CDE90670BB
:103E90008DF814508DF815408DF8205004A9404637
:103EA000FCF7F8FB04A8FCF755FCE802CDE9067026
:103EB0008DF814508DF815408DF8205004A948460F
:103EC000FCF7E8FB4046FCF740FC4846FCF73DFCAD
:103ED000C146DFF8A4804846FCF7B0FB07464046E1
:103EE000FCF7ACFB0742F6D1FFF7D6FD02214746AF
:103EF0004046FCF718FC002301220B213846FCF752
:103F0000EDFB002302220A213846FCF7E7FB4FF4C1
:103F1000A060FEF75FFE12208DF828008DF8295072
:103F20008DF82A408DF82B500AA8FEF721FE1920A3
:103F30008DF828008DF829508DF82A408DF82B50E7
:103F40000AA8FEF715FE8DF828608DF829408DF837
:103F50002A408DF82B500AA8FEF70AFE13B0BDE8E0
:103F6000F08F000000100140002C014000080140CB
:103F7000000C0140002401400028014070B51A4C9B
:103F800002212046FCF7CFFB184D02212846FCF702
:103F9000CAFB002301220C212046FCF79FFB0023D3
:103FA00002220F212046FCF799FB00212046FCF756
:103FB0003FFB01212846FCF731FB0D492046FCF769
:103FC000EDFA0F212046FCF7F1FA002240F2AE7123
:103FD0002046FCF7F1FA2046BDE8704001224FF47C
:103FE000B861FCF74EBB00000024014000280140EE
:103FF000000240000CB500212648019100910268A2
:1040000042F4803202604FF4A063026802F400328E
:104010000092019A521C0192009A12B9019A9A4296
:10402000F3D10268920333D5012100911A490A683D
:1040300042F010020A600A6822F003020A600A686D
:1040400042F002020A604168416041684160416893
:1040500041F480614160416821F47C114160416814
:1040600041F4E8114160016841F08071016001682C
:104070008901FCD5416821F003014160416841F0AC
:10408000020141604168C1F381010229FAD10CBDEE
:1040900000910CBD0010024000200240224B081A83
:1040A000B3F91E10B3F920C001FB00F2596B0CFBF1
:1040B00000F000290FDB0028A4BF93F800C0BCF17A
:1040C000000F06D1081844BF6FF00040586310D4A9
:1040D0000EE000290BDC0028DCBF93F801C0BCF126
:1040E000000F04D108440028C8BF104800E008446D
:1040F0005863D11702EB9141C217891300EB92303C
:1041000001EBA040996B01228842C8BF1A7007DCFE
:1041100049428842A2BF00211970597001DA5A70D1
:10412000084600B27047000008010020010000802E
:1041300070B5204CA08810B1A088401EA080E088F7
:1041400010B1E088401EE080208910B12089401E17
:104150002081608808B1401E60806089032510B10D
:10416000401E608104E06581FFF76AF8FFF70AF9F5
:10417000207818B12078401E207070BD25700E4840
:104180000068C1070D4800780ED00328F5D1FDF76F
:10419000D1FCA0F59851883902D10820FEF7C4FC63
:1041A000BDE87040FDF73ABA0328E6D1BDE870409B
:1041B000FDF7A2BAFC00002088000020A00000202B
:1041C0000F4810B5016841F00101016041680D4AD6
:1041D0001140416001680C4A11400160016821F4FE
:1041E00080210160416821F4FE0141604FF41F010C
:1041F0008160FFF7FFFE05494FF00060086010BDC9
:10420000001002400000FFF8FFFFF6FE08ED00E09E
:104210000348008908B10020704701207047000062
:10422000FC0000200348808808B10020704701206E
:1042300070470000FC0000200348C08808B100203F
:104240007047012070470000FC00002070B5144842
:1042500000684FF0E026C0F3022448F69F407061EA
:1042600075170F212846FEF7BFFC0020B06107201C
:104270003061C4F10700042800D90420211D07295A
:1042800001D2002400E0E41E01218140491E01F01A
:104290000301A1402846BDE87040FEF7A5BC000020
:1042A0000CED00E00149088170470000FC0000208F
:1042B0000149888070470000FC0000200149C88047
:1042C00070470000FC0000204FF6FF7101EA40003B
:1042D0000149488070470000FC00002003484088E6
:1042E00008B100207047012070470000FC0000204A
:1042F00070B5048C24F001040484058B048C4FF603
:10430000FF7606EA0313134325F0F3050E4A2B4309
:1043100090420ED00D4A90420BD0B0F1804F08D0A1
:104320000B4A904205D00B4A904202D00A4A904272
:1043300002D124F0020201E024F00A020A4342F012
:1043400001010383018470BD002C01400034014051
:104350000004004000080040000C0040F0B5048C50
:1043600024F010040484078B048C4FF6FF7527F4A7
:10437000734705EA03333B4305EA02221A43114B14
:1043800005EA011698420ED00F4B98420BD0B0F1BF
:10439000804F08D00D4B984205D00D4B984202D06B
:1043A0000C4B984205D124F02001314341F010011B
:1043B00004E024F0A0030B4343F0100102830184C6
:1043C000F0BD0000002C014000340140000400401A
:1043D00000080040000C004010B54FF40070FEF7DC
:1043E000A3FBBDE810408021014800F074B9000033
:1043F000002C014010B50121034800F069F9BDE827
:104400001040FFF75FB90000002C0140704700002A
:104410002DE9F047DFF888820121404600F030FAAC
:104420000026A04F012580B10121404600F050F93F
:10443000B878FF2802D2B878401CB870B878022843
:1044400001D3FD713E82BDE8F0873C78FEF79EFD0A
:1044500002210A1FCB1E3870032837D0052817D039
:10446000062851D07F2038720221C246404600F013
:104470002FF9B9894FF6FF79494502D2B889401C16
:10448000B881787805285DD07878401C78705AE03B
:10449000052C0AD0062C10D0032C10D097F9080058
:1044A00000280EDA47F6FF7042E097F9080000286E
:1044B00001DA397207E03A72F4E73D7203E03B72C9
:1044C000F0E77F28D0D045F2555031E0032C0AD0D8
:1044D000052C10D0062C10D097F9080000280EDA11
:1044E0004DF2545024E097F90800002801DA39729F
:1044F00007E03A72F4E73D7203E03B72F0E77F2891
:10450000B2D04AF6AA2013E0062C04D0032C11D016
:10451000052C11D006E097F90800002801DA39725D
:1045200000E03A7297F90800002807DA42F6AB205B
:10453000F88199E73D7203E03B72F7E77F2893D05B
:10454000FE8191E77E70FE71B878DFF85481564C99
:10455000002808F12808504641D000F08FF9B8F83B
:10456000001043463A4607E092F802C0ACF1010C55
:1045700082F802C000F5803092F802C0BCF1000F52
:10458000F2D14FF400484FF4803C604507D305EB6F
:104590004101400889B24145F7D34946484692F85F
:1045A00001C00CEB4C0C24F81C00507800EB4000D0
:1045B00004EB40004180117A507800EB400004EB9E
:1045C00040000171107908B1167133E01888B0F518
:1045D000487F2FD21888401C188015712AE000F0FF
:1045E0004DF9797801EB410124F811003A7A797894
:1045F00001EB410104EB41010A71B8F80010424699
:10460000FB7843B17878491C00EB400004EB400094
:104610004180FE700EE0B0F5AA4F3AD21088B8B3D0
:10462000787800EB400004EB400041801088401E89
:104630001080FD70B879B84628B398F80100C446D8
:1046400000EB400034F8107098F8010000EB4000D7
:1046500004EB4000428898F8010000EB400004EBB6
:10466000400090F90410002000EB400324F8137080
:1046700004EB43035A801971401C0528F4D18CF8CF
:1046800006608CF80550FDF71BFAA8F81000DAE672
:10469000FFE7787800EB400004EB40004180C9E779
:1046A00000040040E0000020A4010020704710B585
:1046B0000A884B88CC881A438B8823431A430B897A
:1046C0001A434B8989891A430A43A0F8442010BD34
:1046D000C94301827047C94301827047002901889C
:1046E00002D041F0010101E021F001010180704799
:1046F000002930F8441F02D041F4004101E0C1F329
:104700000E010180704700004B4910B5884202D16C
:104710000121C41486E0B0F1804F09D04749884296
:104720000DD101210220FEF70DFC0021022064E0E2
:1047300001210846FEF706FC002101205DE040490A
:10474000884206D101210420FEF7FCFB0021042051
:1047500053E03C49884206D101210820FEF7F2FBD4
:104760000021082049E03849884206D10121102063
:10477000FEF7E8FB002110203FE03449884206D1D3
:1047800001212020FEF7DEFB0021202035E030490A
:10479000884202D10121441444E02E49884202D1CA
:1047A0000121CC043EE02C49884202D101210C05B4
:1047B00038E02A49884202D101214C0532E02849DB
:1047C000884206D101214020FEF7BCFB0021402099
:1047D00013E02449884206D101218020FEF7B2FB74
:1047E0000021802009E0204988420AD18415012156
:1047F0002046FEF7A7FB00212046BDE81040FEF74B
:10480000A1BB1A49884202D101210C040AE01849CF
:10481000884202D101214C0404E0164988420AD1A1
:1048200001218C042046FEF7A5FB2046BDE8104080
:104830000021FEF79FBB10BD002C0140000400408A
:1048400000080040000C0040001000400014004030
:1048500000340140004C0140005001400054014030
:1048600000180040001C00400020004000400140B3
:10487000004401400048014081827047808E7047AB
:1048800002460020128A0A4200D001207047000030
:104890002DE9F05F0D4604460888434FDFF80CC150
:1048A000DFF80C814988AA882B894FF0804960B3D2
:1048B000042833D04FF6FF7E082838D0208C9B4642
:1048C00020F480502084A38B268C704600EA0222BC
:1048D00023F473431A4300EA0B3010430EEA013EFF
:1048E000BC420BD0644509D04C4507D0444505D0A7
:1048F000304A944202D0304B9C4248D126F40051B9
:1049000041EA0E0141F4805146E02046FFF7F0FCF9
:10491000E9882046BDE8F05F00F0A5B92046FFF722
:104920001DFDE9882046BDE8F05F00F0A4B9208CA9
:1049300020F480702084B4F81CA0208C0EEA0313AD
:1049400013432AF0F30A0EEA012B43EA0A03BC429E
:104950000BD0644509D04C4507D0444505D0154AD5
:10496000944202D0144A944204D120F4007040EAE8
:104970000B0002E020F42060084340F48070A38321
:104980002084E9882046BDE8F05F00F080B926F475
:1049900002420A4342F48051A08320462184E988E0
:1049A000BDE8F05F00F07BB9002C0140003401400D
:1049B0000004004000080040000C0040002101807D
:1049C000418001228280C18001817047002A828952
:1049D00001D00A4300E08A4382817047018921F0B7
:1049E000070101817047000030B5028C22F00102FE
:1049F0000284028C8388048B22F0020224F0730567
:104A00000C882C430D8915434A882A43114DA8422E
:104A10000BD0114DA84208D0104DA84205D0104D22
:104A2000A84202D00F4DA8420DD122F008054A89B4
:104A300023F440732A4322F004058A882A438D898F
:104A40001D43CB892B4383800483C98881860284DC
:104A500030BD0000002C0140003401400040014006
:104A60000044014000480140028B22F008020A4342
:104A70000283704770B5028C22F010020284028C0F
:104A80008488038B0D8823F4E6464FF6FF7303EA10
:104A9000052535430E8922F0200203EA0616164347
:104AA0004A8803EA02123243104EB04202D0104E3E
:104AB000B04215D122F080064A8924F4406403EA0A
:104AC0000212324322F040068A8803EA021232437D
:104AD0008E8903EA86062643CC8903EA840434439C
:104AE00084800583C9880187028470BD002C014041
:104AF00000340140028B4FF6FF7322F4006203EA98
:104B0000012111430183704770B5028C22F4807239
:104B10000284028C8488838B0D8823F073031D43E9
:104B200022F400730E894FF6FF7202EA06261E4336
:104B30004B8802EA03233343104EB04202D0104E9A
:104B4000B04215D123F400664B8924F4405402EAA4
:104B50000323334323F480668B8802EA0323334321
:104B60008E8902EA06162643CC8902EA04143443ED
:104B700084808583C9888187038470BD002C0140AF
:104B800000340140828B22F008020A43828370477E
:104B900070B5028C22F480520284048C8288838B4C
:104BA0000D8823F4E6464FF6FF7303EA05253543E7
:104BB00024F400560C8903EA043434434E8803EA93
:104BC00006362643094CA04202D0094CA04205D12A
:104BD00022F480448A8903EA8212224382808583F8
:104BE000C988A0F84010068470BD0000002C014068
:104BF00000340140828B4FF6FF7322F4006203EA17
:104C0000012111438183704700210180418081800F
:104C1000C180018141818181C1817047018582828A
:104C200070470029818802D041F0800101E021F025
:104C3000800181807047028922F070020A4302815C
:104C40007047828822F07002828082880A438280C4
:104C50007047028922F00702028102890A43028119
:104C6000704781847047028B22F00C020283028B12
:104C70000A4302837047028B22F440620283028B54
:104C80004FF6FF7303EA01210A4302837047828BC8
:104C900022F00C028283828B0A4382837047828BCC
:104CA00022F440628283828B4FF6FF7303EA012174
:104CB0000A4382837047000030B502881B4B1C4CAE
:104CC00098420DD0A0420BD0B0F1804F08D0194DC2
:104CD000A84205D0184DA84202D0184DA84203D1D1
:104CE00022F070054A882A43154DA84206D0154D7A
:104CF000A84203D022F44075CA882A4302808A88D9
:104D000082850A88028598420AD0A04208D00E4ABD
:104D1000904205D00D4A904202D00D4A904201D1F6
:104D2000097A01860121818230BD0000002C0140FA
:104D3000003401400004004000080040000C004026
:104D400000100040001400400040014000440140B9
:104D5000004801404FF6FF71818000210180C18031
:104D60004180017270470029018802D041F004019E
:104D700001E021F00401018070470000F8B5012135
:104D80004020FEF7EBF80820ADF8000001241B4F8F
:104D90008DF8024010258DF8035069463846FCF71F
:104DA000A9FDADF8005069463846FCF7A3FD202068
:104DB000ADF800008DF8024048268DF80360694682
:104DC0003846FCF797FD4020ADF800008DF8024012
:104DD0008DF8035069463846FCF78CFD0420ADF889
:104DE00000008DF802408DF8036069463846FCF7F4
:104DF00081FD40213846FCF70DFEF8BD001801404A
:104E000010B500F50042920912F44074C0F3871205
:104E10001649C2F1FF0316D0B4F5807F1CD0B4F55B
:104E2000007F09D0B4F5407F1FD131F8133031F83D
:104E3000121063F31F400DE031F8122031F8131007
:104E400062F31F400FE031F8122031F81310524284
:104E500062F31F40494206E031F8133031F8121076
:104E60005B4263F31F4061F30F0010BD726A0008DC
:104E7000FEE701B5002004E00B21491EC9B2FCD2B7
:104E8000401C00998842F7D308BD00007CB50C4651
:104E90000546002201A9684600F074F820B14FF6DB
:104EA000FF70288020807CBD0D4AD2E91501009B4F
:104EB00001FB0300D16D019B01FB0300D16E90FB50
:104EC000F1F02880D2E91801009B01FB0300916EEC
:104ED000019B01FB0300D16E90FBF1F0E2E70000C3
:104EE0000800002070B5264C064610212046FCF72D
:104EF00091FD08212046FCF78DFD0025C5F1070036
:104F000026FA00F0C0074FF01001204602D0FCF74F
:104F100083FD01E0FCF77EFD0520FFF7AAFF0821D5
:104F20002046FCF779FD0520FFF7A3FF0821204666
:104F3000FCF770FD6D1CEDB2082DDFD300251021AC
:104F400026462046FCF766FD08213046FCF764FD46
:104F5000002408213046FCF75DFD20213046FCF797
:104F600052FDC4F10B018840284385B20821304628
:104F7000FCF752FD641CE4B20C2CEAD3284670BD49
:104F8000001801402DE9F0438DB00C4680461646CE
:104F9000002528216846FBF7F0F84B4FE94604212D
:104FA0003846FCF730FD18B1CEB10A2DF7D314E026
:104FB0000BA90AA800F08AF8BDF8281029F81510E6
:104FC00009EB4500BDF82C106D1C8182EDB2ECE7B9
:104FD00004213846FCF717FD08B9002EF8D10A2D38
:104FE00008D04FF0FF30C8F80000206001200DB05D
:104FF000BDE8F083BDF90000BDF914108446624697
:105000000B4601254FEA090737F91560864201DA98
:10501000304602E0964200DD32466D1CEDB20A2DAC
:10502000F2D3012507EB4506B6F914609E4201DA7A
:10503000334602E08E4200DD31466D1CEDB20A2D92
:10504000F0D3BDF90210BDF90430BDF9065061443A
:105050002B441944BDF908301944BDF90A301944EC
:10506000BDF90C301944BDF90E301944BDF91030AA
:105070001944BDF912301944091A891ACB10C8F81D
:105080000030BDF91410BDF91630BDF91A5019449D
:10509000BDF918302B441944BDF91C301944BDF931
:1050A0001E301944BDF920301944BDF9223019448D
:1050B000BDF924301944BDF926301944081A801A64
:1050C000C0102060002092E70018014070B506462D
:1050D0000D469020FFF706FF04460A20FFF7C9FEA1
:1050E000D020FFF7FFFE2C80308070BD02E008C8A2
:1050F000121F08C1002AFAD170477047002001E052
:1051000001C1121F002AFBD1704700004FF48060DC
:10511000FDF760FDFCF772FBFEF7A4FDFCF71EFD3A
:10512000FEF736FAFEF710F9FFF790F8374A3849DC
:105130003848FDF769FDFCF7E9FEFDF7DDFCFBF7FC
:1051400013FB1F20FDF7DEFB4FF6FF70FDF792FB10
:10515000FCF730FA304F0026304C314DFBF7BCFBEA
:10516000FDF7E8FBFCF77EFF20780828F6D2DFE8A1
:1051700000F00405040E1E04323CEFE7FDF78CFC42
:1051800040F6B830FFF7A0F802202070E6E7FCF701
:10519000E9FD10B10820FDF7C7FCFCF7CBFCA0F53A
:1051A00098518839DAD10820FDF7BEFCD6E70021F6
:1051B0001C48FFF79DFA062020700020FEF78EFAAB
:1051C0001948468006800068FEF7AEFA4FF4FA6090
:1051D000FFF76EF8C2E7FFF725F80128BED1FCF70C
:1051E000C1FD0028BAD02670B8E7FDF7E5FB01281D
:1051F000B4D12868C00701D03E7001E00C2038709F
:105200002670286840F002002860A7E7840100208B
:105210004401002064010020AC000020A000002018
:1052200088000020002C01409C00002000000000AD
:10523000000000000000000000000000000018183E
:105240001818180808080800181800000000003C8A
:1052500024240000000000000000000000000044C2
:105260002424FF242424FF22121200000000083C02
:105270002E6A0E0C38686A6A2E1C08000000002690
:1052800025151D1668585454526200000000001C79
:105290003434140C0E4A5363F61C0000000000085E
:1052A000080800000000000000000000000040208E
:1052B00030101010101010102020400000000204C8
:1052C000040808080808080804060300000000187D
:1052D000187E183C5A18180000000000000000005A
:1052E00000080808FF08080800000000000000008F
:1052F00000000000000000000606020000000000A0
:10530000000000007F00000000000000000000001E
:105310000000000000000000060600000000004041
:105320002020101008080404020100000000003CC6
:1053300026424242424242623418000000000010FD
:10534000181E1A1818181818181800000000003C29
:1053500066426020301008047E7E00000000003CA1
:105360006642603030604042261800000000002095
:10537000303828242622FF20202000000000007C56
:1053800006020A3E62404063361C00000000001026
:1053900018080C3E46C2C242663C00000000007E77
:1053A00040602030101808080C0C00000000003C81
:1053B0006242623E3E424342663C00000000003CC6
:1053C00062434363363C1018080C000000000000E4
:1053D0000000001800000000181800000000000085
:1053E000000000180000000018180800000000402D
:1053F00020100806020408102040000000000000F1
:1054000000007F0000007F0000000000000000029C
:105410000408102040201008060200000000003C94
:105420006662603010080000080800000000003CC0
:105430004279696555555529023C00000000001865
:1054400018183C24243E664242C300000000003E7F
:105450006242423E3E4242427E1E00000000003C4C
:1054600066424202024242466C3800000000001EC2
:1054700032624242424242623E0E00000000007E22
:105480000202027E7E0202027E7E00000000007E9A
:10549000020202023E020202020200000000003C80
:1054A00066424202727242466C580000000000429E
:1054B0004242427E7E4242424242000000000018C8
:1054C00018181818181818181818000000000040AC
:1054D00040404040404042623E1C000000000062EC
:1054E00022121A0E1E12322262C2000000000002B6
:1054F00002020202020202027E7E0000000000663A
:10550000666666765E5A5A5A5A4A000000000042A1
:1055100046464E4A5A527262626200000000003CE7
:105520006642424343434262261800000000003EA8
:10553000624242427E0E0202020200000000003C73
:105540006642424343435272267800000000003E08
:10555000624242623E123222624200000000003C7F
:105560006662060C38604242663C00000000007E25
:1055700018181818181818181818000000000042F9
:105580004242424242424242663C00000000004326
:105590004262662624341C1818180000000000D946
:1055A0005B5B5A5A5656666626260000000000626B
:1055B00026241C18181C34266243000000000043F7
:1055C0006226341C18181818181800000000007EF5
:1055D00060203010080C04067E7E00000078080869
:1055E00008080808080808080808780000000002F1
:1055F000040404080810101020204040001E101061
:10560000101010101010101010101E00001834424E
:10561000000000000000000000000000000000008A
:105620000000000000000000000000FF000C181047
:10563000000000000000000000000000000000006A
:105640000000003C62706E62725C000000000002AC
:105650000202023E62424262661A0000000000003E
:105660000000003C62020242661C00000000004094
:105670004040407E62424262665C000000000000E2
:105680000000003C627E02426638000000000078A4
:105690000808087E08080808080800000000000044
:1056A0000000007C22223C023E62423E00000002DA
:1056B0000202027A464242424242000000000018C2
:1056C00018000018181818181818000000000030EA
:1056D00030000030303030303030321E00000002F8
:1056E000020202321A1E1622624200000000001856
:1056F00018181818181818181818000000000000BA
:10570000000000EFDBDBDBDBDBDB00000000000088
:105710000000007A4642424242420000000000007F
:105720000000003C62424242661800000000000097
:105730000000003E62424262661A0202000000005F
:105740000000007E62424262665C40400000000051
:10575000000000340C0404040404000000000000F5
:105760000000003C66063842663C00000000000075
:105770000808083F080808084870000000000000FA
:105780000000004242424262765C000000000000DD
:10579000000000426624241C1818000000000000CD
:1057A000000000DB5B5A5666262400000000000063
:1057B000000000263418183C2642000000000000BB
:1057C000000000426624241C1818080E0000000087
:1057D0000000007E30100804067E000000603030BB
:1057E0003030303010303030303020001818181879
:1057F000181818181818181818181818000604047B
:10580000040404040804040404040400044E7200A4
:105810000000000000000000000000000000000088
:105820000000000000000000000000000000000078
:105830000000000000000000000000000000000068
:105840000000000000000000000000000000000058
:1058500000006000600060006000600060006000A8
:105860006000600060006000600020000000000038
:1058700070007000700000000000000000000000D8
:10588000000000009801980198019801980000001C
:105890000000000000000000000000000000000008
:1058A00000000000000000000000000000000000F8
:1058B0000000000010031003100318031801FF0775
:1058C000FF07080188018801FF07FF078C008C0093
:1058D0008C008400C40000000000000000000000F4
:1058E00000002000F000F801AC032C032C032C0076
:1058F0003C007800E000E001A003260326032E030D
:10590000AC03FC01F00020002000000000000000BB
:10591000000000000C021E01120112019200920010
:1059200052005E002C03A00790049004D004880469
:105930008804840704030000000000000000000049
:10594000000000007000F8008C008C018C00CC007E
:10595000780038003C003E066606E602C603860371
:105960008E07FC0670000000000000000000000030
:105970000000000030003000300030003000000037
:105980000000000000000000000000000000000017
:105990000000000000000000000000000000000007
:1059A00000000006000380018000C000C00040002D
:1059B0004000600060006000400040004000C00007
:1059C00080008001000300060000000000000000CD
:1059D000020006000C000800180010003000200033
:1059E00020002000200020002000200030001000B7
:1059F000180008000C000600020000000000000073
:105A0000000000006000600062046606FE07F80106
:105A1000F000FC036E0762046000600000000000FC
:105A20000000000000000000000000000000000076
:105A30000000000000000000000060006000600046
:105A400060006000FF0760006000600060006000B0
:105A50000000000000000000000000000000000046
:105A60000000000000000000000000000000000036
:105A70000000000000000000000000000000000026
:105A80000C000C000C0008000400000000000000E6
:105A90000000000000000000000000000000000006
:105AA00000000000FF0700000000000000000000F0
:105AB00000000000000000000000000000000000E6
:105AC00000000000000000000000000000000000D6
:105AD00000000000000000000000000000000000C6
