:020000040800F2
:1000000030070020A1010008AB3D0008C9360008F8
:10001000A93D0008311000088546000800000000D6
:100020000000000000000000000000002B3E00085F
:10003000F510000800000000293E0008653F000898
:10004000BB010008BB010008BB010008BB010008A0
:10005000BB010008BB010008BB010008BB01000890
:10006000BB010008BB010008BB010008BB01000880
:10007000BB010008BB010008BB010008BB01000870
:10008000BB010008BB010008FD0E0008BB01000811
:10009000BB010008BB010008BB010008BB01000850
:1000A000BB01000885400008BB010008BB01000837
:1000B000BB010008BB010008BB010008BB01000830
:1000C000BB010008BB010008BB010008BB01000820
:1000D000BB01000865460008BB010008BB01000821
:1000E000BB010008BB010008BB010008BB01000800
:1000F000BB010008BB010008BB010008BB010008F0
:10010000BB010008BB010008BB010008BB010008DF
:10011000BB010008BB01000891400008BB010008BA
:10012000BB010008BB010008BB010008BB010008BF
:10013000BB010008BB010008BB010008BB010008AF
:10014000BB010008BB010008BB010008BB0100089F
:10015000BB010008BB010008BB010008BB0100088F
:10016000BB010008BB010008BB010008BB0100087F
:10017000BB010008BB010008BB0100080000000033
:10018000BB010008BB010008DFF810D000F01AFC2A
:1001900000480047B5560008AFF300803007002044
:1001A0000648804706480047FEE7FEE7FEE7FEE711
:1001B000FEE7FEE7FEE7FEE7FEE7FEE7FD3F00089D
:1001C000890100082DE9F05F0546002092469B4614
:1001D00088460646814640241BE02846414647465D
:1001E000224600F076FA53465A46C01A914110D37F
:1001F00011461846224600F05DFA2D1A67EB0108F9
:100200004F4622460120002100F054FA17EB000966
:100210004E41201EA4F10104DFDC484631462A4647
:100220004346BDE8F09FD2B201E000F8012B491E21
:10023000FBD270470022F6E710B513460A46044683
:100240001946FFF7F0FF204610BD30B505462A4697
:100250000B4612F8010B13F8014B08B1A042F8D07D
:100260001CB1002802D06D1CF1E7284630BD421CAD
:1002700010F8011B0029FBD1801A704710B500222D
:1002800000E0521C835C8C5CA34201D1002BF8D1AE
:10029000D8B2E1B2401A10BD70B50F4D00B9286850
:1002A000002412E00A4602E09E4203D0521C13785A
:1002B000002BF9D1DAB2224305D02BB124B10021B1
:1002C00000F8011B04E00446401C0678002EE9D12A
:1002D0002860204670BD0000840000202DE9FE4FFC
:1002E000804681EA0300C00F0C46009021F00041D7
:1002F00023F00045B8EB0200A94105D24046214653
:1003000090461C460B46024623F00040104347D05F
:10031000270DC7F30A00C3F30A510290401A019057
:1003200040286BDAC3F3130040F4801B0098924618
:1003300020B10023D2EB030A63EB0B0B0198594663
:10034000C0F14002504600F0B5F906460D46504651
:100350005946019A00F0CDF910EB080061410024E4
:1003600087EA115284EAE7731A4340D0009A62B3D5
:10037000019A012A4FEA075215DC001B61EB0201CA
:100380004FF0004202EA0752CDE90042001C41F55D
:10039000801132462B4600F053FA03B0BDE8F08FCF
:1003A00040462146F9E7001B61EB0201001C41F5C4
:1003B000801300185B412018A2F5001747EB0301DA
:1003C00040EAD570B6196D4111E06D084FEA360666
:1003D00045EAC0754FEA0752001B61EB0201001CA1
:1003E00041F5801149084FEA300000195141324669
:1003F0002B4603B0BDE8F04F00F013BA009801227D
:1004000040000023D0EB020263EBE073009821462A
:100410004FEAE074B8EB000061EB0401E9E783F018
:1004200000435BE781F0004158E72DE9FE4F81EA88
:10043000030404F0004421F0004100944FF0000B4D
:1004400023F0004350EA01045ED052EA03045BD07B
:10045000C3F30A54C1F30A552C44A4F2F3340194B3
:10046000A0FB0254C1F3130141F48011C3F3130341
:1004700043F4801301FB024400FB034E840A970AF5
:1004800044EA815447EA8357A4FB076802958D0A22
:1004900005FB07854FEA932C04FB0C542705029DAE
:1004A0004FEA065847EA1637B5EB08056EEB070C1E
:1004B000870E920E47EA811742EA8312A7FB0201D8
:1004C000B6EB0B0164EB00042B0D43EA0C335E1812
:1004D00044EB1C50DA465146E7FB0201C5F3130416
:1004E0004FEA0B3343EA14534FEA0432019C43EAC8
:1004F0000603A4F10C040294009CCDE900B400F0C2
:100500009FF903B0BDE8F08F00200146F9E72DE91F
:10051000F04D81EA030404F0004B21F0004514463D
:100520004FF0000A23F0004150EA050220D054EABF
:1005300001021DD0C5F30A570246C5F31303C1F3E8
:100540001300C1F30A5640F4801543F48013A7EB5F
:100550000608101BD64608F2FD3873EB050002D3DF
:1005600008F1010801E092185B41B8F1000F03DACD
:1005700000200146BDE8F08D00204FF480110646B2
:1005800084460EE0171B73EB050705D3121B63EBC4
:10059000050306434CEA010C49084FEA3000921863
:1005A0005B4150EA0107EDD152EA030012D082EA22
:1005B000040083EA0501084305D0101BAB4106D2B5
:1005C0000122002306E000224FF0004302E06FF01A
:1005D000010253101AEB06004CEB085110EB0A0015
:1005E00041EB0B01BDE8F04D00F01BB970B5C1F354
:1005F0000A5201F000450024C1F3130140F2FF3319
:1006000041F480119A4201DA002070BD40F2334378
:100610009A42A2F2334203DC524200F05AF800E060
:1006200090402C43F1D0404270BD00F0004230F0C9
:1006300000400AD0C10D01F56071C0F3160042EA16
:100640000151C2084007114370470020014670471E
:1006500001F0004330B421F0004150EA010206D01D
:100660000A0DA2F56072C1F31301002A02DC30BC4E
:1006700000207047440F44EAC104C100E01830BCB8
:1006800000EBC25000F096B830B50B460146002092
:100690002022012409E021FA02F59D4205D303FA44
:1006A00002F5491B04FA02F52844151EA2F10102C5
:1006B000F1DC30BD202A04DB203A00FA02F10020F0
:1006C00070479140C2F1200320FA03F31943904090
:1006D0007047202A04DB203A21FA02F000217047FB
:1006E00021FA02F3D040C2F120029140084319469A
:1006F0007047202A06DBCB17203A41FA02F043EA82
:10070000E07306E041FA02F3D040C2F120029140CA
:1007100008431946704700000FB4002300B589B0A4
:100720000CA900910B996FF00042CB601E4B069311
:100730001E4B07930423CDE901321D4A089202465D
:100740006B46002000F0EAF909B05DF814FB70B5C3
:1007500086B006464FF0FF300091CDE90101002040
:1007600015460C4604903246694604A8FFF7D4FFAC
:1007700002460498211825B108B1084600E0204639
:100780002860049800280DD0002A02DD00988842D5
:1007900008D0081B0094CDE901043246694604A83C
:1007A000FFF7BAFF06B070BD550D0008730D0008C5
:1007B000E90900080029A8BF7047401C490008BF8C
:1007C00020F00100704710B4B0FA80FC00FA0CF081
:1007D00050EA010404BF10BC704749B1CCF12004B9
:1007E00021FA04F411FA0CF118BF01212143084346
:1007F000A3EB0C01CB1D4FEA00614FEA102042BF72
:10080000002010BC704700EBC35010440029A4BF67
:1008100010BC7047401C490008BF20F0010010BC0C
:10082000704710B5141E73F1000408DA401C41F142
:10083000000192185B411A4301D120F0010010BD64
:100840002DE9F04D92469B4611B1B1FA81F202E0DA
:10085000B0FA80F220329046FFF72CFF04460F4694
:1008600040EA0A0041EA0B0153465A46084313D0B6
:10087000114653EA010019D0C8F140025046FFF773
:1008800028FF05460E46504659464246FFF712FFDE
:10089000084305D0012004E020463946BDE8F08D2C
:1008A0000020054346EAE0762C4337430A98630567
:1008B000E40AA0EB08000022FD0A44EA47540A308B
:1008C00002D500200146E9E7010510196941DDE97B
:1008D000084500196941BDE8F04DA2E72DE9FE4F3A
:1008E000C3F30A5701F000450024C1F30A56C3F3CD
:1008F0001303C1F3130143F4801312EB020AA6465B
:1009000041F48011009543EB030CA7F1010B16E0B5
:10091000B0EB0A0061EB0C01071E71F1000707DA6A
:100920004FF00008D0EB080085F0004568EB0101AE
:10093000171A73EB0107EBD3761E001849415E4589
:10094000F6DA50EA010209D0CDE900E500221346AB
:100950000296FFF775FF03B0BDE8F08F20460099BF
:10096000F9E7C1F30A52C1F3130140F2FF3341F436
:1009700080119A4202DA00200146704740F2334368
:100980009A42A2F2334202DC5242FFF7A2BEFFF7C4
:1009900091BE000030B5041E71F1000404DB4FF07D
:1009A0000044404264EB0101141E73F1000405DBB6
:1009B0001C464FF00043524263EB0403994208BFC8
:1009C000904230BD064C074D06E0E06840F0010360
:1009D00094E8070098471034AC42F6D3FFF7D8FBF1
:1009E0007861000898610008C0B24FF4F05100F03F
:1009F000D1B900002DE9FF4F087883B09946FF2850
:100A000005D0491C2D2804D00024002008E0002037
:100A10000BE00124F9E700EB800003EB4000491CE8
:100A20000B78FF2BF7D104B14042002302931478D6
:100A300019461D462D2C01D02B2C04D1521C2D2CD7
:100A400013D000240294AA461478FF2C0FD00A2554
:100A5000A3FB057801FB05814FF0000C03FB0C1193
:100A6000521CE3194AEB0101EEE70124EAE7814455
:100A700053EA010002D019F5C87F06DA0398002175
:100A8000C0E9001107B0BDE8F08F0025AE4E2F463B
:100A9000DFF8B882184600F091F9CDE90001B9F10C
:100AA000000002DAC9F1000400E004460023A74A6E
:100AB0001AEB030B42EB045A12E0E00707D02A4678
:100AC000334638464146FFF7B0FC074688462A467B
:100AD000334610461946FFF7A8FC05460E4664103B
:100AE000002CEAD1DDE90001B9F1000F5A46534666
:100AF00006DAFFF70CFD3A464346FFF708FD05E02E
:100B0000FFF793FC3A464346FFF78FFC029A0AB17F
:100B100081F00041039AC2E90001B3E72DE9FF4FDC
:100B20001F468DB0D7E901464FF0FF382E204546CD
:100B30004FF000090B90B9696D1C0E988847396A0F
:100B4000824688470028F6D1BAF1FF3F0AD024F444
:100B5000D064002E11DDBAF12B0F08D0BAF12D0FA1
:100B60000BD102E0404611B08DE744F48064B969CE
:100B70006D1C0E9888478246761E6946600501D531
:100B80002D2000E02B208DF8000001F1010B0DF16C
:100B9000200809E0B9696D1C0E98884782460F98B5
:100BA00044F40074761E0560002E02DDBAF1300FA9
:100BB000F0D00B998A453ED144F0800406E00F99AD
:100BC000681CA9F1010944F400740860B9696D1C3E
:100BD000761E0E98884782463028F0D02BE00B997D
:100BE0008A4505D1200603D444F08004761E18E01F
:100BF000504603F0F7FE08B30DF11301761E44F4DE
:100C000000748B4508D2AAF130000BF8010B2006C6
:100C100007D5A9F1010003E0200602D409F1010083
:100C20008146A00502D50F99681C0860B9696D1C42
:100C30000E9888478246002ED1DC53E0002E51DD0D
:100C4000BAF1650F02D0BAF1450F4BD1A00549D5D5
:100C5000B9696D1C24F44074761E0E98884782464C
:100C6000002E0CDD2B2804D0BAF12D0F07D144F44F
:100C70008074B9696D1C0E9888478246761EE0051F
:100C800001D52D2100E02B2108F8011BCDF82C8087
:100C900021E00DF12901761E44F4007488450CD240
:100CA000AAF1300010F0FF0088F8000002D10B9983
:100CB000884509D908F1010806E0E00501D5244876
:100CC00001E042F20F708146B9696D1C0E988847A9
:100CD00082460F980560002E04DD504603F082FE28
:100CE0000028D6D1F9690E988847FF208BF80000BC
:100CF00088F800000020069007904B466A4608A935
:100D000006A8FFF777FEA00502D46FF001002AE7DE
:100D100014F0240F0AD0E00714D1DDE90612386878
:100D2000031D3B600068C0E900120BE0DDE906012D
:100D3000FFF78EFC0146E00704D13868021D3A60D7
:100D40000068016028460EE7000014400000F03FF4
:100D5000F1D8FFFF426842B1016811F8013B23B1AD
:100D6000521EC0E90012184670470121C160881E5A
:100D7000704742685AB1C368016843B983688B42BF
:100D800005D0491E521CC0E90012002070474FF0E8
:100D9000FF3070477F2801D9002208E0064A02EBA5
:100DA0005002C007127800D1120902F00F02012090
:100DB00090400840704700009A5800080EB540F275
:100DC000334202920022CDE900221346FFF738FD9C
:100DD00003B000BD9FED221A9FED222A20EE010AEA
:100DE000B5EE001A30EE010ABDEEC01A11EE100A7F
:100DF000B5EE400AF1EE10FAB8BF013801EE100A64
:100E0000B8EEC11A30EE410A20EE020ABDEEC01A59
:100E10009FED152A11EE100A002130EE021AB1EBF7
:100E2000502F45F674111CBF0020B0EE410AC0F6E9
:100E3000000101EE100A01EB8001B8EE411A30EE1C
:100E4000410A91ED001A91ED012AB7EE003A33EE16
:100E5000403A23EE011A20EE020A31EE000A7047F2
:100E600083F9223E00000044000000C49FED201AD8
:100E70009FED202A20EE010ABDEEC01A11EE100AE5
:100E8000B5EE400AF1EE10FAB8BF013801EE100AD3
:100E9000B8EEC11A30EE410A20EE020ABDEEC01AC9
:100EA0009FED152A11EE100A002130EE021AB1EB67
:100EB000502F45F674111CBF0020B0EE410AC0F659
:100EC000000101EE100A01EB8001B8EE411A30EE8C
:100ED000410A91ED001A91ED012AB7EE003A33EE86
:100EE000403A23EE011A20EE020A31EE000A704762
:100EF00083F9223E00000044000000C4014800F0D5
:100F000053BD000040010020464910B54A6822F454
:100F100040324A604A6843681A434A6001684A6836
:100F200022F480724A6001684A68036942EA032237
:100F30004A6001684A6822F040724A6001684A6863
:100F400083681A434A6001688A6822F400628A60F2
:100F500001688A68C3681A438A60816A6FF07062A8
:100F6000D14201688A6822F070628A6001688A68EA
:100F70000CD0836A1A438A6001688A6822F0405262
:100F80008A6001688A68C36A1A4301E022F040520D
:100F90008A6001688A6822F002028A6001688A68B1
:100FA000037E42EA43028A6090F82010002901681B
:100FB0004A680FD042F400624A6001684A6822F42D
:100FC00060424A6001684A68174C436A04EB433345
:100FD0001A4301E022F400624A600168CA6A22F4FE
:100FE0007002CA620168CA6A838B104C04EB035317
:100FF0001A43CA6201688A6822F400728A60016832
:101000008A6890F8303042EA43228A6001688A6830
:1010100022F480628A6001688A68406942EA80201E
:10102000886010BD0023014000E0FFFF0000F0FFDA
:10103000FEE7000090ED030A90ED181AF6EE000AA4
:10104000F0EE401A41EE201AC0ED001AFEEE001A32
:1010500090ED042A20EE210ADFED081AF0EE402A76
:1010600002EE610A42EE212A01EE200A41EE202A18
:10107000C0ED012A80ED020A70470000D7B35D3F42
:1010800090ED070ADFED070A80ED0A0A9FED061AC8
:1010900020EE200AD0ED080A00EE810A80ED0B0A4E
:1010A000704700003ACD133F3ACD933F0D490A688F
:1010B00042F080720A600C4900224A600B6843F0DB
:1010C00001030B6009494FF47A734843B0FBF3F313
:1010D0000749C1E90003054BB0FBF3F0C1E9020287
:1010E00070470000FCED00E0001000E040420F00FF
:1010F00020000020704772B6FEE70000F0B5DFED7B
:10110000731A0024B0EE611A9FED712AD0ED033AF4
:1011100090ED043A60EE022A23462246214682EEF2
:10112000A02ADFED6C0AF6EE002A63EEA00A43EE79
:10113000620A9FED694AB5EEC03A63EE843A43EE27
:10114000623AF1EE10FA01DD012600E00026F5EE2C
:10115000C00AF1EE10FA01DD012500E00025F5EEF0
:10116000C03AF1EE10FA01DD012700E00027BF00D0
:1011700007EB45053544072D10D2DFE805F00F06D3
:101180000E040A080C00012408E0022406E00324EF
:1011900004E0042402E0052400E0062480F85C401A
:1011A000072C20D2DFE804F01F04090E13161B00E1
:1011B00062EE201A22EE031A15E062EE601A22EEA9
:1011C000631A10E062EE031A22EE231A0BE062EEBD
:1011D000431A06E062EE231A22EE201A03E062EEC2
:1011E000631A22EE601A71EE810AF4EEC00AF1EE83
:1011F00010FA09DD21EE802AC2EE201A61EE000A03
:1012000031EE812A80EE821A30EE610A072C30EE30
:10121000410A20EE220A60EE220AB0EE600A01EED8
:10122000A20AF0EE401A41EE221A46D2DFE804F09C
:1012300045040C1921293600FCEEE00ABCEEC00A78
:1012400010EE901A8BB206E0BCEEC00A10EE101A37
:10125000BCEEE00A8BB210EE101ABCEEE10A8AB2C4
:1012600028E0BCEEE11AFCEEE00A11EE101A8BB297
:101270001BE0BCEEE11ABCEEC00A11EE101A8BB2F4
:1012800006E0BCEEC00A10EE101ABCEEE10A8BB20A
:1012900010EE101ABCEEE00A8AB20BE0FCEEE00A97
:1012A00010EE901AFCEEE10A8BB210EE901ABCEE32
:1012B000C00A8AB210EE101A89B2084843638263EA
:1012C000C16340F641210164F0BD00000000000050
:1012D000D7B3DD3FD7B35D3FD7B35DBF000001405B
:1012E00070B505462DED028B01211A4800F086F9F4
:1012F00000EE100A9FED188ADFED188AB8EE400A5A
:10130000174C0221134820EE080A20EE280A84ED2B
:10131000040A00F073F900EE100AB8EE400A20EE5D
:10132000080A60EE280AC4ED050A94ED040A70EE7E
:10133000200AF1EE600AC4ED060A85ED070A94ED75
:10134000050A85ED080A94ED060A85ED090ABDEC4B
:10135000028B70BD40010020000000383333534041
:10136000B002002010B504462DED028B03F0C6FE3E
:10137000DFED198A9FED198A84ED0E0A60EE280AC6
:1013800080EE881A84ED0F1AD4ED160A30EE600A4A
:1013900010EE100AFFF749F941EC100B9FED101BFE
:1013A00003F0AEF951EC100BFFF752F900EE100A02
:1013B00084ED100A20EE280AC0EE080AC4ED110AD6
:1013C00094ED0E0AF1EE0C0A20EE200A84ED150AC7
:1013D000BDEC028B10BD0000DB0F49400000344320
:1013E000000000000080764070B590F83C20694D08
:1013F000012A19D0012280F83C200A6807230468DA
:10140000092A13D9E6680A3A02EB420293409E4346
:10141000E6600A788B680A3A02EB4202934002685F
:10142000D4682343D36010E0022070BD266902EB2C
:10143000420293409E4326610A788B6802EB420287
:10144000934002681469234313610268936B23F489
:10145000401393630268936B0C8A4F4E06EB04545F
:10146000234393630A790B7CD21AD21C02EB8202CB
:101470001F2393400268946B9C4394630A790B7C0E
:10148000D21AD21C02EB82030A8892B29A400368F5
:101490009C6B22439A638A69AA420268936823F488
:1014A00070239360026893680CD08C692343936027
:1014B0000268936823F44013936002689368CC69D0
:1014C000234301E023F4401393604A7D002A02681D
:1014D000536802D043F4806301E023F480635360D7
:1014E0000A7D002A0268536802D043F4805301E069
:1014F00023F4805353604A68012A16D0022A1FD071
:10150000032A026827D0136A6FF30B031362026881
:10151000136ACC6823431362214B04681F4A9C4220
:1015200027D10C68122C20D023E0026853696FF396
:101530000B03536102685369CC6823435361EBE7A3
:10154000026893696FF30B03936102689369CC6837
:1015500023439361E0E7D3696FF30B03D361026820
:10156000D369CC682343D361D6E7546844F480043C
:10157000546004689C4208D10968102901D01129DF
:1015800003D1516841F400015160002180F83C1002
:10159000084670BD01000F000000F0FF002301406D
:1015A0000020014010B500680F4988421BD10F4947
:1015B0000868421C01D0401C08600D4800F01CF96E
:1015C0000C48FFF78DFE0B4802F030FC0A4C01225C
:1015D0000221204600F048FC20460022BDE81040D1
:1015E000022100F041BC10BD002001401400002089
:1015F00040010020900000200010024008B50022A9
:1016000000920368521F1A60012911D002290CD0E0
:10161000032906D0042901D0009808BD0068806C19
:1016200001E00068406C009008BD0068006CFAE7BB
:101630000068C06BF7E7000018B50021009190F832
:101640003C20012A07D0012280F83C2002689368E0
:10165000DB0702D011E0022018BD936843F00103BC
:101660009360284A284B1268B2FBF3F202EB420265
:1016700000E0521E0092002AFBD102689368DB074B
:1016800035D0036C42F20104A34343F48053036456
:10169000036CDB0500D4416480F83C106FF004015A
:1016A00011601A4949680068C906816801F440114F
:1016B0000FD0D1B100224168154B41F38021491C64
:1016C00098421CD1DAB1D1B1816841F480018160C6
:1016D00015E041B10021426842F38022521C71B1F1
:1016E000002AF1D10BE00121F5E70122E3E7016CCB
:1016F00041F010010164416C41F00101416400209E
:1017000018BD00001000002040420F0000230140DF
:101710000020014018B50022009290F83C100129E9
:1017200007D0012180F83C1001688B68DB0702D0EC
:1017300011E0022018BD8B6843F001038B602A4939
:101740002A4B0968B1FBF3F101EB410100E0491EAE
:1017500000910029FBD101688B68DB073AD0036C4C
:1017600042F20104A34343F480530364036CDB059A
:1017700000D4426480F83C206FF004020A600168E3
:101780004A6842F080024A60194949680068C906FF
:10179000816801F440110FD0D1B100224168154B8E
:1017A00041F38021491C98421CD1DAB1D1B1816842
:1017B00041F48001816015E041B10021426842F3AB
:1017C0008022521C71B1002AF1D10BE00121F5E712
:1017D0000122E3E7016C41F010010164416C41F02A
:1017E00001014164002018BD1000002040420F009C
:1017F000002301400020014090F83C200021012AF4
:1018000012D0012280F83C20026CD20519D4026863
:1018100053685B0515D4936823F001039360026855
:101820009368DB0702D011E002207047536823F071
:1018300080035360026C22F4885242F00102026479
:1018400004E0016C41F0200101640121002280F8D4
:101850003C2008467047000078B50024009490F8BA
:101860003C20012A19D0012280F83C200A68072375
:101870000568092A13D9EE680A3A02EB420293403E
:101880009E43EE600B788A680A3B03EB43039A4061
:101890000368DD682A43DA6010E0022078BD2E6913
:1018A00002EB420293409E432E610B788A6803EB61
:1018B00043039A4003681D692A431A614A681F233B
:1018C000072A13D205686E6B521E02EB8202934008
:1018D0009E436E630B790A885B1E92B203EB83030F
:1018E0009A4003685D6B2A435A6327E005680D2A16
:1018F00012D22E6BD21F02EB820293409E432E63C4
:101900000B790A88DB1F92B203EB83039A400368CA
:101910001D6B2A431A6311E0EE6A0D3A02EB820254
:1019200093409E43EE620B790A880D3B92B203EB23
:1019300083039A400368DD6A2A43DA62164B05681E
:10194000144A9D4206D10D68122D03D1556845F405
:101950008005556005689D4218D10B68102B01D099
:10196000112B13D1536843F4000353600968102905
:101970000CD10A490A4A0968B1FBF2F101EB810175
:10198000490000E0491E00910029FBD180F83C404D
:10199000002078BD002301400020014010000020FD
:1019A00040420F007047704770B5044600680668F3
:1019B000456816F0020F05F020012AD049B3216CCA
:1019C000C90603D4216C41F400712164816811F0CF
:1019D000405F17D1217EA9B9C16A11F4700F02D0FE
:1019E000816849050ED4416821F020014160206CD6
:1019F00020F480702064206CC00403D4206C40F07C
:101A0000010020642046FFF7CDFF21686FF012002F
:101A1000086016F0040F05F0800132D089B3206C05
:101A2000C00603D4206C40F4005020642068816814
:101A300011F4401F1ED1816B11F4401F02D0816848
:101A4000490517D44168490514D4816811F0405FF5
:101A500010D1217E71B9416821F080014160206C74
:101A600020F480502064206CC00503D4206C40F02A
:101A7000010020642046FFF795FD21686FF00C00FF
:101A8000086016F0010F05F040010FD071B1206819
:101A90000068C0070AD0206C40F4803020642046E3
:101AA00000F043F821686FF00100086016F0200F85
:101AB00005F080610ED000290CD0606C40F002006F
:101AC000606420686FF0200505602046FFF76BFF1B
:101AD0002068056070BD70B504004FF0000503D0AC
:101AE000206C002610B107E0012070BD204600F0F8
:101AF0001DF8666484F83C60206CC00610D4206C2D
:101B000020F4885040F0020020642046FFF7FCF9E2
:101B10006664206C20F0020040F00100206400E0C8
:101B2000012584F83C60284670BD704710B586B02A
:101B3000044614216846FEF77DFB1549206888425B
:101B400024D114480021026842F4807202600068C7
:101B500000F4807005900F481438026842F00102CA
:101B60000260006800F0010005900720009003204B
:101B7000CDE901016946084800F07EF80022022103
:101B8000122000F063FC122000F052FC06B010BDE1
:101B90000020014044380240000002402DE9F0419D
:101BA0000446876D00F066F9064694F83500002576
:101BB000022806D08020606584F834500120BDE8FA
:101BC000F0812068016821F01601016020684169F8
:101BD00021F080014161206C08B9A06C20B120681F
:101BE000016821F0080101602068016821F001010D
:101BF00001600CE000F03EF9801B052807D9202089
:101C00006065032084F8350084F83450D7E72068F5
:101C10000068C007EED194F85C103F208840B8609F
:101C2000012084F8350084F834500020C7E790F88C
:101C30003510022903D0802141650120704705211C
:101C400080F835100068016821F001010160002072
:101C50007047000070B5044600F00CF90546601CA2
:101C600002D004480078044400F004F9401BA0426C
:101C7000FAD370BD040000202DE9F84FDFF8BCA1B5
:101C80000022012503264FF00F090AF1040BAAF1E7
:101C9000040E00BF0B6805FA02F42340A34270D182
:101CA0000F7907F00307012F01D0022F16D18768A3
:101CB0004FEA420806FA08FC27EA0C07D1F80CC0E4
:101CC0000CFA08FC4CEA070CC0F808C04768A743A8
:101CD0000C79C4F3001494403C4344600C79E44311
:101CE000A4070AD0C4684FEA420C06FA0CF7BC43BA
:101CF0008F6807FA0CF72743C7600C7904F00304D8
:101D0000022C12D1D40800EB840CDCF820405707D9
:101D1000FF0E09FA07F824EA0804D1F8108008FA3F
:101D200007F848EA0408CCF8208004684FEA420C1F
:101D300006FA0CF7BC430F7907F0030707FA0CF714
:101D4000274307604C6814F4403F70D03C4C276830
:101D500047F480472760246822F0030704F4804496
:101D60000094384C07EB040CDCF8084897074FEA5E
:101D7000177809FA08F7BC43334FB84202D100275D
:101D800024E054E0314FB84201D101271EE0304F2A
:101D9000B84201D1022719E02E4FB84201D10327E2
:101DA00014E02D4FB84201D104270FE02B4FB84269
:101DB00001D105270AE02A4FB84201D1062705E0E4
:101DC000284FB84201D1072700E0082707FA08F793
:101DD0002743CCF80878DAF800405746D1F804C019
:101DE0009C435FEACC2C00D51C433C60DBF80040F0
:101DF0005F46D1F804C09C435FEA8C2C00D51C439D
:101E00003C60DEF800407746D1F804C09C435FEAAE
:101E10008C3C00D51C433C60084F083F3C68D1F81F
:101E200004C09C435FEACC3C00D51C433C60521C80
:101E3000102AFFF42FAFBDE8F88F0000083C0140E6
:101E400044380240003001400000024000040240DB
:101E500000080240000C0240001002400014024042
:101E600000180240001C02400AB181617047090459
:101E7000FBE7000001488068704700000400002074
:101E800070B5040025D094F83D00002520B984F8F1
:101E90003C50204600F03EFA242084F83D002068A3
:101EA000016821F0010101602068016841F40041EE
:101EB00001602068016821F40041016000F092FB9C
:101EC0004D4A6168914201D84C4900E04C49884232
:101ED00001D2012070BD4B492368B0FBF1F15E686F
:101EE00026F03F060E435E606368934206D94FF4C6
:101EF000967359434FF47A73B1FBF3F12368491C8D
:101F00001E6A26F03F06314319626168914210D87B
:101F10004900401EB0FBF1F2521CC2F30B02042A2E
:101F200001D2042022E0B0FBF1F0401CC0F30B0012
:101F30001CE0A268F2B301EBC10303EB0116431EE0
:101F4000B3FBF6F35B1C43F480431B0549D092B30B
:101F500001EBC10202EB0111401EB0FBF1F0401C8D
:101F6000C0F30B0040F4804040F400402168CA698F
:101F70004CF6FF739A431043C861D4E9071001433C
:101F80002068026822F0C00211430160D4E9030115
:101F900001432068826848F2FF339A43114381600D
:101FA000D4E9050108432168CA6822F0FF02104302
:101FB000C86001E00EE016E02068016841F0010110
:101FC00001602564202084F83D00256384F83E509C
:101FD000002070BD01EB4106431EB3FBF6F35B1C12
:101FE000B3E70120C2E701EB4101401EB0FBF1F075
:101FF000401CC0F30B00B7E7A086010080841E00E0
:1020000000093D0040420F002DE9F84F1F46904661
:102010008A460446DDF82890FFF72CFF054694F821
:102020003D00202875D1192301226C4920460095D6
:1020300001F04CFC0028F5D194F83C00012868D050
:10204000012084F83C0020680168C90703D10168B9
:1020500041F0010101602068016821F40061016024
:10206000222084F83D00102084F83E0000262664DB
:10207000C4F824806785608D20855948E0622B462E
:102080004A465146204601F037FB002878D1208D82
:10209000544F68B1012814D002282068016816D076
:1020A00041F480610160206841698069009087E0A7
:1020B0002068416981690091016841F40071016003
:1020C0007EE02068016821F480610160F0E721F47E
:1020D000806101602068016841F40061E2E7032843
:1020E00048D801280AD0022814D04B46002239468D
:1020F0002046009501F0EAFBD8BB27E02A46494676
:10210000204601F062FCA0BB20680069616A08708B
:102110004DE061E04B46002239462046009501F033
:10212000D5FB30BB2068016841F400710160206874
:102130000069616A0870606A401C6062218D491EF6
:102140002185618D491E618521682EE02068016826
:1021500021F48061016020680069616A0870606A2A
:10216000401C6062208D401E2085608D401E608571
:10217000D0E705E02A464946204601F026FC10B18A
:102180000120BDE8F88F20680069616A0870606A04
:10219000401C6062218D491E2185618D491E61852B
:1021A00021684A69D24352070AD409690170606AFA
:1021B000401C6062208D401E2085608D401E608521
:1021C000208D00288BD1202084F83D0084F83E60CB
:1021D00084F83C600020D4E70220D2E7020010001F
:1021E0000000FFFF040001002DE9F84F1F46904654
:1021F0008A460446DDF82890FFF73CFE054694F831
:102200003D0020287FD11923012240492046009516
:1022100001F05CFB002876D194F83C00012872D0D4
:10222000012084F83C0020680168C90703D10168D7
:1022300041F0010101602068016821F40061016042
:10224000212084F83D00102084F83E0000262664FA
:10225000C4F824806785608D20852D48E0622B4678
:102260004A465146204601F0BDFA90B920684169BE
:102270008069009036E02A464946204601F0D8FBA6
:1022800050B1206C042804D12068016841F4007129
:1022900001600120BDE8F88F606A2168007808615C
:1022A000606A401C6062618D491E6185218D491EF6
:1022B00089B2218522685369DB435B070BD451B196
:1022C00000781061606A401C6062608D401E60850D
:1022D000208D401E20852A464946204601F0D0FA2E
:1022E0000028CED1208D0028C5D154F83D0B0168BF
:1022F00041F400710160202004F81E09E67766773A
:102300000020C7E7FFE70220C4E70000020010003A
:102310000000FFFF10B586B0044614216846FDF7A3
:1023200089FF13492068884220D1124800210268A1
:1023300042F002020260006800F002000590C02036
:1023400000901220CDE901010320039004200490A5
:1023500069460948FFF790FC06481030016841F4CF
:1023600000110160006800F40010059006B010BD77
:1023700000540040303802400004024002488168A6
:102380000278114481607047040000200B4810B5AA
:10239000016841F400710160016841F480610160ED
:1023A000016841F480710160032000F06FF80F2094
:1023B00000F006F800F024F8002010BD003C0240B8
:1023C00070B50D4D04464FF47A712878B1FBF0F0EA
:1023D0000A490968B1FBF0F000F00AFB48B9102C7B
:1023E00007D200222146501E00F030F800206C6019
:1023F00070BD012070BD000004000020100000200E
:102400000A4808B5016841F480410160006800F4A1
:10241000804000900548001F016841F08051016034
:10242000006800F08050009008BD00004438024071
:10243000002809DB00F01F020121914040098000C3
:1024400000F1E020C0F8001170470000F0B40E4B1E
:102450001B680C46C3F30223C3F10705042D00D902
:102460000425191D072901D2002300E0DB1E0126E7
:1024700006FA05F1491E214099409E40761E1640FD
:102480003143F0BC02F010B90CED00E0064900F059
:10249000070208684FF6FF03184040EA0220034A8B
:1024A00010430860704700000CED00E00000FA05E2
:1024B0002DE9F0470E46050065D0DFF81481D8F805
:1024C0000000F7B200F00700B04207D288F80070B1
:1024D000D8F8000000F00700B04254D128683D4C05
:1024E000810712D5400703D5206840F4E0502060F2
:1024F0002878000703D5206840F4604020602068F9
:10250000A96820F0F000084320602878C0072DD08B
:10251000304968680839012812D0022813D00328EE
:1025200011D00968890700292DDA216821F00301FB
:1025300001432160FFF79EFC814641F2883A0EE09C
:1025400009688903EFE709688901ECE7FFF792FC66
:10255000A0EB0901514502D90320BDE8F0872068AE
:10256000696800F00C00B0EB810FEFD1D8F80010D3
:10257000404601F00701B14207D90770006800F03A
:102580000700B04201D00120E7E72878400705D5D1
:102590002068E96820F4E0500843206028780007AC
:1025A00006D52068296920F4604040EAC100206017
:1025B00000F038F82168084AC1F30311515CC840A3
:1025C0000649086006480068FFF7FAFE0020C4E7E5
:1025D000003C0240083802408258000810000020E9
:1025E000080000200448054900680968044AC1F34E
:1025F0008221515CC840704710000020083802401A
:10260000925800080448054900680968044AC1F363
:102610004231515CC8407047100000200838024029
:1026200092580008154810B5006810F00C021448C4
:1026300013D04110042A0FD0082A0ED10F4C241FAA
:102640002268236802F03F025B0207D52068C0F3CE
:102650008810A0FB010106E0084610BD2168C1F307
:102660008811A1FB00010023FDF7ACFD2168C1F337
:102670000141491C4900B0FBF1F010BD083802408F
:102680000024F4002DE9F84F04006ED02078DFF824
:102690004C93C007A9F104054AD009F10400016870
:1026A000C1F38101012908D00068C0F3810002282C
:1026B0000AD1D9F80000400206D52868800337D532
:1026C00060680028E1D033E06068B0F5803F10D04A
:1026D000B0F5A02F286810D020F48030286028683A
:1026E00020F4802028606068A8B1FFF7C3FB06468D
:1026F0000DE0286840F48030F4E740F48020286042
:10270000F7E700BFFFF7B6FB801B642873D8286883
:102710008003F7D50CE0FFF7ADFB064605E000BFF0
:10272000FFF7A8FB801B6428F0D828688003F7D443
:102730002078DFF8AC8280074FF0000A3ED5A7482A
:10274000001D016811F00C0F08D00068C0F3810073
:1027500002280BD1D9F80000400207D4286880076E
:1027600016D5E068012800D112E033E1E068B8B185
:102770000120C8F80000FFF77DFB064605E000BF1A
:10278000FFF778FB801B0228C0D828688007F7D5A0
:102790002868216920F0F80040EAC10028600DE0B7
:1027A000C8F800A0FFF766FB064604E0FFF762FBEF
:1027B000801B02281FD828688007F7D420780007DC
:1027C00022D5864F87486169703771B10121016058
:1027D000FFF750FB064604E0FFF74CFB801B022886
:1027E00009D838688007F7D50EE0C0F800A0FFF7D9
:1027F00041FB064605E082E0FFF73CFB801B022818
:102800007DD838688007F7D42078400768D5DFF88E
:10281000CCB100270BF13C0BDBF80000C0000BD45F
:10282000DBF8001041F08051CBF80010DBF800001D
:10283000012700F0805000906B4E3068C00510D426
:10284000306840F480703060FFF714FB009005E0C2
:10285000FFF710FB0099401A022850D83068C005D5
:10286000F6D55E4EA0686C3601280FD0052830687A
:1028700010D020F001003060306820F0040030609B
:10288000A068B8B1FFF7F6FA00900FE0306840F0AA
:102890000100F4E740F004003060F7E7FFF7EAFAE0
:1028A0000099411A41F28830814266D83068800729
:1028B000F4D50EE0FFF7DEFA009007E0FFF7DAFA52
:1028C0000099411A41F28830814256D83068800719
:1028D000F4D42FB1DBF8001021F08051CBF80010B8
:1028E000A069C8B33D49091D0968C1F381010229E6
:1028F0004AD00228504607D0C8F8600000E03CE00B
:10290000FFF7B8FA04463BE04746C8F86000FFF717
:10291000B1FA064605E000BFFFF7ACFA801B0228BB
:102920002BD828688001F7D4D4E907010843A16AAD
:102930002E4A490802EB0141626A41EA82110843CA
:1029400094F82C1040EA0161C9F8001001203866A3
:10295000FFF790FA044606E03EE000BFFFF78AFA70
:10296000001B022809D828688001F7D534E000BF91
:10297000FFF780FA001B022802D90320BDE8F88F78
:1029800028688001F4D427E00128F7D0D9F80000A6
:10299000E26900F4800191421CD1226A00F03F01FB
:1029A000914217D147F6C071626A0140B1EB821FB4
:1029B00010D1A26A4FF0FF3300F4403103EB520212
:1029C000B1EB024F06D194F82C1000F07060B0EB20
:1029D000016F01D00120D1E70020CFE70438024089
:1029E00000004742800E4742007000400000FFFF99
:1029F00010B5401EB0F1807F01D3012010BD4FF013
:102A0000E02460610F21601701F04EFE0020A061FC
:102A100007202061002010BD7047704710B590F866
:102A20003C20012A22D0012280F83C20CA688C6810
:102A300022F4407222434C6822F4806222430C68E4
:102A400022F4006222430C6922F4805222434C6932
:102A500022F400522243C969002322F480420A432F
:102A600001684A6480F83C30002010BD022010BD8F
:102A700070B590F83C20012A32D0012480F83C4007
:102A8000022280F83D2003685A689D6822F0700693
:102A90000A6832435A60134B02689A4214D0B2F16A
:102AA000804F11D0104B9A420ED0104B9A420BD04F
:102AB0000F4B9A4208D00F4B9A4205D00E4B9A42C8
:102AC00002D00E4B9A4204D1496825F08003194385
:102AD000916080F83D40002180F83C10084670BDB0
:102AE000022070BD000001400004004000080040CA
:102AF000000C00400004014000400140001800406C
:102B000010B50446022249B104290ED0082913D079
:102B100094F84500012816D0012010BD94F8420019
:102B20000128F9D184F842200FE094F843000128ED
:102B3000F2D184F8432008E094F844000128EBD156
:102B400084F8442001E084F845200422206801F044
:102B500016FB2068416C41F4004141641149206832
:102B6000884214D0B0F1804F11D00F4988420ED066
:102B70000E4988420BD00E49884208D00D49884240
:102B800005D00D49884202D00C49884204D18168A1
:102B900001F00701062903D0016841F0010101603D
:102BA000002010BD0000014000040040000800406B
:102BB000000C0040000401400040014000180040AB
:102BC00010B5040003D094F83D0010B107E00120D7
:102BD00010BD002084F83C00204600F01FF80220C1
:102BE00084F83D00211D206801F058FA012084F886
:102BF000460084F83E0084F83F0084F8400084F8E2
:102C0000410084F8420084F8430084F8440084F8CA
:102C1000450084F83D00002010BD000008B50068A4
:102C2000154988420FD11548016841F00101016042
:102C30000068002200F00100009011461920FFF703
:102C400005FC192012E00E49884213D10B48001FE1
:102C5000016841F0100101600068002200F01000DE
:102C6000009003213620FFF7F1FB3620BDE8084035
:102C7000FFF7DEBB08BD0000000001404438024001
:102C80000010004090F83D10012901D0012070474C
:102C9000022180F83D100168CA6842F00102CA6052
:102CA00000681149884214D0B0F1804F11D00F490B
:102CB00088420ED00E4988420BD00E49884208D077
:102CC0000D49884205D00D49884202D00C498842FE
:102CD00004D1816801F00701062903D0016841F0A1
:102CE0000101016000207047000001400004004025
:102CF00000080040000C004000040140004001407A
:102D00000018004070B5044690F83C0000250128EA
:102D100017D0012684F83C60022084F83D0020682A
:102D2000826822F0770222F47F428260086850288D
:102D300038D00DDC20284FD005DC90B3102811D1FD
:102D40004AE0022070BD302846D040280AD13BE03E
:102D500060282FD070280DD0B0F5805F03D0B0F57B
:102D6000005F12D0012584F83D60002084F83C000B
:102D7000284670BDCB68D1E90121206801F00CFA2A
:102D80002068816841F0770109E0CB68D1E9012131
:102D9000206801F001FA2068816841F48041816077
:102DA000E1E719E0CA684968206801F0C9FA5021D2
:102DB000206806E0CA684968206801F0D2FA6021FC
:102DC000206801F0F3F9CEE7CA684968206801F08D
:102DD000B7FA40212068F4E7226801461046F0E780
:102DE000704770B50446006801694FF00005C9439B
:102DF000890715D4C168C943890711D4E91E016147
:102E000001202077206880698007204602D0FFF7E4
:102E1000E7FF04E000F0F2F8204600F084F925779F
:102E200020680169C943490717D4C168C9434907E4
:102E300013D46FF0040101610220207720688069BB
:102E400010F4407F204602D0FFF7CAFF04E000F0F4
:102E5000D5F8204600F067F9257720680169C94355
:102E6000090716D4C168C943090712D46FF00801D5
:102E70000161042020772068C0698007204602D0C5
:102E8000FFF7AEFF04E000F0B9F8204600F04BF980
:102E9000257720680169C943C90617D4C168C943A9
:102EA000C90613D46FF01001016108202077206853
:102EB000C06910F4407F204602D0FFF791FF04E084
:102EC00000F09CF8204600F02EF925772068016973
:102ED000C943C90708D1C168C943C90704D1891EBC
:102EE0000161204600F084F920680169C9430906A0
:102EF00009D4C168C943090605D46FF08001016196
:102F00002046FFF789FD20680169C943490609D4B5
:102F1000C168C943490605D46FF0400101612046EC
:102F200000F094F920680169C94389060BD4C1688F
:102F3000C943890607D46FF0200101612046BDE82E
:102F40007040FFF76ABD70BDF0B587B0044614212C
:102F50006846FDF76FF924492068884241D123482B
:102F60000025016841F001010160016801F00101E3
:102F70000591016841F002010160016801F0020160
:102F80000591016841F0100101600068022400F021
:102F90001000059080208DE831000126CDE9034620
:102FA00069461348FEF768FE03208DE83100CDE93D
:102FB000034669460F48FEF75FFE4FF428508DE840
:102FC00031000D4FCDE9034669463846FEF754FE01
:102FD00060038DE83100CDE9035669463846FEF7B7
:102FE0004BFE07B0F0BD0000000001403038024049
:102FF000000002400004024000100240704770B51B
:10300000044690F83C0000260D4601280FD0012010
:1030100084F83C006AB1042A1DD0082A2FD00C2A5B
:103020003FD00126002084F83C00304670BD0220CD
:1030300070BD206801F0C2F82068816941F0080184
:1030400081612068816921F00401816120688169C2
:103050002A69114311E0206801F0E0F820688169D5
:1030600041F4006181612068816921F4806181619E
:10307000206881692A6941EA02218161D2E72068DA
:1030800001F002F92068C16941F00801C1612068BE
:10309000C16921F00401C1612068C1692A69114335
:1030A00011E0206801F024F92068C16941F4006151
:1030B000C1612068C16921F48061C1612068C16972
:1030C0002A6941EA0221C161ACE710B5040003D0CE
:1030D00094F83D0010B107E0012010BD002084F8F5
:1030E0003C00204600F01EF8022084F83D00211D1F
:1030F000206800F0D3FF012084F8460084F83E00E9
:1031000084F83F0084F8400084F8410084F84200CD
:1031100084F8430084F8440084F8450084F83D00B6
:10312000002010BD7047704710B50446022249B117
:1031300004290ED0082913D094F84100012816D094
:10314000012010BD94F83E000128F9D184F83E20FA
:103150000FE094F83F000128F2D184F83F2008E006
:1031600094F840000128EBD184F8402001E084F875
:1031700041200122206800F0F5FF16492068164A18
:10318000884201D0904203D1436C43F4004343642E
:103190002068884213D0B0F1804F10D00F49884288
:1031A0000DD00F4988420AD00E49884207D090427C
:1031B00005D00D49884202D00C49884204D181686B
:1031C00001F00701062903D0016841F00101016007
:1031D000002010BD00000140000401400004004038
:1031E00000080040000C0040004001400018004072
:1031F00070B5054600681049104C884212D121680C
:10320000481C01D0491C21600D4E01221146304658
:10321000FEF72AFE002201213046FEF725FE09486E
:10322000FEF778FA08492868884204D16068411C92
:1032300001D0401C606070BD0000014060000020B3
:10324000001002404001002000100040704770470D
:1032500070470000F8B5016804460868CA684B6901
:1032600010F00F0F4FF0000559D003F0010602F4E3
:103270009077374365D0C10705D0D10503D5216CC0
:1032800041F001012164410705D5D90703D0216C24
:1032900041F002012164810705D5D90703D0216CD3
:1032A00041F004012164010707D502F020013143F8
:1032B00003D0216C41F008012164216C00293AD02F
:1032C000800604D5900602D5204601F08BF82068D0
:1032D0004069216CC0F38010090700D460B3204618
:1032E00001F059F820684069400621D52068143063
:1032F00050E8001F21F0400140E80012002AF5D1FB
:10330000A06BA8B16C490165A06BFEF790FC00288A
:1033100011D0A06B016D01B0BDE8F04008478306F5
:103320000FD593060DD52046BDE8F84001F05AB8F8
:103330002046FFF78DFFF8BD2046FFF789FF256483
:10334000F8BD266B2023012E79D1C60677D5D60687
:1033500075D50868486800904869400640D5A16B5B
:10336000086840680004000CEAD0A28D8242E7D9C8
:10337000E085C869B0F5807F2DD020680C3050E81A
:10338000001F21F4807140E80012002AF5D1206866
:10339000143050E8001F21F0010140E80012002A1B
:1033A000F5D12068143050E8001F21F0400140E8BA
:1033B0000012002AF5D184F83E30256320680C30D5
:1033C00050E8001F21F0100140E80012002AF5D15A
:1033D000A06BFEF7E3FBA08DE18D401A81B229E0DE
:1033E000A08DE18D401A81B2E08D0028A8D000297F
:1033F000A6D020680C3050E8002F22F4907240E8EC
:103400000026002EF5D12068143050E8002F22F05D
:10341000010240E80026002EF5D184F83E302563F5
:1034200020680C3050E8002F22F0100240E8002302
:10343000002BF5D12046FFF70AFFF8BDFFE7050690
:103440002BD5150629D594F83D002128F5D1A06883
:10345000B0F5805F01D12069B0B1206A411C2162C2
:10346000216800784860E08C401E0004000CE08475
:10347000E3D12068C16821F08001C1602068C16883
:1034800041F04001C160D8E7206A0088C0F308001D
:103490004860206A801C2062E5E74006CDD55006D2
:1034A000CBD5CA68204622F04002CA6084F83D307D
:1034B00000F009F9C1E700008743000870B5040077
:1034C00004D094F83D00002510B106E0012070BD45
:1034D00084F83C50204600F023F8242084F83D0076
:1034E0002068C16821F40051C160204600F0DAFF75
:1034F0002068016921F4904101612068416921F04F
:103500002A0141612068C16841F40051C16025640D
:10351000202084F83D0084F83E00002070BD0000AB
:1035200010B586B0044614216846FCF783FE18499E
:103530002068884229D117480021026842F0100211
:103540000260006800F0100005901248143802680C
:1035500042F001020260006800F0010005904FF4A3
:10356000C06000900220CDE90101032003900720F4
:10357000049069460848FEF77FFB002201212520C0
:10358000FEF764FF2520FEF753FF06B010BD0000D4
:1035900000100140443802400000024090F83E30E4
:1035A000202B0ED159B152B190F83C30012B08D0EC
:1035B000012380F83C300023036300F0F9BF0120B1
:1035C000704702207047000000680C49884214D1FF
:1035D0000B4801780D2907D00A290AD00A4A094B5D
:1035E00010681954401C1060012205490748FFF774
:1035F000D5BF074901200860F6E770470010014079
:1036000078000020FC0200207C0000206C020020DA
:10361000800000202DE9F843044690F83D001F4645
:1036200016460D4620284CD1C5B1BEB194F83C00D9
:10363000012846D0012084F83C004FF00008C4F86F
:103640004080212084F83D00FEF714FCA6848146CA
:10365000E684A068B0F5805F03D004E00120BDE8F7
:10366000F883206928B12E465FF0000584F83C807D
:103670000EE00026FAE78021204600F0B6FFA0B950
:10368000AEB116F8010B21684860E08C401EE08462
:10369000E08C4B464FF0000200970028EBD14FF032
:1036A0004001204600F0A1FF30B10320D7E735F8F4
:1036B000020BC0F30800E6E7202084F83D0000205C
:1036C000CDE70220CBE77047FEE701684A69D243A5
:1036D00052050FD46FF480624A61002140F8301F18
:1036E000202242738173026942F004020261017375
:1036F00001207047002070472DE9F84F0446C06A4A
:103700001E4693460D4621680A6842F480620A60AC
:10371000082807D0012805D010F5803F02D0206B83
:10372000112804D12068016841F4807101604FF0D4
:1037300001195B46002249462046009600F0C6F873
:103740004FF4007840B120680068C00501D5C4F886
:1037500040800320BDE8F88F2069DFF884A0B0F531
:10376000804F0FD00620216800EAD51747F0F000FF
:10377000086133465A460AF10601204600F0DAF89D
:1037800058BB03E0E8B240F001001CE02168E8B259
:10379000086133465A465146204600F0CBF8E0B95E
:1037A0002068416981690091016841F4807101607C
:1037B0005B46002249462046009600F087F8002824
:1037C000C1D147F0F1002168086133465A4651469D
:1037D000204600F0AFF80028BCD00120BAE7000076
:1037E00002000100F8B50446C06A1E460D461746A1
:1037F000082807D0012805D010F5803F02D0206BA3
:10380000122804D12068016841F4807101601346D8
:1038100000224FF001112046009600F057F840B109
:1038200020680068C00502D54FF4007020640320B2
:10383000F8BD2069B0F5804F0ED00620216800EA5F
:10384000D51040F0F000086133463A460B49204657
:1038500000F070F878B902E005F0FE0000E0E8B290
:1038600021680861054933463A46891F204600F021
:1038700061F80028DCD00120F8BD0000080001003C
:1038800070B516460D4604460DE02046FFF71DFFB5
:1038900008B1012070BD681C05D0FEF7EBFA801B53
:1038A000A84207D835B120684069C0434007ECD42E
:1038B000002070BD002044F8300F20216173A073F8
:1038C000216941F0200121612073E2E72DE9F047F1
:1038D0001E4690460D460446C1F30747DDF820908A
:1038E00008E0701C06D0FEF7C5FAA0EB0900B04254
:1038F0000FD876B12068012F18D0806925EA000022
:103900000004000C14D000214145EAD00020BDE89D
:10391000F087002044F8300F20216173A0732169E3
:1039200041F02001216120730120F0E74069E5E7C3
:103930000121E9E72DE9F0479A4691460E460446F3
:1039400000254FF02008C1F3074725E020684069B3
:10395000C043400514D42068016841F4007101603F
:1039600021686FF480604861256384F83D8084F8A5
:103970003E50206C40F00400206484F83C501FE06E
:10398000B9F1FF3F08D0FEF775FAA0EB0A014945EF
:103990000CD8B9F1000F09D02068012F13D080692D
:1039A00026EA00000004000C0BD0CFE744F8305F9B
:1039B00084F80D80A573206940F0200020612573F4
:1039C0000120BDE8F0874069EAE72DE9F0410025D4
:1039D00090460E460446202717E04069C043C006C3
:1039E0000CD454F8301B6FF01000486144F81059A3
:1039F0006777A577206A2062257717E0FEF73AFA05
:103A0000A0EB0800B04208D83EB120684169C94324
:103A10004906E2D40020BDE8F08144F8305F6773C6
:103A2000A573206940F02000206125730120F2E792
:103A300070B516460D4604460DE02046FFF745FEDC
:103A400008B1012070BD681C05D0FEF713FA801B79
:103A5000A84207D835B120684069C0430006ECD4BD
:103A6000002070BD002044F8300F20216173A07346
:103A7000216941F0200121612073E2E7B4EEE00A00
:103A8000F1EE10FA02D2B0EE600A7047B4EEC10A4D
:103A9000F1EE10FAF9DDB0EE410A704730B58DB0A5
:103AA0000024089409940A94202168460B94FCF79A
:103AB000C1FB28482649012501604FF4803105618A
:103AC000C0E90114047680F820402349C0E90A14B3
:103AD000C902C561C16080F830404561FDF7FBFF58
:103AE00008B1FDF708FB0895CDE9095408A9194864
:103AF000FDF7B2FE08B1FDF7FEFA019500954FF40F
:103B000080100294CDE9064003258DF815400495F8
:103B10008DF8144069460F480394FDF765FC08B121
:103B2000FDF7E9FA02200090019069460948FDF787
:103B30005BFC08B1FDF7DFFA69460648CDE90045B0
:103B4000FDF752FC002801D0FDF7D5FA0DB030BDCD
:103B500000200140400100200100000F30B587B077
:103B600014216846FCF766FB19480024016841F0FF
:103B700080010160016801F080010591016841F058
:103B800001010160016801F001010591016841F046
:103B900002010160016801F002010591016841F034
:103BA0001001016000680B4D00F01000059001222B
:103BB00003212846FEF758F903210120CDE9001022
:103BC000CDE9024169462846FEF756F807B030BDF8
:103BD00030380240001002400D4810B50B4901601A
:103BE0000C49416000214FF480428160C0E903121A
:103BF00041618161C1610162FEF742F9002803D091
:103C0000BDE81040FDF777BA10BD00000054004039
:103C100088010020801A060070B596B000240F9429
:103C200010941194129413941C2168461494FCF778
:103C300001FB202107A8FCF7FDFA3A4838494FF468
:103C40008075C0E900142021816041F28241C0E901
:103C500003158021C0E90541FEF7B2FF08B1FDF769
:103C60004AFA4FF480500F900FA92E48FFF74AF8F8
:103C700008B1FDF740FA2B48FFF727FA08B1FDF726
:103C80003AFA7026CDE9136413A92648FEF7F0FE30
:103C900008B1FDF730FA6020CDE9000402940394E6
:103CA00004940594002269461E480694FFF7A7F97C
:103CB00008B1FDF720FA042269461A48FFF79FF978
:103CC00008B1FDF718FA082269461648FFF797F978
:103CD00008B1FDF710FA41F21E40CDE900600C2258
:103CE00069461048FFF78BF908B1FDF704FA4FF465
:103CF000006007904010CDE908051020CDE90A04C6
:103D000040020C9007A90E940648FEF787FE08B102
:103D1000FDF7F1F90348FFF717F916B070BD000081
:103D200000000140DC0100201CB500240F48009475
:103D30000D4901940160A721C0E9011440F2E73167
:103D4000C16080218161FEF73BFF08B1FDF7D3F927
:103D50000094694605480194FEF78AFE002801D0C8
:103D6000FDF7C9F91CBD000000100040240200202E
:103D70000C4810B50A4901604FF4E131416000215F
:103D800081600C22C160C0E904128161C161FFF74A
:103D900095FB002803D0BDE81040FDF7ACB910BD7D
:103DA000001001406C020020FEE7FEE710B504465B
:103DB0002DED028B90ED150AFDF70CF8B0EE408A60
:103DC00094ED150AFDF752F8D4ED060A20EEC00A6C
:103DD00084ED030A20EE880A84ED040ABDEC028B10
:103DE00010BD10B504462DED028B90ED150AFCF7C1
:103DF000F1FFF0EE400A94ED150AB0EE608AFDF78F
:103E000035F894ED0A1AD4ED0B1A61EE080A41EE6A
:103E1000800AC4ED0D0A61EE880A41EE400AC4ED45
:103E20000C0ABDEC028B10BD7047704710B50446FC
:103E3000FDF798FA0648C168204688472046BDE845
:103E40001040F2EE060A9FED030AFDF757B9000095
:103E50006800002000007A46DFED231A00B590EDDF
:103E6000000AB2EE041AF0EE610AFFF707FE80EDD9
:103E7000000A90ED010AB2EE041AF0EE610AFFF7B3
:103E8000FDFD80ED010A90ED020AB2EE041AF0EE9B
:103E9000610AFFF7F3FD80ED020AD0ED000AB2EEF1
:103EA000080A134980EE801ADFED100A21EE201A6D
:103EB000BCEEC11A11EE102A4A63D0ED011A81EE50
:103EC000801A21EE201ABCEEC11A11EE102A8A6364
:103ED00090ED021AC1EE001A21EEA00ABCEEC00A53
:103EE00010EE100AC86300BD000000000010A445D9
:103EF0000000014070B5B0EE080A2DED028B0446BB
:103F00009FED168A80ED060A154D80ED058A80ED3D
:103F1000158AE96888476968204688472046FFF780
:103F20009BFF40F6B830FDF795FE01F0E7F884ED11
:103F3000160A1420FDF78EFE84ED068A84ED058AAC
:103F400084ED158AE96820468847696820468847D5
:103F5000012084F87400BDEC028B70BD00000000ED
:103F600068000020FEF70ABA30B593B030216846E9
:103F7000FCF760F914210CA8FCF75CF91D4800253A
:103F8000016841F080510160006800F0805011909C
:103F90001948016841F4804101600068022400F47E
:103FA0008040119001200090000401908001CDE933
:103FB000064008AA0420A82182E813000B90684656
:103FC000FEF760FB08B172B6FEE70CA90F2081E88E
:103FD00031004FF4A0500F904FF480501090052105
:103FE0000CA8FEF765FA002801D072B6FEE713B000
:103FF00030BD0000403802400070004002480168B7
:1040000041F470010160704788ED00E010B50021B7
:104010001848FFF789F804211648FFF785F80821AA
:104020001448FFF781F80C211248FFF77DF80021B2
:104030001048FEF765FD04210E48FEF761FD0821DA
:104040000C48FEF75DFD0B480068416C41F40041EF
:1040500041640948FFF74EFF0648FEF713FE074884
:10406000FEF710FE0648FDF7E7FABDE810400448E9
:10407000FDF750BBDC01002090000020240200204E
:10408000400100200148FEF7ACBE0000DC0100202A
:104090000148FEF7A6BE000024020020F0B5026829
:1040A000254C264D264E274F274B4FF0804CA042E3
:1040B00009D0604507D0A84205D0B04203D0B8422D
:1040C00001D0984204D122F0700E4A6842EA0E02F2
:1040D000A0421BD0604519D0A84217D0B04215D0DD
:1040E000B84213D0984211D0184DA8420ED0184DA6
:1040F000A8420BD0174DA84208D0174DA84205D0B2
:10410000164DA84202D0164DA84203D122F44075A4
:10411000CA682A434D6922F080022A4302608A68F5
:10412000C2620A688262A04201D0984201D1096944
:10413000016301214161F0BD000001400004004025
:1041400000080040000C0040000401400040014015
:10415000004401400048014000180040001C00409D
:104160000020004010B501F01F030121046A9940AE
:104170008C430462016A9A401143016210BD10B57C
:1041800001F01F030421046A99408C430462016A10
:104190009A401143016210BD10B5846842EA0322BF
:1041A00024F47F440A432243826010BD826822F0D7
:1041B00070020A4342F0070181607047F0B5026A5D
:1041C00022F001020262036A42688469124E24F0FE
:1041D00073050C682C4323F002058B682B430D4DAF
:1041E000A84201D0B04205D123F00807CB683B4379
:1041F00023F00403A84201D0B04205D14D6922F456
:10420000407215438A692A43426084614968416368
:104210000362F0BD0000014000040140F0B5026AF5
:1042200022F010020262026A436884690D6824F475
:10423000E64444EA05248D6822F0200242EA051291
:104240000F4D104EA84201D0B04206D1CF6822F0E7
:10425000800242EA071222F04002A84201D0B04296
:1042600007D14D6923F4406343EA85038D6943EA2E
:10427000850343608461496881630262F0BD000088
:104280000000014000040140F0B5026A22F480728F
:104290000262026A4368C46922F4007224F0730562
:1042A0000C68124E2C438D6842EA05220E4DA8423E
:1042B00001D0B04206D1CF6822F4006242EA072260
:1042C00022F48062A84201D0B04207D14D6923F4A4
:1042D000405343EA05138D6943EA05134360C46103
:1042E0004968C1630262F0BD000001400004014062
:1042F00030B5026A22F480520262046A4268C369DD
:104300000D6823F4E64343EA05238D6824F4005442
:1043100044EA0534084DA84202D0084DA84204D111
:104320004D6922F4804242EA85124260C3614968C5
:104330000164046230BD000000000140000401403F
:1043400010B5036A046A24F001040462846924F04D
:10435000F00444EA021423F00A020A438461026270
:1043600010BD10B5036A23F0100303628369046A69
:1043700023F4704343EA023224F0A00343EA01111C
:104380008261016210BD10B5806B0021C185C184BE
:10439000FEF75EFF10BD01680C3151E8002F22F4DA
:1043A000907241E80023002BF5D10168143151E8E7
:1043B000002F22F0010241E80023002BF5D1016B10
:1043C000012909D101680C3151E8002F22F01002B7
:1043D00041E80023002BF5D1202180F83E10002178
:1043E0000163704708B590F83E10222901D00220E1
:1043F00008BD82684FF480539A4201D1016921B10E
:10440000816A9A421BD04AB10AE00268816A526806
:10441000C2F308020A80816A891C08E0026972B14D
:104420000268526802F07F020A70816A491C816248
:10443000C18D491E0904090CC18503D019E0026829
:104440005268F1E70168CA6822F02002CA60016878
:10445000CA6822F48072CA6001684A6922F00102C7
:104460004A61202180F83E10016B012903D0FFF73B
:10447000ABF8002008BD0021016301680C3151E850
:10448000002F22F0100241E80023002BF5D1016833
:104490000A68D20602D50A6849680091818DFEF744
:1044A000D6FEE6E770B5044600680169E26821F4CB
:1044B0004051114301612169A068E26908436169C3
:1044C000114308432168CA6849F20C639A430243C6
:1044D000CA6020684169A26921F4407111434161B9
:1044E00031492068884202D03049884202D1FEF723
:1044F00089F801E0FEF776F8E269002319216425C6
:104500003226B2F5004F626828D0A0FB0101930F5C
:104510009200FBF757FE0146B0FBF5F06FF0180272
:10452000504301EB800006EB0010B0FBF5F000F00B
:10453000F002B1FBF5F002EB0012B1FBF5F06FF009
:104540001803584301EB800006EB0010B0FBF5F0B8
:1045500000F00F0021681044886070BDA0FB0101CD
:1045600092185B41FBF72EFE0146B0FBF5F002010D
:10457000B1FBF5F06FF01803584301EB800006EB38
:10458000C000B0FBF5F000F0F80002EB4002B1FB18
:10459000F5F0584301EB800006EBC000B0FBF5F0EE
:1045A00000F00700D6E700000010014000140140B1
:1045B00081628285C28500210164222280F83E202A
:1045C00080F83C10016921B10168CA6842F4807228
:1045D000CA6001684A6942F001024A610068C16824
:1045E00041F02001C160002070472DE9F04198465C
:1045F00017460E460446069D27E0681C25D02DB1BF
:10460000FDF738FCA0EB0800A8421ED920680C304A
:1046100050E8001F21F4D07140E80012002AF5D1C3
:104620002068143050E8001F21F0010140E800121A
:10463000002AF5D1202084F83D0084F83E000020B7
:1046400084F83C000320BDE8F0812068006836EA69
:10465000000004D00020B842CFD00020F3E70120B2
:10466000F9E700000148FEF7F5BD00006C020020EC
:10467000012202490248FEF791BF000078000020A5
:104680006C020020FEE700000FB4054B10B503A933
:10469000044A029800F0AEF910BC5DF814FB00006B
:1046A0000D540008880000200907090E002804DBCB
:1046B00000F1E02080F80014704700F00F0000F1D6
:1046C000E02080F8141D704730B583B0044600F038
:1046D000ABF89FED090B05468DED000B002221463E
:1046E0006846FCF734F8284600F0B4F89DED000B5E
:1046F00003B030BD0000000000000000000000001A
:1047000010B52DED040B86B09DED060B10EE100AD2
:1047100010EE901A8DED000B002818BF0120084301
:1047200020F00040C0F17F6000F1E040C00F21D1D7
:104730009DED080B10EE101A10EE900A8DED000B97
:10474000002918BF0121084320F00040C0F17F601C
:1047500000F1E040C00F0DD129490798B1EB400F9F
:1047600004BF0698002842D00998400004BF08986A
:1047700000283CD09DED080B53EC102B9DED060B53
:1047800051EC100BFCF7AAF8CDE902019DED020BEC
:1047900040F2FF7110EE900A8DED000B31EA1050DF
:1047A00021D00798039900F0004001F000418842B1
:1047B00019D09DED080B8DED040B9DED020B8DEDD9
:1047C000000B10EE900A059961F31E0005909DED17
:1047D000041B9DED020B51EC110B53EC102BFBF75E
:1047E00021FECDE902019DED020B0AB010BD0120B2
:1047F00000F030F80AB0BDE8104000F005B8000045
:104800000000E0FF000000009FED050B10B553EC29
:10481000102B51EC100BFBF77AFE41EC100B10BD86
:104820000000000000000000014800687047000020
:104830008C00002002E008C8121F08C1002AFAD12B
:1048400070477047002001E001C1121F002AFBD110
:104850007047000001490860704700008C0000208C
:104860002DE9FF5F82B00021DDE90430020DDDF8A3
:1048700040B0034318D044F61050A2F2FF32424336
:104880001514119801281FD0A5EB0B00401C5FEAFE
:10489000000A4FF000064E4FDFF83891B046504600
:1048A00015D5CAF1000413E0119801244AA3012888
:1048B00001D16FEA0B010298119AC0E90031C0E9F9
:1048C000024206B0BDE8F09FCBF10000DFE70446EE
:1048D0000021404A491842EB0450CDE9001012E093
:1048E000E00707D032463B4640464946FBF79DFD70
:1048F0008046894632463B4610461946FBF795FDF1
:1049000006460F466410002CEAD1DDE90401DDE91A
:104910000023BAF1000F06DAFBF787FD42464B464B
:10492000FBF783FD05E0FBF7F2FD42464B46FBF744
:10493000EEFD04460E460022284BFCF72BF803D868
:104940004FF0FF30014607E00022254B204631465C
:10495000FBF7C4FCFCF705F8102409E0002C0ADB87
:104960000A220023FBF72EFC039B30321A55641EEB
:1049700050EA0102F2D1641C039AC4F111031444F9
:10498000119A012A03D0012208430DD10AE00843FD
:1049900004D000204FF0110B119072E7A3EB0B0530
:1049A0006D1E0DE05B4504DD4FF0000205F10105D1
:1049B00004E003DA4FF00002A5F10105002AECD073
:1049C00002981199C0E90231C0E9004579E7000079
:1049D000000014400000F03F300000000000F043F1
:1049E0000000E03F30380A2801D201207047002043
:1049F000704700002DE9FF4F95B09A46884606465D
:104A00000025EEE1252877D100242746F94A012127
:104A1000039400E0044316F8013F203B01FA03F041
:104A20001042F7D130782A2811D06FF02F03307858
:104A3000A0F13002092A16D8039A44F0020402EBCE
:104A4000820203EB42021044761C0390EFE758F811
:104A5000042B0392002A03DA504244F400540390DA
:104A600044F00204761C30782E2816D116F8010F77
:104A700044F004042A280DD06FF02F023078A0F102
:104A80003003092B09D807EB870302EB4303C71850
:104A9000761CF3E758F8047B761C30786C280FD02E
:104AA00006DC4C2817D068280DD06A2814D104E001
:104AB000742810D07A280FD10DE044F400140AE0D5
:104AC00044F4801401E044F440147278824202D12C
:104AD00004F58014761C761C307866280BD013DC25
:104AE000582877D009DC002875D04528F6D046280C
:104AF000F4D047281AD193E118E0632835D0642810
:104B000079D0652812D18BE1702873D008DC672832
:104B1000F1D069286FD06E280DD06F2806D1ACE097
:104B200073282CD0752874D0782853D05246179902
:104B300090476D1C54E1C4F30250022809D00328A9
:104B40000DD0D8F8001004280DD00D6008F104082D
:104B500046E1D8F80010EA17C1E90052F6E7D8F8A4
:104B600000100D80F2E70D70F0E718F8041B8DF8C7
:104B7000001000208DF80100EB46012003E058F8FA
:104B800004BB4FF0FF3061074FF0000102D40DE08D
:104B900009F101018946B9420FDA8145F8DB1BF8BA
:104BA00009100029F4D108E009F101018946814288
:104BB000FADB1BF809100029F6D103985346A0EB45
:104BC000090721463846179A00F080FA284400EB7E
:104BD000090507E044E008E10DE01BF8010B52462F
:104BE00017999047B9F10109F7D253462146384643
:104BF000179AF2E039E00A21C4F302524FF0000B99
:104C00000091022A06D058F8040BC117032A09D0D4
:104C10000AE023E008F1070020F00702F2E80201B1
:104C2000904605E000B2C117042A01D140B2C11775
:104C3000002906DA0A460021404261EB02012D22DA
:104C400002E0220504D52B228DF80420012203E086
:104C5000E20701D02022F7E7914657E00A2100E061
:104C600010214FF0000B00910BE010214FF0000BD2
:104C700044F004040827009103E008204FF0000BE3
:104C80000090C4F30252022A05D058F8040B002108
:104C9000032A08D008E008F1070020F00702F2E834
:104CA0000201904603E080B2042A00D1C0B24FF066
:104CB000000922072AD53278702A07D0DDF800C013
:104CC0008CF0100C5CEA0B0C05D00EE040228DF845
:104CD0000420012208E050EA010306D030238DF8B9
:104CE00004308DF8052002229146009B83F00803D2
:104CF00053EA0B030AD150EA010201D1620705D53C
:104D000030228DF804204FF001097F1E3278582A96
:104D100004D039A20C920CAA02920BE03BA2F9E754
:104D20005B46009AFBF74EFA0C9B9B5C029A521E64
:104D30000292137050EA0102F2D1029804A9081AF3
:104D400000F1200B600702D524F4803400E0012735
:104D50005F4502DDA7EB0B0000E0002000EB0B013C
:104D6000009003984944401A0390E00306D4534648
:104D70002146179A039800F0A9F90544002706E098
:104D800001A85246C05D179990476D1C7F1C4F4586
:104D9000F6DBE0030CD553462146179A039800F042
:104DA00095F9054404E030205246179990476D1C50
:104DB0000099481E00900029F5DC08E0029802994D
:104DC00052460078491C0291179990476D1CBBF11F
:104DD0000001ABF1010BF1DC5BE100F065F905448A
:104DE000761C307800287FF40DAE19B02846BDE857
:104DF000F08F000009280100303132333435363766
:104E00003839616263646566000000003031323316
:104E100034353637383941424344454600000000B6
:104E2000600700D4062708F1070020F00700F0E82B
:104E30000223804603F0004C5FEA0C0001D097A0EB
:104E400009E0200501D596A005E0E00701D095A076
:104E500001E0AFF24C001390307823F00043652856
:104E60000CD006DC452809D046281DD047287FD124
:104E70003BE0662818D067287AD136E00021112F50
:104E800001DB112000E0781CCDE9000104A90CA889
:104E9000FFF7E6FCDDE90D010C9A4FF0000B07F17E
:104EA0000109109200914EE04FF000400097CDE9CB
:104EB000011004A90CA8FFF7D3FCDDE90D020C9B3F
:104EC0000F994FF0000B91461093009211B9791C85
:104ED00000EB0109B7EB090003D4C0F1FF3B07F178
:104EE0000109A9EB0700019042E0012F00DA012738
:104EF0000021112F01DD112000E03846CDE900012D
:104F000004A90CA8FFF7ACFCDDE90D010C9A009197
:104F10004FF0000BB946109221070FD4009A4A4572
:104F200003DA914601E0A9F10109B9F1010F05DDAC
:104F3000109AA9F10101515C3029F4D0B84202DA8B
:104F400010F1040F03DA0121CDE9011010E000286F
:104F500003DC8344A9EB000102E0411C494500DD6C
:104F60008946A0EB0B00401C01904FF000400290DE
:104F7000200705D40198484502DB4FF0FF3001902F
:104F800000208DF84B0002980DF14B07B0F1004F57
:104F900025D002200C902B200D90029800280CDACE
:104FA000404202902D200D9007E00A210298FBF765
:104FB0006BFB3031029007F8011D0C99481E0C90D4
:104FC0000029F2DC02980028EFD1791E0D980870B4
:104FD000307800F0200040F0450007F8020D11A8DD
:104FE000C01BC01D02901398007800B1012000EB97
:104FF0000901019801EBE071029801440398401AFD
:10500000401E0390E00306D453462146179A0398A6
:1050100000F05CF805441398007818B152461799CF
:1050200090476D1CE00323D553462146179A0398F9
:1050300000F04CF805441BE0BBF1000F07DB0098C3
:10504000584504DD1098179910F80B0001E01799E6
:1050500030205246904701980BF1010B401E05F19C
:105060000105019004D12E205246179990476D1CDE
:10507000B9F10001A9F10109DEDC05E017F8010B27
:105080005246179990476D1C0299481E02900029BC
:10509000F4DC53462146179A03989EE62D00000043
:1050A0002B000000200000002DE9F04104460025FF
:1050B0001E461746880404D405E039462020B04730
:1050C0006D1C641EF9D52846BDE8F0812DE9F0413C
:1050D000044600251E469046C80301D5302700E04F
:1050E0002027880404D505E041463846B0476D1CAA
:1050F000641EF9D52846BDE8F081000010B52DEDFD
:10510000048B00F061F800EE100A284CF8EE408A9B
:1051100094ED000A38EEC08AB5EEC08AF1EE10FABE
:1051200002DDB0EE480A01E0B1EE480A10EE100AC6
:105130001F499FED209B884219DB6068FBF775FAD9
:1051400041EC100BB5EEC08AF1EE10FA02DD9FEDD6
:105150001B1B03E0B0EE491AF0EE691A53EC112B59
:1051600051EC100BFBF7BAF8FBF772FA60609FED99
:10517000150AC4ED008A28EE800A10EE100AFBF72B
:1051800054FA53EC192BFBF750F941EC180B6068FB
:10519000FBF74BFA53EC182BFBF7A0F8FBF758FA88
:1051A000BDEC048B00EE100A10BD000018000020BA
:1051B000CDCC4C45EA2E4454FB211940EA2E4454F0
:1051C000FB2119C0000080393EB5002001900B2062
:1051D0000C2400908DF808406C2102AA0123074896
:1051E000FDF702F801AA02236D2104480094FCF7A0
:1051F0000BFFBDF8040040BA3EBD0000880100204E
:1052000010B5084C9FED060A84ED010AFFF7DCFF9C
:1052100000EE100AB8EE400A84ED000A10BD00004E
:10522000000000001800002070B5344D68680028A8
:105230005ED0002432A06C60FFF726FA32A133481A
:10524000FBF71CF8002831D031A13048FBF716F8E5
:1052500000282FD030A12D48FBF710F800282CD0C3
:105260002FA12A48FBF70AF8002829D02FA12748A8
:10527000FBF704F8002826D02FA12448FAF7FEFFF8
:1052800020B331A12148FAF7F9FF08B331A11F4833
:10529000FAF7F4FFE0B132A11C48FAF7EFFFB8B11A
:1052A00031A11A48FAF7D1FF90B912E030A0FFF708
:1052B000EBF915E000F030FA12E000F0B3F80FE07F
:1052C00000F088F80CE000F069F809E000F08AFAD4
:1052D00006E02AA10D48FAF7B8FF50B100F02AFA0B
:1052E0002868002803DB09490C54401EFCD52C60BB
:1052F00070BD064924A0FFF7C7F9DEE77C00002057
:10530000636D643E2000000068690000FC0200201C
:105310007265626F6F74000068656C700000000059
:1053200064656275675F6F6E00000000646562759A
:10533000675F6F666600000073686F775F656E6316
:105340006F6465720000000073686F775F666F635B
:10535000000000007365745F7571756400000000E3
:105360007365745F706F73007365745F7069640058
:1053700068692074686572657E0D0A007365745FE4
:105380007370656564000000756E6B6E6F776E20DC
:10539000636D6420272573270D0A000001A0FFF725
:1053A00073B9000064656275675F6F66662C20657F
:1053B0006C6F675F7365745F66696C7465725F6C50
:1053C000766C3A20454C4F475F4C564C5F494E46F1
:1053D0004F0D0A0001A0FFF757B900006465627520
:1053E000675F6F6E2C20656C6F675F7365745F66B7
:1053F000696C7465725F6C766C3A20454C4F475F00
:105400004C564C5F44454255470D0A0013B54FF4C6
:105410007A73012269460248FEF7FCF801201CBDA0
:105420006C02002010B513A0FFF72EF917A0FFF7AC
:105430002BF923A0FFF728F92EA0FFF725F939A0B3
:10544000FFF722F946A0FFF71FF955A0FFF71CF957
:1054500060A0FFF719F96CA0FFF716F978A0FFF725
:1054600013F98548FFF710F9BDE8104083A0FFF756
:105470000BB90000417661696C61626C6520636FF5
:105480006D6D616E64733A200D0A0000686920201A
:10549000202020202020202020202020202020200C
:1054A000202D2D2D2D2D2D2D2D2D2D20202020207A
:1054B00053617920686920746F206D650D0A0000C2
:1054C0007265626F6F742020202020202020202011
:1054D00020202020202D2D2D2D2D2D2D2D2D2D204A
:1054E0002020202053797374656D207265626F6F80
:1054F000740D0A0068656C70202020202020202078
:105500002020202020202020202D2D2D2D2D2D2D40
:105510002D2D2D202020202048656C70206C697373
:10552000740D0A0064656275675F6F6E202020202D
:105530002020202020202020202D2D2D2D2D2D2D10
:105540002D2D2D202020202053686F772064656248
:105550007567206D657373616765730D0A000000E0
:1055600064656275675F6F666620202020202020BA
:1055700020202020202D2D2D2D2D2D2D2D2D2D20A9
:1055800020202020446F6E27742073686F7720647A
:1055900065627567206D657373616765730D0A00D9
:1055A00073686F775F656E636F646572202020207B
:1055B00020202020202D2D2D2D2D2D2D2D2D2D2069
:1055C0002020202053686F77206173353630300DEE
:1055D0000A00000073686F775F666F6320202020E9
:1055E0002020202020202020202D2D2D2D2D2D2D60
:1055F0002D2D2D202020202053686F7720666F638B
:1056000020646174610D0A007365745F757175645F
:10561000202020202020202020202020202D2D2D63
:105620002D2D2D2D2D2D2D20202020205365742053
:1056300075712075642076616C75650D0A00000037
:105640007365745F706F732020202020202020203D
:1056500020202020202D2D2D2D2D2D2D2D2D2D20C8
:105660002020202053657420706F736974696F6EF9
:10567000206C6F6F700D0A00245900087365745F09
:1056800073706565642020202020202020202020A9
:10569000202D2D2D2D2D2D2D2D2D2D202020202088
:1056A000536574207370656564206C6F6F70200D96
:1056B0000A000000FCF76AFEFEF756FCFEF74EFA01
:1056C000FEF7ECF9FEF788FAFEF7A6FAFEF750FBB4
:1056D000FEF72AFB9FED0D0AFBF77CFB0C4880EDE3
:1056E000000AA820FBF7E2FCFFF78AFD4FF47A706E
:1056F000FCF7B0FAFEF7BCFF0649FF2081F8750001
:10570000FEF784FCFFF790FDFCE70000920A863F5D
:10571000000000209000002010B50348FEF7B4FF01
:1057200003490248086010BDDC5800080400FA056F
:105730000CED00E000B52DED048B89B00020049045
:10574000059006900790089008AB04AA1BA11C487E
:1057500000F074F80698FEF7B7FF51EC100BFAF75B
:1057600045FF00B200EE100A1648B8EEC00A80ED00
:10577000060A0798FEF7A8FFB0EE401AF0EE601A8E
:10578000B0EE419AF0EE619A0698FEF79DFFB0EEFA
:10579000401AF0EE601AB0EE418AF0EE618A059888
:1057A000FEF792FF53EC102B07A08DEC048BFEF755
:1057B0006BFF09B0BDEC048B00BD000020000000B1
:1057C000FC02002090000020095B252E32665D0956
:1057D0005B252E32665D095B252E31665D090D0A5B
:1057E000000000002DE9FF41DFF83880D8F82400E0
:1057F000FAF71BFF06460F46D8F82000FAF715FF08
:1058000004460D46D8F81C00FAF70FFF8DE8F000AB
:1058100041EC100B04A053EC102BFEF735FFBDE854
:10582000FF81000090000020252E326620252E32B8
:105830006620252E32660D0A000000002DE9F04199
:10584000984615460E4607004FF0000417D0FAF7A9
:105850000EFD002813D0002E11D03046FAF707FDB8
:1058600000280CD03146384603E001C531460020FF
:10587000641CFAF711FD0028F7D1C8F80040BDE814
:10588000F081000000000000000001020304060790
:1058900008090000000001020304DDDDDDDDDCBBE2
:1058A000BBDDDDDDDDDDDDDDDDDD98888888888838
:1058B000888877777777778888888555555666669C
:1058C0006666666666666668888883333332222237
:1058D0002222222222222228888D00000D0A5E5ECA
:1058E0005E5E5E5E5E5E5E5E5E5E5E5E5E5E5E5ED8
:1058F0005E5E5E53797374656D205265626F6F747E
:10590000696E675E5E5E5E5E5E5E5E5E5E5E5E5E93
:105910005E5E5E5E5E5E5E5E0D0A0D0A0D0A0D0A3B
:10592000000000007365745F7069642020202020EF
:105930002020202020202020202D2D2D2D2D2D2D0C
:105940002D2D2D2020202020536574206D6F746F25
:1059500072207069642C20666F726D61743A205BEE
:105960007365745F7069642050204920445D200D88
:105970000A00000000000000920E493CB10AC93C38
:105980002BC3163D2EFB483D752B7B3D04A9963D50
:1059900080B6AF3D36BDC83D2FBCE13D73B2FA3D88
:1059A00087CF093E8340163EB5AB223EA2102F3E64
:1059B000CF6E3B3EC2C5473E0115543E135C603E70
:1059C0007F9A6C3ECCCF783EC07D823E938E883EDF
:1059D000229A8E3E32A0943E86A09A3EE59AA03E40
:1059E000128FA63ED47CAC3EEF63B23E2A44B83E52
:1059F000491DBE3E15EFC33E53B9C93ECA7BCF3EDB
:105A00004136D53E80E8DA3E4F92E03E7533E63EC1
:105A1000BBCBEB3EEA5AF13ECBE0F63E275DFC3EC7
:105A2000E4E7003F3D9C033F824B063F9BF5083F68
:105A30006B9A0B3FDA390E3FCDD3103F2A68133FE4
:105A4000D9F6153FC07F183FC6021B3FD17F1D3FCF
:105A5000CBF61F3F9967223F25D2243F5636273F7A
:105A60001594293F4AEB2B3FDE3B2E3FBB85303F51
:105A7000C9C8323FF304353F233A373F4268393FC4
:105A80003B8F3B3FF9AE3D3F67C73F3F70D8413F3B
:105A900001E2433F03E4453F65DE473F12D1493F02
:105AA000F8BB4B3F029F4D3F207A4F3F3D4D513F4A
:105AB0004918533F31DB543FE595563F5348583F13
:105AC0006AF2593F1A945B3F532D5D3F05BE5E3F1E
:105AD0002146603F97C5613F5A3C633F59AA643FE6
